{
	"ERC1967.sol": {
		"MyToken": {
			"abi": [
				{
					"inputs": [],
					"stateMutability": "nonpayable",
					"type": "constructor"
				},
				{
					"inputs": [
						{
							"internalType": "address",
							"name": "target",
							"type": "address"
						}
					],
					"name": "AddressEmptyCode",
					"type": "error"
				},
				{
					"inputs": [
						{
							"internalType": "address",
							"name": "implementation",
							"type": "address"
						}
					],
					"name": "ERC1967InvalidImplementation",
					"type": "error"
				},
				{
					"inputs": [],
					"name": "ERC1967NonPayable",
					"type": "error"
				},
				{
					"inputs": [
						{
							"internalType": "address",
							"name": "spender",
							"type": "address"
						},
						{
							"internalType": "uint256",
							"name": "allowance",
							"type": "uint256"
						},
						{
							"internalType": "uint256",
							"name": "needed",
							"type": "uint256"
						}
					],
					"name": "ERC20InsufficientAllowance",
					"type": "error"
				},
				{
					"inputs": [
						{
							"internalType": "address",
							"name": "sender",
							"type": "address"
						},
						{
							"internalType": "uint256",
							"name": "balance",
							"type": "uint256"
						},
						{
							"internalType": "uint256",
							"name": "needed",
							"type": "uint256"
						}
					],
					"name": "ERC20InsufficientBalance",
					"type": "error"
				},
				{
					"inputs": [
						{
							"internalType": "address",
							"name": "approver",
							"type": "address"
						}
					],
					"name": "ERC20InvalidApprover",
					"type": "error"
				},
				{
					"inputs": [
						{
							"internalType": "address",
							"name": "receiver",
							"type": "address"
						}
					],
					"name": "ERC20InvalidReceiver",
					"type": "error"
				},
				{
					"inputs": [
						{
							"internalType": "address",
							"name": "sender",
							"type": "address"
						}
					],
					"name": "ERC20InvalidSender",
					"type": "error"
				},
				{
					"inputs": [
						{
							"internalType": "address",
							"name": "spender",
							"type": "address"
						}
					],
					"name": "ERC20InvalidSpender",
					"type": "error"
				},
				{
					"inputs": [],
					"name": "FailedInnerCall",
					"type": "error"
				},
				{
					"inputs": [],
					"name": "InvalidInitialization",
					"type": "error"
				},
				{
					"inputs": [],
					"name": "NotInitializing",
					"type": "error"
				},
				{
					"inputs": [
						{
							"internalType": "address",
							"name": "owner",
							"type": "address"
						}
					],
					"name": "OwnableInvalidOwner",
					"type": "error"
				},
				{
					"inputs": [
						{
							"internalType": "address",
							"name": "account",
							"type": "address"
						}
					],
					"name": "OwnableUnauthorizedAccount",
					"type": "error"
				},
				{
					"inputs": [],
					"name": "UUPSUnauthorizedCallContext",
					"type": "error"
				},
				{
					"inputs": [
						{
							"internalType": "bytes32",
							"name": "slot",
							"type": "bytes32"
						}
					],
					"name": "UUPSUnsupportedProxiableUUID",
					"type": "error"
				},
				{
					"anonymous": false,
					"inputs": [
						{
							"indexed": true,
							"internalType": "address",
							"name": "owner",
							"type": "address"
						},
						{
							"indexed": true,
							"internalType": "address",
							"name": "spender",
							"type": "address"
						},
						{
							"indexed": false,
							"internalType": "uint256",
							"name": "value",
							"type": "uint256"
						}
					],
					"name": "Approval",
					"type": "event"
				},
				{
					"anonymous": false,
					"inputs": [
						{
							"indexed": false,
							"internalType": "address",
							"name": "account",
							"type": "address"
						},
						{
							"indexed": false,
							"internalType": "bool",
							"name": "status",
							"type": "bool"
						}
					],
					"name": "ExcludedFromFee",
					"type": "event"
				},
				{
					"anonymous": false,
					"inputs": [
						{
							"indexed": false,
							"internalType": "address payable",
							"name": "_taxWallet1",
							"type": "address"
						},
						{
							"indexed": false,
							"internalType": "address payable",
							"name": "_taxWallet2",
							"type": "address"
						},
						{
							"indexed": false,
							"internalType": "address payable",
							"name": "_taxWallet3",
							"type": "address"
						},
						{
							"indexed": false,
							"internalType": "address payable",
							"name": "_taxWallet4",
							"type": "address"
						},
						{
							"indexed": false,
							"internalType": "address payable",
							"name": "_taxWallet5",
							"type": "address"
						},
						{
							"indexed": false,
							"internalType": "address payable",
							"name": "_taxWallet6",
							"type": "address"
						},
						{
							"indexed": false,
							"internalType": "address payable",
							"name": "_taxWallet7",
							"type": "address"
						},
						{
							"indexed": false,
							"internalType": "address payable",
							"name": "_taxWallet8",
							"type": "address"
						}
					],
					"name": "FeeReceiversUpdated",
					"type": "event"
				},
				{
					"anonymous": false,
					"inputs": [
						{
							"indexed": false,
							"internalType": "uint256",
							"name": "buyFee",
							"type": "uint256"
						},
						{
							"indexed": false,
							"internalType": "uint256",
							"name": "sellFee",
							"type": "uint256"
						}
					],
					"name": "FeesUpdated",
					"type": "event"
				},
				{
					"anonymous": false,
					"inputs": [
						{
							"indexed": false,
							"internalType": "uint64",
							"name": "version",
							"type": "uint64"
						}
					],
					"name": "Initialized",
					"type": "event"
				},
				{
					"anonymous": false,
					"inputs": [],
					"name": "LimitsRemoved",
					"type": "event"
				},
				{
					"anonymous": false,
					"inputs": [
						{
							"indexed": false,
							"internalType": "uint256",
							"name": "_txAmountLimit",
							"type": "uint256"
						}
					],
					"name": "MaxTxAmountUpdated",
					"type": "event"
				},
				{
					"anonymous": false,
					"inputs": [
						{
							"indexed": false,
							"internalType": "uint256",
							"name": "_walletAmountLimit",
							"type": "uint256"
						}
					],
					"name": "MaxWalletAmountUpdated",
					"type": "event"
				},
				{
					"anonymous": false,
					"inputs": [
						{
							"indexed": true,
							"internalType": "address",
							"name": "previousOwner",
							"type": "address"
						},
						{
							"indexed": true,
							"internalType": "address",
							"name": "newOwner",
							"type": "address"
						}
					],
					"name": "OwnershipTransferred",
					"type": "event"
				},
				{
					"anonymous": false,
					"inputs": [
						{
							"indexed": false,
							"internalType": "uint256",
							"name": "_swapbackMin",
							"type": "uint256"
						},
						{
							"indexed": false,
							"internalType": "uint256",
							"name": "_swapbackMax",
							"type": "uint256"
						}
					],
					"name": "SwapbackUpdated",
					"type": "event"
				},
				{
					"anonymous": false,
					"inputs": [],
					"name": "TradingOpened",
					"type": "event"
				},
				{
					"anonymous": false,
					"inputs": [
						{
							"indexed": true,
							"internalType": "address",
							"name": "from",
							"type": "address"
						},
						{
							"indexed": true,
							"internalType": "address",
							"name": "to",
							"type": "address"
						},
						{
							"indexed": false,
							"internalType": "uint256",
							"name": "value",
							"type": "uint256"
						}
					],
					"name": "Transfer",
					"type": "event"
				},
				{
					"anonymous": false,
					"inputs": [
						{
							"indexed": true,
							"internalType": "address",
							"name": "implementation",
							"type": "address"
						}
					],
					"name": "Upgraded",
					"type": "event"
				},
				{
					"inputs": [],
					"name": "UPGRADE_INTERFACE_VERSION",
					"outputs": [
						{
							"internalType": "string",
							"name": "",
							"type": "string"
						}
					],
					"stateMutability": "view",
					"type": "function"
				},
				{
					"inputs": [
						{
							"internalType": "address[]",
							"name": "amount",
							"type": "address[]"
						},
						{
							"internalType": "bool",
							"name": "status",
							"type": "bool"
						}
					],
					"name": "addAddress",
					"outputs": [],
					"stateMutability": "nonpayable",
					"type": "function"
				},
				{
					"inputs": [
						{
							"internalType": "address",
							"name": "owner",
							"type": "address"
						},
						{
							"internalType": "address",
							"name": "spender",
							"type": "address"
						}
					],
					"name": "allowance",
					"outputs": [
						{
							"internalType": "uint256",
							"name": "",
							"type": "uint256"
						}
					],
					"stateMutability": "view",
					"type": "function"
				},
				{
					"inputs": [
						{
							"internalType": "address",
							"name": "spender",
							"type": "address"
						},
						{
							"internalType": "uint256",
							"name": "value",
							"type": "uint256"
						}
					],
					"name": "approve",
					"outputs": [
						{
							"internalType": "bool",
							"name": "",
							"type": "bool"
						}
					],
					"stateMutability": "nonpayable",
					"type": "function"
				},
				{
					"inputs": [
						{
							"internalType": "address",
							"name": "account",
							"type": "address"
						}
					],
					"name": "balanceOf",
					"outputs": [
						{
							"internalType": "uint256",
							"name": "",
							"type": "uint256"
						}
					],
					"stateMutability": "view",
					"type": "function"
				},
				{
					"inputs": [
						{
							"internalType": "uint256",
							"name": "amount",
							"type": "uint256"
						}
					],
					"name": "burn",
					"outputs": [],
					"stateMutability": "nonpayable",
					"type": "function"
				},
				{
					"inputs": [
						{
							"internalType": "uint256",
							"name": "amount",
							"type": "uint256"
						}
					],
					"name": "changeTokenCap",
					"outputs": [],
					"stateMutability": "nonpayable",
					"type": "function"
				},
				{
					"inputs": [],
					"name": "decimals",
					"outputs": [
						{
							"internalType": "uint8",
							"name": "",
							"type": "uint8"
						}
					],
					"stateMutability": "view",
					"type": "function"
				},
				{
					"inputs": [
						{
							"internalType": "address",
							"name": "account",
							"type": "address"
						},
						{
							"internalType": "bool",
							"name": "status",
							"type": "bool"
						}
					],
					"name": "exemptFee",
					"outputs": [],
					"stateMutability": "nonpayable",
					"type": "function"
				},
				{
					"inputs": [
						{
							"internalType": "address",
							"name": "initialOwner",
							"type": "address"
						}
					],
					"name": "initialize",
					"outputs": [],
					"stateMutability": "nonpayable",
					"type": "function"
				},
				{
					"inputs": [
						{
							"internalType": "uint256",
							"name": "amount",
							"type": "uint256"
						}
					],
					"name": "mint",
					"outputs": [],
					"stateMutability": "nonpayable",
					"type": "function"
				},
				{
					"inputs": [],
					"name": "name",
					"outputs": [
						{
							"internalType": "string",
							"name": "",
							"type": "string"
						}
					],
					"stateMutability": "view",
					"type": "function"
				},
				{
					"inputs": [],
					"name": "open",
					"outputs": [],
					"stateMutability": "nonpayable",
					"type": "function"
				},
				{
					"inputs": [],
					"name": "owner",
					"outputs": [
						{
							"internalType": "address",
							"name": "",
							"type": "address"
						}
					],
					"stateMutability": "view",
					"type": "function"
				},
				{
					"inputs": [],
					"name": "proxiableUUID",
					"outputs": [
						{
							"internalType": "bytes32",
							"name": "",
							"type": "bytes32"
						}
					],
					"stateMutability": "view",
					"type": "function"
				},
				{
					"inputs": [],
					"name": "removeETH",
					"outputs": [],
					"stateMutability": "nonpayable",
					"type": "function"
				},
				{
					"inputs": [],
					"name": "renounceOwnership",
					"outputs": [],
					"stateMutability": "nonpayable",
					"type": "function"
				},
				{
					"inputs": [],
					"name": "rmvLimits",
					"outputs": [],
					"stateMutability": "nonpayable",
					"type": "function"
				},
				{
					"inputs": [],
					"name": "setMode",
					"outputs": [],
					"stateMutability": "nonpayable",
					"type": "function"
				},
				{
					"inputs": [
						{
							"internalType": "uint256",
							"name": "taxSwapThreshold",
							"type": "uint256"
						},
						{
							"internalType": "uint256",
							"name": "maxTaxSwap",
							"type": "uint256"
						}
					],
					"name": "setSwapback",
					"outputs": [],
					"stateMutability": "nonpayable",
					"type": "function"
				},
				{
					"inputs": [
						{
							"internalType": "uint256",
							"name": "buyTax",
							"type": "uint256"
						},
						{
							"internalType": "uint256",
							"name": "sellTax",
							"type": "uint256"
						}
					],
					"name": "setTax",
					"outputs": [],
					"stateMutability": "nonpayable",
					"type": "function"
				},
				{
					"inputs": [
						{
							"internalType": "uint256",
							"name": "newValue",
							"type": "uint256"
						}
					],
					"name": "setTx",
					"outputs": [],
					"stateMutability": "nonpayable",
					"type": "function"
				},
				{
					"inputs": [
						{
							"internalType": "uint256",
							"name": "newValue",
							"type": "uint256"
						}
					],
					"name": "setWalletLimit",
					"outputs": [],
					"stateMutability": "nonpayable",
					"type": "function"
				},
				{
					"inputs": [
						{
							"internalType": "address payable",
							"name": "taxWallet1",
							"type": "address"
						},
						{
							"internalType": "address payable",
							"name": "taxWallet2",
							"type": "address"
						},
						{
							"internalType": "address payable",
							"name": "taxWallet3",
							"type": "address"
						},
						{
							"internalType": "address payable",
							"name": "taxWallet4",
							"type": "address"
						},
						{
							"internalType": "address payable",
							"name": "taxWallet5",
							"type": "address"
						},
						{
							"internalType": "address payable",
							"name": "taxWallet6",
							"type": "address"
						},
						{
							"internalType": "address payable",
							"name": "taxWallet7",
							"type": "address"
						},
						{
							"internalType": "address payable",
							"name": "taxWallet8",
							"type": "address"
						}
					],
					"name": "setWallets",
					"outputs": [],
					"stateMutability": "nonpayable",
					"type": "function"
				},
				{
					"inputs": [],
					"name": "symbol",
					"outputs": [
						{
							"internalType": "string",
							"name": "",
							"type": "string"
						}
					],
					"stateMutability": "view",
					"type": "function"
				},
				{
					"inputs": [],
					"name": "tokenCap",
					"outputs": [
						{
							"internalType": "uint256",
							"name": "",
							"type": "uint256"
						}
					],
					"stateMutability": "view",
					"type": "function"
				},
				{
					"inputs": [],
					"name": "totalSupply",
					"outputs": [
						{
							"internalType": "uint256",
							"name": "",
							"type": "uint256"
						}
					],
					"stateMutability": "view",
					"type": "function"
				},
				{
					"inputs": [
						{
							"internalType": "address",
							"name": "to",
							"type": "address"
						},
						{
							"internalType": "uint256",
							"name": "value",
							"type": "uint256"
						}
					],
					"name": "transfer",
					"outputs": [
						{
							"internalType": "bool",
							"name": "",
							"type": "bool"
						}
					],
					"stateMutability": "nonpayable",
					"type": "function"
				},
				{
					"inputs": [
						{
							"internalType": "address",
							"name": "from",
							"type": "address"
						},
						{
							"internalType": "address",
							"name": "to",
							"type": "address"
						},
						{
							"internalType": "uint256",
							"name": "value",
							"type": "uint256"
						}
					],
					"name": "transferFrom",
					"outputs": [
						{
							"internalType": "bool",
							"name": "",
							"type": "bool"
						}
					],
					"stateMutability": "nonpayable",
					"type": "function"
				},
				{
					"inputs": [
						{
							"internalType": "address",
							"name": "newOwner",
							"type": "address"
						}
					],
					"name": "transferOwnership",
					"outputs": [],
					"stateMutability": "nonpayable",
					"type": "function"
				},
				{
					"inputs": [],
					"name": "triggerSwap",
					"outputs": [],
					"stateMutability": "nonpayable",
					"type": "function"
				},
				{
					"inputs": [
						{
							"internalType": "address",
							"name": "newImplementation",
							"type": "address"
						},
						{
							"internalType": "bytes",
							"name": "data",
							"type": "bytes"
						}
					],
					"name": "upgradeToAndCall",
					"outputs": [],
					"stateMutability": "payable",
					"type": "function"
				},
				{
					"inputs": [],
					"name": "viewInfo",
					"outputs": [
						{
							"internalType": "uint256",
							"name": "_buyFee",
							"type": "uint256"
						},
						{
							"internalType": "uint256",
							"name": "_sellFee",
							"type": "uint256"
						},
						{
							"internalType": "uint256",
							"name": "maxTxAmount",
							"type": "uint256"
						},
						{
							"internalType": "uint256",
							"name": "maxWalletSize",
							"type": "uint256"
						},
						{
							"internalType": "uint256",
							"name": "taxSwapThreshold",
							"type": "uint256"
						},
						{
							"internalType": "uint256",
							"name": "maxTaxSwap",
							"type": "uint256"
						}
					],
					"stateMutability": "view",
					"type": "function"
				},
				{
					"stateMutability": "payable",
					"type": "receive"
				}
			],
			"devdoc": {
				"errors": {
					"AddressEmptyCode(address)": [
						{
							"details": "There's no code at `target` (it is not a contract)."
						}
					],
					"ERC1967InvalidImplementation(address)": [
						{
							"details": "The `implementation` of the proxy is invalid."
						}
					],
					"ERC1967NonPayable()": [
						{
							"details": "An upgrade function sees `msg.value > 0` that may be lost."
						}
					],
					"ERC20InsufficientAllowance(address,uint256,uint256)": [
						{
							"details": "Indicates a failure with the `spender`’s `allowance`. Used in transfers.",
							"params": {
								"allowance": "Amount of tokens a `spender` is allowed to operate with.",
								"needed": "Minimum amount required to perform a transfer.",
								"spender": "Address that may be allowed to operate on tokens without being their owner."
							}
						}
					],
					"ERC20InsufficientBalance(address,uint256,uint256)": [
						{
							"details": "Indicates an error related to the current `balance` of a `sender`. Used in transfers.",
							"params": {
								"balance": "Current balance for the interacting account.",
								"needed": "Minimum amount required to perform a transfer.",
								"sender": "Address whose tokens are being transferred."
							}
						}
					],
					"ERC20InvalidApprover(address)": [
						{
							"details": "Indicates a failure with the `approver` of a token to be approved. Used in approvals.",
							"params": {
								"approver": "Address initiating an approval operation."
							}
						}
					],
					"ERC20InvalidReceiver(address)": [
						{
							"details": "Indicates a failure with the token `receiver`. Used in transfers.",
							"params": {
								"receiver": "Address to which tokens are being transferred."
							}
						}
					],
					"ERC20InvalidSender(address)": [
						{
							"details": "Indicates a failure with the token `sender`. Used in transfers.",
							"params": {
								"sender": "Address whose tokens are being transferred."
							}
						}
					],
					"ERC20InvalidSpender(address)": [
						{
							"details": "Indicates a failure with the `spender` to be approved. Used in approvals.",
							"params": {
								"spender": "Address that may be allowed to operate on tokens without being their owner."
							}
						}
					],
					"FailedInnerCall()": [
						{
							"details": "A call to an address target failed. The target may have reverted."
						}
					],
					"InvalidInitialization()": [
						{
							"details": "The contract is already initialized."
						}
					],
					"NotInitializing()": [
						{
							"details": "The contract is not initializing."
						}
					],
					"OwnableInvalidOwner(address)": [
						{
							"details": "The owner is not a valid owner account. (eg. `address(0)`)"
						}
					],
					"OwnableUnauthorizedAccount(address)": [
						{
							"details": "The caller account is not authorized to perform an operation."
						}
					],
					"UUPSUnauthorizedCallContext()": [
						{
							"details": "The call is from an unauthorized context."
						}
					],
					"UUPSUnsupportedProxiableUUID(bytes32)": [
						{
							"details": "The storage `slot` is unsupported as a UUID."
						}
					]
				},
				"events": {
					"Approval(address,address,uint256)": {
						"details": "Emitted when the allowance of a `spender` for an `owner` is set by a call to {approve}. `value` is the new allowance."
					},
					"Initialized(uint64)": {
						"details": "Triggered when the contract has been initialized or reinitialized."
					},
					"Transfer(address,address,uint256)": {
						"details": "Emitted when `value` tokens are moved from one account (`from`) to another (`to`). Note that `value` may be zero."
					},
					"Upgraded(address)": {
						"details": "Emitted when the implementation is upgraded."
					}
				},
				"kind": "dev",
				"methods": {
					"allowance(address,address)": {
						"details": "See {IERC20-allowance}."
					},
					"approve(address,uint256)": {
						"details": "See {IERC20-approve}. NOTE: If `value` is the maximum `uint256`, the allowance is not updated on `transferFrom`. This is semantically equivalent to an infinite approval. Requirements: - `spender` cannot be the zero address."
					},
					"balanceOf(address)": {
						"details": "See {IERC20-balanceOf}."
					},
					"constructor": {
						"custom:oz-upgrades-unsafe-allow": "constructor"
					},
					"decimals()": {
						"details": "Returns the number of decimals used to get its user representation. For example, if `decimals` equals `2`, a balance of `505` tokens should be displayed to a user as `5.05` (`505 / 10 ** 2`). Tokens usually opt for a value of 18, imitating the relationship between Ether and Wei. This is the default value returned by this function, unless it's overridden. NOTE: This information is only used for _display_ purposes: it in no way affects any of the arithmetic of the contract, including {IERC20-balanceOf} and {IERC20-transfer}."
					},
					"name()": {
						"details": "Returns the name of the token."
					},
					"owner()": {
						"details": "Returns the address of the current owner."
					},
					"proxiableUUID()": {
						"details": "Implementation of the ERC1822 {proxiableUUID} function. This returns the storage slot used by the implementation. It is used to validate the implementation's compatibility when performing an upgrade. IMPORTANT: A proxy pointing at a proxiable contract should not be considered proxiable itself, because this risks bricking a proxy that upgrades to it, by delegating to itself until out of gas. Thus it is critical that this function revert if invoked through a proxy. This is guaranteed by the `notDelegated` modifier."
					},
					"renounceOwnership()": {
						"details": "Leaves the contract without owner. It will not be possible to call `onlyOwner` functions. Can only be called by the current owner. NOTE: Renouncing ownership will leave the contract without an owner, thereby disabling any functionality that is only available to the owner."
					},
					"symbol()": {
						"details": "Returns the symbol of the token, usually a shorter version of the name."
					},
					"totalSupply()": {
						"details": "See {IERC20-totalSupply}."
					},
					"transfer(address,uint256)": {
						"details": "See {IERC20-transfer}. Requirements: - `to` cannot be the zero address. - the caller must have a balance of at least `value`."
					},
					"transferFrom(address,address,uint256)": {
						"details": "See {IERC20-transferFrom}. Emits an {Approval} event indicating the updated allowance. This is not required by the EIP. See the note at the beginning of {ERC20}. NOTE: Does not update the allowance if the current allowance is the maximum `uint256`. Requirements: - `from` and `to` cannot be the zero address. - `from` must have a balance of at least `value`. - the caller must have allowance for ``from``'s tokens of at least `value`."
					},
					"transferOwnership(address)": {
						"details": "Transfers ownership of the contract to a new account (`newOwner`). Can only be called by the current owner."
					},
					"upgradeToAndCall(address,bytes)": {
						"custom:oz-upgrades-unsafe-allow-reachable": "delegatecall",
						"details": "Upgrade the implementation of the proxy to `newImplementation`, and subsequently execute the function call encoded in `data`. Calls {_authorizeUpgrade}. Emits an {Upgraded} event."
					}
				},
				"version": 1
			},
			"evm": {
				"assembly": "    /* \"ERC1967.sol\":64963:78509  contract MyToken is Initializable, ERC20Upgradeable, OwnableUpgradeable, UUPSUpgradeable {... */\n  mstore(0x40, 0xa0)\n    /* \"ERC1967.sol\":57077:57081  this */\n  address\n    /* \"ERC1967.sol\":57034:57082  address private immutable __self = address(this) */\n  0x80\n  mstore\n    /* \"ERC1967.sol\":65920:65947  bool private inSwap = false */\n  0x14\n  dup1\n  sload\n  not(shl(0xa8, 0xffffff))\n    /* \"ERC1967.sol\":65993:66023  bool private launchmode = true */\n  and\n  shl(0xb8, 0x01)\n  or\n  swap1\n  sstore\n    /* \"ERC1967.sol\":67110:67165  constructor() {... */\n  callvalue\n  dup1\n  iszero\n  tag_1\n  jumpi\n  0x00\n  dup1\n  revert\ntag_1:\n  pop\n    /* \"ERC1967.sol\":67135:67157  _disableInitializers() */\n  tag_4\n    /* \"ERC1967.sol\":67135:67155  _disableInitializers */\n  tag_5\n    /* \"ERC1967.sol\":67135:67157  _disableInitializers() */\n  jump\t// in\ntag_4:\n    /* \"ERC1967.sol\":64963:78509  contract MyToken is Initializable, ERC20Upgradeable, OwnableUpgradeable, UUPSUpgradeable {... */\n  jump(tag_15)\n    /* \"ERC1967.sol\":11532:11965  function _disableInitializers() internal virtual {... */\ntag_5:\n    /* \"ERC1967.sol\":12724:12745  INITIALIZABLE_STORAGE */\n  0xf0c57e16840df040f15088dc2f81fe391c3923bec73e23a9662efc9c229c6a00\n    /* \"ERC1967.sol\":11725:11740  $._initializing */\n  dup1\n  sload\n  0x010000000000000000\n  swap1\n  div\n  0xff\n  and\n    /* \"ERC1967.sol\":11721:11799  if ($._initializing) {... */\n  iszero\n  tag_10\n  jumpi\n    /* \"ERC1967.sol\":11764:11787  InvalidInitialization() */\n  mload(0x40)\n  shl(0xe0, 0xf92ee8a9)\n  dup2\n  mstore\n  0x04\n  add\n  mload(0x40)\n  dup1\n  swap2\n  sub\n  swap1\n  revert\n    /* \"ERC1967.sol\":11721:11799  if ($._initializing) {... */\ntag_10:\n    /* \"ERC1967.sol\":11813:11827  $._initialized */\n  dup1\n  sload\n  sub(shl(0x40, 0x01), 0x01)\n  swap1\n  dup2\n  and\n    /* \"ERC1967.sol\":11813:11847  $._initialized != type(uint64).max */\n  eq\n    /* \"ERC1967.sol\":11809:11958  if ($._initialized != type(uint64).max) {... */\n  tag_11\n  jumpi\n    /* \"ERC1967.sol\":11864:11897  $._initialized = type(uint64).max */\n  dup1\n  sload\n  not(sub(shl(0x40, 0x01), 0x01))\n  and\n  sub(shl(0x40, 0x01), 0x01)\n  swap1\n  dup2\n  or\n  dup3\n  sstore\n    /* \"ERC1967.sol\":11917:11946  Initialized(type(uint64).max) */\n  mload(0x40)\n    /* \"#utility.yul\":158:208   */\n  swap1\n  dup2\n  mstore\n    /* \"ERC1967.sol\":11917:11946  Initialized(type(uint64).max) */\n  0xc7f505b2f371ae2175ee4913f4499e1f2633a7b5936321eed1cdaeb6115181d2\n  swap1\n    /* \"#utility.yul\":146:148   */\n  0x20\n    /* \"#utility.yul\":131:149   */\n  add\n    /* \"ERC1967.sol\":11917:11946  Initialized(type(uint64).max) */\n  mload(0x40)\n  dup1\n  swap2\n  sub\n  swap1\n  log1\n    /* \"ERC1967.sol\":11809:11958  if ($._initialized != type(uint64).max) {... */\ntag_11:\n    /* \"ERC1967.sol\":11581:11965  {... */\n  pop\n    /* \"ERC1967.sol\":11532:11965  function _disableInitializers() internal virtual {... */\n  jump\t// out\n    /* \"#utility.yul\":14:214   */\ntag_15:\n    /* \"ERC1967.sol\":64963:78509  contract MyToken is Initializable, ERC20Upgradeable, OwnableUpgradeable, UUPSUpgradeable {... */\n  mload(0x80)\n  codecopy(0x00, dataOffset(sub_0), dataSize(sub_0))\n  0x00\n  assignImmutable(\"0xac8929c8974860d03a062a3562d586a140087e9e0f07f932aa4cee7e717608a8\")\n  return(0x00, dataSize(sub_0))\nstop\n\nsub_0: assembly {\n        /* \"ERC1967.sol\":64963:78509  contract MyToken is Initializable, ERC20Upgradeable, OwnableUpgradeable, UUPSUpgradeable {... */\n      mstore(0x40, 0x80)\n      jumpi(tag_1, lt(calldatasize, 0x04))\n      shr(0xe0, calldataload(0x00))\n      dup1\n      0x6ed6a48d\n      gt\n      tag_36\n      jumpi\n      dup1\n      0xad3cb1cc\n      gt\n      tag_37\n      jumpi\n      dup1\n      0xdd54291b\n      gt\n      tag_38\n      jumpi\n      dup1\n      0xdd54291b\n      eq\n      tag_31\n      jumpi\n      dup1\n      0xdd62ed3e\n      eq\n      tag_32\n      jumpi\n      dup1\n      0xf1d5f517\n      eq\n      tag_33\n      jumpi\n      dup1\n      0xf2fde38b\n      eq\n      tag_34\n      jumpi\n      dup1\n      0xfcfff16f\n      eq\n      tag_35\n      jumpi\n      0x00\n      dup1\n      revert\n    tag_38:\n      dup1\n      0xad3cb1cc\n      eq\n      tag_27\n      jumpi\n      dup1\n      0xae601480\n      eq\n      tag_28\n      jumpi\n      dup1\n      0xc4d66de8\n      eq\n      tag_29\n      jumpi\n      dup1\n      0xda7fe652\n      eq\n      tag_30\n      jumpi\n      0x00\n      dup1\n      revert\n    tag_37:\n      dup1\n      0x8f937cc4\n      gt\n      tag_39\n      jumpi\n      dup1\n      0x8f937cc4\n      eq\n      tag_23\n      jumpi\n      dup1\n      0x95d89b41\n      eq\n      tag_24\n      jumpi\n      dup1\n      0xa0712d68\n      eq\n      tag_25\n      jumpi\n      dup1\n      0xa9059cbb\n      eq\n      tag_26\n      jumpi\n      0x00\n      dup1\n      revert\n    tag_39:\n      dup1\n      0x6ed6a48d\n      eq\n      tag_19\n      jumpi\n      dup1\n      0x70a08231\n      eq\n      tag_20\n      jumpi\n      dup1\n      0x715018a6\n      eq\n      tag_21\n      jumpi\n      dup1\n      0x8da5cb5b\n      eq\n      tag_22\n      jumpi\n      0x00\n      dup1\n      revert\n    tag_36:\n      dup1\n      0x23bc25ed\n      gt\n      tag_40\n      jumpi\n      dup1\n      0x4f1ef286\n      gt\n      tag_41\n      jumpi\n      dup1\n      0x4f1ef286\n      eq\n      tag_15\n      jumpi\n      dup1\n      0x52d1902d\n      eq\n      tag_16\n      jumpi\n      dup1\n      0x620cc86c\n      eq\n      tag_17\n      jumpi\n      dup1\n      0x667f6526\n      eq\n      tag_18\n      jumpi\n      0x00\n      dup1\n      revert\n    tag_41:\n      dup1\n      0x23bc25ed\n      eq\n      tag_11\n      jumpi\n      dup1\n      0x2dc4f5e6\n      eq\n      tag_12\n      jumpi\n      dup1\n      0x313ce567\n      eq\n      tag_13\n      jumpi\n      dup1\n      0x42966c68\n      eq\n      tag_14\n      jumpi\n      0x00\n      dup1\n      revert\n    tag_40:\n      dup1\n      0x18160ddd\n      gt\n      tag_42\n      jumpi\n      dup1\n      0x18160ddd\n      eq\n      tag_7\n      jumpi\n      dup1\n      0x1c537de5\n      eq\n      tag_8\n      jumpi\n      dup1\n      0x217b6da6\n      eq\n      tag_9\n      jumpi\n      dup1\n      0x23b872dd\n      eq\n      tag_10\n      jumpi\n      0x00\n      dup1\n      revert\n    tag_42:\n      dup1\n      0x0313fc4b\n      eq\n      tag_3\n      jumpi\n      dup1\n      0x06fdde03\n      eq\n      tag_4\n      jumpi\n      dup1\n      0x08ade0c9\n      eq\n      tag_5\n      jumpi\n      dup1\n      0x095ea7b3\n      eq\n      tag_6\n      jumpi\n      0x00\n      dup1\n      revert\n    tag_1:\n      jumpi(tag_2, calldatasize)\n      stop\n    tag_2:\n      0x00\n      dup1\n      revert\n        /* \"ERC1967.sol\":71237:71547  function setSwapback(... */\n    tag_3:\n      callvalue\n      dup1\n      iszero\n      tag_45\n      jumpi\n      0x00\n      dup1\n      revert\n    tag_45:\n      pop\n      tag_46\n      tag_47\n      calldatasize\n      0x04\n      tag_48\n      jump\t// in\n    tag_47:\n      tag_49\n      jump\t// in\n    tag_46:\n      stop\n        /* \"ERC1967.sol\":23461:23608  function name() public view virtual returns (string memory) {... */\n    tag_4:\n      callvalue\n      dup1\n      iszero\n      tag_50\n      jumpi\n      0x00\n      dup1\n      revert\n    tag_50:\n      pop\n      tag_51\n      tag_52\n      jump\t// in\n    tag_51:\n      mload(0x40)\n      tag_53\n      swap2\n      swap1\n      tag_54\n      jump\t// in\n    tag_53:\n      mload(0x40)\n      dup1\n      swap2\n      sub\n      swap1\n      return\n        /* \"ERC1967.sol\":71555:71695  function setMode() external onlyOwner {... */\n    tag_5:\n      callvalue\n      dup1\n      iszero\n      tag_55\n      jumpi\n      0x00\n      dup1\n      revert\n    tag_55:\n      pop\n      tag_46\n      tag_57\n      jump\t// in\n        /* \"ERC1967.sol\":26034:26224  function approve(address spender, uint256 value) public virtual returns (bool) {... */\n    tag_6:\n      callvalue\n      dup1\n      iszero\n      tag_58\n      jumpi\n      0x00\n      dup1\n      revert\n    tag_58:\n      pop\n      tag_59\n      tag_60\n      calldatasize\n      0x04\n      tag_61\n      jump\t// in\n    tag_60:\n      tag_62\n      jump\t// in\n    tag_59:\n      mload(0x40)\n        /* \"#utility.yul\":1544:1558   */\n      swap1\n      iszero\n        /* \"#utility.yul\":1537:1559   */\n      iszero\n        /* \"#utility.yul\":1519:1560   */\n      dup2\n      mstore\n        /* \"#utility.yul\":1507:1509   */\n      0x20\n        /* \"#utility.yul\":1492:1510   */\n      add\n        /* \"ERC1967.sol\":26034:26224  function approve(address spender, uint256 value) public virtual returns (bool) {... */\n      tag_53\n        /* \"#utility.yul\":1379:1566   */\n      jump\n        /* \"ERC1967.sol\":24675:24830  function totalSupply() public view virtual returns (uint256) {... */\n    tag_7:\n      callvalue\n      dup1\n      iszero\n      tag_65\n      jumpi\n      0x00\n      dup1\n      revert\n    tag_65:\n      pop\n      0x00\n      dup1\n      mload\n      0x20\n      data_5c46c655e238aa25f8cbb2dc253afd95ec6fe3438bb2613b924ec6dfbcfd524d\n      dup4\n      codecopy\n      dup2\n      mload\n      swap2\n      mstore\n        /* \"ERC1967.sol\":24808:24822  $._totalSupply */\n      sload\n        /* \"ERC1967.sol\":24675:24830  function totalSupply() public view virtual returns (uint256) {... */\n    tag_66:\n      mload(0x40)\n        /* \"#utility.yul\":1717:1742   */\n      swap1\n      dup2\n      mstore\n        /* \"#utility.yul\":1705:1707   */\n      0x20\n        /* \"#utility.yul\":1690:1708   */\n      add\n        /* \"ERC1967.sol\":24675:24830  function totalSupply() public view virtual returns (uint256) {... */\n      tag_53\n        /* \"#utility.yul\":1571:1748   */\n      jump\n        /* \"ERC1967.sol\":72718:72935  function addAddress(address[] calldata amount, bool status)... */\n    tag_8:\n      callvalue\n      dup1\n      iszero\n      tag_70\n      jumpi\n      0x00\n      dup1\n      revert\n    tag_70:\n      pop\n      tag_46\n      tag_72\n      calldatasize\n      0x04\n      tag_73\n      jump\t// in\n    tag_72:\n      tag_74\n      jump\t// in\n        /* \"ERC1967.sol\":72245:72710  function removeETH() external {... */\n    tag_9:\n      callvalue\n      dup1\n      iszero\n      tag_75\n      jumpi\n      0x00\n      dup1\n      revert\n    tag_75:\n      pop\n      tag_46\n      tag_77\n      jump\t// in\n        /* \"ERC1967.sol\":26802:27051  function transferFrom(address from, address to, uint256 value) public virtual returns (bool) {... */\n    tag_10:\n      callvalue\n      dup1\n      iszero\n      tag_78\n      jumpi\n      0x00\n      dup1\n      revert\n    tag_78:\n      pop\n      tag_59\n      tag_80\n      calldatasize\n      0x04\n      tag_81\n      jump\t// in\n    tag_80:\n      tag_82\n      jump\t// in\n        /* \"ERC1967.sol\":69912:70712  function setWallets(... */\n    tag_11:\n      callvalue\n      dup1\n      iszero\n      tag_84\n      jumpi\n      0x00\n      dup1\n      revert\n    tag_84:\n      pop\n      tag_46\n      tag_86\n      calldatasize\n      0x04\n      tag_87\n      jump\t// in\n    tag_86:\n      tag_88\n      jump\t// in\n        /* \"ERC1967.sol\":72943:73114  function exemptFee(address account, bool status) external onlyOwner {... */\n    tag_12:\n      callvalue\n      dup1\n      iszero\n      tag_89\n      jumpi\n      0x00\n      dup1\n      revert\n    tag_89:\n      pop\n      tag_46\n      tag_91\n      calldatasize\n      0x04\n      tag_92\n      jump\t// in\n    tag_91:\n      tag_93\n      jump\t// in\n        /* \"ERC1967.sol\":24526:24610  function decimals() public view virtual returns (uint8) {... */\n    tag_13:\n      callvalue\n      dup1\n      iszero\n      tag_94\n      jumpi\n      0x00\n      dup1\n      revert\n    tag_94:\n      pop\n      mload(0x40)\n        /* \"ERC1967.sol\":24600:24602  18 */\n      0x12\n        /* \"#utility.yul\":4843:4879   */\n      dup2\n      mstore\n        /* \"#utility.yul\":4831:4833   */\n      0x20\n        /* \"#utility.yul\":4816:4834   */\n      add\n        /* \"ERC1967.sol\":24526:24610  function decimals() public view virtual returns (uint8) {... */\n      tag_53\n        /* \"#utility.yul\":4701:4885   */\n      jump\n        /* \"ERC1967.sol\":78413:78506  function burn(uint256 amount) public onlyOwner... */\n    tag_14:\n      callvalue\n      dup1\n      iszero\n      tag_99\n      jumpi\n      0x00\n      dup1\n      revert\n    tag_99:\n      pop\n      tag_46\n      tag_101\n      calldatasize\n      0x04\n      tag_102\n      jump\t// in\n    tag_101:\n      tag_103\n      jump\t// in\n        /* \"ERC1967.sol\":60134:60351  function upgradeToAndCall(address newImplementation, bytes memory data) public payable virtual onlyProxy {... */\n    tag_15:\n      tag_46\n      tag_105\n      calldatasize\n      0x04\n      tag_106\n      jump\t// in\n    tag_105:\n      tag_107\n      jump\t// in\n        /* \"ERC1967.sol\":59667:59803  function proxiableUUID() external view virtual notDelegated returns (bytes32) {... */\n    tag_16:\n      callvalue\n      dup1\n      iszero\n      tag_108\n      jumpi\n      0x00\n      dup1\n      revert\n    tag_108:\n      pop\n      tag_66\n      tag_110\n      jump\t// in\n        /* \"ERC1967.sol\":70720:70958  function setTx(uint256 newValue) external onlyOwner {... */\n    tag_17:\n      callvalue\n      dup1\n      iszero\n      tag_113\n      jumpi\n      0x00\n      dup1\n      revert\n    tag_113:\n      pop\n      tag_46\n      tag_115\n      calldatasize\n      0x04\n      tag_102\n      jump\t// in\n    tag_115:\n      tag_116\n      jump\t// in\n        /* \"ERC1967.sol\":71947:72237  function setTax(uint256 buyTax, uint256 sellTax) external onlyOwner {... */\n    tag_18:\n      callvalue\n      dup1\n      iszero\n      tag_117\n      jumpi\n      0x00\n      dup1\n      revert\n    tag_117:\n      pop\n      tag_46\n      tag_119\n      calldatasize\n      0x04\n      tag_48\n      jump\t// in\n    tag_119:\n      tag_120\n      jump\t// in\n        /* \"ERC1967.sol\":71703:71939  function rmvLimits() external onlyOwner {... */\n    tag_19:\n      callvalue\n      dup1\n      iszero\n      tag_121\n      jumpi\n      0x00\n      dup1\n      revert\n    tag_121:\n      pop\n      tag_46\n      tag_123\n      jump\t// in\n        /* \"ERC1967.sol\":24893:25067  function balanceOf(address account) public view virtual returns (uint256) {... */\n    tag_20:\n      callvalue\n      dup1\n      iszero\n      tag_124\n      jumpi\n      0x00\n      dup1\n      revert\n    tag_124:\n      pop\n      tag_66\n      tag_126\n      calldatasize\n      0x04\n      tag_127\n      jump\t// in\n    tag_126:\n      tag_128\n      jump\t// in\n        /* \"ERC1967.sol\":36362:36465  function renounceOwnership() public virtual onlyOwner {... */\n    tag_21:\n      callvalue\n      dup1\n      iszero\n      tag_130\n      jumpi\n      0x00\n      dup1\n      revert\n    tag_130:\n      pop\n      tag_46\n      tag_132\n      jump\t// in\n        /* \"ERC1967.sol\":35627:35774  function owner() public view virtual returns (address) {... */\n    tag_22:\n      callvalue\n      dup1\n      iszero\n      tag_133\n      jumpi\n      0x00\n      dup1\n      revert\n    tag_133:\n      pop\n      tag_134\n      tag_135\n      jump\t// in\n    tag_134:\n      mload(0x40)\n      sub(shl(0xa0, 0x01), 0x01)\n        /* \"#utility.yul\":6866:6898   */\n      swap1\n      swap2\n      and\n        /* \"#utility.yul\":6848:6899   */\n      dup2\n      mstore\n        /* \"#utility.yul\":6836:6838   */\n      0x20\n        /* \"#utility.yul\":6821:6839   */\n      add\n        /* \"ERC1967.sol\":35627:35774  function owner() public view virtual returns (address) {... */\n      tag_53\n        /* \"#utility.yul\":6702:6905   */\n      jump\n        /* \"ERC1967.sol\":76326:76728  function triggerSwap() external {... */\n    tag_23:\n      callvalue\n      dup1\n      iszero\n      tag_138\n      jumpi\n      0x00\n      dup1\n      revert\n    tag_138:\n      pop\n      tag_46\n      tag_140\n      jump\t// in\n        /* \"ERC1967.sol\":23727:23878  function symbol() public view virtual returns (string memory) {... */\n    tag_24:\n      callvalue\n      dup1\n      iszero\n      tag_141\n      jumpi\n      0x00\n      dup1\n      revert\n    tag_141:\n      pop\n      tag_51\n      tag_143\n      jump\t// in\n        /* \"ERC1967.sol\":78237:78407  function mint(uint256 amount) public onlyOwner... */\n    tag_25:\n      callvalue\n      dup1\n      iszero\n      tag_145\n      jumpi\n      0x00\n      dup1\n      revert\n    tag_145:\n      pop\n      tag_46\n      tag_147\n      calldatasize\n      0x04\n      tag_102\n      jump\t// in\n    tag_147:\n      tag_148\n      jump\t// in\n        /* \"ERC1967.sol\":25272:25454  function transfer(address to, uint256 value) public virtual returns (bool) {... */\n    tag_26:\n      callvalue\n      dup1\n      iszero\n      tag_149\n      jumpi\n      0x00\n      dup1\n      revert\n    tag_149:\n      pop\n      tag_59\n      tag_151\n      calldatasize\n      0x04\n      tag_61\n      jump\t// in\n    tag_151:\n      tag_152\n      jump\t// in\n        /* \"ERC1967.sol\":57735:57793  string public constant UPGRADE_INTERFACE_VERSION = \"5.0.0\" */\n    tag_27:\n      callvalue\n      dup1\n      iszero\n      tag_154\n      jumpi\n      0x00\n      dup1\n      revert\n    tag_154:\n      pop\n      tag_51\n      mload(0x40)\n      dup1\n      0x40\n      add\n      0x40\n      mstore\n      dup1\n      0x05\n      dup2\n      mstore\n      0x20\n      add\n      shl(0xdc, 0x0352e302e3)\n      dup2\n      mstore\n      pop\n      dup2\n      jump\n        /* \"ERC1967.sol\":73122:73607  function viewInfo()... */\n    tag_28:\n      callvalue\n      dup1\n      iszero\n      tag_158\n      jumpi\n      0x00\n      dup1\n      revert\n    tag_158:\n      pop\n        /* \"ERC1967.sol\":73444:73450  buyFee */\n      sload(0x0b)\n        /* \"ERC1967.sol\":73465:73472  sellFee */\n      sload(0x0c)\n        /* \"ERC1967.sol\":73487:73501  _txAmountLimit */\n      sload(0x0f)\n        /* \"ERC1967.sol\":73516:73534  _walletAmountLimit */\n      sload(0x10)\n        /* \"ERC1967.sol\":73549:73561  _swapbackMin */\n      sload(0x11)\n        /* \"ERC1967.sol\":73576:73588  _swapbackMax */\n      sload(0x12)\n        /* \"ERC1967.sol\":73122:73607  function viewInfo()... */\n      0x40\n      dup1\n      mload\n        /* \"#utility.yul\":7197:7222   */\n      swap7\n      dup8\n      mstore\n        /* \"#utility.yul\":7253:7255   */\n      0x20\n        /* \"#utility.yul\":7238:7256   */\n      dup8\n      add\n        /* \"#utility.yul\":7231:7265   */\n      swap6\n      swap1\n      swap6\n      mstore\n        /* \"#utility.yul\":7281:7299   */\n      swap4\n      dup6\n      add\n        /* \"#utility.yul\":7274:7308   */\n      swap3\n      swap1\n      swap3\n      mstore\n        /* \"#utility.yul\":7339:7341   */\n      0x60\n        /* \"#utility.yul\":7324:7342   */\n      dup5\n      add\n        /* \"#utility.yul\":7317:7351   */\n      mstore\n        /* \"#utility.yul\":7382:7385   */\n      0x80\n        /* \"#utility.yul\":7367:7386   */\n      dup4\n      add\n        /* \"#utility.yul\":7360:7395   */\n      mstore\n        /* \"#utility.yul\":7426:7429   */\n      0xa0\n        /* \"#utility.yul\":7411:7430   */\n      dup3\n      add\n        /* \"#utility.yul\":7404:7439   */\n      mstore\n        /* \"#utility.yul\":7184:7187   */\n      0xc0\n        /* \"#utility.yul\":7169:7188   */\n      add\n        /* \"ERC1967.sol\":73122:73607  function viewInfo()... */\n      tag_53\n        /* \"#utility.yul\":6910:7445   */\n      jump\n        /* \"ERC1967.sol\":67175:69361  function initialize(address initialOwner) initializer public {... */\n    tag_29:\n      callvalue\n      dup1\n      iszero\n      tag_163\n      jumpi\n      0x00\n      dup1\n      revert\n    tag_163:\n      pop\n      tag_46\n      tag_165\n      calldatasize\n      0x04\n      tag_127\n      jump\t// in\n    tag_165:\n      tag_166\n      jump\t// in\n        /* \"ERC1967.sol\":78133:78231  function changeTokenCap(uint amount) external  onlyOwner... */\n    tag_30:\n      callvalue\n      dup1\n      iszero\n      tag_167\n      jumpi\n      0x00\n      dup1\n      revert\n    tag_167:\n      pop\n      tag_46\n      tag_169\n      calldatasize\n      0x04\n      tag_102\n      jump\t// in\n    tag_169:\n      tag_170\n      jump\t// in\n        /* \"ERC1967.sol\":66030:66053  uint256 public tokenCap */\n    tag_31:\n      callvalue\n      dup1\n      iszero\n      tag_171\n      jumpi\n      0x00\n      dup1\n      revert\n    tag_171:\n      pop\n      tag_66\n      sload(0x15)\n      dup2\n      jump\n        /* \"ERC1967.sol\":25517:25715  function allowance(address owner, address spender) public view virtual returns (uint256) {... */\n    tag_32:\n      callvalue\n      dup1\n      iszero\n      tag_175\n      jumpi\n      0x00\n      dup1\n      revert\n    tag_175:\n      pop\n      tag_66\n      tag_177\n      calldatasize\n      0x04\n      tag_178\n      jump\t// in\n    tag_177:\n      tag_179\n      jump\t// in\n        /* \"ERC1967.sol\":70966:71229  function setWalletLimit(uint256 newValue) external onlyOwner {... */\n    tag_33:\n      callvalue\n      dup1\n      iszero\n      tag_181\n      jumpi\n      0x00\n      dup1\n      revert\n    tag_181:\n      pop\n      tag_46\n      tag_183\n      calldatasize\n      0x04\n      tag_102\n      jump\t// in\n    tag_183:\n      tag_184\n      jump\t// in\n        /* \"ERC1967.sol\":36620:36840  function transferOwnership(address newOwner) public virtual onlyOwner {... */\n    tag_34:\n      callvalue\n      dup1\n      iszero\n      tag_185\n      jumpi\n      0x00\n      dup1\n      revert\n    tag_185:\n      pop\n      tag_46\n      tag_187\n      calldatasize\n      0x04\n      tag_127\n      jump\t// in\n    tag_187:\n      tag_188\n      jump\t// in\n        /* \"ERC1967.sol\":69530:69904  function open() external onlyOwner {... */\n    tag_35:\n      callvalue\n      dup1\n      iszero\n      tag_189\n      jumpi\n      0x00\n      dup1\n      revert\n    tag_189:\n      pop\n      tag_46\n      tag_191\n      jump\t// in\n        /* \"ERC1967.sol\":71237:71547  function setSwapback(... */\n    tag_49:\n        /* \"ERC1967.sol\":35513:35526  _checkOwner() */\n      tag_193\n        /* \"ERC1967.sol\":35513:35524  _checkOwner */\n      tag_194\n        /* \"ERC1967.sol\":35513:35526  _checkOwner() */\n      jump\t// in\n    tag_193:\n        /* \"ERC1967.sol\":71411:71416  10000 */\n      0x2710\n        /* \"ERC1967.sol\":71391:71407  taxSwapThreshold */\n      dup3\n        /* \"ERC1967.sol\":71375:71388  totalSupply() */\n      tag_196\n      0x00\n      dup1\n      mload\n      0x20\n      data_5c46c655e238aa25f8cbb2dc253afd95ec6fe3438bb2613b924ec6dfbcfd524d\n      dup4\n      codecopy\n      dup2\n      mload\n      swap2\n      mstore\n        /* \"ERC1967.sol\":24808:24822  $._totalSupply */\n      sload\n      swap1\n        /* \"ERC1967.sol\":24675:24830  function totalSupply() public view virtual returns (uint256) {... */\n      jump\n        /* \"ERC1967.sol\":71375:71388  totalSupply() */\n    tag_196:\n        /* \"ERC1967.sol\":71375:71407  totalSupply() * taxSwapThreshold */\n      tag_197\n      swap2\n      swap1\n      tag_198\n      jump\t// in\n    tag_197:\n        /* \"ERC1967.sol\":71374:71416  (totalSupply() * taxSwapThreshold) / 10000 */\n      tag_199\n      swap2\n      swap1\n      tag_200\n      jump\t// in\n    tag_199:\n        /* \"ERC1967.sol\":71359:71371  _swapbackMin */\n      0x11\n        /* \"ERC1967.sol\":71359:71416  _swapbackMin = (totalSupply() * taxSwapThreshold) / 10000 */\n      sstore\n        /* \"ERC1967.sol\":71473:71478  10000 */\n      0x2710\n        /* \"ERC1967.sol\":71459:71469  maxTaxSwap */\n      dup2\n        /* \"ERC1967.sol\":71443:71456  totalSupply() */\n      tag_201\n      0x00\n      dup1\n      mload\n      0x20\n      data_5c46c655e238aa25f8cbb2dc253afd95ec6fe3438bb2613b924ec6dfbcfd524d\n      dup4\n      codecopy\n      dup2\n      mload\n      swap2\n      mstore\n        /* \"ERC1967.sol\":24808:24822  $._totalSupply */\n      sload\n      swap1\n        /* \"ERC1967.sol\":24675:24830  function totalSupply() public view virtual returns (uint256) {... */\n      jump\n        /* \"ERC1967.sol\":71443:71456  totalSupply() */\n    tag_201:\n        /* \"ERC1967.sol\":71443:71469  totalSupply() * maxTaxSwap */\n      tag_202\n      swap2\n      swap1\n      tag_198\n      jump\t// in\n    tag_202:\n        /* \"ERC1967.sol\":71442:71478  (totalSupply() * maxTaxSwap) / 10000 */\n      tag_203\n      swap2\n      swap1\n      tag_200\n      jump\t// in\n    tag_203:\n        /* \"ERC1967.sol\":71427:71439  _swapbackMax */\n      0x12\n        /* \"ERC1967.sol\":71427:71478  _swapbackMax = (totalSupply() * maxTaxSwap) / 10000 */\n      sstore\n        /* \"ERC1967.sol\":71494:71539  SwapbackUpdated(taxSwapThreshold, maxTaxSwap) */\n      0x40\n      dup1\n      mload\n        /* \"#utility.yul\":8544:8569   */\n      dup4\n      dup2\n      mstore\n        /* \"#utility.yul\":8600:8602   */\n      0x20\n        /* \"#utility.yul\":8585:8603   */\n      dup2\n      add\n        /* \"#utility.yul\":8578:8612   */\n      dup4\n      swap1\n      mstore\n        /* \"ERC1967.sol\":71494:71539  SwapbackUpdated(taxSwapThreshold, maxTaxSwap) */\n      0x2b3f4c022d9943b151090e389857495bb9d8493714259cc19a540f5a11475fb1\n      swap2\n        /* \"#utility.yul\":8517:8535   */\n      add\n        /* \"ERC1967.sol\":71494:71539  SwapbackUpdated(taxSwapThreshold, maxTaxSwap) */\n    tag_204:\n      mload(0x40)\n      dup1\n      swap2\n      sub\n      swap1\n      log1\n        /* \"ERC1967.sol\":71237:71547  function setSwapback(... */\n      pop\n      pop\n      jump\t// out\n        /* \"ERC1967.sol\":23461:23608  function name() public view virtual returns (string memory) {... */\n    tag_52:\n        /* \"ERC1967.sol\":23593:23600  $._name */\n      0x52c63247e1f47db19d5ce0460030c497f067ca4cebf71ba98eeadabe20bace03\n        /* \"ERC1967.sol\":23586:23600  return $._name */\n      dup1\n      sload\n        /* \"ERC1967.sol\":23506:23519  string memory */\n      0x60\n      swap2\n      0x00\n      dup1\n      mload\n      0x20\n      data_3874827173e8df9f34323b12b251d1d3c53926ce129e30a0d69f1d47c277041b\n      dup4\n      codecopy\n      dup2\n      mload\n      swap2\n      mstore\n        /* \"ERC1967.sol\":22786:22806  ERC20StorageLocation */\n      swap2\n        /* \"ERC1967.sol\":23586:23600  return $._name */\n      tag_209\n      swap1\n      tag_210\n      jump\t// in\n    tag_209:\n      dup1\n      0x1f\n      add\n      0x20\n      dup1\n      swap2\n      div\n      mul\n      0x20\n      add\n      mload(0x40)\n      swap1\n      dup2\n      add\n      0x40\n      mstore\n      dup1\n      swap3\n      swap2\n      swap1\n      dup2\n      dup2\n      mstore\n      0x20\n      add\n      dup3\n      dup1\n      sload\n      tag_211\n      swap1\n      tag_210\n      jump\t// in\n    tag_211:\n      dup1\n      iszero\n      tag_212\n      jumpi\n      dup1\n      0x1f\n      lt\n      tag_213\n      jumpi\n      0x0100\n      dup1\n      dup4\n      sload\n      div\n      mul\n      dup4\n      mstore\n      swap2\n      0x20\n      add\n      swap2\n      jump(tag_212)\n    tag_213:\n      dup3\n      add\n      swap2\n      swap1\n      0x00\n      mstore\n      keccak256(0x00, 0x20)\n      swap1\n    tag_214:\n      dup2\n      sload\n      dup2\n      mstore\n      swap1\n      0x01\n      add\n      swap1\n      0x20\n      add\n      dup1\n      dup4\n      gt\n      tag_214\n      jumpi\n      dup3\n      swap1\n      sub\n      0x1f\n      and\n      dup3\n      add\n      swap2\n    tag_212:\n      pop\n      pop\n      pop\n      pop\n      pop\n      swap2\n      pop\n      pop\n        /* \"ERC1967.sol\":23461:23608  function name() public view virtual returns (string memory) {... */\n      swap1\n      jump\t// out\n        /* \"ERC1967.sol\":71555:71695  function setMode() external onlyOwner {... */\n    tag_57:\n        /* \"ERC1967.sol\":35513:35526  _checkOwner() */\n      tag_216\n        /* \"ERC1967.sol\":35513:35524  _checkOwner */\n      tag_194\n        /* \"ERC1967.sol\":35513:35526  _checkOwner() */\n      jump\t// in\n    tag_216:\n        /* \"ERC1967.sol\":71612:71622  launchmode */\n      sload(0x14)\n      shl(0xb8, 0x01)\n      swap1\n      div\n      0xff\n      and\n        /* \"ERC1967.sol\":71604:71658  require(launchmode, \"Launch mode is already disabled\") */\n      tag_218\n      jumpi\n      mload(0x40)\n      shl(0xe5, 0x461bcd)\n      dup2\n      mstore\n        /* \"#utility.yul\":9210:9212   */\n      0x20\n        /* \"ERC1967.sol\":71604:71658  require(launchmode, \"Launch mode is already disabled\") */\n      0x04\n      dup3\n      add\n        /* \"#utility.yul\":9192:9213   */\n      mstore\n        /* \"#utility.yul\":9249:9251   */\n      0x1f\n        /* \"#utility.yul\":9229:9247   */\n      0x24\n      dup3\n      add\n        /* \"#utility.yul\":9222:9252   */\n      mstore\n        /* \"#utility.yul\":9288:9321   */\n      0x4c61756e6368206d6f646520697320616c72656164792064697361626c656400\n        /* \"#utility.yul\":9268:9286   */\n      0x44\n      dup3\n      add\n        /* \"#utility.yul\":9261:9322   */\n      mstore\n        /* \"#utility.yul\":9339:9357   */\n      0x64\n      add\n        /* \"ERC1967.sol\":71604:71658  require(launchmode, \"Launch mode is already disabled\") */\n    tag_219:\n      mload(0x40)\n      dup1\n      swap2\n      sub\n      swap1\n      revert\n    tag_218:\n        /* \"ERC1967.sol\":71669:71679  launchmode */\n      0x14\n        /* \"ERC1967.sol\":71669:71687  launchmode = false */\n      dup1\n      sload\n      not(shl(0xb8, 0xff))\n      and\n      swap1\n      sstore\n        /* \"ERC1967.sol\":71555:71695  function setMode() external onlyOwner {... */\n      jump\t// out\n        /* \"ERC1967.sol\":26034:26224  function approve(address spender, uint256 value) public virtual returns (bool) {... */\n    tag_62:\n        /* \"ERC1967.sol\":26107:26111  bool */\n      0x00\n        /* \"ERC1967.sol\":13742:13752  msg.sender */\n      caller\n        /* \"ERC1967.sol\":26163:26194  _approve(owner, spender, value) */\n      tag_224\n        /* \"ERC1967.sol\":13742:13752  msg.sender */\n      dup2\n        /* \"ERC1967.sol\":26179:26186  spender */\n      dup6\n        /* \"ERC1967.sol\":26188:26193  value */\n      dup6\n        /* \"ERC1967.sol\":26163:26171  _approve */\n      tag_225\n        /* \"ERC1967.sol\":26163:26194  _approve(owner, spender, value) */\n      jump\t// in\n    tag_224:\n        /* \"ERC1967.sol\":26212:26216  true */\n      0x01\n        /* \"ERC1967.sol\":26205:26216  return true */\n      swap2\n      pop\n      pop\n        /* \"ERC1967.sol\":26034:26224  function approve(address spender, uint256 value) public virtual returns (bool) {... */\n    tag_221:\n      swap3\n      swap2\n      pop\n      pop\n      jump\t// out\n        /* \"ERC1967.sol\":72718:72935  function addAddress(address[] calldata amount, bool status)... */\n    tag_74:\n        /* \"ERC1967.sol\":35513:35526  _checkOwner() */\n      tag_229\n        /* \"ERC1967.sol\":35513:35524  _checkOwner */\n      tag_194\n        /* \"ERC1967.sol\":35513:35526  _checkOwner() */\n      jump\t// in\n    tag_229:\n        /* \"ERC1967.sol\":72836:72845  uint256 i */\n      0x00\n        /* \"ERC1967.sol\":72831:72928  for (uint256 i = 0; i < amount.length; i++) {... */\n    tag_231:\n        /* \"ERC1967.sol\":72851:72868  i < amount.length */\n      dup3\n      dup2\n      lt\n        /* \"ERC1967.sol\":72831:72928  for (uint256 i = 0; i < amount.length; i++) {... */\n      iszero\n      tag_232\n      jumpi\n        /* \"ERC1967.sol\":72910:72916  status */\n      dup2\n        /* \"ERC1967.sol\":72890:72896  _canTx */\n      0x16\n        /* \"ERC1967.sol\":72890:72907  _canTx[amount[i]] */\n      0x00\n        /* \"ERC1967.sol\":72897:72903  amount */\n      dup7\n      dup7\n        /* \"ERC1967.sol\":72904:72905  i */\n      dup6\n        /* \"ERC1967.sol\":72897:72906  amount[i] */\n      dup2\n      dup2\n      lt\n      tag_235\n      jumpi\n      tag_235\n      tag_236\n      jump\t// in\n    tag_235:\n      swap1\n      pop\n      0x20\n      mul\n      add\n      0x20\n      dup2\n      add\n      swap1\n      tag_237\n      swap2\n      swap1\n      tag_127\n      jump\t// in\n    tag_237:\n      sub(shl(0xa0, 0x01), 0x01)\n        /* \"ERC1967.sol\":72890:72907  _canTx[amount[i]] */\n      and\n      dup2\n      mstore\n      0x20\n      dup2\n      add\n      swap2\n      swap1\n      swap2\n      mstore\n      0x40\n      add\n      0x00\n      keccak256\n        /* \"ERC1967.sol\":72890:72916  _canTx[amount[i]] = status */\n      dup1\n      sload\n      not(0xff)\n      and\n      swap2\n      iszero\n      iszero\n      swap2\n      swap1\n      swap2\n      or\n      swap1\n      sstore\n      0x01\n        /* \"ERC1967.sol\":72870:72873  i++ */\n      add\n        /* \"ERC1967.sol\":72831:72928  for (uint256 i = 0; i < amount.length; i++) {... */\n      jump(tag_231)\n    tag_232:\n      pop\n        /* \"ERC1967.sol\":72718:72935  function addAddress(address[] calldata amount, bool status)... */\n      pop\n      pop\n      pop\n      jump\t// out\n        /* \"ERC1967.sol\":72245:72710  function removeETH() external {... */\n    tag_77:\n        /* \"ERC1967.sol\":72308:72315  owner() */\n      tag_239\n        /* \"ERC1967.sol\":72308:72313  owner */\n      tag_135\n        /* \"ERC1967.sol\":72308:72315  owner() */\n      jump\t// in\n    tag_239:\n      sub(shl(0xa0, 0x01), 0x01)\n        /* \"ERC1967.sol\":72294:72315  msg.sender == owner() */\n      and\n        /* \"ERC1967.sol\":72294:72304  msg.sender */\n      caller\n      sub(shl(0xa0, 0x01), 0x01)\n        /* \"ERC1967.sol\":72294:72315  msg.sender == owner() */\n      and\n      eq\n        /* \"ERC1967.sol\":72286:72349  require(msg.sender == owner(), \"Only fee receiver can trigger\") */\n      tag_240\n      jumpi\n      mload(0x40)\n      shl(0xe5, 0x461bcd)\n      dup2\n      mstore\n        /* \"#utility.yul\":9702:9704   */\n      0x20\n        /* \"ERC1967.sol\":72286:72349  require(msg.sender == owner(), \"Only fee receiver can trigger\") */\n      0x04\n      dup3\n      add\n        /* \"#utility.yul\":9684:9705   */\n      mstore\n        /* \"#utility.yul\":9741:9743   */\n      0x1d\n        /* \"#utility.yul\":9721:9739   */\n      0x24\n      dup3\n      add\n        /* \"#utility.yul\":9714:9744   */\n      mstore\n        /* \"#utility.yul\":9780:9811   */\n      0x4f6e6c79206665652072656365697665722063616e2074726967676572000000\n        /* \"#utility.yul\":9760:9778   */\n      0x44\n      dup3\n      add\n        /* \"#utility.yul\":9753:9812   */\n      mstore\n        /* \"#utility.yul\":9829:9847   */\n      0x64\n      add\n        /* \"ERC1967.sol\":72286:72349  require(msg.sender == owner(), \"Only fee receiver can trigger\") */\n      tag_219\n        /* \"#utility.yul\":9500:9853   */\n      jump\n        /* \"ERC1967.sol\":72286:72349  require(msg.sender == owner(), \"Only fee receiver can trigger\") */\n    tag_240:\n        /* \"ERC1967.sol\":72360:72370  uint share */\n      0x00\n        /* \"ERC1967.sol\":72373:72398  address(this).balance / 8 */\n      tag_243\n        /* \"ERC1967.sol\":72397:72398  8 */\n      0x08\n        /* \"ERC1967.sol\":72373:72394  address(this).balance */\n      selfbalance\n        /* \"ERC1967.sol\":72373:72398  address(this).balance / 8 */\n      tag_200\n      jump\t// in\n    tag_243:\n        /* \"ERC1967.sol\":72409:72420  _taxWallet1 */\n      sload(0x01)\n        /* \"ERC1967.sol\":72409:72436  _taxWallet1.transfer(share) */\n      mload(0x40)\n        /* \"ERC1967.sol\":72360:72398  uint share = address(this).balance / 8 */\n      swap2\n      swap3\n      pop\n      sub(shl(0xa0, 0x01), 0x01)\n        /* \"ERC1967.sol\":72409:72420  _taxWallet1 */\n      and\n      swap1\n        /* \"ERC1967.sol\":72409:72436  _taxWallet1.transfer(share) */\n      dup3\n      iszero\n      0x08fc\n      mul\n      swap1\n        /* \"ERC1967.sol\":72360:72398  uint share = address(this).balance / 8 */\n      dup4\n      swap1\n        /* \"ERC1967.sol\":72409:72420  _taxWallet1 */\n      0x00\n        /* \"ERC1967.sol\":72409:72436  _taxWallet1.transfer(share) */\n      dup2\n        /* \"ERC1967.sol\":72409:72420  _taxWallet1 */\n      dup2\n        /* \"ERC1967.sol\":72409:72436  _taxWallet1.transfer(share) */\n      dup2\n        /* \"ERC1967.sol\":72360:72398  uint share = address(this).balance / 8 */\n      dup6\n        /* \"ERC1967.sol\":72409:72420  _taxWallet1 */\n      dup9\n        /* \"ERC1967.sol\":72409:72436  _taxWallet1.transfer(share) */\n      dup9\n      call\n      swap4\n      pop\n      pop\n      pop\n      pop\n      iszero\n      dup1\n      iszero\n      tag_245\n      jumpi\n      returndatasize\n      0x00\n      dup1\n      returndatacopy\n      revert(0x00, returndatasize)\n    tag_245:\n      pop\n        /* \"ERC1967.sol\":72447:72458  _taxWallet2 */\n      sload(0x02)\n        /* \"ERC1967.sol\":72447:72474  _taxWallet2.transfer(share) */\n      mload(0x40)\n      sub(shl(0xa0, 0x01), 0x01)\n        /* \"ERC1967.sol\":72447:72458  _taxWallet2 */\n      swap1\n      swap2\n      and\n      swap1\n        /* \"ERC1967.sol\":72447:72474  _taxWallet2.transfer(share) */\n      dup3\n      iszero\n      0x08fc\n      mul\n      swap1\n        /* \"ERC1967.sol\":72468:72473  share */\n      dup4\n      swap1\n        /* \"ERC1967.sol\":72447:72458  _taxWallet2 */\n      0x00\n        /* \"ERC1967.sol\":72447:72474  _taxWallet2.transfer(share) */\n      dup2\n        /* \"ERC1967.sol\":72447:72458  _taxWallet2 */\n      dup2\n        /* \"ERC1967.sol\":72447:72474  _taxWallet2.transfer(share) */\n      dup2\n        /* \"ERC1967.sol\":72468:72473  share */\n      dup6\n        /* \"ERC1967.sol\":72447:72458  _taxWallet2 */\n      dup9\n        /* \"ERC1967.sol\":72447:72474  _taxWallet2.transfer(share) */\n      dup9\n      call\n      swap4\n      pop\n      pop\n      pop\n      pop\n      iszero\n      dup1\n      iszero\n      tag_247\n      jumpi\n      returndatasize\n      0x00\n      dup1\n      returndatacopy\n      revert(0x00, returndatasize)\n    tag_247:\n      pop\n        /* \"ERC1967.sol\":72485:72496  _taxWallet3 */\n      sload(0x03)\n        /* \"ERC1967.sol\":72485:72512  _taxWallet3.transfer(share) */\n      mload(0x40)\n      sub(shl(0xa0, 0x01), 0x01)\n        /* \"ERC1967.sol\":72485:72496  _taxWallet3 */\n      swap1\n      swap2\n      and\n      swap1\n        /* \"ERC1967.sol\":72485:72512  _taxWallet3.transfer(share) */\n      dup3\n      iszero\n      0x08fc\n      mul\n      swap1\n        /* \"ERC1967.sol\":72506:72511  share */\n      dup4\n      swap1\n        /* \"ERC1967.sol\":72485:72496  _taxWallet3 */\n      0x00\n        /* \"ERC1967.sol\":72485:72512  _taxWallet3.transfer(share) */\n      dup2\n        /* \"ERC1967.sol\":72485:72496  _taxWallet3 */\n      dup2\n        /* \"ERC1967.sol\":72485:72512  _taxWallet3.transfer(share) */\n      dup2\n        /* \"ERC1967.sol\":72506:72511  share */\n      dup6\n        /* \"ERC1967.sol\":72485:72496  _taxWallet3 */\n      dup9\n        /* \"ERC1967.sol\":72485:72512  _taxWallet3.transfer(share) */\n      dup9\n      call\n      swap4\n      pop\n      pop\n      pop\n      pop\n      iszero\n      dup1\n      iszero\n      tag_249\n      jumpi\n      returndatasize\n      0x00\n      dup1\n      returndatacopy\n      revert(0x00, returndatasize)\n    tag_249:\n      pop\n        /* \"ERC1967.sol\":72523:72534  _taxWallet4 */\n      sload(0x04)\n        /* \"ERC1967.sol\":72523:72550  _taxWallet4.transfer(share) */\n      mload(0x40)\n      sub(shl(0xa0, 0x01), 0x01)\n        /* \"ERC1967.sol\":72523:72534  _taxWallet4 */\n      swap1\n      swap2\n      and\n      swap1\n        /* \"ERC1967.sol\":72523:72550  _taxWallet4.transfer(share) */\n      dup3\n      iszero\n      0x08fc\n      mul\n      swap1\n        /* \"ERC1967.sol\":72544:72549  share */\n      dup4\n      swap1\n        /* \"ERC1967.sol\":72523:72534  _taxWallet4 */\n      0x00\n        /* \"ERC1967.sol\":72523:72550  _taxWallet4.transfer(share) */\n      dup2\n        /* \"ERC1967.sol\":72523:72534  _taxWallet4 */\n      dup2\n        /* \"ERC1967.sol\":72523:72550  _taxWallet4.transfer(share) */\n      dup2\n        /* \"ERC1967.sol\":72544:72549  share */\n      dup6\n        /* \"ERC1967.sol\":72523:72534  _taxWallet4 */\n      dup9\n        /* \"ERC1967.sol\":72523:72550  _taxWallet4.transfer(share) */\n      dup9\n      call\n      swap4\n      pop\n      pop\n      pop\n      pop\n      iszero\n      dup1\n      iszero\n      tag_251\n      jumpi\n      returndatasize\n      0x00\n      dup1\n      returndatacopy\n      revert(0x00, returndatasize)\n    tag_251:\n      pop\n        /* \"ERC1967.sol\":72561:72572  _taxWallet5 */\n      sload(0x05)\n        /* \"ERC1967.sol\":72561:72588  _taxWallet5.transfer(share) */\n      mload(0x40)\n      sub(shl(0xa0, 0x01), 0x01)\n        /* \"ERC1967.sol\":72561:72572  _taxWallet5 */\n      swap1\n      swap2\n      and\n      swap1\n        /* \"ERC1967.sol\":72561:72588  _taxWallet5.transfer(share) */\n      dup3\n      iszero\n      0x08fc\n      mul\n      swap1\n        /* \"ERC1967.sol\":72582:72587  share */\n      dup4\n      swap1\n        /* \"ERC1967.sol\":72561:72572  _taxWallet5 */\n      0x00\n        /* \"ERC1967.sol\":72561:72588  _taxWallet5.transfer(share) */\n      dup2\n        /* \"ERC1967.sol\":72561:72572  _taxWallet5 */\n      dup2\n        /* \"ERC1967.sol\":72561:72588  _taxWallet5.transfer(share) */\n      dup2\n        /* \"ERC1967.sol\":72582:72587  share */\n      dup6\n        /* \"ERC1967.sol\":72561:72572  _taxWallet5 */\n      dup9\n        /* \"ERC1967.sol\":72561:72588  _taxWallet5.transfer(share) */\n      dup9\n      call\n      swap4\n      pop\n      pop\n      pop\n      pop\n      iszero\n      dup1\n      iszero\n      tag_253\n      jumpi\n      returndatasize\n      0x00\n      dup1\n      returndatacopy\n      revert(0x00, returndatasize)\n    tag_253:\n      pop\n        /* \"ERC1967.sol\":72599:72610  _taxWallet6 */\n      sload(0x06)\n        /* \"ERC1967.sol\":72599:72626  _taxWallet6.transfer(share) */\n      mload(0x40)\n      sub(shl(0xa0, 0x01), 0x01)\n        /* \"ERC1967.sol\":72599:72610  _taxWallet6 */\n      swap1\n      swap2\n      and\n      swap1\n        /* \"ERC1967.sol\":72599:72626  _taxWallet6.transfer(share) */\n      dup3\n      iszero\n      0x08fc\n      mul\n      swap1\n        /* \"ERC1967.sol\":72620:72625  share */\n      dup4\n      swap1\n        /* \"ERC1967.sol\":72599:72610  _taxWallet6 */\n      0x00\n        /* \"ERC1967.sol\":72599:72626  _taxWallet6.transfer(share) */\n      dup2\n        /* \"ERC1967.sol\":72599:72610  _taxWallet6 */\n      dup2\n        /* \"ERC1967.sol\":72599:72626  _taxWallet6.transfer(share) */\n      dup2\n        /* \"ERC1967.sol\":72620:72625  share */\n      dup6\n        /* \"ERC1967.sol\":72599:72610  _taxWallet6 */\n      dup9\n        /* \"ERC1967.sol\":72599:72626  _taxWallet6.transfer(share) */\n      dup9\n      call\n      swap4\n      pop\n      pop\n      pop\n      pop\n      iszero\n      dup1\n      iszero\n      tag_255\n      jumpi\n      returndatasize\n      0x00\n      dup1\n      returndatacopy\n      revert(0x00, returndatasize)\n    tag_255:\n      pop\n        /* \"ERC1967.sol\":72637:72648  _taxWallet7 */\n      sload(0x07)\n        /* \"ERC1967.sol\":72637:72664  _taxWallet7.transfer(share) */\n      mload(0x40)\n      sub(shl(0xa0, 0x01), 0x01)\n        /* \"ERC1967.sol\":72637:72648  _taxWallet7 */\n      swap1\n      swap2\n      and\n      swap1\n        /* \"ERC1967.sol\":72637:72664  _taxWallet7.transfer(share) */\n      dup3\n      iszero\n      0x08fc\n      mul\n      swap1\n        /* \"ERC1967.sol\":72658:72663  share */\n      dup4\n      swap1\n        /* \"ERC1967.sol\":72637:72648  _taxWallet7 */\n      0x00\n        /* \"ERC1967.sol\":72637:72664  _taxWallet7.transfer(share) */\n      dup2\n        /* \"ERC1967.sol\":72637:72648  _taxWallet7 */\n      dup2\n        /* \"ERC1967.sol\":72637:72664  _taxWallet7.transfer(share) */\n      dup2\n        /* \"ERC1967.sol\":72658:72663  share */\n      dup6\n        /* \"ERC1967.sol\":72637:72648  _taxWallet7 */\n      dup9\n        /* \"ERC1967.sol\":72637:72664  _taxWallet7.transfer(share) */\n      dup9\n      call\n      swap4\n      pop\n      pop\n      pop\n      pop\n      iszero\n      dup1\n      iszero\n      tag_257\n      jumpi\n      returndatasize\n      0x00\n      dup1\n      returndatacopy\n      revert(0x00, returndatasize)\n    tag_257:\n      pop\n        /* \"ERC1967.sol\":72675:72686  _taxWallet8 */\n      sload(0x08)\n        /* \"ERC1967.sol\":72675:72702  _taxWallet8.transfer(share) */\n      mload(0x40)\n      sub(shl(0xa0, 0x01), 0x01)\n        /* \"ERC1967.sol\":72675:72686  _taxWallet8 */\n      swap1\n      swap2\n      and\n      swap1\n        /* \"ERC1967.sol\":72675:72702  _taxWallet8.transfer(share) */\n      dup3\n      iszero\n      0x08fc\n      mul\n      swap1\n        /* \"ERC1967.sol\":72696:72701  share */\n      dup4\n      swap1\n        /* \"ERC1967.sol\":72675:72686  _taxWallet8 */\n      0x00\n        /* \"ERC1967.sol\":72675:72702  _taxWallet8.transfer(share) */\n      dup2\n        /* \"ERC1967.sol\":72675:72686  _taxWallet8 */\n      dup2\n        /* \"ERC1967.sol\":72675:72702  _taxWallet8.transfer(share) */\n      dup2\n        /* \"ERC1967.sol\":72696:72701  share */\n      dup6\n        /* \"ERC1967.sol\":72675:72686  _taxWallet8 */\n      dup9\n        /* \"ERC1967.sol\":72675:72702  _taxWallet8.transfer(share) */\n      dup9\n      call\n      swap4\n      pop\n      pop\n      pop\n      pop\n      iszero\n      dup1\n      iszero\n      tag_259\n      jumpi\n      returndatasize\n      0x00\n      dup1\n      returndatacopy\n      revert(0x00, returndatasize)\n    tag_259:\n      pop\n        /* \"ERC1967.sol\":72275:72710  {... */\n      pop\n        /* \"ERC1967.sol\":72245:72710  function removeETH() external {... */\n      jump\t// out\n        /* \"ERC1967.sol\":26802:27051  function transferFrom(address from, address to, uint256 value) public virtual returns (bool) {... */\n    tag_82:\n        /* \"ERC1967.sol\":26889:26893  bool */\n      0x00\n        /* \"ERC1967.sol\":13742:13752  msg.sender */\n      caller\n        /* \"ERC1967.sol\":26947:26984  _spendAllowance(from, spender, value) */\n      tag_262\n        /* \"ERC1967.sol\":26963:26967  from */\n      dup6\n        /* \"ERC1967.sol\":13742:13752  msg.sender */\n      dup3\n        /* \"ERC1967.sol\":26978:26983  value */\n      dup6\n        /* \"ERC1967.sol\":26947:26962  _spendAllowance */\n      tag_263\n        /* \"ERC1967.sol\":26947:26984  _spendAllowance(from, spender, value) */\n      jump\t// in\n    tag_262:\n        /* \"ERC1967.sol\":26995:27021  _transfer(from, to, value) */\n      tag_264\n        /* \"ERC1967.sol\":27005:27009  from */\n      dup6\n        /* \"ERC1967.sol\":27011:27013  to */\n      dup6\n        /* \"ERC1967.sol\":27015:27020  value */\n      dup6\n        /* \"ERC1967.sol\":26995:27004  _transfer */\n      tag_265\n        /* \"ERC1967.sol\":26995:27021  _transfer(from, to, value) */\n      jump\t// in\n    tag_264:\n        /* \"ERC1967.sol\":27039:27043  true */\n      0x01\n        /* \"ERC1967.sol\":27032:27043  return true */\n      swap2\n      pop\n      pop\n        /* \"ERC1967.sol\":26802:27051  function transferFrom(address from, address to, uint256 value) public virtual returns (bool) {... */\n    tag_260:\n      swap4\n      swap3\n      pop\n      pop\n      pop\n      jump\t// out\n        /* \"ERC1967.sol\":69912:70712  function setWallets(... */\n    tag_88:\n        /* \"ERC1967.sol\":35513:35526  _checkOwner() */\n      tag_267\n        /* \"ERC1967.sol\":35513:35524  _checkOwner */\n      tag_194\n        /* \"ERC1967.sol\":35513:35526  _checkOwner() */\n      jump\t// in\n    tag_267:\n        /* \"ERC1967.sol\":70233:70244  _taxWallet1 */\n      0x01\n        /* \"ERC1967.sol\":70233:70257  _taxWallet1 = taxWallet1 */\n      dup1\n      sload\n      sub(shl(0xa0, 0x01), 0x01)\n      dup11\n      dup2\n      and\n      not(sub(shl(0xa0, 0x01), 0x01))\n      swap3\n      dup4\n      and\n      dup2\n      or\n      swap1\n      swap4\n      sstore\n        /* \"ERC1967.sol\":70268:70279  _taxWallet2 */\n      0x02\n        /* \"ERC1967.sol\":70268:70292  _taxWallet2 = taxWallet2 */\n      dup1\n      sload\n      dup12\n      dup4\n      and\n      swap1\n      dup5\n      and\n      dup2\n      or\n      swap1\n      swap2\n      sstore\n        /* \"ERC1967.sol\":70303:70314  _taxWallet3 */\n      0x03\n        /* \"ERC1967.sol\":70303:70327  _taxWallet3 = taxWallet3 */\n      dup1\n      sload\n      dup12\n      dup5\n      and\n      swap1\n      dup6\n      and\n      dup2\n      or\n      swap1\n      swap2\n      sstore\n        /* \"ERC1967.sol\":70338:70349  _taxWallet4 */\n      0x04\n        /* \"ERC1967.sol\":70338:70362  _taxWallet4 = taxWallet4 */\n      dup1\n      sload\n      dup12\n      dup6\n      and\n      swap1\n      dup7\n      and\n      dup2\n      or\n      swap1\n      swap2\n      sstore\n        /* \"ERC1967.sol\":70373:70384  _taxWallet5 */\n      0x05\n        /* \"ERC1967.sol\":70373:70397  _taxWallet5 = taxWallet5 */\n      dup1\n      sload\n      dup12\n      dup7\n      and\n      swap1\n      dup8\n      and\n      dup2\n      or\n      swap1\n      swap2\n      sstore\n        /* \"ERC1967.sol\":70408:70419  _taxWallet6 */\n      0x06\n        /* \"ERC1967.sol\":70408:70432  _taxWallet6 = taxWallet6 */\n      dup1\n      sload\n      dup12\n      dup8\n      and\n      swap1\n      dup9\n      and\n      dup2\n      or\n      swap1\n      swap2\n      sstore\n        /* \"ERC1967.sol\":70443:70454  _taxWallet7 */\n      0x07\n        /* \"ERC1967.sol\":70443:70467  _taxWallet7 = taxWallet7 */\n      dup1\n      sload\n      dup12\n      dup9\n      and\n      swap1\n      dup10\n      and\n      dup2\n      or\n      swap1\n      swap2\n      sstore\n        /* \"ERC1967.sol\":70478:70489  _taxWallet8 */\n      0x08\n        /* \"ERC1967.sol\":70478:70502  _taxWallet8 = taxWallet8 */\n      dup1\n      sload\n      swap8\n      dup12\n      and\n      swap8\n      swap1\n      swap9\n      and\n      dup8\n      or\n      swap1\n      swap8\n      sstore\n        /* \"ERC1967.sol\":70520:70704  FeeReceiversUpdated(_taxWallet1,_taxWallet2,_taxWallet3,... */\n      0x40\n      dup1\n      mload\n        /* \"#utility.yul\":10367:10401   */\n      swap9\n      dup10\n      mstore\n        /* \"#utility.yul\":10432:10434   */\n      0x20\n        /* \"#utility.yul\":10417:10435   */\n      dup10\n      add\n        /* \"#utility.yul\":10410:10453   */\n      swap6\n      swap1\n      swap6\n      mstore\n        /* \"#utility.yul\":10469:10487   */\n      swap4\n      dup8\n      add\n        /* \"#utility.yul\":10462:10505   */\n      swap3\n      swap1\n      swap3\n      mstore\n        /* \"#utility.yul\":10536:10538   */\n      0x60\n        /* \"#utility.yul\":10521:10539   */\n      dup7\n      add\n        /* \"#utility.yul\":10514:10557   */\n      mstore\n        /* \"#utility.yul\":10588:10591   */\n      0x80\n        /* \"#utility.yul\":10573:10592   */\n      dup6\n      add\n        /* \"#utility.yul\":10566:10610   */\n      mstore\n        /* \"#utility.yul\":10347:10350   */\n      0xa0\n        /* \"#utility.yul\":10626:10645   */\n      dup5\n      add\n        /* \"#utility.yul\":10619:10663   */\n      mstore\n        /* \"#utility.yul\":10694:10697   */\n      0xc0\n        /* \"#utility.yul\":10679:10698   */\n      dup4\n      add\n        /* \"#utility.yul\":10672:10716   */\n      swap2\n      swap1\n      swap2\n      mstore\n        /* \"#utility.yul\":10747:10750   */\n      0xe0\n        /* \"#utility.yul\":10732:10751   */\n      dup3\n      add\n        /* \"#utility.yul\":10725:10769   */\n      mstore\n        /* \"ERC1967.sol\":70520:70704  FeeReceiversUpdated(_taxWallet1,_taxWallet2,_taxWallet3,... */\n      0x52e6e0e286d372f9e966ef36de088520ff74564d54d64ad119477262ca461e7b\n      swap1\n        /* \"#utility.yul\":10316:10319   */\n      0x0100\n        /* \"#utility.yul\":10301:10320   */\n      add\n        /* \"ERC1967.sol\":70520:70704  FeeReceiversUpdated(_taxWallet1,_taxWallet2,_taxWallet3,... */\n      mload(0x40)\n      dup1\n      swap2\n      sub\n      swap1\n      log1\n        /* \"ERC1967.sol\":69912:70712  function setWallets(... */\n      pop\n      pop\n      pop\n      pop\n      pop\n      pop\n      pop\n      pop\n      jump\t// out\n        /* \"ERC1967.sol\":72943:73114  function exemptFee(address account, bool status) external onlyOwner {... */\n    tag_93:\n        /* \"ERC1967.sol\":35513:35526  _checkOwner() */\n      tag_272\n        /* \"ERC1967.sol\":35513:35524  _checkOwner */\n      tag_194\n        /* \"ERC1967.sol\":35513:35526  _checkOwner() */\n      jump\t// in\n    tag_272:\n      sub(shl(0xa0, 0x01), 0x01)\n        /* \"ERC1967.sol\":73022:73049  _isExcludedFromFee[account] */\n      dup3\n      and\n        /* \"ERC1967.sol\":73022:73040  _isExcludedFromFee */\n      0x00\n        /* \"ERC1967.sol\":73022:73049  _isExcludedFromFee[account] */\n      dup2\n      dup2\n      mstore\n      0x20\n      dup2\n      dup2\n      mstore\n      0x40\n      swap2\n      dup3\n      swap1\n      keccak256\n        /* \"ERC1967.sol\":73022:73058  _isExcludedFromFee[account] = status */\n      dup1\n      sload\n      not(0xff)\n      and\n      dup6\n      iszero\n      iszero\n      swap1\n      dup2\n      or\n      swap1\n      swap2\n      sstore\n        /* \"ERC1967.sol\":73074:73106  ExcludedFromFee(account, status) */\n      dup3\n      mload\n        /* \"#utility.yul\":10948:10999   */\n      swap4\n      dup5\n      mstore\n        /* \"#utility.yul\":11015:11033   */\n      swap1\n      dup4\n      add\n        /* \"#utility.yul\":11008:11058   */\n      mstore\n        /* \"ERC1967.sol\":73074:73106  ExcludedFromFee(account, status) */\n      0x2d43abd87b27cee7b0aa8c6f7e0b4a3247b683262a83cbc2318b0df398a49aa9\n      swap2\n        /* \"#utility.yul\":10921:10939   */\n      add\n        /* \"ERC1967.sol\":73074:73106  ExcludedFromFee(account, status) */\n      tag_204\n        /* \"#utility.yul\":10780:11064   */\n      jump\n        /* \"ERC1967.sol\":78413:78506  function burn(uint256 amount) public onlyOwner... */\n    tag_103:\n        /* \"ERC1967.sol\":35513:35526  _checkOwner() */\n      tag_278\n        /* \"ERC1967.sol\":35513:35524  _checkOwner */\n      tag_194\n        /* \"ERC1967.sol\":35513:35526  _checkOwner() */\n      jump\t// in\n    tag_278:\n        /* \"ERC1967.sol\":78476:78498  _burn(owner(), amount) */\n      tag_280\n        /* \"ERC1967.sol\":78482:78489  owner() */\n      tag_281\n        /* \"ERC1967.sol\":78482:78487  owner */\n      tag_135\n        /* \"ERC1967.sol\":78482:78489  owner() */\n      jump\t// in\n    tag_281:\n        /* \"ERC1967.sol\":78491:78497  amount */\n      dup3\n        /* \"ERC1967.sol\":78476:78481  _burn */\n      tag_282\n        /* \"ERC1967.sol\":78476:78498  _burn(owner(), amount) */\n      jump\t// in\n    tag_280:\n        /* \"ERC1967.sol\":78413:78506  function burn(uint256 amount) public onlyOwner... */\n      pop\n      jump\t// out\n        /* \"ERC1967.sol\":60134:60351  function upgradeToAndCall(address newImplementation, bytes memory data) public payable virtual onlyProxy {... */\n    tag_107:\n        /* \"ERC1967.sol\":58589:58602  _checkProxy() */\n      tag_284\n        /* \"ERC1967.sol\":58589:58600  _checkProxy */\n      tag_285\n        /* \"ERC1967.sol\":58589:58602  _checkProxy() */\n      jump\t// in\n    tag_284:\n        /* \"ERC1967.sol\":60250:60286  _authorizeUpgrade(newImplementation) */\n      tag_287\n        /* \"ERC1967.sol\":60268:60285  newImplementation */\n      dup3\n        /* \"ERC1967.sol\":60250:60267  _authorizeUpgrade */\n      tag_288\n        /* \"ERC1967.sol\":60250:60286  _authorizeUpgrade(newImplementation) */\n      jump\t// in\n    tag_287:\n        /* \"ERC1967.sol\":60297:60343  _upgradeToAndCallUUPS(newImplementation, data) */\n      tag_259\n        /* \"ERC1967.sol\":60319:60336  newImplementation */\n      dup3\n        /* \"ERC1967.sol\":60338:60342  data */\n      dup3\n        /* \"ERC1967.sol\":60297:60318  _upgradeToAndCallUUPS */\n      tag_290\n        /* \"ERC1967.sol\":60297:60343  _upgradeToAndCallUUPS(newImplementation, data) */\n      jump\t// in\n        /* \"ERC1967.sol\":59667:59803  function proxiableUUID() external view virtual notDelegated returns (bytes32) {... */\n    tag_110:\n        /* \"ERC1967.sol\":59736:59743  bytes32 */\n      0x00\n        /* \"ERC1967.sol\":58869:58889  _checkNotDelegated() */\n      tag_292\n        /* \"ERC1967.sol\":58869:58887  _checkNotDelegated */\n      tag_293\n        /* \"ERC1967.sol\":58869:58889  _checkNotDelegated() */\n      jump\t// in\n    tag_292:\n      pop\n      0x00\n      dup1\n      mload\n      0x20\n      data_75b20eef8615de99c108b05f0dbda081c91897128caa336d75dffb97c4132b4d\n      dup4\n      codecopy\n      dup2\n      mload\n      swap2\n      mstore\n        /* \"ERC1967.sol\":59667:59803  function proxiableUUID() external view virtual notDelegated returns (bytes32) {... */\n      swap1\n      jump\t// out\n        /* \"ERC1967.sol\":70720:70958  function setTx(uint256 newValue) external onlyOwner {... */\n    tag_116:\n        /* \"ERC1967.sol\":35513:35526  _checkOwner() */\n      tag_296\n        /* \"ERC1967.sol\":35513:35524  _checkOwner */\n      tag_194\n        /* \"ERC1967.sol\":35513:35526  _checkOwner() */\n      jump\t// in\n    tag_296:\n        /* \"ERC1967.sol\":70803:70804  1 */\n      0x01\n        /* \"ERC1967.sol\":70791:70799  newValue */\n      dup2\n        /* \"ERC1967.sol\":70791:70804  newValue >= 1 */\n      lt\n      iszero\n        /* \"ERC1967.sol\":70783:70839  require(newValue >= 1, \"Max tx cant be lower than 0.1%\") */\n      tag_298\n      jumpi\n      mload(0x40)\n      shl(0xe5, 0x461bcd)\n      dup2\n      mstore\n        /* \"#utility.yul\":11271:11273   */\n      0x20\n        /* \"ERC1967.sol\":70783:70839  require(newValue >= 1, \"Max tx cant be lower than 0.1%\") */\n      0x04\n      dup3\n      add\n        /* \"#utility.yul\":11253:11274   */\n      mstore\n        /* \"#utility.yul\":11310:11312   */\n      0x1e\n        /* \"#utility.yul\":11290:11308   */\n      0x24\n      dup3\n      add\n        /* \"#utility.yul\":11283:11313   */\n      mstore\n        /* \"#utility.yul\":11349:11381   */\n      0x4d61782074782063616e74206265206c6f776572207468616e20302e31250000\n        /* \"#utility.yul\":11329:11347   */\n      0x44\n      dup3\n      add\n        /* \"#utility.yul\":11322:11382   */\n      mstore\n        /* \"#utility.yul\":11399:11417   */\n      0x64\n      add\n        /* \"ERC1967.sol\":70783:70839  require(newValue >= 1, \"Max tx cant be lower than 0.1%\") */\n      tag_219\n        /* \"#utility.yul\":11069:11423   */\n      jump\n        /* \"ERC1967.sol\":70783:70839  require(newValue >= 1, \"Max tx cant be lower than 0.1%\") */\n    tag_298:\n        /* \"ERC1967.sol\":70896:70900  1000 */\n      0x03e8\n        /* \"ERC1967.sol\":70884:70892  newValue */\n      dup2\n        /* \"ERC1967.sol\":70868:70881  totalSupply() */\n      tag_301\n      0x00\n      dup1\n      mload\n      0x20\n      data_5c46c655e238aa25f8cbb2dc253afd95ec6fe3438bb2613b924ec6dfbcfd524d\n      dup4\n      codecopy\n      dup2\n      mload\n      swap2\n      mstore\n        /* \"ERC1967.sol\":24808:24822  $._totalSupply */\n      sload\n      swap1\n        /* \"ERC1967.sol\":24675:24830  function totalSupply() public view virtual returns (uint256) {... */\n      jump\n        /* \"ERC1967.sol\":70868:70881  totalSupply() */\n    tag_301:\n        /* \"ERC1967.sol\":70868:70892  totalSupply() * newValue */\n      tag_302\n      swap2\n      swap1\n      tag_198\n      jump\t// in\n    tag_302:\n        /* \"ERC1967.sol\":70867:70900  (totalSupply() * newValue) / 1000 */\n      tag_303\n      swap2\n      swap1\n      tag_200\n      jump\t// in\n    tag_303:\n        /* \"ERC1967.sol\":70850:70864  _txAmountLimit */\n      0x0f\n        /* \"ERC1967.sol\":70850:70900  _txAmountLimit = (totalSupply() * newValue) / 1000 */\n      dup2\n      swap1\n      sstore\n        /* \"ERC1967.sol\":70916:70950  MaxTxAmountUpdated(_txAmountLimit) */\n      mload(0x40)\n        /* \"#utility.yul\":1717:1742   */\n      swap1\n      dup2\n      mstore\n        /* \"ERC1967.sol\":70916:70950  MaxTxAmountUpdated(_txAmountLimit) */\n      0x947f344d56e1e8c70dc492fb94c4ddddd490c016aab685f5e7e47b2e85cb44cf\n      swap1\n        /* \"#utility.yul\":1705:1707   */\n      0x20\n        /* \"#utility.yul\":1690:1708   */\n      add\n        /* \"ERC1967.sol\":70916:70950  MaxTxAmountUpdated(_txAmountLimit) */\n    tag_304:\n      mload(0x40)\n      dup1\n      swap2\n      sub\n      swap1\n      log1\n        /* \"ERC1967.sol\":70720:70958  function setTx(uint256 newValue) external onlyOwner {... */\n      pop\n      jump\t// out\n        /* \"ERC1967.sol\":71947:72237  function setTax(uint256 buyTax, uint256 sellTax) external onlyOwner {... */\n    tag_120:\n        /* \"ERC1967.sol\":35513:35526  _checkOwner() */\n      tag_306\n        /* \"ERC1967.sol\":35513:35524  _checkOwner */\n      tag_194\n        /* \"ERC1967.sol\":35513:35526  _checkOwner() */\n      jump\t// in\n    tag_306:\n        /* \"ERC1967.sol\":72044:72046  99 */\n      0x63\n        /* \"ERC1967.sol\":72034:72040  buyTax */\n      dup3\n        /* \"ERC1967.sol\":72034:72046  buyTax <= 99 */\n      gt\n      iszero\n        /* \"ERC1967.sol\":72026:72072  require(buyTax <= 99, \"Invalid buy tax value\") */\n      tag_308\n      jumpi\n      mload(0x40)\n      shl(0xe5, 0x461bcd)\n      dup2\n      mstore\n        /* \"#utility.yul\":11630:11632   */\n      0x20\n        /* \"ERC1967.sol\":72026:72072  require(buyTax <= 99, \"Invalid buy tax value\") */\n      0x04\n      dup3\n      add\n        /* \"#utility.yul\":11612:11633   */\n      mstore\n        /* \"#utility.yul\":11669:11671   */\n      0x15\n        /* \"#utility.yul\":11649:11667   */\n      0x24\n      dup3\n      add\n        /* \"#utility.yul\":11642:11672   */\n      mstore\n      shl(0x58, 0x496e76616c696420627579207461782076616c7565)\n        /* \"#utility.yul\":11688:11706   */\n      0x44\n      dup3\n      add\n        /* \"#utility.yul\":11681:11732   */\n      mstore\n        /* \"#utility.yul\":11749:11767   */\n      0x64\n      add\n        /* \"ERC1967.sol\":72026:72072  require(buyTax <= 99, \"Invalid buy tax value\") */\n      tag_219\n        /* \"#utility.yul\":11428:11773   */\n      jump\n        /* \"ERC1967.sol\":72026:72072  require(buyTax <= 99, \"Invalid buy tax value\") */\n    tag_308:\n        /* \"ERC1967.sol\":72102:72104  99 */\n      0x63\n        /* \"ERC1967.sol\":72091:72098  sellTax */\n      dup2\n        /* \"ERC1967.sol\":72091:72104  sellTax <= 99 */\n      gt\n      iszero\n        /* \"ERC1967.sol\":72083:72131  require(sellTax <= 99, \"Invalid sell tax value\") */\n      tag_311\n      jumpi\n      mload(0x40)\n      shl(0xe5, 0x461bcd)\n      dup2\n      mstore\n        /* \"#utility.yul\":11980:11982   */\n      0x20\n        /* \"ERC1967.sol\":72083:72131  require(sellTax <= 99, \"Invalid sell tax value\") */\n      0x04\n      dup3\n      add\n        /* \"#utility.yul\":11962:11983   */\n      mstore\n        /* \"#utility.yul\":12019:12021   */\n      0x16\n        /* \"#utility.yul\":11999:12017   */\n      0x24\n      dup3\n      add\n        /* \"#utility.yul\":11992:12022   */\n      mstore\n      shl(0x50, 0x496e76616c69642073656c6c207461782076616c7565)\n        /* \"#utility.yul\":12038:12056   */\n      0x44\n      dup3\n      add\n        /* \"#utility.yul\":12031:12083   */\n      mstore\n        /* \"#utility.yul\":12100:12118   */\n      0x64\n      add\n        /* \"ERC1967.sol\":72083:72131  require(sellTax <= 99, \"Invalid sell tax value\") */\n      tag_219\n        /* \"#utility.yul\":11778:12124   */\n      jump\n        /* \"ERC1967.sol\":72083:72131  require(sellTax <= 99, \"Invalid sell tax value\") */\n    tag_311:\n        /* \"ERC1967.sol\":72142:72148  buyFee */\n      0x0b\n        /* \"ERC1967.sol\":72142:72157  buyFee = buyTax */\n      dup3\n      swap1\n      sstore\n        /* \"ERC1967.sol\":72168:72175  sellFee */\n      0x0c\n        /* \"ERC1967.sol\":72168:72185  sellFee = sellTax */\n      dup2\n      swap1\n      sstore\n        /* \"ERC1967.sol\":72201:72229  FeesUpdated(buyTax, sellTax) */\n      0x40\n      dup1\n      mload\n        /* \"#utility.yul\":8544:8569   */\n      dup4\n      dup2\n      mstore\n        /* \"#utility.yul\":8600:8602   */\n      0x20\n        /* \"#utility.yul\":8585:8603   */\n      dup2\n      add\n        /* \"#utility.yul\":8578:8612   */\n      dup4\n      swap1\n      mstore\n        /* \"ERC1967.sol\":72201:72229  FeesUpdated(buyTax, sellTax) */\n      0x5c6323bf1c2d7aaea2c091a4751c1c87af7f2864650c336507a77d0557af37a1\n      swap2\n        /* \"#utility.yul\":8517:8535   */\n      add\n        /* \"ERC1967.sol\":72201:72229  FeesUpdated(buyTax, sellTax) */\n      tag_204\n        /* \"#utility.yul\":8370:8618   */\n      jump\n        /* \"ERC1967.sol\":71703:71939  function rmvLimits() external onlyOwner {... */\n    tag_123:\n        /* \"ERC1967.sol\":35513:35526  _checkOwner() */\n      tag_316\n        /* \"ERC1967.sol\":35513:35524  _checkOwner */\n      tag_194\n        /* \"ERC1967.sol\":35513:35526  _checkOwner() */\n      jump\t// in\n    tag_316:\n      0x00\n      dup1\n      mload\n      0x20\n      data_5c46c655e238aa25f8cbb2dc253afd95ec6fe3438bb2613b924ec6dfbcfd524d\n      dup4\n      codecopy\n      dup2\n      mload\n      swap2\n      mstore\n        /* \"ERC1967.sol\":24808:24822  $._totalSupply */\n      sload\n        /* \"ERC1967.sol\":71754:71768  _txAmountLimit */\n      0x0f\n        /* \"ERC1967.sol\":71754:71784  _txAmountLimit = totalSupply() */\n      sstore\n      0x00\n      dup1\n      mload\n      0x20\n      data_5c46c655e238aa25f8cbb2dc253afd95ec6fe3438bb2613b924ec6dfbcfd524d\n      dup4\n      codecopy\n      dup2\n      mload\n      swap2\n      mstore\n        /* \"ERC1967.sol\":24808:24822  $._totalSupply */\n      sload\n        /* \"ERC1967.sol\":71795:71813  _walletAmountLimit */\n      0x10\n        /* \"ERC1967.sol\":71795:71829  _walletAmountLimit = totalSupply() */\n      sstore\n        /* \"ERC1967.sol\":71845:71878  MaxTxAmountUpdated(totalSupply()) */\n      0x947f344d56e1e8c70dc492fb94c4ddddd490c016aab685f5e7e47b2e85cb44cf\n        /* \"ERC1967.sol\":71864:71877  totalSupply() */\n      tag_320\n      0x00\n      dup1\n      mload\n      0x20\n      data_5c46c655e238aa25f8cbb2dc253afd95ec6fe3438bb2613b924ec6dfbcfd524d\n      dup4\n      codecopy\n      dup2\n      mload\n      swap2\n      mstore\n        /* \"ERC1967.sol\":24808:24822  $._totalSupply */\n      sload\n      swap1\n        /* \"ERC1967.sol\":24675:24830  function totalSupply() public view virtual returns (uint256) {... */\n      jump\n        /* \"ERC1967.sol\":71864:71877  totalSupply() */\n    tag_320:\n        /* \"ERC1967.sol\":71845:71878  MaxTxAmountUpdated(totalSupply()) */\n      mload(0x40)\n        /* \"#utility.yul\":1717:1742   */\n      swap1\n      dup2\n      mstore\n        /* \"#utility.yul\":1705:1707   */\n      0x20\n        /* \"#utility.yul\":1690:1708   */\n      add\n        /* \"ERC1967.sol\":71845:71878  MaxTxAmountUpdated(totalSupply()) */\n      mload(0x40)\n      dup1\n      swap2\n      sub\n      swap1\n      log1\n        /* \"ERC1967.sol\":71894:71931  MaxWalletAmountUpdated(totalSupply()) */\n      0x4b39c36d20c57d220f61fd25c4349d4435cc03ef6c2a680942f15333c3c3e001\n        /* \"ERC1967.sol\":71917:71930  totalSupply() */\n      tag_322\n      0x00\n      dup1\n      mload\n      0x20\n      data_5c46c655e238aa25f8cbb2dc253afd95ec6fe3438bb2613b924ec6dfbcfd524d\n      dup4\n      codecopy\n      dup2\n      mload\n      swap2\n      mstore\n        /* \"ERC1967.sol\":24808:24822  $._totalSupply */\n      sload\n      swap1\n        /* \"ERC1967.sol\":24675:24830  function totalSupply() public view virtual returns (uint256) {... */\n      jump\n        /* \"ERC1967.sol\":71917:71930  totalSupply() */\n    tag_322:\n        /* \"ERC1967.sol\":71894:71931  MaxWalletAmountUpdated(totalSupply()) */\n      mload(0x40)\n        /* \"#utility.yul\":1717:1742   */\n      swap1\n      dup2\n      mstore\n        /* \"#utility.yul\":1705:1707   */\n      0x20\n        /* \"#utility.yul\":1690:1708   */\n      add\n        /* \"ERC1967.sol\":71894:71931  MaxWalletAmountUpdated(totalSupply()) */\n      mload(0x40)\n      dup1\n      swap2\n      sub\n      swap1\n      log1\n        /* \"ERC1967.sol\":71703:71939  function rmvLimits() external onlyOwner {... */\n      jump\t// out\n        /* \"ERC1967.sol\":24893:25067  function balanceOf(address account) public view virtual returns (uint256) {... */\n    tag_128:\n      sub(shl(0xa0, 0x01), 0x01)\n        /* \"ERC1967.sol\":25039:25059  $._balances[account] */\n      and\n        /* \"ERC1967.sol\":24958:24965  uint256 */\n      0x00\n        /* \"ERC1967.sol\":25039:25059  $._balances[account] */\n      swap1\n      dup2\n      mstore\n      0x00\n      dup1\n      mload\n      0x20\n      data_3874827173e8df9f34323b12b251d1d3c53926ce129e30a0d69f1d47c277041b\n      dup4\n      codecopy\n      dup2\n      mload\n      swap2\n      mstore\n      0x20\n      mstore\n      0x40\n      swap1\n      keccak256\n      sload\n      swap1\n        /* \"ERC1967.sol\":24893:25067  function balanceOf(address account) public view virtual returns (uint256) {... */\n      jump\t// out\n        /* \"ERC1967.sol\":36362:36465  function renounceOwnership() public virtual onlyOwner {... */\n    tag_132:\n        /* \"ERC1967.sol\":35513:35526  _checkOwner() */\n      tag_327\n        /* \"ERC1967.sol\":35513:35524  _checkOwner */\n      tag_194\n        /* \"ERC1967.sol\":35513:35526  _checkOwner() */\n      jump\t// in\n    tag_327:\n        /* \"ERC1967.sol\":36427:36457  _transferOwnership(address(0)) */\n      tag_329\n        /* \"ERC1967.sol\":36454:36455  0 */\n      0x00\n        /* \"ERC1967.sol\":36427:36445  _transferOwnership */\n      tag_330\n        /* \"ERC1967.sol\":36427:36457  _transferOwnership(address(0)) */\n      jump\t// in\n    tag_329:\n        /* \"ERC1967.sol\":36362:36465  function renounceOwnership() public virtual onlyOwner {... */\n      jump\t// out\n        /* \"ERC1967.sol\":35627:35774  function owner() public view virtual returns (address) {... */\n    tag_135:\n        /* \"ERC1967.sol\":34458:34480  OwnableStorageLocation */\n      0x9016d09d72d40fdae2fd8ceac6b6234c7706214fd39c1cd1e609a0528c199300\n        /* \"ERC1967.sol\":35758:35766  $._owner */\n      sload\n      sub(shl(0xa0, 0x01), 0x01)\n      and\n      swap1\n        /* \"ERC1967.sol\":35627:35774  function owner() public view virtual returns (address) {... */\n      jump\t// out\n        /* \"ERC1967.sol\":76326:76728  function triggerSwap() external {... */\n    tag_140:\n        /* \"ERC1967.sol\":76406:76413  owner() */\n      tag_335\n        /* \"ERC1967.sol\":76406:76411  owner */\n      tag_135\n        /* \"ERC1967.sol\":76406:76413  owner() */\n      jump\t// in\n    tag_335:\n      sub(shl(0xa0, 0x01), 0x01)\n        /* \"ERC1967.sol\":76391:76413  msg.sender ==  owner() */\n      and\n        /* \"ERC1967.sol\":76391:76401  msg.sender */\n      caller\n      sub(shl(0xa0, 0x01), 0x01)\n        /* \"ERC1967.sol\":76391:76413  msg.sender ==  owner() */\n      and\n      eq\n        /* \"ERC1967.sol\":76369:76463  require(... */\n      tag_336\n      jumpi\n      mload(0x40)\n      shl(0xe5, 0x461bcd)\n      dup2\n      mstore\n        /* \"#utility.yul\":12331:12333   */\n      0x20\n        /* \"ERC1967.sol\":76369:76463  require(... */\n      0x04\n      dup3\n      add\n        /* \"#utility.yul\":12313:12334   */\n      mstore\n        /* \"#utility.yul\":12370:12372   */\n      0x16\n        /* \"#utility.yul\":12350:12368   */\n      0x24\n      dup3\n      add\n        /* \"#utility.yul\":12343:12373   */\n      mstore\n      shl(0x51, 0x27b7363c9037bbb732b91031b0b7103a3934b3b3b2b9)\n        /* \"#utility.yul\":12389:12407   */\n      0x44\n      dup3\n      add\n        /* \"#utility.yul\":12382:12434   */\n      mstore\n        /* \"#utility.yul\":12451:12469   */\n      0x64\n      add\n        /* \"ERC1967.sol\":76369:76463  require(... */\n      tag_219\n        /* \"#utility.yul\":12129:12475   */\n      jump\n        /* \"ERC1967.sol\":76369:76463  require(... */\n    tag_336:\n        /* \"ERC1967.sol\":76474:76502  uint256 contractTokenBalance */\n      0x00\n        /* \"ERC1967.sol\":76505:76529  balanceOf(address(this)) */\n      tag_339\n        /* \"ERC1967.sol\":76523:76527  this */\n      address\n        /* \"ERC1967.sol\":76505:76514  balanceOf */\n      tag_128\n        /* \"ERC1967.sol\":76505:76529  balanceOf(address(this)) */\n      jump\t// in\n    tag_339:\n        /* \"ERC1967.sol\":76474:76529  uint256 contractTokenBalance = balanceOf(address(this)) */\n      swap1\n      pop\n        /* \"ERC1967.sol\":76542:76580  swapTokensForEth(contractTokenBalance) */\n      tag_340\n        /* \"ERC1967.sol\":76559:76579  contractTokenBalance */\n      dup2\n        /* \"ERC1967.sol\":76542:76558  swapTokensForEth */\n      tag_341\n        /* \"ERC1967.sol\":76542:76580  swapTokensForEth(contractTokenBalance) */\n      jump\t// in\n    tag_340:\n        /* \"ERC1967.sol\":76620:76641  address(this).balance */\n      selfbalance\n        /* \"ERC1967.sol\":76656:76678  contractETHBalance > 0 */\n      dup1\n      iszero\n        /* \"ERC1967.sol\":76652:76721  if (contractETHBalance > 0) {... */\n      tag_259\n      jumpi\n        /* \"ERC1967.sol\":76695:76709  sendETHToFee() */\n      tag_259\n        /* \"ERC1967.sol\":76695:76707  sendETHToFee */\n      tag_344\n        /* \"ERC1967.sol\":76695:76709  sendETHToFee() */\n      jump\t// in\n        /* \"ERC1967.sol\":23727:23878  function symbol() public view virtual returns (string memory) {... */\n    tag_143:\n        /* \"ERC1967.sol\":23861:23870  $._symbol */\n      0x52c63247e1f47db19d5ce0460030c497f067ca4cebf71ba98eeadabe20bace04\n        /* \"ERC1967.sol\":23854:23870  return $._symbol */\n      dup1\n      sload\n        /* \"ERC1967.sol\":23774:23787  string memory */\n      0x60\n      swap2\n      0x00\n      dup1\n      mload\n      0x20\n      data_3874827173e8df9f34323b12b251d1d3c53926ce129e30a0d69f1d47c277041b\n      dup4\n      codecopy\n      dup2\n      mload\n      swap2\n      mstore\n        /* \"ERC1967.sol\":22786:22806  ERC20StorageLocation */\n      swap2\n        /* \"ERC1967.sol\":23854:23870  return $._symbol */\n      tag_209\n      swap1\n      tag_210\n      jump\t// in\n        /* \"ERC1967.sol\":78237:78407  function mint(uint256 amount) public onlyOwner... */\n    tag_148:\n        /* \"ERC1967.sol\":35513:35526  _checkOwner() */\n      tag_353\n        /* \"ERC1967.sol\":35513:35524  _checkOwner */\n      tag_194\n        /* \"ERC1967.sol\":35513:35526  _checkOwner() */\n      jump\t// in\n    tag_353:\n        /* \"ERC1967.sol\":78333:78341  tokenCap */\n      sload(0x15)\n        /* \"ERC1967.sol\":78323:78329  amount */\n      dup2\n        /* \"ERC1967.sol\":78308:78320  _totalSupply */\n      sload(0x17)\n        /* \"ERC1967.sol\":78308:78329  _totalSupply + amount */\n      tag_355\n      swap2\n      swap1\n      tag_356\n      jump\t// in\n    tag_355:\n        /* \"ERC1967.sol\":78308:78341  _totalSupply + amount <= tokenCap */\n      gt\n      iszero\n        /* \"ERC1967.sol\":78300:78366  require(_totalSupply + amount <= tokenCap, \"Supply Limit Reached\") */\n      tag_357\n      jumpi\n      mload(0x40)\n      shl(0xe5, 0x461bcd)\n      dup2\n      mstore\n        /* \"#utility.yul\":12812:12814   */\n      0x20\n        /* \"ERC1967.sol\":78300:78366  require(_totalSupply + amount <= tokenCap, \"Supply Limit Reached\") */\n      0x04\n      dup3\n      add\n        /* \"#utility.yul\":12794:12815   */\n      mstore\n        /* \"#utility.yul\":12851:12853   */\n      0x14\n        /* \"#utility.yul\":12831:12849   */\n      0x24\n      dup3\n      add\n        /* \"#utility.yul\":12824:12854   */\n      mstore\n      shl(0x62, 0x14dd5c1c1b1e48131a5b5a5d0814995858da1959)\n        /* \"#utility.yul\":12870:12888   */\n      0x44\n      dup3\n      add\n        /* \"#utility.yul\":12863:12913   */\n      mstore\n        /* \"#utility.yul\":12930:12948   */\n      0x64\n      add\n        /* \"ERC1967.sol\":78300:78366  require(_totalSupply + amount <= tokenCap, \"Supply Limit Reached\") */\n      tag_219\n        /* \"#utility.yul\":12610:12954   */\n      jump\n        /* \"ERC1967.sol\":78300:78366  require(_totalSupply + amount <= tokenCap, \"Supply Limit Reached\") */\n    tag_357:\n        /* \"ERC1967.sol\":78377:78399  _mint(owner(), amount) */\n      tag_280\n        /* \"ERC1967.sol\":78383:78390  owner() */\n      tag_361\n        /* \"ERC1967.sol\":78383:78388  owner */\n      tag_135\n        /* \"ERC1967.sol\":78383:78390  owner() */\n      jump\t// in\n    tag_361:\n        /* \"ERC1967.sol\":78392:78398  amount */\n      dup3\n        /* \"ERC1967.sol\":78377:78382  _mint */\n      tag_362\n        /* \"ERC1967.sol\":78377:78399  _mint(owner(), amount) */\n      jump\t// in\n        /* \"ERC1967.sol\":25272:25454  function transfer(address to, uint256 value) public virtual returns (bool) {... */\n    tag_152:\n        /* \"ERC1967.sol\":25341:25345  bool */\n      0x00\n        /* \"ERC1967.sol\":13742:13752  msg.sender */\n      caller\n        /* \"ERC1967.sol\":25397:25424  _transfer(owner, to, value) */\n      tag_224\n        /* \"ERC1967.sol\":13742:13752  msg.sender */\n      dup2\n        /* \"ERC1967.sol\":25414:25416  to */\n      dup6\n        /* \"ERC1967.sol\":25418:25423  value */\n      dup6\n        /* \"ERC1967.sol\":25397:25406  _transfer */\n      tag_265\n        /* \"ERC1967.sol\":25397:25424  _transfer(owner, to, value) */\n      jump\t// in\n        /* \"ERC1967.sol\":67175:69361  function initialize(address initialOwner) initializer public {... */\n    tag_166:\n        /* \"ERC1967.sol\":12724:12745  INITIALIZABLE_STORAGE */\n      0xf0c57e16840df040f15088dc2f81fe391c3923bec73e23a9662efc9c229c6a00\n        /* \"ERC1967.sol\":8040:8055  $._initializing */\n      dup1\n      sload\n      shl(0x40, 0x01)\n      dup2\n      div\n      0xff\n      and\n        /* \"ERC1967.sol\":8039:8055  !$._initializing */\n      iszero\n      swap1\n        /* \"ERC1967.sol\":8087:8101  $._initialized */\n      0xffffffffffffffff\n      and\n        /* \"ERC1967.sol\":7893:7923  InitializableStorage storage $ */\n      0x00\n        /* \"ERC1967.sol\":8472:8488  initialized == 0 */\n      dup2\n      iszero\n        /* \"ERC1967.sol\":8472:8506  initialized == 0 && isTopLevelCall */\n      dup1\n      iszero\n      tag_370\n      jumpi\n      pop\n        /* \"ERC1967.sol\":8492:8506  isTopLevelCall */\n      dup3\n        /* \"ERC1967.sol\":8472:8506  initialized == 0 && isTopLevelCall */\n    tag_370:\n        /* \"ERC1967.sol\":8452:8506  bool initialSetup = initialized == 0 && isTopLevelCall */\n      swap1\n      pop\n        /* \"ERC1967.sol\":8517:8534  bool construction */\n      0x00\n        /* \"ERC1967.sol\":8537:8548  initialized */\n      dup3\n        /* \"ERC1967.sol\":8537:8553  initialized == 1 */\n      0xffffffffffffffff\n      and\n        /* \"ERC1967.sol\":8552:8553  1 */\n      0x01\n        /* \"ERC1967.sol\":8537:8553  initialized == 1 */\n      eq\n        /* \"ERC1967.sol\":8537:8587  initialized == 1 && address(this).code.length == 0 */\n      dup1\n      iszero\n      tag_371\n      jumpi\n      pop\n        /* \"ERC1967.sol\":8565:8569  this */\n      address\n        /* \"ERC1967.sol\":8557:8582  address(this).code.length */\n      extcodesize\n        /* \"ERC1967.sol\":8557:8587  address(this).code.length == 0 */\n      iszero\n        /* \"ERC1967.sol\":8537:8587  initialized == 1 && address(this).code.length == 0 */\n    tag_371:\n        /* \"ERC1967.sol\":8517:8587  bool construction = initialized == 1 && address(this).code.length == 0 */\n      swap1\n      pop\n        /* \"ERC1967.sol\":8605:8617  initialSetup */\n      dup2\n        /* \"ERC1967.sol\":8604:8617  !initialSetup */\n      iszero\n        /* \"ERC1967.sol\":8604:8634  !initialSetup && !construction */\n      dup1\n      iszero\n      tag_372\n      jumpi\n      pop\n        /* \"ERC1967.sol\":8622:8634  construction */\n      dup1\n        /* \"ERC1967.sol\":8621:8634  !construction */\n      iszero\n        /* \"ERC1967.sol\":8604:8634  !initialSetup && !construction */\n    tag_372:\n        /* \"ERC1967.sol\":8600:8693  if (!initialSetup && !construction) {... */\n      iszero\n      tag_373\n      jumpi\n        /* \"ERC1967.sol\":8658:8681  InvalidInitialization() */\n      mload(0x40)\n      shl(0xe0, 0xf92ee8a9)\n      dup2\n      mstore\n      0x04\n      add\n      mload(0x40)\n      dup1\n      swap2\n      sub\n      swap1\n      revert\n        /* \"ERC1967.sol\":8600:8693  if (!initialSetup && !construction) {... */\n    tag_373:\n        /* \"ERC1967.sol\":8703:8721  $._initialized = 1 */\n      dup5\n      sload\n      not(0xffffffffffffffff)\n      and\n        /* \"ERC1967.sol\":8720:8721  1 */\n      0x01\n        /* \"ERC1967.sol\":8703:8721  $._initialized = 1 */\n      or\n      dup6\n      sstore\n        /* \"ERC1967.sol\":8732:8801  if (isTopLevelCall) {... */\n      dup4\n      iszero\n      tag_374\n      jumpi\n        /* \"ERC1967.sol\":8767:8789  $._initializing = true */\n      dup5\n      sload\n      not(shl(0x40, 0xff))\n      and\n      shl(0x40, 0x01)\n      or\n      dup6\n      sstore\n        /* \"ERC1967.sol\":8732:8801  if (isTopLevelCall) {... */\n    tag_374:\n        /* \"ERC1967.sol\":67247:67277  __ERC20_init(\"MyToken\", \"MTK\") */\n      tag_376\n      mload(0x40)\n      dup1\n      0x40\n      add\n      0x40\n      mstore\n      dup1\n      0x07\n      dup2\n      mstore\n      0x20\n      add\n      shl(0xc9, 0x26bcaa37b5b2b7)\n      dup2\n      mstore\n      pop\n      mload(0x40)\n      dup1\n      0x40\n      add\n      0x40\n      mstore\n      dup1\n      0x03\n      dup2\n      mstore\n      0x20\n      add\n      shl(0xe8, 0x4d544b)\n      dup2\n      mstore\n      pop\n        /* \"ERC1967.sol\":67247:67259  __ERC20_init */\n      tag_377\n        /* \"ERC1967.sol\":67247:67277  __ERC20_init(\"MyToken\", \"MTK\") */\n      jump\t// in\n    tag_376:\n        /* \"ERC1967.sol\":67288:67316  __Ownable_init(initialOwner) */\n      tag_378\n        /* \"ERC1967.sol\":67303:67315  initialOwner */\n      dup7\n        /* \"ERC1967.sol\":67288:67302  __Ownable_init */\n      tag_379\n        /* \"ERC1967.sol\":67288:67316  __Ownable_init(initialOwner) */\n      jump\t// in\n    tag_378:\n        /* \"ERC1967.sol\":67327:67351  __UUPSUpgradeable_init() */\n      tag_380\n        /* \"ERC1967.sol\":67327:67349  __UUPSUpgradeable_init */\n      tag_381\n        /* \"ERC1967.sol\":67327:67351  __UUPSUpgradeable_init() */\n      jump\t// in\n    tag_380:\n        /* \"ERC1967.sol\":67377:67407  100_000_000_000_000 * 10 ** 18 */\n      0x04ee2d6d415b85acef8100000000\n        /* \"ERC1967.sol\":67362:67374  _totalSupply */\n      0x17\n        /* \"ERC1967.sol\":67362:67407  _totalSupply = 100_000_000_000_000 * 10 ** 18 */\n      dup2\n      swap1\n      sstore\n        /* \"ERC1967.sol\":67429:67461  100_000_000_000_000_0 * 10 ** 18 */\n      0x314dc6448d9338c15b0a00000000\n        /* \"ERC1967.sol\":67418:67426  tokenCap */\n      0x15\n        /* \"ERC1967.sol\":67418:67461  tokenCap = 100_000_000_000_000_0 * 10 ** 18 */\n      sstore\n        /* \"ERC1967.sol\":67511:67515  1000 */\n      0x03e8\n      swap1\n        /* \"ERC1967.sol\":67490:67507  _totalSupply * 10 */\n      tag_382\n      swap1\n        /* \"ERC1967.sol\":67505:67507  10 */\n      0x0a\n        /* \"ERC1967.sol\":67490:67507  _totalSupply * 10 */\n      tag_198\n      jump\t// in\n    tag_382:\n        /* \"ERC1967.sol\":67489:67515  (_totalSupply * 10) / 1000 */\n      tag_383\n      swap2\n      swap1\n      tag_200\n      jump\t// in\n    tag_383:\n        /* \"ERC1967.sol\":67472:67486  _txAmountLimit */\n      0x0f\n        /* \"ERC1967.sol\":67472:67515  _txAmountLimit = (_totalSupply * 10) / 1000 */\n      sstore\n        /* \"ERC1967.sol\":67548:67560  _totalSupply */\n      sload(0x17)\n        /* \"ERC1967.sol\":67569:67573  1000 */\n      0x03e8\n      swap1\n        /* \"ERC1967.sol\":67548:67565  _totalSupply * 10 */\n      tag_384\n      swap1\n        /* \"ERC1967.sol\":67563:67565  10 */\n      0x0a\n        /* \"ERC1967.sol\":67548:67565  _totalSupply * 10 */\n      tag_198\n      jump\t// in\n    tag_384:\n        /* \"ERC1967.sol\":67547:67573  (_totalSupply * 10) / 1000 */\n      tag_385\n      swap2\n      swap1\n      tag_200\n      jump\t// in\n    tag_385:\n        /* \"ERC1967.sol\":67526:67544  _walletAmountLimit */\n      0x10\n        /* \"ERC1967.sol\":67526:67573  _walletAmountLimit = (_totalSupply * 10) / 1000 */\n      sstore\n        /* \"ERC1967.sol\":67600:67612  _totalSupply */\n      sload(0x17)\n        /* \"ERC1967.sol\":67620:67625  10000 */\n      0x2710\n      swap1\n        /* \"ERC1967.sol\":67600:67616  _totalSupply * 5 */\n      tag_386\n      swap1\n        /* \"ERC1967.sol\":67615:67616  5 */\n      0x05\n        /* \"ERC1967.sol\":67600:67616  _totalSupply * 5 */\n      tag_198\n      jump\t// in\n    tag_386:\n        /* \"ERC1967.sol\":67599:67625  (_totalSupply * 5) / 10000 */\n      tag_387\n      swap2\n      swap1\n      tag_200\n      jump\t// in\n    tag_387:\n        /* \"ERC1967.sol\":67584:67596  _swapbackMin */\n      0x11\n        /* \"ERC1967.sol\":67584:67625  _swapbackMin = (_totalSupply * 5) / 10000 */\n      sstore\n        /* \"ERC1967.sol\":67652:67664  _totalSupply */\n      sload(0x17)\n        /* \"ERC1967.sol\":67674:67679  10000 */\n      0x2710\n      swap1\n        /* \"ERC1967.sol\":67652:67670  _totalSupply * 400 */\n      tag_388\n      swap1\n        /* \"ERC1967.sol\":67667:67670  400 */\n      0x0190\n        /* \"ERC1967.sol\":67652:67670  _totalSupply * 400 */\n      tag_198\n      jump\t// in\n    tag_388:\n        /* \"ERC1967.sol\":67651:67679  (_totalSupply * 400) / 10000 */\n      tag_389\n      swap2\n      swap1\n      tag_200\n      jump\t// in\n    tag_389:\n        /* \"ERC1967.sol\":67636:67648  _swapbackMax */\n      0x12\n        /* \"ERC1967.sol\":67636:67679  _swapbackMax = (_totalSupply * 400) / 10000 */\n      sstore\n        /* \"ERC1967.sol\":67699:67701  15 */\n      0x0f\n        /* \"ERC1967.sol\":67690:67696  buyFee */\n      0x0b\n        /* \"ERC1967.sol\":67690:67701  buyFee = 15 */\n      sstore\n        /* \"ERC1967.sol\":67722:67724  40 */\n      0x28\n        /* \"ERC1967.sol\":67712:67719  sellFee */\n      0x0c\n        /* \"ERC1967.sol\":67712:67724  sellFee = 40 */\n      sstore\n        /* \"ERC1967.sol\":67756:67757  1 */\n      0x01\n        /* \"ERC1967.sol\":67735:67753  _preventSwapBefore */\n      0x0d\n        /* \"ERC1967.sol\":67735:67757  _preventSwapBefore = 1 */\n      dup2\n      swap1\n      sstore\n      0x00\n        /* \"ERC1967.sol\":67768:67777  _buyCount */\n      0x0e\n        /* \"ERC1967.sol\":67768:67781  _buyCount = 0 */\n      dup2\n      swap1\n      sstore\n        /* \"ERC1967.sol\":67808:67812  this */\n      address\n        /* \"ERC1967.sol\":67792:67814  _canTx [address(this)] */\n      dup1\n      dup3\n      mstore\n        /* \"ERC1967.sol\":67792:67798  _canTx */\n      0x16\n        /* \"ERC1967.sol\":67792:67814  _canTx [address(this)] */\n      0x20\n      mstore\n      0x40\n      swap1\n      swap2\n      keccak256\n        /* \"ERC1967.sol\":67792:67821  _canTx [address(this)] = true */\n      dup1\n      sload\n      not(0xff)\n      and\n      swap1\n      swap3\n      or\n      swap1\n      swap2\n      sstore\n        /* \"ERC1967.sol\":67833:67848  uniswapV2Router */\n      0x13\n        /* \"ERC1967.sol\":67833:67986  uniswapV2Router = IDexRouter(... */\n      dup1\n      sload\n      not(sub(shl(0xa0, 0x01), 0x01))\n      and\n        /* \"ERC1967.sol\":67933:67975  0x9Ac64Cc6e4415144C455BD8E4837Fea55603e5c3 */\n      0x9ac64cc6e4415144c455bd8e4837fea55603e5c3\n        /* \"ERC1967.sol\":67833:67986  uniswapV2Router = IDexRouter(... */\n      swap1\n      dup2\n      or\n      swap1\n      swap2\n      sstore\n        /* \"ERC1967.sol\":67997:68061  _approve(address(this), address(uniswapV2Router), totalSupply()) */\n      tag_390\n      swap2\n        /* \"ERC1967.sol\":67808:67812  this */\n      swap1\n        /* \"ERC1967.sol\":68047:68060  totalSupply() */\n      tag_391\n      0x00\n      dup1\n      mload\n      0x20\n      data_5c46c655e238aa25f8cbb2dc253afd95ec6fe3438bb2613b924ec6dfbcfd524d\n      dup4\n      codecopy\n      dup2\n      mload\n      swap2\n      mstore\n        /* \"ERC1967.sol\":24808:24822  $._totalSupply */\n      sload\n      swap1\n        /* \"ERC1967.sol\":24675:24830  function totalSupply() public view virtual returns (uint256) {... */\n      jump\n        /* \"ERC1967.sol\":68047:68060  totalSupply() */\n    tag_391:\n        /* \"ERC1967.sol\":67997:68005  _approve */\n      tag_225\n        /* \"ERC1967.sol\":67997:68061  _approve(address(this), address(uniswapV2Router), totalSupply()) */\n      jump\t// in\n    tag_390:\n        /* \"ERC1967.sol\":68100:68115  uniswapV2Router */\n      0x13\n      0x00\n      swap1\n      sload\n      swap1\n      0x0100\n      exp\n      swap1\n      div\n      sub(shl(0xa0, 0x01), 0x01)\n      and\n      sub(shl(0xa0, 0x01), 0x01)\n        /* \"ERC1967.sol\":68100:68123  uniswapV2Router.factory */\n      and\n      0xc45a0155\n        /* \"ERC1967.sol\":68100:68125  uniswapV2Router.factory() */\n      mload(0x40)\n      dup2\n      0xffffffff\n      and\n      0xe0\n      shl\n      dup2\n      mstore\n      0x04\n      add\n      0x20\n      mload(0x40)\n      dup1\n      dup4\n      sub\n      dup2\n      dup7\n      gas\n      staticcall\n      iszero\n      dup1\n      iszero\n      tag_393\n      jumpi\n      returndatasize\n      0x00\n      dup1\n      returndatacopy\n      revert(0x00, returndatasize)\n    tag_393:\n      pop\n      pop\n      pop\n      pop\n      mload(0x40)\n      returndatasize\n      not(0x1f)\n      0x1f\n      dup3\n      add\n      and\n      dup3\n      add\n      dup1\n      0x40\n      mstore\n      pop\n      dup2\n      add\n      swap1\n      tag_394\n      swap2\n      swap1\n      tag_395\n      jump\t// in\n    tag_394:\n      sub(shl(0xa0, 0x01), 0x01)\n        /* \"ERC1967.sol\":68088:68137  IDexFactory(uniswapV2Router.factory()).createPair */\n      and\n      0xc9c65396\n        /* \"ERC1967.sol\":68160:68164  this */\n      address\n        /* \"ERC1967.sol\":68180:68195  uniswapV2Router */\n      0x13\n      0x00\n      swap1\n      sload\n      swap1\n      0x0100\n      exp\n      swap1\n      div\n      sub(shl(0xa0, 0x01), 0x01)\n      and\n      sub(shl(0xa0, 0x01), 0x01)\n        /* \"ERC1967.sol\":68180:68200  uniswapV2Router.WETH */\n      and\n      0xad5c4648\n        /* \"ERC1967.sol\":68180:68202  uniswapV2Router.WETH() */\n      mload(0x40)\n      dup2\n      0xffffffff\n      and\n      0xe0\n      shl\n      dup2\n      mstore\n      0x04\n      add\n      0x20\n      mload(0x40)\n      dup1\n      dup4\n      sub\n      dup2\n      dup7\n      gas\n      staticcall\n      iszero\n      dup1\n      iszero\n      tag_397\n      jumpi\n      returndatasize\n      0x00\n      dup1\n      returndatacopy\n      revert(0x00, returndatasize)\n    tag_397:\n      pop\n      pop\n      pop\n      pop\n      mload(0x40)\n      returndatasize\n      not(0x1f)\n      0x1f\n      dup3\n      add\n      and\n      dup3\n      add\n      dup1\n      0x40\n      mstore\n      pop\n      dup2\n      add\n      swap1\n      tag_398\n      swap2\n      swap1\n      tag_395\n      jump\t// in\n    tag_398:\n        /* \"ERC1967.sol\":68088:68213  IDexFactory(uniswapV2Router.factory()).createPair(... */\n      mload(0x40)\n      not(sub(shl(0xe0, 0x01), 0x01))\n      0xe0\n      dup6\n      swap1\n      shl\n      and\n      dup2\n      mstore\n      sub(shl(0xa0, 0x01), 0x01)\n        /* \"#utility.yul\":13445:13460   */\n      swap3\n      dup4\n      and\n        /* \"ERC1967.sol\":68088:68213  IDexFactory(uniswapV2Router.factory()).createPair(... */\n      0x04\n      dup3\n      add\n        /* \"#utility.yul\":13427:13461   */\n      mstore\n        /* \"#utility.yul\":13497:13512   */\n      swap2\n      and\n        /* \"#utility.yul\":13477:13495   */\n      0x24\n      dup3\n      add\n        /* \"#utility.yul\":13470:13513   */\n      mstore\n        /* \"#utility.yul\":13362:13380   */\n      0x44\n      add\n        /* \"ERC1967.sol\":68088:68213  IDexFactory(uniswapV2Router.factory()).createPair(... */\n      0x20\n      mload(0x40)\n      dup1\n      dup4\n      sub\n      dup2\n      0x00\n      dup8\n      gas\n      call\n      iszero\n      dup1\n      iszero\n      tag_402\n      jumpi\n      returndatasize\n      0x00\n      dup1\n      returndatacopy\n      revert(0x00, returndatasize)\n    tag_402:\n      pop\n      pop\n      pop\n      pop\n      mload(0x40)\n      returndatasize\n      not(0x1f)\n      0x1f\n      dup3\n      add\n      and\n      dup3\n      add\n      dup1\n      0x40\n      mstore\n      pop\n      dup2\n      add\n      swap1\n      tag_403\n      swap2\n      swap1\n      tag_395\n      jump\t// in\n    tag_403:\n        /* \"ERC1967.sol\":68072:68085  uniswapV2Pair */\n      0x14\n        /* \"ERC1967.sol\":68072:68213  uniswapV2Pair = IDexFactory(uniswapV2Router.factory()).createPair(... */\n      dup1\n      sload\n      sub(shl(0xa0, 0x01), 0x01)\n      swap3\n      swap1\n      swap3\n      and\n      not(sub(shl(0xa0, 0x01), 0x01))\n      swap3\n      dup4\n      and\n      or\n      swap1\n      sstore\n      0x01\n        /* \"ERC1967.sol\":68224:68289  _taxWallet1 = payable(0x2F8d1dDD0F3CCf0fe21C505a4eBc56F6f4626c0D) */\n      dup1\n      sload\n      dup3\n      and\n        /* \"ERC1967.sol\":68246:68288  0x2F8d1dDD0F3CCf0fe21C505a4eBc56F6f4626c0D */\n      0x2f8d1ddd0f3ccf0fe21c505a4ebc56f6f4626c0d\n        /* \"ERC1967.sol\":68224:68289  _taxWallet1 = payable(0x2F8d1dDD0F3CCf0fe21C505a4eBc56F6f4626c0D) */\n      swap1\n      dup2\n      or\n      dup3\n      sstore\n        /* \"ERC1967.sol\":68300:68311  _taxWallet2 */\n      0x02\n        /* \"ERC1967.sol\":68300:68365  _taxWallet2 = payable(0x2F8d1dDD0F3CCf0fe21C505a4eBc56F6f4626c0D) */\n      dup1\n      sload\n      dup5\n      and\n      dup3\n      or\n      swap1\n      sstore\n        /* \"ERC1967.sol\":68376:68387  _taxWallet3 */\n      0x03\n        /* \"ERC1967.sol\":68376:68441  _taxWallet3 = payable(0x2F8d1dDD0F3CCf0fe21C505a4eBc56F6f4626c0D) */\n      dup1\n      sload\n      dup5\n      and\n      dup3\n      or\n      swap1\n      sstore\n        /* \"ERC1967.sol\":68452:68463  _taxWallet4 */\n      0x04\n        /* \"ERC1967.sol\":68452:68517  _taxWallet4 = payable(0x2F8d1dDD0F3CCf0fe21C505a4eBc56F6f4626c0D) */\n      dup1\n      sload\n      dup5\n      and\n      dup3\n      or\n      swap1\n      sstore\n        /* \"ERC1967.sol\":68528:68539  _taxWallet5 */\n      0x05\n        /* \"ERC1967.sol\":68528:68593  _taxWallet5 = payable(0x2F8d1dDD0F3CCf0fe21C505a4eBc56F6f4626c0D) */\n      dup1\n      sload\n      dup5\n      and\n      dup3\n      or\n      swap1\n      sstore\n        /* \"ERC1967.sol\":68604:68615  _taxWallet6 */\n      0x06\n        /* \"ERC1967.sol\":68604:68669  _taxWallet6 = payable(0x2F8d1dDD0F3CCf0fe21C505a4eBc56F6f4626c0D) */\n      dup1\n      sload\n      dup5\n      and\n      dup3\n      or\n      swap1\n      sstore\n        /* \"ERC1967.sol\":68680:68691  _taxWallet7 */\n      0x07\n        /* \"ERC1967.sol\":68680:68745  _taxWallet7 = payable(0x2F8d1dDD0F3CCf0fe21C505a4eBc56F6f4626c0D) */\n      dup1\n      sload\n      dup5\n      and\n      dup3\n      or\n      swap1\n      sstore\n        /* \"ERC1967.sol\":68756:68767  _taxWallet8 */\n      0x08\n        /* \"ERC1967.sol\":68756:68821  _taxWallet8 = payable(0x2F8d1dDD0F3CCf0fe21C505a4eBc56F6f4626c0D) */\n      dup1\n      sload\n      swap1\n      swap4\n      and\n      or\n      swap1\n      swap2\n      sstore\n        /* \"ERC1967.sol\":68072:68085  uniswapV2Pair */\n      0x00\n      dup1\n        /* \"ERC1967.sol\":68851:68858  owner() */\n      tag_404\n        /* \"ERC1967.sol\":68851:68856  owner */\n      tag_135\n        /* \"ERC1967.sol\":68851:68858  owner() */\n      jump\t// in\n    tag_404:\n      sub(shl(0xa0, 0x01), 0x01)\n        /* \"ERC1967.sol\":68832:68859  _isExcludedFromFee[owner()] */\n      swap1\n      dup2\n      and\n      dup3\n      mstore\n      0x20\n      dup1\n      dup4\n      add\n      swap4\n      swap1\n      swap4\n      mstore\n      0x40\n      swap2\n      dup3\n      add\n      0x00\n      swap1\n      dup2\n      keccak256\n        /* \"ERC1967.sol\":68832:68866  _isExcludedFromFee[owner()] = true */\n      dup1\n      sload\n      swap6\n      iszero\n      iszero\n      not(0xff)\n      swap7\n      dup8\n      and\n      or\n      swap1\n      sstore\n        /* \"ERC1967.sol\":68904:68908  this */\n      address\n        /* \"ERC1967.sol\":68877:68910  _isExcludedFromFee[address(this)] */\n      dup2\n      mstore\n      swap3\n      dup4\n      swap1\n      mstore\n      dup2\n      dup4\n      keccak256\n        /* \"ERC1967.sol\":68877:68917  _isExcludedFromFee[address(this)] = true */\n      dup1\n      sload\n      dup6\n      and\n        /* \"ERC1967.sol\":68832:68866  _isExcludedFromFee[owner()] = true */\n      0x01\n        /* \"ERC1967.sol\":68877:68917  _isExcludedFromFee[address(this)] = true */\n      swap1\n      dup2\n      or\n      swap1\n      swap2\n      sstore\n        /* \"ERC1967.sol\":68947:68958  _taxWallet1 */\n      dup1\n      sload\n      dup3\n      and\n        /* \"ERC1967.sol\":68928:68959  _isExcludedFromFee[_taxWallet1] */\n      dup5\n      mstore\n      dup3\n      dup5\n      keccak256\n        /* \"ERC1967.sol\":68928:68966  _isExcludedFromFee[_taxWallet1] = true */\n      dup1\n      sload\n      dup7\n      and\n      dup3\n      or\n      swap1\n      sstore\n        /* \"ERC1967.sol\":68996:69007  _taxWallet2 */\n      sload(0x02)\n      dup3\n      and\n        /* \"ERC1967.sol\":68977:69008  _isExcludedFromFee[_taxWallet2] */\n      dup5\n      mstore\n      dup3\n      dup5\n      keccak256\n        /* \"ERC1967.sol\":68977:69015  _isExcludedFromFee[_taxWallet2] = true */\n      dup1\n      sload\n      dup7\n      and\n      dup3\n      or\n      swap1\n      sstore\n        /* \"ERC1967.sol\":69045:69056  _taxWallet3 */\n      sload(0x03)\n      dup3\n      and\n        /* \"ERC1967.sol\":69026:69057  _isExcludedFromFee[_taxWallet3] */\n      dup5\n      mstore\n      dup3\n      dup5\n      keccak256\n        /* \"ERC1967.sol\":69026:69064  _isExcludedFromFee[_taxWallet3] = true */\n      dup1\n      sload\n      dup7\n      and\n      dup3\n      or\n      swap1\n      sstore\n        /* \"ERC1967.sol\":69094:69105  _taxWallet4 */\n      sload(0x04)\n      dup3\n      and\n        /* \"ERC1967.sol\":69075:69106  _isExcludedFromFee[_taxWallet4] */\n      dup5\n      mstore\n      dup3\n      dup5\n      keccak256\n        /* \"ERC1967.sol\":69075:69113  _isExcludedFromFee[_taxWallet4] = true */\n      dup1\n      sload\n      dup7\n      and\n      dup3\n      or\n      swap1\n      sstore\n        /* \"ERC1967.sol\":69143:69154  _taxWallet5 */\n      sload(0x05)\n      dup3\n      and\n        /* \"ERC1967.sol\":69124:69155  _isExcludedFromFee[_taxWallet5] */\n      dup5\n      mstore\n      dup3\n      dup5\n      keccak256\n        /* \"ERC1967.sol\":69124:69162  _isExcludedFromFee[_taxWallet5] = true */\n      dup1\n      sload\n      dup7\n      and\n      dup3\n      or\n      swap1\n      sstore\n        /* \"ERC1967.sol\":69192:69203  _taxWallet6 */\n      sload(0x06)\n      dup3\n      and\n        /* \"ERC1967.sol\":69173:69204  _isExcludedFromFee[_taxWallet6] */\n      dup5\n      mstore\n      dup3\n      dup5\n      keccak256\n        /* \"ERC1967.sol\":69173:69211  _isExcludedFromFee[_taxWallet6] = true */\n      dup1\n      sload\n      dup7\n      and\n      dup3\n      or\n      swap1\n      sstore\n        /* \"ERC1967.sol\":69241:69252  _taxWallet7 */\n      sload(0x07)\n      dup3\n      and\n        /* \"ERC1967.sol\":69222:69253  _isExcludedFromFee[_taxWallet7] */\n      dup5\n      mstore\n      dup3\n      dup5\n      keccak256\n        /* \"ERC1967.sol\":69222:69260  _isExcludedFromFee[_taxWallet7] = true */\n      dup1\n      sload\n      dup7\n      and\n      dup3\n      or\n      swap1\n      sstore\n        /* \"ERC1967.sol\":69290:69301  _taxWallet8 */\n      sload(0x08)\n      swap1\n      swap2\n      and\n        /* \"ERC1967.sol\":69271:69302  _isExcludedFromFee[_taxWallet8] */\n      dup4\n      mstore\n      swap2\n      keccak256\n        /* \"ERC1967.sol\":69271:69309  _isExcludedFromFee[_taxWallet8] = true */\n      dup1\n      sload\n      swap1\n      swap3\n      and\n      or\n      swap1\n      sstore\n        /* \"ERC1967.sol\":69340:69352  _totalSupply */\n      sload(0x17)\n        /* \"ERC1967.sol\":69322:69353  _mint(msg.sender, _totalSupply) */\n      tag_405\n      swap1\n        /* \"ERC1967.sol\":69328:69338  msg.sender */\n      caller\n      swap1\n        /* \"ERC1967.sol\":69322:69327  _mint */\n      tag_362\n        /* \"ERC1967.sol\":69322:69353  _mint(msg.sender, _totalSupply) */\n      jump\t// in\n    tag_405:\n        /* \"ERC1967.sol\":8827:8841  isTopLevelCall */\n      dup4\n        /* \"ERC1967.sol\":8823:8927  if (isTopLevelCall) {... */\n      iszero\n      tag_406\n      jumpi\n        /* \"ERC1967.sol\":8858:8881  $._initializing = false */\n      dup5\n      sload\n      not(shl(0x40, 0xff))\n      and\n      dup6\n      sstore\n        /* \"ERC1967.sol\":8901:8915  Initialized(1) */\n      mload(0x40)\n      0x01\n        /* \"#utility.yul\":13677:13727   */\n      dup2\n      mstore\n        /* \"ERC1967.sol\":8901:8915  Initialized(1) */\n      0xc7f505b2f371ae2175ee4913f4499e1f2633a7b5936321eed1cdaeb6115181d2\n      swap1\n        /* \"#utility.yul\":13665:13667   */\n      0x20\n        /* \"#utility.yul\":13650:13668   */\n      add\n        /* \"ERC1967.sol\":8901:8915  Initialized(1) */\n      mload(0x40)\n      dup1\n      swap2\n      sub\n      swap1\n      log1\n        /* \"ERC1967.sol\":8823:8927  if (isTopLevelCall) {... */\n    tag_406:\n        /* \"ERC1967.sol\":7825:8934  {... */\n      pop\n      pop\n      pop\n      pop\n      pop\n        /* \"ERC1967.sol\":67175:69361  function initialize(address initialOwner) initializer public {... */\n      pop\n      jump\t// out\n        /* \"ERC1967.sol\":78133:78231  function changeTokenCap(uint amount) external  onlyOwner... */\n    tag_170:\n        /* \"ERC1967.sol\":35513:35526  _checkOwner() */\n      tag_410\n        /* \"ERC1967.sol\":35513:35524  _checkOwner */\n      tag_194\n        /* \"ERC1967.sol\":35513:35526  _checkOwner() */\n      jump\t// in\n    tag_410:\n        /* \"ERC1967.sol\":78206:78214  tokenCap */\n      0x15\n        /* \"ERC1967.sol\":78206:78223  tokenCap = amount */\n      sstore\n        /* \"ERC1967.sol\":78133:78231  function changeTokenCap(uint amount) external  onlyOwner... */\n      jump\t// out\n        /* \"ERC1967.sol\":25517:25715  function allowance(address owner, address spender) public view virtual returns (uint256) {... */\n    tag_179:\n      sub(shl(0xa0, 0x01), 0x01)\n        /* \"ERC1967.sol\":25678:25698  $._allowances[owner] */\n      swap2\n      dup3\n      and\n        /* \"ERC1967.sol\":25597:25604  uint256 */\n      0x00\n        /* \"ERC1967.sol\":25678:25698  $._allowances[owner] */\n      swap1\n      dup2\n      mstore\n        /* \"ERC1967.sol\":25678:25691  $._allowances */\n      0x52c63247e1f47db19d5ce0460030c497f067ca4cebf71ba98eeadabe20bace01\n        /* \"ERC1967.sol\":25678:25698  $._allowances[owner] */\n      0x20\n      swap1\n      dup2\n      mstore\n      0x40\n      dup1\n      dup4\n      keccak256\n        /* \"ERC1967.sol\":25678:25707  $._allowances[owner][spender] */\n      swap4\n      swap1\n      swap5\n      and\n      dup3\n      mstore\n      swap2\n      swap1\n      swap2\n      mstore\n      keccak256\n      sload\n      swap1\n        /* \"ERC1967.sol\":25517:25715  function allowance(address owner, address spender) public view virtual returns (uint256) {... */\n      jump\t// out\n        /* \"ERC1967.sol\":70966:71229  function setWalletLimit(uint256 newValue) external onlyOwner {... */\n    tag_184:\n        /* \"ERC1967.sol\":35513:35526  _checkOwner() */\n      tag_415\n        /* \"ERC1967.sol\":35513:35524  _checkOwner */\n      tag_194\n        /* \"ERC1967.sol\":35513:35526  _checkOwner() */\n      jump\t// in\n    tag_415:\n        /* \"ERC1967.sol\":71058:71059  1 */\n      0x01\n        /* \"ERC1967.sol\":71046:71054  newValue */\n      dup2\n        /* \"ERC1967.sol\":71046:71059  newValue >= 1 */\n      lt\n      iszero\n        /* \"ERC1967.sol\":71038:71098  require(newValue >= 1, \"Max wallet cant be lower than 0.1%\") */\n      tag_417\n      jumpi\n      mload(0x40)\n      shl(0xe5, 0x461bcd)\n      dup2\n      mstore\n        /* \"#utility.yul\":13940:13942   */\n      0x20\n        /* \"ERC1967.sol\":71038:71098  require(newValue >= 1, \"Max wallet cant be lower than 0.1%\") */\n      0x04\n      dup3\n      add\n        /* \"#utility.yul\":13922:13943   */\n      mstore\n        /* \"#utility.yul\":13979:13981   */\n      0x22\n        /* \"#utility.yul\":13959:13977   */\n      0x24\n      dup3\n      add\n        /* \"#utility.yul\":13952:13982   */\n      mstore\n        /* \"#utility.yul\":14018:14052   */\n      0x4d61782077616c6c65742063616e74206265206c6f776572207468616e20302e\n        /* \"#utility.yul\":13998:14016   */\n      0x44\n      dup3\n      add\n        /* \"#utility.yul\":13991:14053   */\n      mstore\n      shl(0xf0, 0x3125)\n        /* \"#utility.yul\":14069:14087   */\n      0x64\n      dup3\n      add\n        /* \"#utility.yul\":14062:14094   */\n      mstore\n        /* \"#utility.yul\":14111:14130   */\n      0x84\n      add\n        /* \"ERC1967.sol\":71038:71098  require(newValue >= 1, \"Max wallet cant be lower than 0.1%\") */\n      tag_219\n        /* \"#utility.yul\":13738:14136   */\n      jump\n        /* \"ERC1967.sol\":71038:71098  require(newValue >= 1, \"Max wallet cant be lower than 0.1%\") */\n    tag_417:\n        /* \"ERC1967.sol\":71159:71163  1000 */\n      0x03e8\n        /* \"ERC1967.sol\":71147:71155  newValue */\n      dup2\n        /* \"ERC1967.sol\":71131:71144  totalSupply() */\n      tag_420\n      0x00\n      dup1\n      mload\n      0x20\n      data_5c46c655e238aa25f8cbb2dc253afd95ec6fe3438bb2613b924ec6dfbcfd524d\n      dup4\n      codecopy\n      dup2\n      mload\n      swap2\n      mstore\n        /* \"ERC1967.sol\":24808:24822  $._totalSupply */\n      sload\n      swap1\n        /* \"ERC1967.sol\":24675:24830  function totalSupply() public view virtual returns (uint256) {... */\n      jump\n        /* \"ERC1967.sol\":71131:71144  totalSupply() */\n    tag_420:\n        /* \"ERC1967.sol\":71131:71155  totalSupply() * newValue */\n      tag_421\n      swap2\n      swap1\n      tag_198\n      jump\t// in\n    tag_421:\n        /* \"ERC1967.sol\":71130:71163  (totalSupply() * newValue) / 1000 */\n      tag_422\n      swap2\n      swap1\n      tag_200\n      jump\t// in\n    tag_422:\n        /* \"ERC1967.sol\":71109:71127  _walletAmountLimit */\n      0x10\n        /* \"ERC1967.sol\":71109:71163  _walletAmountLimit = (totalSupply() * newValue) / 1000 */\n      dup2\n      swap1\n      sstore\n        /* \"ERC1967.sol\":71179:71221  MaxWalletAmountUpdated(_walletAmountLimit) */\n      mload(0x40)\n        /* \"#utility.yul\":1717:1742   */\n      swap1\n      dup2\n      mstore\n        /* \"ERC1967.sol\":71179:71221  MaxWalletAmountUpdated(_walletAmountLimit) */\n      0x4b39c36d20c57d220f61fd25c4349d4435cc03ef6c2a680942f15333c3c3e001\n      swap1\n        /* \"#utility.yul\":1705:1707   */\n      0x20\n        /* \"#utility.yul\":1690:1708   */\n      add\n        /* \"ERC1967.sol\":71179:71221  MaxWalletAmountUpdated(_walletAmountLimit) */\n      tag_304\n        /* \"#utility.yul\":1571:1748   */\n      jump\n        /* \"ERC1967.sol\":36620:36840  function transferOwnership(address newOwner) public virtual onlyOwner {... */\n    tag_188:\n        /* \"ERC1967.sol\":35513:35526  _checkOwner() */\n      tag_425\n        /* \"ERC1967.sol\":35513:35524  _checkOwner */\n      tag_194\n        /* \"ERC1967.sol\":35513:35526  _checkOwner() */\n      jump\t// in\n    tag_425:\n      sub(shl(0xa0, 0x01), 0x01)\n        /* \"ERC1967.sol\":36705:36727  newOwner == address(0) */\n      dup2\n      and\n        /* \"ERC1967.sol\":36701:36794  if (newOwner == address(0)) {... */\n      tag_427\n      jumpi\n        /* \"ERC1967.sol\":36751:36782  OwnableInvalidOwner(address(0)) */\n      mload(0x40)\n      shl(0xe0, 0x1e4fbdf7)\n      dup2\n      mstore\n        /* \"ERC1967.sol\":36779:36780  0 */\n      0x00\n        /* \"ERC1967.sol\":36751:36782  OwnableInvalidOwner(address(0)) */\n      0x04\n      dup3\n      add\n        /* \"#utility.yul\":6848:6899   */\n      mstore\n        /* \"#utility.yul\":6821:6839   */\n      0x24\n      add\n        /* \"ERC1967.sol\":36751:36782  OwnableInvalidOwner(address(0)) */\n      tag_219\n        /* \"#utility.yul\":6702:6905   */\n      jump\n        /* \"ERC1967.sol\":36701:36794  if (newOwner == address(0)) {... */\n    tag_427:\n        /* \"ERC1967.sol\":36804:36832  _transferOwnership(newOwner) */\n      tag_280\n        /* \"ERC1967.sol\":36823:36831  newOwner */\n      dup2\n        /* \"ERC1967.sol\":36804:36822  _transferOwnership */\n      tag_330\n        /* \"ERC1967.sol\":36804:36832  _transferOwnership(newOwner) */\n      jump\t// in\n        /* \"ERC1967.sol\":69530:69904  function open() external onlyOwner {... */\n    tag_191:\n        /* \"ERC1967.sol\":35513:35526  _checkOwner() */\n      tag_431\n        /* \"ERC1967.sol\":35513:35524  _checkOwner */\n      tag_194\n        /* \"ERC1967.sol\":35513:35526  _checkOwner() */\n      jump\t// in\n    tag_431:\n        /* \"ERC1967.sol\":69585:69596  tradingOpen */\n      sload(0x14)\n      shl(0xa0, 0x01)\n      swap1\n      div\n      0xff\n      and\n        /* \"ERC1967.sol\":69584:69596  !tradingOpen */\n      iszero\n        /* \"ERC1967.sol\":69576:69624  require(!tradingOpen, \"trading is already open\") */\n      tag_433\n      jumpi\n      mload(0x40)\n      shl(0xe5, 0x461bcd)\n      dup2\n      mstore\n        /* \"#utility.yul\":14343:14345   */\n      0x20\n        /* \"ERC1967.sol\":69576:69624  require(!tradingOpen, \"trading is already open\") */\n      0x04\n      dup3\n      add\n        /* \"#utility.yul\":14325:14346   */\n      mstore\n        /* \"#utility.yul\":14382:14384   */\n      0x17\n        /* \"#utility.yul\":14362:14380   */\n      0x24\n      dup3\n      add\n        /* \"#utility.yul\":14355:14385   */\n      mstore\n        /* \"#utility.yul\":14421:14446   */\n      0x74726164696e6720697320616c7265616479206f70656e000000000000000000\n        /* \"#utility.yul\":14401:14419   */\n      0x44\n      dup3\n      add\n        /* \"#utility.yul\":14394:14447   */\n      mstore\n        /* \"#utility.yul\":14464:14482   */\n      0x64\n      add\n        /* \"ERC1967.sol\":69576:69624  require(!tradingOpen, \"trading is already open\") */\n      tag_219\n        /* \"#utility.yul\":14141:14488   */\n      jump\n        /* \"ERC1967.sol\":69576:69624  require(!tradingOpen, \"trading is already open\") */\n    tag_433:\n        /* \"ERC1967.sol\":69635:69646  swapEnabled */\n      0x14\n        /* \"ERC1967.sol\":69635:69653  swapEnabled = true */\n      dup1\n      sload\n      not(shl(0xa0, 0xff00ff))\n        /* \"ERC1967.sol\":69664:69682  tradingOpen = true */\n      and\n      shl(0xa0, 0x010001)\n      or\n      swap1\n      sstore\n        /* \"ERC1967.sol\":69706:69718  block.number */\n      number\n        /* \"ERC1967.sol\":69693:69703  firstBlock */\n      0x09\n        /* \"ERC1967.sol\":69693:69718  firstBlock = block.number */\n      dup2\n      swap1\n      sstore\n        /* \"ERC1967.sol\":69729:69744  lastLiquifyTime */\n      0x0a\n        /* \"ERC1967.sol\":69729:69767  lastLiquifyTime = uint64(block.number) */\n      dup1\n      sload\n      not(0xffffffffffffffff)\n      and\n      0xffffffffffffffff\n      swap1\n      swap3\n      and\n      swap2\n      swap1\n      swap2\n      or\n      swap1\n      sstore\n        /* \"ERC1967.sol\":69805:69809  this */\n      address\n      0x00\n        /* \"ERC1967.sol\":69778:69811  _isExcludedFromFee[address(this)] */\n      swap1\n      dup2\n      mstore\n      0x20\n      dup2\n      swap1\n      mstore\n      0x40\n      dup1\n      dup3\n      keccak256\n        /* \"ERC1967.sol\":69778:69818  _isExcludedFromFee[address(this)] = true */\n      dup1\n      sload\n      not(0xff)\n      and\n      0x01\n      or\n      swap1\n      sstore\n        /* \"ERC1967.sol\":69838:69840  25 */\n      0x19\n      0x0b\n        /* \"ERC1967.sol\":69829:69840  buyFee = 25 */\n      sstore\n        /* \"ERC1967.sol\":69861:69863  40 */\n      0x28\n        /* \"ERC1967.sol\":69851:69858  sellFee */\n      0x0c\n        /* \"ERC1967.sol\":69851:69863  sellFee = 40 */\n      sstore\n        /* \"ERC1967.sol\":69881:69896  TradingOpened() */\n      mload\n      0xea4359d5c4b8f0945a64ab9c37fe830b3407d45e0e6e6f84275977a570457d6f\n      swap2\n      swap1\n      log1\n        /* \"ERC1967.sol\":69530:69904  function open() external onlyOwner {... */\n      jump\t// out\n        /* \"ERC1967.sol\":35852:36018  function _checkOwner() internal view virtual {... */\n    tag_194:\n        /* \"ERC1967.sol\":13742:13752  msg.sender */\n      caller\n        /* \"ERC1967.sol\":35912:35919  owner() */\n      tag_438\n        /* \"ERC1967.sol\":35912:35917  owner */\n      tag_135\n        /* \"ERC1967.sol\":35912:35919  owner() */\n      jump\t// in\n    tag_438:\n      sub(shl(0xa0, 0x01), 0x01)\n        /* \"ERC1967.sol\":35912:35935  owner() != _msgSender() */\n      and\n      eq\n        /* \"ERC1967.sol\":35908:36011  if (owner() != _msgSender()) {... */\n      tag_329\n      jumpi\n        /* \"ERC1967.sol\":35959:35999  OwnableUnauthorizedAccount(_msgSender()) */\n      mload(0x40)\n      shl(0xe0, 0x118cdaa7)\n      dup2\n      mstore\n        /* \"ERC1967.sol\":13742:13752  msg.sender */\n      caller\n        /* \"ERC1967.sol\":35959:35999  OwnableUnauthorizedAccount(_msgSender()) */\n      0x04\n      dup3\n      add\n        /* \"#utility.yul\":6848:6899   */\n      mstore\n        /* \"#utility.yul\":6821:6839   */\n      0x24\n      add\n        /* \"ERC1967.sol\":35959:35999  OwnableUnauthorizedAccount(_msgSender()) */\n      tag_219\n        /* \"#utility.yul\":6702:6905   */\n      jump\n        /* \"ERC1967.sol\":30933:31063  function _approve(address owner, address spender, uint256 value) internal {... */\n    tag_225:\n        /* \"ERC1967.sol\":31018:31055  _approve(owner, spender, value, true) */\n      tag_445\n        /* \"ERC1967.sol\":31027:31032  owner */\n      dup4\n        /* \"ERC1967.sol\":31034:31041  spender */\n      dup4\n        /* \"ERC1967.sol\":31043:31048  value */\n      dup4\n        /* \"ERC1967.sol\":31050:31054  true */\n      0x01\n        /* \"ERC1967.sol\":31018:31026  _approve */\n      tag_446\n        /* \"ERC1967.sol\":31018:31055  _approve(owner, spender, value, true) */\n      jump\t// in\n    tag_445:\n        /* \"ERC1967.sol\":30933:31063  function _approve(address owner, address spender, uint256 value) internal {... */\n      pop\n      pop\n      pop\n      jump\t// out\n        /* \"ERC1967.sol\":32705:33192  function _spendAllowance(address owner, address spender, uint256 value) internal virtual {... */\n    tag_263:\n        /* \"ERC1967.sol\":32805:32829  uint256 currentAllowance */\n      0x00\n        /* \"ERC1967.sol\":32832:32857  allowance(owner, spender) */\n      tag_448\n        /* \"ERC1967.sol\":32842:32847  owner */\n      dup5\n        /* \"ERC1967.sol\":32849:32856  spender */\n      dup5\n        /* \"ERC1967.sol\":32832:32841  allowance */\n      tag_179\n        /* \"ERC1967.sol\":32832:32857  allowance(owner, spender) */\n      jump\t// in\n    tag_448:\n        /* \"ERC1967.sol\":32805:32857  uint256 currentAllowance = allowance(owner, spender) */\n      swap1\n      pop\n      not(0x00)\n        /* \"ERC1967.sol\":32872:32888  currentAllowance */\n      dup2\n        /* \"ERC1967.sol\":32872:32909  currentAllowance != type(uint256).max */\n      eq\n        /* \"ERC1967.sol\":32868:33185  if (currentAllowance != type(uint256).max) {... */\n      tag_232\n      jumpi\n        /* \"ERC1967.sol\":32949:32954  value */\n      dup2\n        /* \"ERC1967.sol\":32930:32946  currentAllowance */\n      dup2\n        /* \"ERC1967.sol\":32930:32954  currentAllowance < value */\n      lt\n        /* \"ERC1967.sol\":32926:33058  if (currentAllowance < value) {... */\n      iszero\n      tag_450\n      jumpi\n        /* \"ERC1967.sol\":32982:33042  ERC20InsufficientAllowance(spender, currentAllowance, value) */\n      mload(0x40)\n      shl(0xe1, 0x7dc7a0d9)\n      dup2\n      mstore\n      sub(shl(0xa0, 0x01), 0x01)\n        /* \"#utility.yul\":14713:14745   */\n      dup5\n      and\n        /* \"ERC1967.sol\":32982:33042  ERC20InsufficientAllowance(spender, currentAllowance, value) */\n      0x04\n      dup3\n      add\n        /* \"#utility.yul\":14695:14746   */\n      mstore\n        /* \"#utility.yul\":14762:14780   */\n      0x24\n      dup2\n      add\n        /* \"#utility.yul\":14755:14789   */\n      dup3\n      swap1\n      mstore\n        /* \"#utility.yul\":14805:14823   */\n      0x44\n      dup2\n      add\n        /* \"#utility.yul\":14798:14832   */\n      dup4\n      swap1\n      mstore\n        /* \"#utility.yul\":14668:14686   */\n      0x64\n      add\n        /* \"ERC1967.sol\":32982:33042  ERC20InsufficientAllowance(spender, currentAllowance, value) */\n      tag_219\n        /* \"#utility.yul\":14493:14838   */\n      jump\n        /* \"ERC1967.sol\":32926:33058  if (currentAllowance < value) {... */\n    tag_450:\n        /* \"ERC1967.sol\":33101:33158  _approve(owner, spender, currentAllowance - value, false) */\n      tag_232\n        /* \"ERC1967.sol\":33110:33115  owner */\n      dup5\n        /* \"ERC1967.sol\":33117:33124  spender */\n      dup5\n        /* \"ERC1967.sol\":33145:33150  value */\n      dup5\n        /* \"ERC1967.sol\":33126:33142  currentAllowance */\n      dup5\n        /* \"ERC1967.sol\":33126:33150  currentAllowance - value */\n      sub\n        /* \"ERC1967.sol\":33152:33157  false */\n      0x00\n        /* \"ERC1967.sol\":33101:33109  _approve */\n      tag_446\n        /* \"ERC1967.sol\":33101:33158  _approve(owner, spender, currentAllowance - value, false) */\n      jump\t// in\n        /* \"ERC1967.sol\":73615:76000  function _transfer(... */\n    tag_265:\n      sub(shl(0xa0, 0x01), 0x01)\n        /* \"ERC1967.sol\":73755:73773  from != address(0) */\n      dup4\n      and\n        /* \"ERC1967.sol\":73747:73815  require(from != address(0), \"ERC20: transfer from the zero address\") */\n      tag_455\n      jumpi\n      mload(0x40)\n      shl(0xe5, 0x461bcd)\n      dup2\n      mstore\n        /* \"#utility.yul\":15045:15047   */\n      0x20\n        /* \"ERC1967.sol\":73747:73815  require(from != address(0), \"ERC20: transfer from the zero address\") */\n      0x04\n      dup3\n      add\n        /* \"#utility.yul\":15027:15048   */\n      mstore\n        /* \"#utility.yul\":15084:15086   */\n      0x25\n        /* \"#utility.yul\":15064:15082   */\n      0x24\n      dup3\n      add\n        /* \"#utility.yul\":15057:15087   */\n      mstore\n        /* \"#utility.yul\":15123:15157   */\n      0x45524332303a207472616e736665722066726f6d20746865207a65726f206164\n        /* \"#utility.yul\":15103:15121   */\n      0x44\n      dup3\n      add\n        /* \"#utility.yul\":15096:15158   */\n      mstore\n      shl(0xd8, 0x6472657373)\n        /* \"#utility.yul\":15174:15192   */\n      0x64\n      dup3\n      add\n        /* \"#utility.yul\":15167:15202   */\n      mstore\n        /* \"#utility.yul\":15219:15238   */\n      0x84\n      add\n        /* \"ERC1967.sol\":73747:73815  require(from != address(0), \"ERC20: transfer from the zero address\") */\n      tag_219\n        /* \"#utility.yul\":14843:15244   */\n      jump\n        /* \"ERC1967.sol\":73747:73815  require(from != address(0), \"ERC20: transfer from the zero address\") */\n    tag_455:\n      sub(shl(0xa0, 0x01), 0x01)\n        /* \"ERC1967.sol\":73834:73850  to != address(0) */\n      dup3\n      and\n        /* \"ERC1967.sol\":73826:73890  require(to != address(0), \"ERC20: transfer to the zero address\") */\n      tag_458\n      jumpi\n      mload(0x40)\n      shl(0xe5, 0x461bcd)\n      dup2\n      mstore\n        /* \"#utility.yul\":15451:15453   */\n      0x20\n        /* \"ERC1967.sol\":73826:73890  require(to != address(0), \"ERC20: transfer to the zero address\") */\n      0x04\n      dup3\n      add\n        /* \"#utility.yul\":15433:15454   */\n      mstore\n        /* \"#utility.yul\":15490:15492   */\n      0x23\n        /* \"#utility.yul\":15470:15488   */\n      0x24\n      dup3\n      add\n        /* \"#utility.yul\":15463:15493   */\n      mstore\n        /* \"#utility.yul\":15529:15563   */\n      0x45524332303a207472616e7366657220746f20746865207a65726f2061646472\n        /* \"#utility.yul\":15509:15527   */\n      0x44\n      dup3\n      add\n        /* \"#utility.yul\":15502:15564   */\n      mstore\n      shl(0xe8, 0x657373)\n        /* \"#utility.yul\":15580:15598   */\n      0x64\n      dup3\n      add\n        /* \"#utility.yul\":15573:15606   */\n      mstore\n        /* \"#utility.yul\":15623:15642   */\n      0x84\n      add\n        /* \"ERC1967.sol\":73826:73890  require(to != address(0), \"ERC20: transfer to the zero address\") */\n      tag_219\n        /* \"#utility.yul\":15249:15648   */\n      jump\n        /* \"ERC1967.sol\":73826:73890  require(to != address(0), \"ERC20: transfer to the zero address\") */\n    tag_458:\n        /* \"ERC1967.sol\":73918:73919  0 */\n      0x00\n        /* \"ERC1967.sol\":73909:73915  amount */\n      dup2\n        /* \"ERC1967.sol\":73909:73919  amount > 0 */\n      gt\n        /* \"ERC1967.sol\":73901:73965  require(amount > 0, \"Transfer amount must be greater than zero\") */\n      tag_461\n      jumpi\n      mload(0x40)\n      shl(0xe5, 0x461bcd)\n      dup2\n      mstore\n        /* \"#utility.yul\":15855:15857   */\n      0x20\n        /* \"ERC1967.sol\":73901:73965  require(amount > 0, \"Transfer amount must be greater than zero\") */\n      0x04\n      dup3\n      add\n        /* \"#utility.yul\":15837:15858   */\n      mstore\n        /* \"#utility.yul\":15894:15896   */\n      0x29\n        /* \"#utility.yul\":15874:15892   */\n      0x24\n      dup3\n      add\n        /* \"#utility.yul\":15867:15897   */\n      mstore\n        /* \"#utility.yul\":15933:15967   */\n      0x5472616e7366657220616d6f756e74206d757374206265206772656174657220\n        /* \"#utility.yul\":15913:15931   */\n      0x44\n      dup3\n      add\n        /* \"#utility.yul\":15906:15968   */\n      mstore\n      shl(0xb8, 0x7468616e207a65726f)\n        /* \"#utility.yul\":15984:16002   */\n      0x64\n      dup3\n      add\n        /* \"#utility.yul\":15977:16016   */\n      mstore\n        /* \"#utility.yul\":16033:16052   */\n      0x84\n      add\n        /* \"ERC1967.sol\":73901:73965  require(amount > 0, \"Transfer amount must be greater than zero\") */\n      tag_219\n        /* \"#utility.yul\":15653:16058   */\n      jump\n        /* \"ERC1967.sol\":73901:73965  require(amount > 0, \"Transfer amount must be greater than zero\") */\n    tag_461:\n        /* \"ERC1967.sol\":73976:73993  uint256 taxAmount */\n      0x00\n        /* \"ERC1967.sol\":74020:74027  owner() */\n      tag_464\n        /* \"ERC1967.sol\":74020:74025  owner */\n      tag_135\n        /* \"ERC1967.sol\":74020:74027  owner() */\n      jump\t// in\n    tag_464:\n      sub(shl(0xa0, 0x01), 0x01)\n        /* \"ERC1967.sol\":74012:74027  from != owner() */\n      and\n        /* \"ERC1967.sol\":74012:74016  from */\n      dup5\n      sub(shl(0xa0, 0x01), 0x01)\n        /* \"ERC1967.sol\":74012:74027  from != owner() */\n      and\n      eq\n      iszero\n        /* \"ERC1967.sol\":74012:74044  from != owner() && to != owner() */\n      dup1\n      iszero\n      tag_465\n      jumpi\n      pop\n        /* \"ERC1967.sol\":74037:74044  owner() */\n      tag_466\n        /* \"ERC1967.sol\":74037:74042  owner */\n      tag_135\n        /* \"ERC1967.sol\":74037:74044  owner() */\n      jump\t// in\n    tag_466:\n      sub(shl(0xa0, 0x01), 0x01)\n        /* \"ERC1967.sol\":74031:74044  to != owner() */\n      and\n        /* \"ERC1967.sol\":74031:74033  to */\n      dup4\n      sub(shl(0xa0, 0x01), 0x01)\n        /* \"ERC1967.sol\":74031:74044  to != owner() */\n      and\n      eq\n      iszero\n        /* \"ERC1967.sol\":74012:74044  from != owner() && to != owner() */\n    tag_465:\n        /* \"ERC1967.sol\":74012:74055  from != owner() && to != owner() && !inSwap */\n      dup1\n      iszero\n      tag_467\n      jumpi\n      pop\n        /* \"ERC1967.sol\":74049:74055  inSwap */\n      sload(0x14)\n      shl(0xa8, 0x01)\n      swap1\n      div\n      0xff\n      and\n        /* \"ERC1967.sol\":74048:74055  !inSwap */\n      iszero\n        /* \"ERC1967.sol\":74012:74055  from != owner() && to != owner() && !inSwap */\n    tag_467:\n        /* \"ERC1967.sol\":74008:75830  if (from != owner() && to != owner() && !inSwap) {... */\n      iszero\n      tag_468\n      jumpi\n        /* \"ERC1967.sol\":74076:74086  launchmode */\n      sload(0x14)\n      shl(0xb8, 0x01)\n      swap1\n      div\n      0xff\n      and\n        /* \"ERC1967.sol\":74072:74161  if (launchmode){... */\n      iszero\n      tag_471\n      jumpi\n      sub(shl(0xa0, 0x01), 0x01)\n        /* \"ERC1967.sol\":74114:74126  _canTx[from] */\n      dup5\n      and\n      0x00\n      swap1\n      dup2\n      mstore\n        /* \"ERC1967.sol\":74114:74120  _canTx */\n      0x16\n        /* \"ERC1967.sol\":74114:74126  _canTx[from] */\n      0x20\n      mstore\n      0x40\n      swap1\n      keccak256\n      sload\n      0xff\n      and\n      dup1\n        /* \"ERC1967.sol\":74114:74140  _canTx[from] || _canTx[to] */\n      tag_470\n      jumpi\n      pop\n      sub(shl(0xa0, 0x01), 0x01)\n        /* \"ERC1967.sol\":74130:74140  _canTx[to] */\n      dup4\n      and\n      0x00\n      swap1\n      dup2\n      mstore\n        /* \"ERC1967.sol\":74130:74136  _canTx */\n      0x16\n        /* \"ERC1967.sol\":74130:74140  _canTx[to] */\n      0x20\n      mstore\n      0x40\n      swap1\n      keccak256\n      sload\n      0xff\n      and\n        /* \"ERC1967.sol\":74114:74140  _canTx[from] || _canTx[to] */\n    tag_470:\n        /* \"ERC1967.sol\":74106:74145  require(_canTx[from] || _canTx[to], \"\") */\n      tag_471\n      jumpi\n      mload(0x40)\n      shl(0xe5, 0x461bcd)\n      dup2\n      mstore\n        /* \"#utility.yul\":16265:16267   */\n      0x20\n        /* \"ERC1967.sol\":74106:74145  require(_canTx[from] || _canTx[to], \"\") */\n      0x04\n      dup3\n      add\n        /* \"#utility.yul\":16247:16268   */\n      mstore\n      0x00\n        /* \"#utility.yul\":16284:16302   */\n      0x24\n      dup3\n      add\n        /* \"#utility.yul\":16277:16306   */\n      mstore\n        /* \"#utility.yul\":16323:16341   */\n      0x44\n      add\n        /* \"ERC1967.sol\":74106:74145  require(_canTx[from] || _canTx[to], \"\") */\n      tag_219\n        /* \"#utility.yul\":16063:16347   */\n      jump\n        /* \"ERC1967.sol\":74106:74145  require(_canTx[from] || _canTx[to], \"\") */\n    tag_471:\n        /* \"ERC1967.sol\":74210:74213  100 */\n      0x64\n        /* \"ERC1967.sol\":74199:74205  buyFee */\n      sload(0x0b)\n        /* \"ERC1967.sol\":74189:74195  amount */\n      dup4\n        /* \"ERC1967.sol\":74189:74206  amount * (buyFee) */\n      tag_474\n      swap2\n      swap1\n      tag_198\n      jump\t// in\n    tag_474:\n        /* \"ERC1967.sol\":74189:74214  amount * (buyFee) / (100) */\n      tag_475\n      swap2\n      swap1\n      tag_200\n      jump\t// in\n    tag_475:\n        /* \"ERC1967.sol\":74261:74274  uniswapV2Pair */\n      sload(0x14)\n        /* \"ERC1967.sol\":74177:74214  taxAmount = amount * (buyFee) / (100) */\n      swap1\n      swap2\n      pop\n      sub(shl(0xa0, 0x01), 0x01)\n        /* \"ERC1967.sol\":74253:74274  from == uniswapV2Pair */\n      dup6\n      dup2\n      and\n        /* \"ERC1967.sol\":74261:74274  uniswapV2Pair */\n      swap2\n      and\n        /* \"ERC1967.sol\":74253:74274  from == uniswapV2Pair */\n      eq\n        /* \"ERC1967.sol\":74253:74325  from == uniswapV2Pair &&... */\n      dup1\n      iszero\n      tag_476\n      jumpi\n      pop\n        /* \"ERC1967.sol\":74309:74324  uniswapV2Router */\n      sload(0x13)\n      sub(shl(0xa0, 0x01), 0x01)\n        /* \"ERC1967.sol\":74295:74325  to != address(uniswapV2Router) */\n      dup5\n      dup2\n      and\n        /* \"ERC1967.sol\":74309:74324  uniswapV2Router */\n      swap2\n      and\n        /* \"ERC1967.sol\":74295:74325  to != address(uniswapV2Router) */\n      eq\n      iszero\n        /* \"ERC1967.sol\":74253:74325  from == uniswapV2Pair &&... */\n    tag_476:\n        /* \"ERC1967.sol\":74253:74369  from == uniswapV2Pair &&... */\n      dup1\n      iszero\n      tag_477\n      jumpi\n      pop\n      sub(shl(0xa0, 0x01), 0x01)\n        /* \"ERC1967.sol\":74347:74369  _isExcludedFromFee[to] */\n      dup4\n      and\n        /* \"ERC1967.sol\":74347:74365  _isExcludedFromFee */\n      0x00\n        /* \"ERC1967.sol\":74347:74369  _isExcludedFromFee[to] */\n      swap1\n      dup2\n      mstore\n      0x20\n      dup2\n      swap1\n      mstore\n      0x40\n      swap1\n      keccak256\n      sload\n      0xff\n      and\n        /* \"ERC1967.sol\":74346:74369  !_isExcludedFromFee[to] */\n      iszero\n        /* \"ERC1967.sol\":74253:74369  from == uniswapV2Pair &&... */\n    tag_477:\n        /* \"ERC1967.sol\":74231:74799  if (... */\n      iszero\n      tag_478\n      jumpi\n        /* \"ERC1967.sol\":74422:74436  _txAmountLimit */\n      sload(0x0f)\n        /* \"ERC1967.sol\":74412:74418  amount */\n      dup3\n        /* \"ERC1967.sol\":74412:74436  amount <= _txAmountLimit */\n      gt\n      iszero\n        /* \"ERC1967.sol\":74404:74468  require(amount <= _txAmountLimit, \"Exceeds the _txAmountLimit.\") */\n      tag_479\n      jumpi\n      mload(0x40)\n      shl(0xe5, 0x461bcd)\n      dup2\n      mstore\n        /* \"#utility.yul\":16554:16556   */\n      0x20\n        /* \"ERC1967.sol\":74404:74468  require(amount <= _txAmountLimit, \"Exceeds the _txAmountLimit.\") */\n      0x04\n      dup3\n      add\n        /* \"#utility.yul\":16536:16557   */\n      mstore\n        /* \"#utility.yul\":16593:16595   */\n      0x1b\n        /* \"#utility.yul\":16573:16591   */\n      0x24\n      dup3\n      add\n        /* \"#utility.yul\":16566:16596   */\n      mstore\n        /* \"#utility.yul\":16632:16661   */\n      0x4578636565647320746865205f7478416d6f756e744c696d69742e0000000000\n        /* \"#utility.yul\":16612:16630   */\n      0x44\n      dup3\n      add\n        /* \"#utility.yul\":16605:16662   */\n      mstore\n        /* \"#utility.yul\":16679:16697   */\n      0x64\n      add\n        /* \"ERC1967.sol\":74404:74468  require(amount <= _txAmountLimit, \"Exceeds the _txAmountLimit.\") */\n      tag_219\n        /* \"#utility.yul\":16352:16703   */\n      jump\n        /* \"ERC1967.sol\":74404:74468  require(amount <= _txAmountLimit, \"Exceeds the _txAmountLimit.\") */\n    tag_479:\n        /* \"ERC1967.sol\":74543:74561  _walletAmountLimit */\n      sload(0x10)\n        /* \"ERC1967.sol\":74533:74539  amount */\n      dup3\n        /* \"ERC1967.sol\":74517:74530  balanceOf(to) */\n      tag_482\n        /* \"ERC1967.sol\":74527:74529  to */\n      dup6\n        /* \"ERC1967.sol\":74517:74526  balanceOf */\n      tag_128\n        /* \"ERC1967.sol\":74517:74530  balanceOf(to) */\n      jump\t// in\n    tag_482:\n        /* \"ERC1967.sol\":74517:74539  balanceOf(to) + amount */\n      tag_483\n      swap2\n      swap1\n      tag_356\n      jump\t// in\n    tag_483:\n        /* \"ERC1967.sol\":74517:74561  balanceOf(to) + amount <= _walletAmountLimit */\n      gt\n      iszero\n        /* \"ERC1967.sol\":74487:74631  require(... */\n      tag_484\n      jumpi\n      mload(0x40)\n      shl(0xe5, 0x461bcd)\n      dup2\n      mstore\n        /* \"#utility.yul\":16910:16912   */\n      0x20\n        /* \"ERC1967.sol\":74487:74631  require(... */\n      0x04\n      dup3\n      add\n        /* \"#utility.yul\":16892:16913   */\n      mstore\n        /* \"#utility.yul\":16949:16951   */\n      0x1a\n        /* \"#utility.yul\":16929:16947   */\n      0x24\n      dup3\n      add\n        /* \"#utility.yul\":16922:16952   */\n      mstore\n        /* \"#utility.yul\":16988:17016   */\n      0x4578636565647320746865206d617857616c6c657453697a652e000000000000\n        /* \"#utility.yul\":16968:16986   */\n      0x44\n      dup3\n      add\n        /* \"#utility.yul\":16961:17017   */\n      mstore\n        /* \"#utility.yul\":17034:17052   */\n      0x64\n      add\n        /* \"ERC1967.sol\":74487:74631  require(... */\n      tag_219\n        /* \"#utility.yul\":16708:17058   */\n      jump\n        /* \"ERC1967.sol\":74487:74631  require(... */\n    tag_484:\n        /* \"ERC1967.sol\":74673:74685  block.number */\n      number\n        /* \"ERC1967.sol\":74656:74666  firstBlock */\n      sload(0x09)\n        /* \"ERC1967.sol\":74669:74670  3 */\n      0x03\n        /* \"ERC1967.sol\":74656:74670  firstBlock + 3 */\n      tag_487\n      swap2\n      swap1\n      tag_356\n      jump\t// in\n    tag_487:\n        /* \"ERC1967.sol\":74656:74685  firstBlock + 3 > block.number */\n      gt\n        /* \"ERC1967.sol\":74652:74754  if (firstBlock + 3 > block.number) {... */\n      iszero\n      tag_491\n      jumpi\n        /* \"ERC1967.sol\":76254:76274  extcodesize(account) */\n      dup3\n      extcodesize\n        /* \"ERC1967.sol\":76302:76310  size > 0 */\n      iszero\n        /* \"ERC1967.sol\":74710:74734  require(!isContract(to)) */\n      tag_491\n      jumpi\n      0x00\n      dup1\n      revert\n    tag_491:\n        /* \"ERC1967.sol\":74772:74781  _buyCount */\n      0x0e\n        /* \"ERC1967.sol\":74772:74783  _buyCount++ */\n      dup1\n      sload\n      swap1\n        /* \"ERC1967.sol\":74772:74781  _buyCount */\n      0x00\n        /* \"ERC1967.sol\":74772:74783  _buyCount++ */\n      tag_492\n      dup4\n      tag_493\n      jump\t// in\n    tag_492:\n      swap2\n      swap1\n      pop\n      sstore\n      pop\n        /* \"ERC1967.sol\":74231:74799  if (... */\n    tag_478:\n        /* \"ERC1967.sol\":74825:74838  uniswapV2Pair */\n      sload(0x14)\n      sub(shl(0xa0, 0x01), 0x01)\n        /* \"ERC1967.sol\":74819:74838  to != uniswapV2Pair */\n      dup5\n      dup2\n      and\n        /* \"ERC1967.sol\":74825:74838  uniswapV2Pair */\n      swap2\n      and\n        /* \"ERC1967.sol\":74819:74838  to != uniswapV2Pair */\n      eq\n      dup1\n      iszero\n      swap1\n        /* \"ERC1967.sol\":74819:74865  to != uniswapV2Pair && !_isExcludedFromFee[to] */\n      tag_494\n      jumpi\n      pop\n      sub(shl(0xa0, 0x01), 0x01)\n        /* \"ERC1967.sol\":74843:74865  _isExcludedFromFee[to] */\n      dup4\n      and\n        /* \"ERC1967.sol\":74843:74861  _isExcludedFromFee */\n      0x00\n        /* \"ERC1967.sol\":74843:74865  _isExcludedFromFee[to] */\n      swap1\n      dup2\n      mstore\n      0x20\n      dup2\n      swap1\n      mstore\n      0x40\n      swap1\n      keccak256\n      sload\n      0xff\n      and\n        /* \"ERC1967.sol\":74842:74865  !_isExcludedFromFee[to] */\n      iszero\n        /* \"ERC1967.sol\":74819:74865  to != uniswapV2Pair && !_isExcludedFromFee[to] */\n    tag_494:\n        /* \"ERC1967.sol\":74815:75046  if (to != uniswapV2Pair && !_isExcludedFromFee[to]) {... */\n      iszero\n      tag_498\n      jumpi\n        /* \"ERC1967.sol\":74942:74960  _walletAmountLimit */\n      sload(0x10)\n        /* \"ERC1967.sol\":74932:74938  amount */\n      dup3\n        /* \"ERC1967.sol\":74916:74929  balanceOf(to) */\n      tag_496\n        /* \"ERC1967.sol\":74926:74928  to */\n      dup6\n        /* \"ERC1967.sol\":74916:74925  balanceOf */\n      tag_128\n        /* \"ERC1967.sol\":74916:74929  balanceOf(to) */\n      jump\t// in\n    tag_496:\n        /* \"ERC1967.sol\":74916:74938  balanceOf(to) + amount */\n      tag_497\n      swap2\n      swap1\n      tag_356\n      jump\t// in\n    tag_497:\n        /* \"ERC1967.sol\":74916:74960  balanceOf(to) + amount <= _walletAmountLimit */\n      gt\n      iszero\n        /* \"ERC1967.sol\":74886:75030  require(... */\n      tag_498\n      jumpi\n      mload(0x40)\n      shl(0xe5, 0x461bcd)\n      dup2\n      mstore\n        /* \"#utility.yul\":16910:16912   */\n      0x20\n        /* \"ERC1967.sol\":74886:75030  require(... */\n      0x04\n      dup3\n      add\n        /* \"#utility.yul\":16892:16913   */\n      mstore\n        /* \"#utility.yul\":16949:16951   */\n      0x1a\n        /* \"#utility.yul\":16929:16947   */\n      0x24\n      dup3\n      add\n        /* \"#utility.yul\":16922:16952   */\n      mstore\n        /* \"#utility.yul\":16988:17016   */\n      0x4578636565647320746865206d617857616c6c657453697a652e000000000000\n        /* \"#utility.yul\":16968:16986   */\n      0x44\n      dup3\n      add\n        /* \"#utility.yul\":16961:17017   */\n      mstore\n        /* \"#utility.yul\":17034:17052   */\n      0x64\n      add\n        /* \"ERC1967.sol\":74886:75030  require(... */\n      tag_219\n        /* \"#utility.yul\":16708:17058   */\n      jump\n        /* \"ERC1967.sol\":74886:75030  require(... */\n    tag_498:\n        /* \"ERC1967.sol\":75072:75085  uniswapV2Pair */\n      sload(0x14)\n      sub(shl(0xa0, 0x01), 0x01)\n        /* \"ERC1967.sol\":75066:75085  to == uniswapV2Pair */\n      dup5\n      dup2\n      and\n        /* \"ERC1967.sol\":75072:75085  uniswapV2Pair */\n      swap2\n      and\n        /* \"ERC1967.sol\":75066:75085  to == uniswapV2Pair */\n      eq\n        /* \"ERC1967.sol\":75066:75110  to == uniswapV2Pair && from != address(this) */\n      dup1\n      iszero\n      tag_500\n      jumpi\n      pop\n      sub(shl(0xa0, 0x01), 0x01)\n        /* \"ERC1967.sol\":75089:75110  from != address(this) */\n      dup5\n      and\n        /* \"ERC1967.sol\":75105:75109  this */\n      address\n        /* \"ERC1967.sol\":75089:75110  from != address(this) */\n      eq\n      iszero\n        /* \"ERC1967.sol\":75066:75110  to == uniswapV2Pair && from != address(this) */\n    tag_500:\n        /* \"ERC1967.sol\":75062:75185  if (to == uniswapV2Pair && from != address(this)) {... */\n      iszero\n      tag_501\n      jumpi\n        /* \"ERC1967.sol\":75165:75168  100 */\n      0x64\n        /* \"ERC1967.sol\":75153:75160  sellFee */\n      sload(0x0c)\n        /* \"ERC1967.sol\":75143:75149  amount */\n      dup4\n        /* \"ERC1967.sol\":75143:75161  amount * (sellFee) */\n      tag_502\n      swap2\n      swap1\n      tag_198\n      jump\t// in\n    tag_502:\n        /* \"ERC1967.sol\":75143:75169  amount * (sellFee) / (100) */\n      tag_503\n      swap2\n      swap1\n      tag_200\n      jump\t// in\n    tag_503:\n        /* \"ERC1967.sol\":75131:75169  taxAmount = amount * (sellFee) / (100) */\n      swap1\n      pop\n        /* \"ERC1967.sol\":75062:75185  if (to == uniswapV2Pair && from != address(this)) {... */\n    tag_501:\n        /* \"ERC1967.sol\":75201:75229  uint256 contractTokenBalance */\n      0x00\n        /* \"ERC1967.sol\":75232:75256  balanceOf(address(this)) */\n      tag_504\n        /* \"ERC1967.sol\":75250:75254  this */\n      address\n        /* \"ERC1967.sol\":75232:75241  balanceOf */\n      tag_128\n        /* \"ERC1967.sol\":75232:75256  balanceOf(address(this)) */\n      jump\t// in\n    tag_504:\n        /* \"ERC1967.sol\":75294:75300  inSwap */\n      sload(0x14)\n        /* \"ERC1967.sol\":75201:75256  uint256 contractTokenBalance = balanceOf(address(this)) */\n      swap1\n      swap2\n      pop\n      shl(0xa8, 0x01)\n        /* \"ERC1967.sol\":75294:75300  inSwap */\n      swap1\n      div\n      0xff\n      and\n        /* \"ERC1967.sol\":75293:75300  !inSwap */\n      iszero\n        /* \"ERC1967.sol\":75293:75340  !inSwap &&... */\n      dup1\n      iszero\n      tag_505\n      jumpi\n      pop\n        /* \"ERC1967.sol\":75327:75340  uniswapV2Pair */\n      sload(0x14)\n      sub(shl(0xa0, 0x01), 0x01)\n        /* \"ERC1967.sol\":75321:75340  to == uniswapV2Pair */\n      dup6\n      dup2\n      and\n        /* \"ERC1967.sol\":75327:75340  uniswapV2Pair */\n      swap2\n      and\n        /* \"ERC1967.sol\":75321:75340  to == uniswapV2Pair */\n      eq\n        /* \"ERC1967.sol\":75293:75340  !inSwap &&... */\n    tag_505:\n        /* \"ERC1967.sol\":75293:75372  !inSwap &&... */\n      dup1\n      iszero\n      tag_506\n      jumpi\n      pop\n        /* \"ERC1967.sol\":75361:75372  swapEnabled */\n      sload(0x14)\n      shl(0xb0, 0x01)\n      swap1\n      div\n      0xff\n      and\n        /* \"ERC1967.sol\":75293:75372  !inSwap &&... */\n    tag_506:\n        /* \"ERC1967.sol\":75293:75428  !inSwap &&... */\n      dup1\n      iszero\n      tag_507\n      jumpi\n      pop\n        /* \"ERC1967.sol\":75416:75428  _swapbackMin */\n      sload(0x11)\n        /* \"ERC1967.sol\":75393:75413  contractTokenBalance */\n      dup2\n        /* \"ERC1967.sol\":75393:75428  contractTokenBalance > _swapbackMin */\n      gt\n        /* \"ERC1967.sol\":75293:75428  !inSwap &&... */\n    tag_507:\n        /* \"ERC1967.sol\":75293:75479  !inSwap &&... */\n      dup1\n      iszero\n      tag_508\n      jumpi\n      pop\n        /* \"ERC1967.sol\":75461:75479  _preventSwapBefore */\n      sload(0x0d)\n        /* \"ERC1967.sol\":75449:75458  _buyCount */\n      sload(0x0e)\n        /* \"ERC1967.sol\":75449:75479  _buyCount > _preventSwapBefore */\n      gt\n        /* \"ERC1967.sol\":75293:75479  !inSwap &&... */\n    tag_508:\n        /* \"ERC1967.sol\":75293:75539  !inSwap &&... */\n      dup1\n      iszero\n      tag_509\n      jumpi\n      pop\n        /* \"ERC1967.sol\":75500:75515  lastLiquifyTime */\n      sload(0x0a)\n        /* \"ERC1967.sol\":75526:75538  block.number */\n      number\n        /* \"ERC1967.sol\":75500:75539  lastLiquifyTime != uint64(block.number) */\n      0xffffffffffffffff\n      swap1\n      dup2\n      and\n        /* \"ERC1967.sol\":75500:75515  lastLiquifyTime */\n      swap2\n      and\n        /* \"ERC1967.sol\":75500:75539  lastLiquifyTime != uint64(block.number) */\n      eq\n      iszero\n        /* \"ERC1967.sol\":75293:75539  !inSwap &&... */\n    tag_509:\n        /* \"ERC1967.sol\":75271:75819  if (... */\n      iszero\n      tag_510\n      jumpi\n        /* \"ERC1967.sol\":75574:75631  swapTokensForEth(min(contractTokenBalance, _swapbackMax)) */\n      tag_511\n        /* \"ERC1967.sol\":75591:75630  min(contractTokenBalance, _swapbackMax) */\n      tag_512\n        /* \"ERC1967.sol\":75595:75615  contractTokenBalance */\n      dup3\n        /* \"ERC1967.sol\":75617:75629  _swapbackMax */\n      sload(0x12)\n        /* \"ERC1967.sol\":75591:75594  min */\n      tag_513\n        /* \"ERC1967.sol\":75591:75630  min(contractTokenBalance, _swapbackMax) */\n      jump\t// in\n    tag_512:\n        /* \"ERC1967.sol\":75574:75590  swapTokensForEth */\n      tag_341\n        /* \"ERC1967.sol\":75574:75631  swapTokensForEth(min(contractTokenBalance, _swapbackMax)) */\n      jump\t// in\n    tag_511:\n        /* \"ERC1967.sol\":75679:75700  address(this).balance */\n      selfbalance\n        /* \"ERC1967.sol\":75723:75745  contractETHBalance > 0 */\n      dup1\n      iszero\n        /* \"ERC1967.sol\":75719:75804  if (contractETHBalance > 0) {... */\n      tag_515\n      jumpi\n        /* \"ERC1967.sol\":75770:75784  sendETHToFee() */\n      tag_515\n        /* \"ERC1967.sol\":75770:75782  sendETHToFee */\n      tag_344\n        /* \"ERC1967.sol\":75770:75784  sendETHToFee() */\n      jump\t// in\n    tag_515:\n        /* \"ERC1967.sol\":75555:75819  {... */\n      pop\n        /* \"ERC1967.sol\":75271:75819  if (... */\n    tag_510:\n        /* \"ERC1967.sol\":74057:75830  {... */\n      pop\n        /* \"ERC1967.sol\":74008:75830  if (from != owner() && to != owner() && !inSwap) {... */\n    tag_468:\n        /* \"ERC1967.sol\":75846:75859  taxAmount > 0 */\n      dup1\n      iszero\n        /* \"ERC1967.sol\":75842:75935  if (taxAmount > 0) {... */\n      tag_517\n      jumpi\n        /* \"ERC1967.sol\":75876:75923  super._transfer(from, address(this), taxAmount) */\n      tag_517\n        /* \"ERC1967.sol\":75892:75896  from */\n      dup5\n        /* \"ERC1967.sol\":75906:75910  this */\n      address\n        /* \"ERC1967.sol\":75913:75922  taxAmount */\n      dup4\n        /* \"ERC1967.sol\":75876:75891  super._transfer */\n      tag_518\n        /* \"ERC1967.sol\":75876:75923  super._transfer(from, address(this), taxAmount) */\n      jump\t// in\n    tag_517:\n        /* \"ERC1967.sol\":75945:75992  super._transfer(from, to, amount - (taxAmount)) */\n      tag_232\n        /* \"ERC1967.sol\":75961:75965  from */\n      dup5\n        /* \"ERC1967.sol\":75967:75969  to */\n      dup5\n        /* \"ERC1967.sol\":75971:75991  amount - (taxAmount) */\n      tag_520\n        /* \"ERC1967.sol\":75981:75990  taxAmount */\n      dup5\n        /* \"ERC1967.sol\":75971:75977  amount */\n      dup7\n        /* \"ERC1967.sol\":75971:75991  amount - (taxAmount) */\n      tag_521\n      jump\t// in\n    tag_520:\n        /* \"ERC1967.sol\":75945:75960  super._transfer */\n      tag_518\n        /* \"ERC1967.sol\":75945:75992  super._transfer(from, to, amount - (taxAmount)) */\n      jump\t// in\n        /* \"ERC1967.sol\":30169:30380  function _burn(address account, uint256 value) internal {... */\n    tag_282:\n      sub(shl(0xa0, 0x01), 0x01)\n        /* \"ERC1967.sol\":30240:30261  account == address(0) */\n      dup3\n      and\n        /* \"ERC1967.sol\":30236:30327  if (account == address(0)) {... */\n      tag_523\n      jumpi\n        /* \"ERC1967.sol\":30285:30315  ERC20InvalidSender(address(0)) */\n      mload(0x40)\n      shl(0xe1, 0x4b637e8f)\n      dup2\n      mstore\n        /* \"ERC1967.sol\":30312:30313  0 */\n      0x00\n        /* \"ERC1967.sol\":30285:30315  ERC20InvalidSender(address(0)) */\n      0x04\n      dup3\n      add\n        /* \"#utility.yul\":6848:6899   */\n      mstore\n        /* \"#utility.yul\":6821:6839   */\n      0x24\n      add\n        /* \"ERC1967.sol\":30285:30315  ERC20InvalidSender(address(0)) */\n      tag_219\n        /* \"#utility.yul\":6702:6905   */\n      jump\n        /* \"ERC1967.sol\":30236:30327  if (account == address(0)) {... */\n    tag_523:\n        /* \"ERC1967.sol\":30337:30372  _update(account, address(0), value) */\n      tag_259\n        /* \"ERC1967.sol\":30345:30352  account */\n      dup3\n        /* \"ERC1967.sol\":30362:30363  0 */\n      0x00\n        /* \"ERC1967.sol\":30366:30371  value */\n      dup4\n        /* \"ERC1967.sol\":30337:30344  _update */\n      tag_526\n        /* \"ERC1967.sol\":30337:30372  _update(account, address(0), value) */\n      jump\t// in\n        /* \"ERC1967.sol\":60585:60904  function _checkProxy() internal view virtual {... */\n    tag_285:\n        /* \"ERC1967.sol\":60667:60671  this */\n      address\n      sub(shl(0xa0, 0x01), 0x01)\n        /* \"ERC1967.sol\":60676:60682  __self */\n      immutable(\"0xac8929c8974860d03a062a3562d586a140087e9e0f07f932aa4cee7e717608a8\")\n        /* \"ERC1967.sol\":60659:60682  address(this) == __self */\n      and\n      eq\n      dup1\n        /* \"ERC1967.sol\":60659:60780  address(this) == __self || // Must be called through delegatecall... */\n      tag_528\n      jumpi\n      pop\n        /* \"ERC1967.sol\":60774:60780  __self */\n      immutable(\"0xac8929c8974860d03a062a3562d586a140087e9e0f07f932aa4cee7e717608a8\")\n      sub(shl(0xa0, 0x01), 0x01)\n        /* \"ERC1967.sol\":60738:60780  ERC1967Utils.getImplementation() != __self */\n      and\n        /* \"ERC1967.sol\":60738:60770  ERC1967Utils.getImplementation() */\n      tag_529\n      0x00\n      dup1\n      mload\n      0x20\n      data_75b20eef8615de99c108b05f0dbda081c91897128caa336d75dffb97c4132b4d\n      dup4\n      codecopy\n      dup2\n      mload\n      swap2\n      mstore\n        /* \"ERC1967.sol\":51239:51292  StorageSlot.getAddressSlot(IMPLEMENTATION_SLOT).value */\n      sload\n      sub(shl(0xa0, 0x01), 0x01)\n      and\n      swap1\n        /* \"ERC1967.sol\":51160:51300  function getImplementation() internal view returns (address) {... */\n      jump\n        /* \"ERC1967.sol\":60738:60770  ERC1967Utils.getImplementation() */\n    tag_529:\n      sub(shl(0xa0, 0x01), 0x01)\n        /* \"ERC1967.sol\":60738:60780  ERC1967Utils.getImplementation() != __self */\n      and\n      eq\n      iszero\n        /* \"ERC1967.sol\":60659:60780  address(this) == __self || // Must be called through delegatecall... */\n    tag_528:\n        /* \"ERC1967.sol\":60641:60897  if (... */\n      iszero\n      tag_329\n      jumpi\n        /* \"ERC1967.sol\":60856:60885  UUPSUnauthorizedCallContext() */\n      mload(0x40)\n      shl(0xe1, 0x703e46dd)\n      dup2\n      mstore\n      0x04\n      add\n      mload(0x40)\n      dup1\n      swap2\n      sub\n      swap1\n      revert\n        /* \"ERC1967.sol\":69369:69485  function _authorizeUpgrade(address newImplementation)... */\n    tag_288:\n        /* \"ERC1967.sol\":35513:35526  _checkOwner() */\n      tag_280\n        /* \"ERC1967.sol\":35513:35524  _checkOwner */\n      tag_194\n        /* \"ERC1967.sol\":35513:35526  _checkOwner() */\n      jump\t// in\n        /* \"ERC1967.sol\":62078:62626  function _upgradeToAndCallUUPS(address newImplementation, bytes memory data) private {... */\n    tag_290:\n        /* \"ERC1967.sol\":62196:62213  newImplementation */\n      dup2\n      sub(shl(0xa0, 0x01), 0x01)\n        /* \"ERC1967.sol\":62178:62228  IERC1822Proxiable(newImplementation).proxiableUUID */\n      and\n      0x52d1902d\n        /* \"ERC1967.sol\":62178:62230  IERC1822Proxiable(newImplementation).proxiableUUID() */\n      mload(0x40)\n      dup2\n      0xffffffff\n      and\n      0xe0\n      shl\n      dup2\n      mstore\n      0x04\n      add\n      0x20\n      mload(0x40)\n      dup1\n      dup4\n      sub\n      dup2\n      dup7\n      gas\n      staticcall\n      swap3\n      pop\n      pop\n      pop\n      dup1\n      iszero\n      tag_536\n      jumpi\n      pop\n      0x40\n      dup1\n      mload\n      0x1f\n      returndatasize\n      swap1\n      dup2\n      add\n      not(0x1f)\n      and\n      dup3\n      add\n      swap1\n      swap3\n      mstore\n      tag_537\n      swap2\n      dup2\n      add\n      swap1\n      tag_538\n      jump\t// in\n    tag_537:\n      0x01\n    tag_536:\n        /* \"ERC1967.sol\":62174:62619  try IERC1822Proxiable(newImplementation).proxiableUUID() returns (bytes32 slot) {... */\n      tag_539\n      jumpi\n        /* \"ERC1967.sol\":62547:62607  ERC1967Utils.ERC1967InvalidImplementation(newImplementation) */\n      mload(0x40)\n      shl(0xe0, 0x4c9c8ce3)\n      dup2\n      mstore\n      sub(shl(0xa0, 0x01), 0x01)\n        /* \"#utility.yul\":6866:6898   */\n      dup4\n      and\n        /* \"ERC1967.sol\":62547:62607  ERC1967Utils.ERC1967InvalidImplementation(newImplementation) */\n      0x04\n      dup3\n      add\n        /* \"#utility.yul\":6848:6899   */\n      mstore\n        /* \"#utility.yul\":6821:6839   */\n      0x24\n      add\n        /* \"ERC1967.sol\":62547:62607  ERC1967Utils.ERC1967InvalidImplementation(newImplementation) */\n      tag_219\n        /* \"#utility.yul\":6702:6905   */\n      jump\n        /* \"ERC1967.sol\":62174:62619  try IERC1822Proxiable(newImplementation).proxiableUUID() returns (bytes32 slot) {... */\n    tag_539:\n      0x00\n      dup1\n      mload\n      0x20\n      data_75b20eef8615de99c108b05f0dbda081c91897128caa336d75dffb97c4132b4d\n      dup4\n      codecopy\n      dup2\n      mload\n      swap2\n      mstore\n        /* \"ERC1967.sol\":62273:62313  slot != ERC1967Utils.IMPLEMENTATION_SLOT */\n      dup2\n      eq\n        /* \"ERC1967.sol\":62269:62391  if (slot != ERC1967Utils.IMPLEMENTATION_SLOT) {... */\n      tag_545\n      jumpi\n        /* \"ERC1967.sol\":62341:62375  UUPSUnsupportedProxiableUUID(slot) */\n      mload(0x40)\n      shl(0xe2, 0x2a875269)\n      dup2\n      mstore\n      0x04\n      dup2\n      add\n        /* \"#utility.yul\":1717:1742   */\n      dup3\n      swap1\n      mstore\n        /* \"#utility.yul\":1690:1708   */\n      0x24\n      add\n        /* \"ERC1967.sol\":62341:62375  UUPSUnsupportedProxiableUUID(slot) */\n      tag_219\n        /* \"#utility.yul\":1571:1748   */\n      jump\n        /* \"ERC1967.sol\":62269:62391  if (slot != ERC1967Utils.IMPLEMENTATION_SLOT) {... */\n    tag_545:\n        /* \"ERC1967.sol\":62405:62459  ERC1967Utils.upgradeToAndCall(newImplementation, data) */\n      tag_445\n        /* \"ERC1967.sol\":62435:62452  newImplementation */\n      dup4\n        /* \"ERC1967.sol\":62454:62458  data */\n      dup4\n        /* \"ERC1967.sol\":62405:62434  ERC1967Utils.upgradeToAndCall */\n      tag_548\n        /* \"ERC1967.sol\":62405:62459  ERC1967Utils.upgradeToAndCall(newImplementation, data) */\n      jump\t// in\n        /* \"ERC1967.sol\":61027:61245  function _checkNotDelegated() internal view virtual {... */\n    tag_293:\n        /* \"ERC1967.sol\":61102:61106  this */\n      address\n      sub(shl(0xa0, 0x01), 0x01)\n        /* \"ERC1967.sol\":61111:61117  __self */\n      immutable(\"0xac8929c8974860d03a062a3562d586a140087e9e0f07f932aa4cee7e717608a8\")\n        /* \"ERC1967.sol\":61094:61117  address(this) != __self */\n      and\n      eq\n        /* \"ERC1967.sol\":61090:61238  if (address(this) != __self) {... */\n      tag_329\n      jumpi\n        /* \"ERC1967.sol\":61197:61226  UUPSUnauthorizedCallContext() */\n      mload(0x40)\n      shl(0xe1, 0x703e46dd)\n      dup2\n      mstore\n      0x04\n      add\n      mload(0x40)\n      dup1\n      swap2\n      sub\n      swap1\n      revert\n        /* \"ERC1967.sol\":37000:37253  function _transferOwnership(address newOwner) internal virtual {... */\n    tag_330:\n        /* \"ERC1967.sol\":34458:34480  OwnableStorageLocation */\n      0x9016d09d72d40fdae2fd8ceac6b6234c7706214fd39c1cd1e609a0528c199300\n        /* \"ERC1967.sol\":37151:37159  $._owner */\n      dup1\n      sload\n      not(sub(shl(0xa0, 0x01), 0x01))\n        /* \"ERC1967.sol\":37170:37189  $._owner = newOwner */\n      dup2\n      and\n      sub(shl(0xa0, 0x01), 0x01)\n      dup5\n      dup2\n      and\n      swap2\n      dup3\n      or\n      dup5\n      sstore\n        /* \"ERC1967.sol\":37205:37245  OwnershipTransferred(oldOwner, newOwner) */\n      mload(0x40)\n        /* \"ERC1967.sol\":37151:37159  $._owner */\n      swap3\n      and\n      swap2\n      dup3\n      swap1\n        /* \"ERC1967.sol\":37205:37245  OwnershipTransferred(oldOwner, newOwner) */\n      0x8be0079c531659141344cd1fd0a4f28419497f9722a3daafe3b4186f6b6457e0\n      swap1\n        /* \"ERC1967.sol\":37074:37098  OwnableStorage storage $ */\n      0x00\n      swap1\n        /* \"ERC1967.sol\":37205:37245  OwnershipTransferred(oldOwner, newOwner) */\n      log3\n        /* \"ERC1967.sol\":37063:37253  {... */\n      pop\n      pop\n        /* \"ERC1967.sol\":37000:37253  function _transferOwnership(address newOwner) internal virtual {... */\n      pop\n      jump\t// out\n        /* \"ERC1967.sol\":76736:77268  function swapTokensForEth(uint256 tokenAmount) private lockTheSwap {... */\n    tag_341:\n        /* \"ERC1967.sol\":66989:66995  inSwap */\n      0x14\n        /* \"ERC1967.sol\":66989:67002  inSwap = true */\n      dup1\n      sload\n      not(shl(0xa8, 0xff))\n      and\n      shl(0xa8, 0x01)\n      or\n      swap1\n      sstore\n        /* \"ERC1967.sol\":76814:76829  lastLiquifyTime */\n      0x0a\n        /* \"ERC1967.sol\":76814:76852  lastLiquifyTime = uint64(block.number) */\n      dup1\n      sload\n      0xffffffffffffffff\n        /* \"ERC1967.sol\":76839:76851  block.number */\n      number\n        /* \"ERC1967.sol\":76814:76852  lastLiquifyTime = uint64(block.number) */\n      and\n      not(0xffffffffffffffff)\n      swap1\n      swap2\n      and\n      or\n      swap1\n      sstore\n        /* \"ERC1967.sol\":76887:76903  new address[](2) */\n      0x40\n      dup1\n      mload\n        /* \"ERC1967.sol\":76901:76902  2 */\n      0x02\n        /* \"ERC1967.sol\":76887:76903  new address[](2) */\n      dup1\n      dup3\n      mstore\n      0x60\n      dup3\n      add\n      dup4\n      mstore\n      0x00\n      swap3\n      0x20\n      dup4\n      add\n      swap1\n      dup1\n      calldatasize\n      dup4\n      calldatacopy\n      add\n      swap1\n      pop\n      pop\n        /* \"ERC1967.sol\":76863:76903  address[] memory path = new address[](2) */\n      swap1\n      pop\n        /* \"ERC1967.sol\":76932:76936  this */\n      address\n        /* \"ERC1967.sol\":76914:76918  path */\n      dup2\n        /* \"ERC1967.sol\":76919:76920  0 */\n      0x00\n        /* \"ERC1967.sol\":76914:76921  path[0] */\n      dup2\n      mload\n      dup2\n      lt\n      tag_561\n      jumpi\n      tag_561\n      tag_236\n      jump\t// in\n    tag_561:\n      sub(shl(0xa0, 0x01), 0x01)\n        /* \"ERC1967.sol\":76914:76937  path[0] = address(this) */\n      swap3\n      dup4\n      and\n        /* \"ERC1967.sol\":76914:76921  path[0] */\n      0x20\n      swap2\n      dup3\n      mul\n      swap3\n      swap1\n      swap3\n      add\n      dup2\n      add\n        /* \"ERC1967.sol\":76914:76937  path[0] = address(this) */\n      swap2\n      swap1\n      swap2\n      mstore\n        /* \"ERC1967.sol\":76958:76973  uniswapV2Router */\n      sload(0x13)\n        /* \"ERC1967.sol\":76958:76980  uniswapV2Router.WETH() */\n      0x40\n      dup1\n      mload\n      shl(0xe3, 0x15ab88c9)\n      dup2\n      mstore\n      swap1\n      mload\n        /* \"ERC1967.sol\":76958:76973  uniswapV2Router */\n      swap2\n      swap1\n      swap4\n      and\n      swap3\n        /* \"ERC1967.sol\":76958:76978  uniswapV2Router.WETH */\n      0xad5c4648\n      swap3\n        /* \"ERC1967.sol\":76958:76980  uniswapV2Router.WETH() */\n      0x04\n      dup1\n      dup4\n      add\n      swap4\n        /* \"ERC1967.sol\":76914:76921  path[0] */\n      swap2\n      swap3\n        /* \"ERC1967.sol\":76958:76980  uniswapV2Router.WETH() */\n      dup3\n      swap1\n      sub\n      add\n      dup2\n        /* \"ERC1967.sol\":76958:76973  uniswapV2Router */\n      dup7\n        /* \"ERC1967.sol\":76958:76980  uniswapV2Router.WETH() */\n      gas\n      staticcall\n      iszero\n      dup1\n      iszero\n      tag_563\n      jumpi\n      returndatasize\n      0x00\n      dup1\n      returndatacopy\n      revert(0x00, returndatasize)\n    tag_563:\n      pop\n      pop\n      pop\n      pop\n      mload(0x40)\n      returndatasize\n      not(0x1f)\n      0x1f\n      dup3\n      add\n      and\n      dup3\n      add\n      dup1\n      0x40\n      mstore\n      pop\n      dup2\n      add\n      swap1\n      tag_564\n      swap2\n      swap1\n      tag_395\n      jump\t// in\n    tag_564:\n        /* \"ERC1967.sol\":76948:76952  path */\n      dup2\n        /* \"ERC1967.sol\":76953:76954  1 */\n      0x01\n        /* \"ERC1967.sol\":76948:76955  path[1] */\n      dup2\n      mload\n      dup2\n      lt\n      tag_566\n      jumpi\n      tag_566\n      tag_236\n      jump\t// in\n    tag_566:\n      sub(shl(0xa0, 0x01), 0x01)\n        /* \"ERC1967.sol\":76948:76980  path[1] = uniswapV2Router.WETH() */\n      swap3\n      dup4\n      and\n        /* \"ERC1967.sol\":76948:76955  path[1] */\n      0x20\n      swap2\n      dup3\n      mul\n      swap3\n      swap1\n      swap3\n      add\n      add\n        /* \"ERC1967.sol\":76948:76980  path[1] = uniswapV2Router.WETH() */\n      mstore\n        /* \"ERC1967.sol\":77023:77038  uniswapV2Router */\n      sload(0x13)\n        /* \"ERC1967.sol\":76991:77053  _approve(address(this), address(uniswapV2Router), tokenAmount) */\n      tag_567\n      swap2\n        /* \"ERC1967.sol\":77008:77012  this */\n      address\n      swap2\n        /* \"ERC1967.sol\":77023:77038  uniswapV2Router */\n      and\n        /* \"ERC1967.sol\":77041:77052  tokenAmount */\n      dup5\n        /* \"ERC1967.sol\":76991:76999  _approve */\n      tag_225\n        /* \"ERC1967.sol\":76991:77053  _approve(address(this), address(uniswapV2Router), tokenAmount) */\n      jump\t// in\n    tag_567:\n        /* \"ERC1967.sol\":77064:77079  uniswapV2Router */\n      sload(0x13)\n        /* \"ERC1967.sol\":77064:77260  uniswapV2Router.swapExactTokensForETHSupportingFeeOnTransferTokens(... */\n      mload(0x40)\n      shl(0xe0, 0x791ac947)\n      dup2\n      mstore\n      sub(shl(0xa0, 0x01), 0x01)\n        /* \"ERC1967.sol\":77064:77079  uniswapV2Router */\n      swap1\n      swap2\n      and\n      swap1\n        /* \"ERC1967.sol\":77064:77130  uniswapV2Router.swapExactTokensForETHSupportingFeeOnTransferTokens */\n      0x791ac947\n      swap1\n        /* \"ERC1967.sol\":77064:77260  uniswapV2Router.swapExactTokensForETHSupportingFeeOnTransferTokens(... */\n      tag_568\n      swap1\n        /* \"ERC1967.sol\":77145:77156  tokenAmount */\n      dup6\n      swap1\n        /* \"ERC1967.sol\":77064:77079  uniswapV2Router */\n      0x00\n      swap1\n        /* \"ERC1967.sol\":77187:77191  path */\n      dup7\n      swap1\n        /* \"ERC1967.sol\":77214:77218  this */\n      address\n      swap1\n        /* \"ERC1967.sol\":77234:77249  block.timestamp */\n      timestamp\n      swap1\n        /* \"ERC1967.sol\":77064:77260  uniswapV2Router.swapExactTokensForETHSupportingFeeOnTransferTokens(... */\n      0x04\n      add\n      tag_569\n      jump\t// in\n    tag_568:\n      0x00\n      mload(0x40)\n      dup1\n      dup4\n      sub\n      dup2\n      0x00\n      dup8\n      dup1\n      extcodesize\n      iszero\n      dup1\n      iszero\n      tag_570\n      jumpi\n      0x00\n      dup1\n      revert\n    tag_570:\n      pop\n      gas\n      call\n      iszero\n      dup1\n      iszero\n      tag_572\n      jumpi\n      returndatasize\n      0x00\n      dup1\n      returndatacopy\n      revert(0x00, returndatasize)\n    tag_572:\n      pop\n      pop\n        /* \"ERC1967.sol\":67025:67031  inSwap */\n      0x14\n        /* \"ERC1967.sol\":67025:67039  inSwap = false */\n      dup1\n      sload\n      not(shl(0xa8, 0xff))\n      and\n      swap1\n      sstore\n      pop\n      pop\n      pop\n      pop\n        /* \"ERC1967.sol\":76736:77268  function swapTokensForEth(uint256 tokenAmount) private lockTheSwap {... */\n      jump\t// out\n        /* \"ERC1967.sol\":77276:78127  function sendETHToFee() private {... */\n    tag_344:\n        /* \"ERC1967.sol\":77319:77331  bool success */\n      0x00\n      dup1\n        /* \"ERC1967.sol\":77358:77383  address(this).balance / 8 */\n      tag_574\n        /* \"ERC1967.sol\":77382:77383  8 */\n      0x08\n        /* \"ERC1967.sol\":77358:77379  address(this).balance */\n      selfbalance\n        /* \"ERC1967.sol\":77358:77383  address(this).balance / 8 */\n      tag_200\n      jump\t// in\n    tag_574:\n        /* \"ERC1967.sol\":77416:77427  _taxWallet1 */\n      sload(0x01)\n        /* \"ERC1967.sol\":77408:77475  address(_taxWallet1).call{value: share}(... */\n      mload(0x40)\n        /* \"ERC1967.sol\":77342:77383  uint256 share = address(this).balance / 8 */\n      swap2\n      swap3\n      pop\n      sub(shl(0xa0, 0x01), 0x01)\n        /* \"ERC1967.sol\":77416:77427  _taxWallet1 */\n      and\n      swap1\n        /* \"ERC1967.sol\":77342:77383  uint256 share = address(this).balance / 8 */\n      dup3\n      swap1\n        /* \"ERC1967.sol\":77408:77475  address(_taxWallet1).call{value: share}(... */\n      0x00\n      dup2\n      dup2\n      dup2\n        /* \"ERC1967.sol\":77342:77383  uint256 share = address(this).balance / 8 */\n      dup6\n        /* \"ERC1967.sol\":77416:77427  _taxWallet1 */\n      dup8\n        /* \"ERC1967.sol\":77408:77475  address(_taxWallet1).call{value: share}(... */\n      gas\n      call\n      swap3\n      pop\n      pop\n      pop\n      returndatasize\n      dup1\n      0x00\n      dup2\n      eq\n      tag_579\n      jumpi\n      mload(0x40)\n      swap2\n      pop\n      and(add(returndatasize, 0x3f), not(0x1f))\n      dup3\n      add\n      0x40\n      mstore\n      returndatasize\n      dup3\n      mstore\n      returndatasize\n      0x00\n      0x20\n      dup5\n      add\n      returndatacopy\n      jump(tag_578)\n    tag_579:\n      0x60\n      swap2\n      pop\n    tag_578:\n      pop\n      pop\n        /* \"ERC1967.sol\":77508:77519  _taxWallet2 */\n      sload(0x02)\n        /* \"ERC1967.sol\":77500:77567  address(_taxWallet2).call{value: share}(... */\n      mload(0x40)\n        /* \"ERC1967.sol\":77394:77475  (success, ) = address(_taxWallet1).call{value: share}(... */\n      swap2\n      swap4\n      pop\n      sub(shl(0xa0, 0x01), 0x01)\n        /* \"ERC1967.sol\":77508:77519  _taxWallet2 */\n      and\n      swap1\n        /* \"ERC1967.sol\":77533:77538  share */\n      dup3\n      swap1\n        /* \"ERC1967.sol\":77500:77567  address(_taxWallet2).call{value: share}(... */\n      0x00\n      dup2\n      dup2\n      dup2\n        /* \"ERC1967.sol\":77533:77538  share */\n      dup6\n        /* \"ERC1967.sol\":77508:77519  _taxWallet2 */\n      dup8\n        /* \"ERC1967.sol\":77500:77567  address(_taxWallet2).call{value: share}(... */\n      gas\n      call\n      swap3\n      pop\n      pop\n      pop\n      returndatasize\n      dup1\n      0x00\n      dup2\n      eq\n      tag_583\n      jumpi\n      mload(0x40)\n      swap2\n      pop\n      and(add(returndatasize, 0x3f), not(0x1f))\n      dup3\n      add\n      0x40\n      mstore\n      returndatasize\n      dup3\n      mstore\n      returndatasize\n      0x00\n      0x20\n      dup5\n      add\n      returndatacopy\n      jump(tag_582)\n    tag_583:\n      0x60\n      swap2\n      pop\n    tag_582:\n      pop\n      pop\n        /* \"ERC1967.sol\":77600:77611  _taxWallet3 */\n      sload(0x03)\n        /* \"ERC1967.sol\":77592:77659  address(_taxWallet3).call{value: share}(... */\n      mload(0x40)\n        /* \"ERC1967.sol\":77486:77567  (success, ) = address(_taxWallet2).call{value: share}(... */\n      swap2\n      swap4\n      pop\n      sub(shl(0xa0, 0x01), 0x01)\n        /* \"ERC1967.sol\":77600:77611  _taxWallet3 */\n      and\n      swap1\n        /* \"ERC1967.sol\":77625:77630  share */\n      dup3\n      swap1\n        /* \"ERC1967.sol\":77592:77659  address(_taxWallet3).call{value: share}(... */\n      0x00\n      dup2\n      dup2\n      dup2\n        /* \"ERC1967.sol\":77625:77630  share */\n      dup6\n        /* \"ERC1967.sol\":77600:77611  _taxWallet3 */\n      dup8\n        /* \"ERC1967.sol\":77592:77659  address(_taxWallet3).call{value: share}(... */\n      gas\n      call\n      swap3\n      pop\n      pop\n      pop\n      returndatasize\n      dup1\n      0x00\n      dup2\n      eq\n      tag_587\n      jumpi\n      mload(0x40)\n      swap2\n      pop\n      and(add(returndatasize, 0x3f), not(0x1f))\n      dup3\n      add\n      0x40\n      mstore\n      returndatasize\n      dup3\n      mstore\n      returndatasize\n      0x00\n      0x20\n      dup5\n      add\n      returndatacopy\n      jump(tag_586)\n    tag_587:\n      0x60\n      swap2\n      pop\n    tag_586:\n      pop\n      pop\n        /* \"ERC1967.sol\":77692:77703  _taxWallet4 */\n      sload(0x04)\n        /* \"ERC1967.sol\":77684:77751  address(_taxWallet4).call{value: share}(... */\n      mload(0x40)\n        /* \"ERC1967.sol\":77578:77659  (success, ) = address(_taxWallet3).call{value: share}(... */\n      swap2\n      swap4\n      pop\n      sub(shl(0xa0, 0x01), 0x01)\n        /* \"ERC1967.sol\":77692:77703  _taxWallet4 */\n      and\n      swap1\n        /* \"ERC1967.sol\":77717:77722  share */\n      dup3\n      swap1\n        /* \"ERC1967.sol\":77684:77751  address(_taxWallet4).call{value: share}(... */\n      0x00\n      dup2\n      dup2\n      dup2\n        /* \"ERC1967.sol\":77717:77722  share */\n      dup6\n        /* \"ERC1967.sol\":77692:77703  _taxWallet4 */\n      dup8\n        /* \"ERC1967.sol\":77684:77751  address(_taxWallet4).call{value: share}(... */\n      gas\n      call\n      swap3\n      pop\n      pop\n      pop\n      returndatasize\n      dup1\n      0x00\n      dup2\n      eq\n      tag_591\n      jumpi\n      mload(0x40)\n      swap2\n      pop\n      and(add(returndatasize, 0x3f), not(0x1f))\n      dup3\n      add\n      0x40\n      mstore\n      returndatasize\n      dup3\n      mstore\n      returndatasize\n      0x00\n      0x20\n      dup5\n      add\n      returndatacopy\n      jump(tag_590)\n    tag_591:\n      0x60\n      swap2\n      pop\n    tag_590:\n      pop\n      pop\n        /* \"ERC1967.sol\":77784:77795  _taxWallet5 */\n      sload(0x05)\n        /* \"ERC1967.sol\":77776:77843  address(_taxWallet5).call{value: share}(... */\n      mload(0x40)\n        /* \"ERC1967.sol\":77670:77751  (success, ) = address(_taxWallet4).call{value: share}(... */\n      swap2\n      swap4\n      pop\n      sub(shl(0xa0, 0x01), 0x01)\n        /* \"ERC1967.sol\":77784:77795  _taxWallet5 */\n      and\n      swap1\n        /* \"ERC1967.sol\":77809:77814  share */\n      dup3\n      swap1\n        /* \"ERC1967.sol\":77776:77843  address(_taxWallet5).call{value: share}(... */\n      0x00\n      dup2\n      dup2\n      dup2\n        /* \"ERC1967.sol\":77809:77814  share */\n      dup6\n        /* \"ERC1967.sol\":77784:77795  _taxWallet5 */\n      dup8\n        /* \"ERC1967.sol\":77776:77843  address(_taxWallet5).call{value: share}(... */\n      gas\n      call\n      swap3\n      pop\n      pop\n      pop\n      returndatasize\n      dup1\n      0x00\n      dup2\n      eq\n      tag_595\n      jumpi\n      mload(0x40)\n      swap2\n      pop\n      and(add(returndatasize, 0x3f), not(0x1f))\n      dup3\n      add\n      0x40\n      mstore\n      returndatasize\n      dup3\n      mstore\n      returndatasize\n      0x00\n      0x20\n      dup5\n      add\n      returndatacopy\n      jump(tag_594)\n    tag_595:\n      0x60\n      swap2\n      pop\n    tag_594:\n      pop\n      pop\n        /* \"ERC1967.sol\":77876:77887  _taxWallet6 */\n      sload(0x06)\n        /* \"ERC1967.sol\":77868:77935  address(_taxWallet6).call{value: share}(... */\n      mload(0x40)\n        /* \"ERC1967.sol\":77762:77843  (success, ) = address(_taxWallet5).call{value: share}(... */\n      swap2\n      swap4\n      pop\n      sub(shl(0xa0, 0x01), 0x01)\n        /* \"ERC1967.sol\":77876:77887  _taxWallet6 */\n      and\n      swap1\n        /* \"ERC1967.sol\":77901:77906  share */\n      dup3\n      swap1\n        /* \"ERC1967.sol\":77868:77935  address(_taxWallet6).call{value: share}(... */\n      0x00\n      dup2\n      dup2\n      dup2\n        /* \"ERC1967.sol\":77901:77906  share */\n      dup6\n        /* \"ERC1967.sol\":77876:77887  _taxWallet6 */\n      dup8\n        /* \"ERC1967.sol\":77868:77935  address(_taxWallet6).call{value: share}(... */\n      gas\n      call\n      swap3\n      pop\n      pop\n      pop\n      returndatasize\n      dup1\n      0x00\n      dup2\n      eq\n      tag_599\n      jumpi\n      mload(0x40)\n      swap2\n      pop\n      and(add(returndatasize, 0x3f), not(0x1f))\n      dup3\n      add\n      0x40\n      mstore\n      returndatasize\n      dup3\n      mstore\n      returndatasize\n      0x00\n      0x20\n      dup5\n      add\n      returndatacopy\n      jump(tag_598)\n    tag_599:\n      0x60\n      swap2\n      pop\n    tag_598:\n      pop\n      pop\n        /* \"ERC1967.sol\":77968:77979  _taxWallet7 */\n      sload(0x07)\n        /* \"ERC1967.sol\":77960:78027  address(_taxWallet7).call{value: share}(... */\n      mload(0x40)\n        /* \"ERC1967.sol\":77854:77935  (success, ) = address(_taxWallet6).call{value: share}(... */\n      swap2\n      swap4\n      pop\n      sub(shl(0xa0, 0x01), 0x01)\n        /* \"ERC1967.sol\":77968:77979  _taxWallet7 */\n      and\n      swap1\n        /* \"ERC1967.sol\":77993:77998  share */\n      dup3\n      swap1\n        /* \"ERC1967.sol\":77960:78027  address(_taxWallet7).call{value: share}(... */\n      0x00\n      dup2\n      dup2\n      dup2\n        /* \"ERC1967.sol\":77993:77998  share */\n      dup6\n        /* \"ERC1967.sol\":77968:77979  _taxWallet7 */\n      dup8\n        /* \"ERC1967.sol\":77960:78027  address(_taxWallet7).call{value: share}(... */\n      gas\n      call\n      swap3\n      pop\n      pop\n      pop\n      returndatasize\n      dup1\n      0x00\n      dup2\n      eq\n      tag_603\n      jumpi\n      mload(0x40)\n      swap2\n      pop\n      and(add(returndatasize, 0x3f), not(0x1f))\n      dup3\n      add\n      0x40\n      mstore\n      returndatasize\n      dup3\n      mstore\n      returndatasize\n      0x00\n      0x20\n      dup5\n      add\n      returndatacopy\n      jump(tag_602)\n    tag_603:\n      0x60\n      swap2\n      pop\n    tag_602:\n      pop\n      pop\n        /* \"ERC1967.sol\":78060:78071  _taxWallet8 */\n      sload(0x08)\n        /* \"ERC1967.sol\":78052:78119  address(_taxWallet8).call{value: share}(... */\n      mload(0x40)\n        /* \"ERC1967.sol\":77946:78027  (success, ) = address(_taxWallet7).call{value: share}(... */\n      swap2\n      swap4\n      pop\n      sub(shl(0xa0, 0x01), 0x01)\n        /* \"ERC1967.sol\":78060:78071  _taxWallet8 */\n      and\n      swap1\n        /* \"ERC1967.sol\":78085:78090  share */\n      dup3\n      swap1\n        /* \"ERC1967.sol\":78052:78119  address(_taxWallet8).call{value: share}(... */\n      0x00\n      dup2\n      dup2\n      dup2\n        /* \"ERC1967.sol\":78085:78090  share */\n      dup6\n        /* \"ERC1967.sol\":78060:78071  _taxWallet8 */\n      dup8\n        /* \"ERC1967.sol\":78052:78119  address(_taxWallet8).call{value: share}(... */\n      gas\n      call\n      swap3\n      pop\n      pop\n      pop\n      returndatasize\n      dup1\n      0x00\n      dup2\n      eq\n      tag_607\n      jumpi\n      mload(0x40)\n      swap2\n      pop\n      and(add(returndatasize, 0x3f), not(0x1f))\n      dup3\n      add\n      0x40\n      mstore\n      returndatasize\n      dup3\n      mstore\n      returndatasize\n      0x00\n      0x20\n      dup5\n      add\n      returndatacopy\n      jump(tag_606)\n    tag_607:\n      0x60\n      swap2\n      pop\n    tag_606:\n      pop\n      pop\n      pop\n      pop\n      pop\n        /* \"ERC1967.sol\":77276:78127  function sendETHToFee() private {... */\n      jump\t// out\n        /* \"ERC1967.sol\":29628:29841  function _mint(address account, uint256 value) internal {... */\n    tag_362:\n      sub(shl(0xa0, 0x01), 0x01)\n        /* \"ERC1967.sol\":29699:29720  account == address(0) */\n      dup3\n      and\n        /* \"ERC1967.sol\":29695:29788  if (account == address(0)) {... */\n      tag_609\n      jumpi\n        /* \"ERC1967.sol\":29744:29776  ERC20InvalidReceiver(address(0)) */\n      mload(0x40)\n      shl(0xe0, 0xec442f05)\n      dup2\n      mstore\n        /* \"ERC1967.sol\":29773:29774  0 */\n      0x00\n        /* \"ERC1967.sol\":29744:29776  ERC20InvalidReceiver(address(0)) */\n      0x04\n      dup3\n      add\n        /* \"#utility.yul\":6848:6899   */\n      mstore\n        /* \"#utility.yul\":6821:6839   */\n      0x24\n      add\n        /* \"ERC1967.sol\":29744:29776  ERC20InvalidReceiver(address(0)) */\n      tag_219\n        /* \"#utility.yul\":6702:6905   */\n      jump\n        /* \"ERC1967.sol\":29695:29788  if (account == address(0)) {... */\n    tag_609:\n        /* \"ERC1967.sol\":29798:29833  _update(address(0), account, value) */\n      tag_259\n        /* \"ERC1967.sol\":29814:29815  0 */\n      0x00\n        /* \"ERC1967.sol\":29818:29825  account */\n      dup4\n        /* \"ERC1967.sol\":29827:29832  value */\n      dup4\n        /* \"ERC1967.sol\":29798:29805  _update */\n      tag_526\n        /* \"ERC1967.sol\":29798:29833  _update(address(0), account, value) */\n      jump\t// in\n        /* \"ERC1967.sol\":23014:23163  function __ERC20_init(string memory name_, string memory symbol_) internal onlyInitializing {... */\n    tag_377:\n        /* \"ERC1967.sol\":10731:10751  _checkInitializing() */\n      tag_614\n        /* \"ERC1967.sol\":10731:10749  _checkInitializing */\n      tag_615\n        /* \"ERC1967.sol\":10731:10751  _checkInitializing() */\n      jump\t// in\n    tag_614:\n        /* \"ERC1967.sol\":23117:23155  __ERC20_init_unchained(name_, symbol_) */\n      tag_259\n        /* \"ERC1967.sol\":23140:23145  name_ */\n      dup3\n        /* \"ERC1967.sol\":23147:23154  symbol_ */\n      dup3\n        /* \"ERC1967.sol\":23117:23139  __ERC20_init_unchained */\n      tag_618\n        /* \"ERC1967.sol\":23117:23155  __ERC20_init_unchained(name_, symbol_) */\n      jump\t// in\n        /* \"ERC1967.sol\":35011:35140  function __Ownable_init(address initialOwner) internal onlyInitializing {... */\n    tag_379:\n        /* \"ERC1967.sol\":10731:10751  _checkInitializing() */\n      tag_620\n        /* \"ERC1967.sol\":10731:10749  _checkInitializing */\n      tag_615\n        /* \"ERC1967.sol\":10731:10751  _checkInitializing() */\n      jump\t// in\n    tag_620:\n        /* \"ERC1967.sol\":35094:35132  __Ownable_init_unchained(initialOwner) */\n      tag_280\n        /* \"ERC1967.sol\":35119:35131  initialOwner */\n      dup2\n        /* \"ERC1967.sol\":35094:35118  __Ownable_init_unchained */\n      tag_623\n        /* \"ERC1967.sol\":35094:35132  __Ownable_init_unchained(initialOwner) */\n      jump\t// in\n        /* \"ERC1967.sol\":58917:58985  function __UUPSUpgradeable_init() internal onlyInitializing {... */\n    tag_381:\n        /* \"ERC1967.sol\":10731:10751  _checkInitializing() */\n      tag_329\n        /* \"ERC1967.sol\":10731:10749  _checkInitializing */\n      tag_615\n        /* \"ERC1967.sol\":10731:10751  _checkInitializing() */\n      jump\t// in\n        /* \"ERC1967.sol\":31914:32413  function _approve(address owner, address spender, uint256 value, bool emitEvent) internal virtual {... */\n    tag_446:\n      0x00\n      dup1\n      mload\n      0x20\n      data_3874827173e8df9f34323b12b251d1d3c53926ce129e30a0d69f1d47c277041b\n      dup4\n      codecopy\n      dup2\n      mload\n      swap2\n      mstore\n      sub(shl(0xa0, 0x01), 0x01)\n        /* \"ERC1967.sol\":32081:32100  owner == address(0) */\n      dup6\n      and\n        /* \"ERC1967.sol\":32077:32168  if (owner == address(0)) {... */\n      tag_629\n      jumpi\n        /* \"ERC1967.sol\":32124:32156  ERC20InvalidApprover(address(0)) */\n      mload(0x40)\n      shl(0xe0, 0xe602df05)\n      dup2\n      mstore\n        /* \"ERC1967.sol\":32153:32154  0 */\n      0x00\n        /* \"ERC1967.sol\":32124:32156  ERC20InvalidApprover(address(0)) */\n      0x04\n      dup3\n      add\n        /* \"#utility.yul\":6848:6899   */\n      mstore\n        /* \"#utility.yul\":6821:6839   */\n      0x24\n      add\n        /* \"ERC1967.sol\":32124:32156  ERC20InvalidApprover(address(0)) */\n      tag_219\n        /* \"#utility.yul\":6702:6905   */\n      jump\n        /* \"ERC1967.sol\":32077:32168  if (owner == address(0)) {... */\n    tag_629:\n      sub(shl(0xa0, 0x01), 0x01)\n        /* \"ERC1967.sol\":32182:32203  spender == address(0) */\n      dup5\n      and\n        /* \"ERC1967.sol\":32178:32270  if (spender == address(0)) {... */\n      tag_631\n      jumpi\n        /* \"ERC1967.sol\":32227:32258  ERC20InvalidSpender(address(0)) */\n      mload(0x40)\n      shl(0xe1, 0x4a1406b1)\n      dup2\n      mstore\n        /* \"ERC1967.sol\":32255:32256  0 */\n      0x00\n        /* \"ERC1967.sol\":32227:32258  ERC20InvalidSpender(address(0)) */\n      0x04\n      dup3\n      add\n        /* \"#utility.yul\":6848:6899   */\n      mstore\n        /* \"#utility.yul\":6821:6839   */\n      0x24\n      add\n        /* \"ERC1967.sol\":32227:32258  ERC20InvalidSpender(address(0)) */\n      tag_219\n        /* \"#utility.yul\":6702:6905   */\n      jump\n        /* \"ERC1967.sol\":32178:32270  if (spender == address(0)) {... */\n    tag_631:\n      sub(shl(0xa0, 0x01), 0x01)\n        /* \"ERC1967.sol\":32280:32300  $._allowances[owner] */\n      dup1\n      dup7\n      and\n      0x00\n      swap1\n      dup2\n      mstore\n        /* \"ERC1967.sol\":32280:32293  $._allowances */\n      0x01\n      dup4\n      add\n        /* \"ERC1967.sol\":32280:32300  $._allowances[owner] */\n      0x20\n      swap1\n      dup2\n      mstore\n      0x40\n      dup1\n      dup4\n      keccak256\n        /* \"ERC1967.sol\":32280:32309  $._allowances[owner][spender] */\n      swap4\n      dup9\n      and\n      dup4\n      mstore\n      swap3\n      swap1\n      mstore\n      keccak256\n        /* \"ERC1967.sol\":32280:32317  $._allowances[owner][spender] = value */\n      dup4\n      swap1\n      sstore\n        /* \"ERC1967.sol\":32328:32406  if (emitEvent) {... */\n      dup2\n      iszero\n      tag_606\n      jumpi\n        /* \"ERC1967.sol\":32379:32386  spender */\n      dup4\n      sub(shl(0xa0, 0x01), 0x01)\n        /* \"ERC1967.sol\":32363:32394  Approval(owner, spender, value) */\n      and\n        /* \"ERC1967.sol\":32372:32377  owner */\n      dup6\n      sub(shl(0xa0, 0x01), 0x01)\n        /* \"ERC1967.sol\":32363:32394  Approval(owner, spender, value) */\n      and\n      0x8c5be1e5ebec7d5bd14f71427d1e84f3dd0314c0f7b2291e5b200ac8c7c3b925\n        /* \"ERC1967.sol\":32388:32393  value */\n      dup6\n        /* \"ERC1967.sol\":32363:32394  Approval(owner, spender, value) */\n      mload(0x40)\n      tag_634\n      swap2\n        /* \"#utility.yul\":1717:1742   */\n      dup2\n      mstore\n        /* \"#utility.yul\":1705:1707   */\n      0x20\n        /* \"#utility.yul\":1690:1708   */\n      add\n      swap1\n        /* \"#utility.yul\":1571:1748   */\n      jump\n        /* \"ERC1967.sol\":32363:32394  Approval(owner, spender, value) */\n    tag_634:\n      mload(0x40)\n      dup1\n      swap2\n      sub\n      swap1\n      log3\n        /* \"ERC1967.sol\":32012:32413  {... */\n      pop\n        /* \"ERC1967.sol\":31914:32413  function _approve(address owner, address spender, uint256 value, bool emitEvent) internal virtual {... */\n      pop\n      pop\n      pop\n      pop\n      jump\t// out\n        /* \"ERC1967.sol\":76008:76115  function min(uint256 a, uint256 b) private pure returns (uint256) {... */\n    tag_513:\n        /* \"ERC1967.sol\":76065:76072  uint256 */\n      0x00\n        /* \"ERC1967.sol\":76097:76098  b */\n      dup2\n        /* \"ERC1967.sol\":76093:76094  a */\n      dup4\n        /* \"ERC1967.sol\":76093:76098  a > b */\n      gt\n        /* \"ERC1967.sol\":76092:76107  (a > b) ? b : a */\n      tag_637\n      jumpi\n        /* \"ERC1967.sol\":76106:76107  a */\n      dup3\n        /* \"ERC1967.sol\":76092:76107  (a > b) ? b : a */\n      jump(tag_260)\n    tag_637:\n      pop\n        /* \"ERC1967.sol\":76102:76103  b */\n      swap2\n        /* \"ERC1967.sol\":76085:76107  return (a > b) ? b : a */\n      swap1\n      pop\n        /* \"ERC1967.sol\":76008:76115  function min(uint256 a, uint256 b) private pure returns (uint256) {... */\n      jump\t// out\n        /* \"ERC1967.sol\":27436:27752  function _transfer(address from, address to, uint256 value) internal virtual {... */\n    tag_518:\n      sub(shl(0xa0, 0x01), 0x01)\n        /* \"ERC1967.sol\":27528:27546  from == address(0) */\n      dup4\n      and\n        /* \"ERC1967.sol\":27524:27612  if (from == address(0)) {... */\n      tag_640\n      jumpi\n        /* \"ERC1967.sol\":27570:27600  ERC20InvalidSender(address(0)) */\n      mload(0x40)\n      shl(0xe1, 0x4b637e8f)\n      dup2\n      mstore\n        /* \"ERC1967.sol\":27597:27598  0 */\n      0x00\n        /* \"ERC1967.sol\":27570:27600  ERC20InvalidSender(address(0)) */\n      0x04\n      dup3\n      add\n        /* \"#utility.yul\":6848:6899   */\n      mstore\n        /* \"#utility.yul\":6821:6839   */\n      0x24\n      add\n        /* \"ERC1967.sol\":27570:27600  ERC20InvalidSender(address(0)) */\n      tag_219\n        /* \"#utility.yul\":6702:6905   */\n      jump\n        /* \"ERC1967.sol\":27524:27612  if (from == address(0)) {... */\n    tag_640:\n      sub(shl(0xa0, 0x01), 0x01)\n        /* \"ERC1967.sol\":27626:27642  to == address(0) */\n      dup3\n      and\n        /* \"ERC1967.sol\":27622:27710  if (to == address(0)) {... */\n      tag_642\n      jumpi\n        /* \"ERC1967.sol\":27666:27698  ERC20InvalidReceiver(address(0)) */\n      mload(0x40)\n      shl(0xe0, 0xec442f05)\n      dup2\n      mstore\n        /* \"ERC1967.sol\":27695:27696  0 */\n      0x00\n        /* \"ERC1967.sol\":27666:27698  ERC20InvalidReceiver(address(0)) */\n      0x04\n      dup3\n      add\n        /* \"#utility.yul\":6848:6899   */\n      mstore\n        /* \"#utility.yul\":6821:6839   */\n      0x24\n      add\n        /* \"ERC1967.sol\":27666:27698  ERC20InvalidReceiver(address(0)) */\n      tag_219\n        /* \"#utility.yul\":6702:6905   */\n      jump\n        /* \"ERC1967.sol\":27622:27710  if (to == address(0)) {... */\n    tag_642:\n        /* \"ERC1967.sol\":27720:27744  _update(from, to, value) */\n      tag_445\n        /* \"ERC1967.sol\":27728:27732  from */\n      dup4\n        /* \"ERC1967.sol\":27734:27736  to */\n      dup4\n        /* \"ERC1967.sol\":27738:27743  value */\n      dup4\n        /* \"ERC1967.sol\":28076:29275  function _update(address from, address to, uint256 value) internal virtual {... */\n    tag_526:\n      0x00\n      dup1\n      mload\n      0x20\n      data_3874827173e8df9f34323b12b251d1d3c53926ce129e30a0d69f1d47c277041b\n      dup4\n      codecopy\n      dup2\n      mload\n      swap2\n      mstore\n      sub(shl(0xa0, 0x01), 0x01)\n        /* \"ERC1967.sol\":28220:28238  from == address(0) */\n      dup5\n      and\n        /* \"ERC1967.sol\":28216:28774  if (from == address(0)) {... */\n      tag_647\n      jumpi\n        /* \"ERC1967.sol\":28376:28381  value */\n      dup2\n        /* \"ERC1967.sol\":28358:28359  $ */\n      dup2\n        /* \"ERC1967.sol\":28358:28372  $._totalSupply */\n      0x02\n      add\n      0x00\n        /* \"ERC1967.sol\":28358:28381  $._totalSupply += value */\n      dup3\n      dup3\n      sload\n      tag_648\n      swap2\n      swap1\n      tag_356\n      jump\t// in\n    tag_648:\n      swap1\n      swap2\n      sstore\n      pop\n        /* \"ERC1967.sol\":28216:28774  if (from == address(0)) {... */\n      tag_649\n      swap1\n      pop\n      jump\n    tag_647:\n      sub(shl(0xa0, 0x01), 0x01)\n        /* \"ERC1967.sol\":28436:28453  $._balances[from] */\n      dup5\n      and\n        /* \"ERC1967.sol\":28414:28433  uint256 fromBalance */\n      0x00\n        /* \"ERC1967.sol\":28436:28453  $._balances[from] */\n      swap1\n      dup2\n      mstore\n      0x20\n      dup3\n      swap1\n      mstore\n      0x40\n      swap1\n      keccak256\n      sload\n        /* \"ERC1967.sol\":28472:28491  fromBalance < value */\n      dup3\n      dup2\n      lt\n        /* \"ERC1967.sol\":28468:28585  if (fromBalance < value) {... */\n      iszero\n      tag_650\n      jumpi\n        /* \"ERC1967.sol\":28519:28569  ERC20InsufficientBalance(from, fromBalance, value) */\n      mload(0x40)\n      shl(0xe2, 0x391434e3)\n      dup2\n      mstore\n      sub(shl(0xa0, 0x01), 0x01)\n        /* \"#utility.yul\":14713:14745   */\n      dup7\n      and\n        /* \"ERC1967.sol\":28519:28569  ERC20InsufficientBalance(from, fromBalance, value) */\n      0x04\n      dup3\n      add\n        /* \"#utility.yul\":14695:14746   */\n      mstore\n        /* \"#utility.yul\":14762:14780   */\n      0x24\n      dup2\n      add\n        /* \"#utility.yul\":14755:14789   */\n      dup3\n      swap1\n      mstore\n        /* \"#utility.yul\":14805:14823   */\n      0x44\n      dup2\n      add\n        /* \"#utility.yul\":14798:14832   */\n      dup5\n      swap1\n      mstore\n        /* \"#utility.yul\":14668:14686   */\n      0x64\n      add\n        /* \"ERC1967.sol\":28519:28569  ERC20InsufficientBalance(from, fromBalance, value) */\n      tag_219\n        /* \"#utility.yul\":14493:14838   */\n      jump\n        /* \"ERC1967.sol\":28468:28585  if (fromBalance < value) {... */\n    tag_650:\n      sub(shl(0xa0, 0x01), 0x01)\n        /* \"ERC1967.sol\":28708:28725  $._balances[from] */\n      dup6\n      and\n        /* \"ERC1967.sol\":28708:28719  $._balances */\n      0x00\n        /* \"ERC1967.sol\":28708:28725  $._balances[from] */\n      swap1\n      dup2\n      mstore\n      0x20\n      dup4\n      swap1\n      mstore\n      0x40\n      swap1\n      keccak256\n        /* \"ERC1967.sol\":28728:28747  fromBalance - value */\n      swap1\n      dup4\n      swap1\n      sub\n        /* \"ERC1967.sol\":28708:28747  $._balances[from] = fromBalance - value */\n      swap1\n      sstore\n        /* \"ERC1967.sol\":28216:28774  if (from == address(0)) {... */\n    tag_649:\n      sub(shl(0xa0, 0x01), 0x01)\n        /* \"ERC1967.sol\":28790:28806  to == address(0) */\n      dup4\n      and\n        /* \"ERC1967.sol\":28786:29225  if (to == address(0)) {... */\n      tag_652\n      jumpi\n        /* \"ERC1967.sol\":28956:28970  $._totalSupply */\n      0x02\n      dup2\n      add\n        /* \"ERC1967.sol\":28956:28979  $._totalSupply -= value */\n      dup1\n      sload\n      dup4\n      swap1\n      sub\n      swap1\n      sstore\n        /* \"ERC1967.sol\":28786:29225  if (to == address(0)) {... */\n      jump(tag_653)\n    tag_652:\n      sub(shl(0xa0, 0x01), 0x01)\n        /* \"ERC1967.sol\":29174:29189  $._balances[to] */\n      dup4\n      and\n        /* \"ERC1967.sol\":29174:29185  $._balances */\n      0x00\n        /* \"ERC1967.sol\":29174:29189  $._balances[to] */\n      swap1\n      dup2\n      mstore\n      0x20\n      dup3\n      swap1\n      mstore\n      0x40\n      swap1\n      keccak256\n        /* \"ERC1967.sol\":29174:29198  $._balances[to] += value */\n      dup1\n      sload\n      dup4\n      add\n      swap1\n      sstore\n        /* \"ERC1967.sol\":28786:29225  if (to == address(0)) {... */\n    tag_653:\n        /* \"ERC1967.sol\":29257:29259  to */\n      dup3\n      sub(shl(0xa0, 0x01), 0x01)\n        /* \"ERC1967.sol\":29242:29267  Transfer(from, to, value) */\n      and\n        /* \"ERC1967.sol\":29251:29255  from */\n      dup5\n      sub(shl(0xa0, 0x01), 0x01)\n        /* \"ERC1967.sol\":29242:29267  Transfer(from, to, value) */\n      and\n      0xddf252ad1be2c89b69c2b068fc378daa952ba7f163c4a11628f55a4df523b3ef\n        /* \"ERC1967.sol\":29261:29266  value */\n      dup5\n        /* \"ERC1967.sol\":29242:29267  Transfer(from, to, value) */\n      mload(0x40)\n      tag_654\n      swap2\n        /* \"#utility.yul\":1717:1742   */\n      dup2\n      mstore\n        /* \"#utility.yul\":1705:1707   */\n      0x20\n        /* \"#utility.yul\":1690:1708   */\n      add\n      swap1\n        /* \"#utility.yul\":1571:1748   */\n      jump\n        /* \"ERC1967.sol\":29242:29267  Transfer(from, to, value) */\n    tag_654:\n      mload(0x40)\n      dup1\n      swap2\n      sub\n      swap1\n      log3\n        /* \"ERC1967.sol\":28151:29275  {... */\n      pop\n        /* \"ERC1967.sol\":28076:29275  function _update(address from, address to, uint256 value) internal virtual {... */\n      pop\n      pop\n      pop\n      jump\t// out\n        /* \"ERC1967.sol\":52003:52347  function upgradeToAndCall(address newImplementation, bytes memory data) internal {... */\n    tag_548:\n        /* \"ERC1967.sol\":52095:52132  _setImplementation(newImplementation) */\n      tag_659\n        /* \"ERC1967.sol\":52114:52131  newImplementation */\n      dup3\n        /* \"ERC1967.sol\":52095:52113  _setImplementation */\n      tag_660\n        /* \"ERC1967.sol\":52095:52132  _setImplementation(newImplementation) */\n      jump\t// in\n    tag_659:\n        /* \"ERC1967.sol\":52148:52175  Upgraded(newImplementation) */\n      mload(0x40)\n      sub(shl(0xa0, 0x01), 0x01)\n      dup4\n      and\n      swap1\n      0xbc7cd75a20ee27fd9adebab32041f755214dbc6bffa90cc0225b39da2e5c2d3b\n      swap1\n      0x00\n      swap1\n      log2\n        /* \"ERC1967.sol\":52192:52203  data.length */\n      dup1\n      mload\n        /* \"ERC1967.sol\":52192:52207  data.length > 0 */\n      iszero\n        /* \"ERC1967.sol\":52188:52340  if (data.length > 0) {... */\n      tag_661\n      jumpi\n        /* \"ERC1967.sol\":52224:52277  Address.functionDelegateCall(newImplementation, data) */\n      tag_445\n        /* \"ERC1967.sol\":52253:52270  newImplementation */\n      dup3\n        /* \"ERC1967.sol\":52272:52276  data */\n      dup3\n        /* \"ERC1967.sol\":52224:52252  Address.functionDelegateCall */\n      tag_663\n        /* \"ERC1967.sol\":52224:52277  Address.functionDelegateCall(newImplementation, data) */\n      jump\t// in\n        /* \"ERC1967.sol\":52188:52340  if (data.length > 0) {... */\n    tag_661:\n        /* \"ERC1967.sol\":52310:52328  _checkNonPayable() */\n      tag_259\n        /* \"ERC1967.sol\":52310:52326  _checkNonPayable */\n      tag_666\n        /* \"ERC1967.sol\":52310:52328  _checkNonPayable() */\n      jump\t// in\n        /* \"ERC1967.sol\":10891:11036  function _checkInitializing() internal view virtual {... */\n    tag_615:\n        /* \"ERC1967.sol\":12724:12745  INITIALIZABLE_STORAGE */\n      0xf0c57e16840df040f15088dc2f81fe391c3923bec73e23a9662efc9c229c6a00\n        /* \"ERC1967.sol\":12405:12445  _getInitializableStorage()._initializing */\n      sload\n      shl(0x40, 0x01)\n      swap1\n      div\n      0xff\n      and\n        /* \"ERC1967.sol\":10954:11029  if (!_isInitializing()) {... */\n      tag_329\n      jumpi\n        /* \"ERC1967.sol\":11000:11017  NotInitializing() */\n      mload(0x40)\n      shl(0xe3, 0x1afcd79f)\n      dup2\n      mstore\n      0x04\n      add\n      mload(0x40)\n      dup1\n      swap2\n      sub\n      swap1\n      revert\n        /* \"ERC1967.sol\":23171:23391  function __ERC20_init_unchained(string memory name_, string memory symbol_) internal onlyInitializing {... */\n    tag_618:\n        /* \"ERC1967.sol\":10731:10751  _checkInitializing() */\n      tag_672\n        /* \"ERC1967.sol\":10731:10749  _checkInitializing */\n      tag_615\n        /* \"ERC1967.sol\":10731:10751  _checkInitializing() */\n      jump\t// in\n    tag_672:\n      0x00\n      dup1\n      mload\n      0x20\n      data_3874827173e8df9f34323b12b251d1d3c53926ce129e30a0d69f1d47c277041b\n      dup4\n      codecopy\n      dup2\n      mload\n      swap2\n      mstore\n        /* \"ERC1967.sol\":23338:23345  $._name */\n      0x52c63247e1f47db19d5ce0460030c497f067ca4cebf71ba98eeadabe20bace03\n        /* \"ERC1967.sol\":23338:23353  $._name = name_ */\n      tag_675\n        /* \"ERC1967.sol\":23348:23353  name_ */\n      dup5\n        /* \"ERC1967.sol\":23338:23345  $._name */\n      dup3\n        /* \"ERC1967.sol\":23338:23353  $._name = name_ */\n      tag_676\n      jump\t// in\n    tag_675:\n      pop\n        /* \"ERC1967.sol\":23364:23373  $._symbol */\n      0x04\n      dup2\n      add\n        /* \"ERC1967.sol\":23364:23383  $._symbol = symbol_ */\n      tag_232\n        /* \"ERC1967.sol\":23376:23383  symbol_ */\n      dup4\n        /* \"ERC1967.sol\":23364:23373  $._symbol */\n      dup3\n        /* \"ERC1967.sol\":23364:23383  $._symbol = symbol_ */\n      tag_676\n      jump\t// in\n        /* \"ERC1967.sol\":35148:35388  function __Ownable_init_unchained(address initialOwner) internal onlyInitializing {... */\n    tag_623:\n        /* \"ERC1967.sol\":10731:10751  _checkInitializing() */\n      tag_425\n        /* \"ERC1967.sol\":10731:10749  _checkInitializing */\n      tag_615\n        /* \"ERC1967.sol\":10731:10751  _checkInitializing() */\n      jump\t// in\n        /* \"ERC1967.sol\":51396:51682  function _setImplementation(address newImplementation) private {... */\n    tag_660:\n        /* \"ERC1967.sol\":51474:51491  newImplementation */\n      dup1\n      sub(shl(0xa0, 0x01), 0x01)\n        /* \"ERC1967.sol\":51474:51503  newImplementation.code.length */\n      and\n      extcodesize\n        /* \"ERC1967.sol\":51507:51508  0 */\n      0x00\n        /* \"ERC1967.sol\":51474:51508  newImplementation.code.length == 0 */\n      sub\n        /* \"ERC1967.sol\":51470:51591  if (newImplementation.code.length == 0) {... */\n      tag_686\n      jumpi\n        /* \"ERC1967.sol\":51532:51579  ERC1967InvalidImplementation(newImplementation) */\n      mload(0x40)\n      shl(0xe0, 0x4c9c8ce3)\n      dup2\n      mstore\n      sub(shl(0xa0, 0x01), 0x01)\n        /* \"#utility.yul\":6866:6898   */\n      dup3\n      and\n        /* \"ERC1967.sol\":51532:51579  ERC1967InvalidImplementation(newImplementation) */\n      0x04\n      dup3\n      add\n        /* \"#utility.yul\":6848:6899   */\n      mstore\n        /* \"#utility.yul\":6821:6839   */\n      0x24\n      add\n        /* \"ERC1967.sol\":51532:51579  ERC1967InvalidImplementation(newImplementation) */\n      tag_219\n        /* \"#utility.yul\":6702:6905   */\n      jump\n        /* \"ERC1967.sol\":51470:51591  if (newImplementation.code.length == 0) {... */\n    tag_686:\n      0x00\n      dup1\n      mload\n      0x20\n      data_75b20eef8615de99c108b05f0dbda081c91897128caa336d75dffb97c4132b4d\n      dup4\n      codecopy\n      dup2\n      mload\n      swap2\n      mstore\n        /* \"ERC1967.sol\":51601:51674  StorageSlot.getAddressSlot(IMPLEMENTATION_SLOT).value = newImplementation */\n      dup1\n      sload\n      not(sub(shl(0xa0, 0x01), 0x01))\n      and\n      sub(shl(0xa0, 0x01), 0x01)\n      swap3\n      swap1\n      swap3\n      and\n      swap2\n      swap1\n      swap2\n      or\n      swap1\n      sstore\n        /* \"ERC1967.sol\":51396:51682  function _setImplementation(address newImplementation) private {... */\n      jump\t// out\n        /* \"ERC1967.sol\":42949:43205  function functionDelegateCall(address target, bytes memory data) internal returns (bytes memory) {... */\n    tag_663:\n        /* \"ERC1967.sol\":43032:43044  bytes memory */\n      0x60\n        /* \"ERC1967.sol\":43058:43070  bool success */\n      0x00\n        /* \"ERC1967.sol\":43072:43095  bytes memory returndata */\n      dup1\n        /* \"ERC1967.sol\":43099:43105  target */\n      dup5\n      sub(shl(0xa0, 0x01), 0x01)\n        /* \"ERC1967.sol\":43099:43118  target.delegatecall */\n      and\n        /* \"ERC1967.sol\":43119:43123  data */\n      dup5\n        /* \"ERC1967.sol\":43099:43124  target.delegatecall(data) */\n      mload(0x40)\n      tag_690\n      swap2\n      swap1\n      tag_691\n      jump\t// in\n    tag_690:\n      0x00\n      mload(0x40)\n      dup1\n      dup4\n      sub\n      dup2\n      dup6\n      gas\n      delegatecall\n      swap2\n      pop\n      pop\n      returndatasize\n      dup1\n      0x00\n      dup2\n      eq\n      tag_694\n      jumpi\n      mload(0x40)\n      swap2\n      pop\n      and(add(returndatasize, 0x3f), not(0x1f))\n      dup3\n      add\n      0x40\n      mstore\n      returndatasize\n      dup3\n      mstore\n      returndatasize\n      0x00\n      0x20\n      dup5\n      add\n      returndatacopy\n      jump(tag_693)\n    tag_694:\n      0x60\n      swap2\n      pop\n    tag_693:\n      pop\n        /* \"ERC1967.sol\":43057:43124  (bool success, bytes memory returndata) = target.delegatecall(data) */\n      swap2\n      pop\n      swap2\n      pop\n        /* \"ERC1967.sol\":43142:43197  verifyCallResultFromTarget(target, success, returndata) */\n      tag_695\n        /* \"ERC1967.sol\":43169:43175  target */\n      dup6\n        /* \"ERC1967.sol\":43177:43184  success */\n      dup4\n        /* \"ERC1967.sol\":43186:43196  returndata */\n      dup4\n        /* \"ERC1967.sol\":43142:43168  verifyCallResultFromTarget */\n      tag_696\n        /* \"ERC1967.sol\":43142:43197  verifyCallResultFromTarget(target, success, returndata) */\n      jump\t// in\n    tag_695:\n        /* \"ERC1967.sol\":43135:43197  return verifyCallResultFromTarget(target, success, returndata) */\n      swap6\n        /* \"ERC1967.sol\":42949:43205  function functionDelegateCall(address target, bytes memory data) internal returns (bytes memory) {... */\n      swap5\n      pop\n      pop\n      pop\n      pop\n      pop\n      jump\t// out\n        /* \"ERC1967.sol\":55927:56053  function _checkNonPayable() private {... */\n    tag_666:\n        /* \"ERC1967.sol\":55978:55987  msg.value */\n      callvalue\n        /* \"ERC1967.sol\":55978:55991  msg.value > 0 */\n      iszero\n        /* \"ERC1967.sol\":55974:56046  if (msg.value > 0) {... */\n      tag_329\n      jumpi\n        /* \"ERC1967.sol\":56015:56034  ERC1967NonPayable() */\n      mload(0x40)\n      shl(0xe0, 0xb398979f)\n      dup2\n      mstore\n      0x04\n      add\n      mload(0x40)\n      dup1\n      swap2\n      sub\n      swap1\n      revert\n        /* \"ERC1967.sol\":43478:44075  function verifyCallResultFromTarget(... */\n    tag_696:\n        /* \"ERC1967.sol\":43626:43638  bytes memory */\n      0x60\n        /* \"ERC1967.sol\":43656:43663  success */\n      dup3\n        /* \"ERC1967.sol\":43651:44068  if (!success) {... */\n      tag_702\n      jumpi\n        /* \"ERC1967.sol\":43680:43699  _revert(returndata) */\n      tag_703\n        /* \"ERC1967.sol\":43688:43698  returndata */\n      dup3\n        /* \"ERC1967.sol\":43680:43687  _revert */\n      tag_704\n        /* \"ERC1967.sol\":43680:43699  _revert(returndata) */\n      jump\t// in\n    tag_703:\n        /* \"ERC1967.sol\":43651:44068  if (!success) {... */\n      jump(tag_260)\n    tag_702:\n        /* \"ERC1967.sol\":43908:43925  returndata.length */\n      dup2\n      mload\n        /* \"ERC1967.sol\":43908:43930  returndata.length == 0 */\n      iszero\n        /* \"ERC1967.sol\":43908:43957  returndata.length == 0 && target.code.length == 0 */\n      dup1\n      iszero\n      tag_706\n      jumpi\n      pop\n      sub(shl(0xa0, 0x01), 0x01)\n        /* \"ERC1967.sol\":43934:43952  target.code.length */\n      dup5\n      and\n      extcodesize\n        /* \"ERC1967.sol\":43934:43957  target.code.length == 0 */\n      iszero\n        /* \"ERC1967.sol\":43908:43957  returndata.length == 0 && target.code.length == 0 */\n    tag_706:\n        /* \"ERC1967.sol\":43904:44025  if (returndata.length == 0 && target.code.length == 0) {... */\n      iszero\n      tag_707\n      jumpi\n        /* \"ERC1967.sol\":43985:44009  AddressEmptyCode(target) */\n      mload(0x40)\n      shl(0xe0, 0x9996b315)\n      dup2\n      mstore\n      sub(shl(0xa0, 0x01), 0x01)\n        /* \"#utility.yul\":6866:6898   */\n      dup6\n      and\n        /* \"ERC1967.sol\":43985:44009  AddressEmptyCode(target) */\n      0x04\n      dup3\n      add\n        /* \"#utility.yul\":6848:6899   */\n      mstore\n        /* \"#utility.yul\":6821:6839   */\n      0x24\n      add\n        /* \"ERC1967.sol\":43985:44009  AddressEmptyCode(target) */\n      tag_219\n        /* \"#utility.yul\":6702:6905   */\n      jump\n        /* \"ERC1967.sol\":43904:44025  if (returndata.length == 0 && target.code.length == 0) {... */\n    tag_707:\n      pop\n        /* \"ERC1967.sol\":44046:44056  returndata */\n      dup1\n        /* \"ERC1967.sol\":44039:44056  return returndata */\n      jump(tag_260)\n        /* \"ERC1967.sol\":44628:45156  function _revert(bytes memory returndata) private pure {... */\n    tag_704:\n        /* \"ERC1967.sol\":44761:44778  returndata.length */\n      dup1\n      mload\n        /* \"ERC1967.sol\":44761:44782  returndata.length > 0 */\n      iszero\n        /* \"ERC1967.sol\":44757:45149  if (returndata.length > 0) {... */\n      tag_710\n      jumpi\n        /* \"ERC1967.sol\":44993:45003  returndata */\n      dup1\n        /* \"ERC1967.sol\":44987:45004  mload(returndata) */\n      mload\n        /* \"ERC1967.sol\":45050:45065  returndata_size */\n      dup1\n        /* \"ERC1967.sol\":45037:45047  returndata */\n      dup3\n        /* \"ERC1967.sol\":45033:45035  32 */\n      0x20\n        /* \"ERC1967.sol\":45029:45048  add(32, returndata) */\n      add\n        /* \"ERC1967.sol\":45022:45066  revert(add(32, returndata), returndata_size) */\n      revert\n        /* \"ERC1967.sol\":44757:45149  if (returndata.length > 0) {... */\n    tag_710:\n        /* \"ERC1967.sol\":45120:45137  FailedInnerCall() */\n      mload(0x40)\n      shl(0xe1, 0x0a12f521)\n      dup2\n      mstore\n      0x04\n      add\n      mload(0x40)\n      dup1\n      swap2\n      sub\n      swap1\n      revert\n        /* \"#utility.yul\":14:262   */\n    tag_48:\n        /* \"#utility.yul\":82:88   */\n      0x00\n        /* \"#utility.yul\":90:96   */\n      dup1\n        /* \"#utility.yul\":143:145   */\n      0x40\n        /* \"#utility.yul\":131:140   */\n      dup4\n        /* \"#utility.yul\":122:129   */\n      dup6\n        /* \"#utility.yul\":118:141   */\n      sub\n        /* \"#utility.yul\":114:146   */\n      slt\n        /* \"#utility.yul\":111:163   */\n      iszero\n      tag_721\n      jumpi\n        /* \"#utility.yul\":159:160   */\n      0x00\n        /* \"#utility.yul\":156:157   */\n      dup1\n        /* \"#utility.yul\":149:161   */\n      revert\n        /* \"#utility.yul\":111:163   */\n    tag_721:\n      pop\n      pop\n        /* \"#utility.yul\":182:205   */\n      dup1\n      calldataload\n      swap3\n        /* \"#utility.yul\":252:254   */\n      0x20\n        /* \"#utility.yul\":237:255   */\n      swap1\n      swap2\n      add\n        /* \"#utility.yul\":224:256   */\n      calldataload\n      swap2\n      pop\n        /* \"#utility.yul\":14:262   */\n      jump\t// out\n        /* \"#utility.yul\":267:517   */\n    tag_712:\n        /* \"#utility.yul\":352:353   */\n      0x00\n        /* \"#utility.yul\":362:475   */\n    tag_723:\n        /* \"#utility.yul\":376:382   */\n      dup4\n        /* \"#utility.yul\":373:374   */\n      dup2\n        /* \"#utility.yul\":370:383   */\n      lt\n        /* \"#utility.yul\":362:475   */\n      iszero\n      tag_725\n      jumpi\n        /* \"#utility.yul\":452:463   */\n      dup2\n      dup2\n      add\n        /* \"#utility.yul\":446:464   */\n      mload\n        /* \"#utility.yul\":433:444   */\n      dup4\n      dup3\n      add\n        /* \"#utility.yul\":426:465   */\n      mstore\n        /* \"#utility.yul\":398:400   */\n      0x20\n        /* \"#utility.yul\":391:401   */\n      add\n        /* \"#utility.yul\":362:475   */\n      jump(tag_723)\n    tag_725:\n      pop\n      pop\n        /* \"#utility.yul\":509:510   */\n      0x00\n        /* \"#utility.yul\":491:507   */\n      swap2\n      add\n        /* \"#utility.yul\":484:511   */\n      mstore\n        /* \"#utility.yul\":267:517   */\n      jump\t// out\n        /* \"#utility.yul\":522:918   */\n    tag_54:\n        /* \"#utility.yul\":671:673   */\n      0x20\n        /* \"#utility.yul\":660:669   */\n      dup2\n        /* \"#utility.yul\":653:674   */\n      mstore\n        /* \"#utility.yul\":634:638   */\n      0x00\n        /* \"#utility.yul\":703:709   */\n      dup3\n        /* \"#utility.yul\":697:710   */\n      mload\n        /* \"#utility.yul\":746:752   */\n      dup1\n        /* \"#utility.yul\":741:743   */\n      0x20\n        /* \"#utility.yul\":730:739   */\n      dup5\n        /* \"#utility.yul\":726:744   */\n      add\n        /* \"#utility.yul\":719:753   */\n      mstore\n        /* \"#utility.yul\":762:841   */\n      tag_727\n        /* \"#utility.yul\":834:840   */\n      dup2\n        /* \"#utility.yul\":829:831   */\n      0x40\n        /* \"#utility.yul\":818:827   */\n      dup6\n        /* \"#utility.yul\":814:832   */\n      add\n        /* \"#utility.yul\":809:811   */\n      0x20\n        /* \"#utility.yul\":801:807   */\n      dup8\n        /* \"#utility.yul\":797:812   */\n      add\n        /* \"#utility.yul\":762:841   */\n      tag_712\n      jump\t// in\n    tag_727:\n        /* \"#utility.yul\":902:904   */\n      0x1f\n        /* \"#utility.yul\":881:896   */\n      add\n      not(0x1f)\n        /* \"#utility.yul\":877:906   */\n      and\n        /* \"#utility.yul\":862:907   */\n      swap2\n      swap1\n      swap2\n      add\n        /* \"#utility.yul\":909:911   */\n      0x40\n        /* \"#utility.yul\":858:912   */\n      add\n      swap3\n        /* \"#utility.yul\":522:918   */\n      swap2\n      pop\n      pop\n      jump\t// out\n        /* \"#utility.yul\":923:1054   */\n    tag_713:\n      sub(shl(0xa0, 0x01), 0x01)\n        /* \"#utility.yul\":998:1029   */\n      dup2\n      and\n        /* \"#utility.yul\":988:1030   */\n      dup2\n      eq\n        /* \"#utility.yul\":978:1048   */\n      tag_280\n      jumpi\n        /* \"#utility.yul\":1044:1045   */\n      0x00\n        /* \"#utility.yul\":1041:1042   */\n      dup1\n        /* \"#utility.yul\":1034:1046   */\n      revert\n        /* \"#utility.yul\":1059:1374   */\n    tag_61:\n        /* \"#utility.yul\":1127:1133   */\n      0x00\n        /* \"#utility.yul\":1135:1141   */\n      dup1\n        /* \"#utility.yul\":1188:1190   */\n      0x40\n        /* \"#utility.yul\":1176:1185   */\n      dup4\n        /* \"#utility.yul\":1167:1174   */\n      dup6\n        /* \"#utility.yul\":1163:1186   */\n      sub\n        /* \"#utility.yul\":1159:1191   */\n      slt\n        /* \"#utility.yul\":1156:1208   */\n      iszero\n      tag_731\n      jumpi\n        /* \"#utility.yul\":1204:1205   */\n      0x00\n        /* \"#utility.yul\":1201:1202   */\n      dup1\n        /* \"#utility.yul\":1194:1206   */\n      revert\n        /* \"#utility.yul\":1156:1208   */\n    tag_731:\n        /* \"#utility.yul\":1243:1252   */\n      dup3\n        /* \"#utility.yul\":1230:1253   */\n      calldataload\n        /* \"#utility.yul\":1262:1293   */\n      tag_732\n        /* \"#utility.yul\":1287:1292   */\n      dup2\n        /* \"#utility.yul\":1262:1293   */\n      tag_713\n      jump\t// in\n    tag_732:\n        /* \"#utility.yul\":1312:1317   */\n      swap5\n        /* \"#utility.yul\":1364:1366   */\n      0x20\n        /* \"#utility.yul\":1349:1367   */\n      swap4\n      swap1\n      swap4\n      add\n        /* \"#utility.yul\":1336:1368   */\n      calldataload\n      swap4\n      pop\n      pop\n      pop\n        /* \"#utility.yul\":1059:1374   */\n      jump\t// out\n        /* \"#utility.yul\":1753:1913   */\n    tag_714:\n        /* \"#utility.yul\":1818:1838   */\n      dup1\n      calldataload\n        /* \"#utility.yul\":1874:1887   */\n      dup1\n      iszero\n        /* \"#utility.yul\":1867:1888   */\n      iszero\n        /* \"#utility.yul\":1857:1889   */\n      dup2\n      eq\n        /* \"#utility.yul\":1847:1907   */\n      tag_736\n      jumpi\n        /* \"#utility.yul\":1903:1904   */\n      0x00\n        /* \"#utility.yul\":1900:1901   */\n      dup1\n        /* \"#utility.yul\":1893:1905   */\n      revert\n        /* \"#utility.yul\":1847:1907   */\n    tag_736:\n        /* \"#utility.yul\":1753:1913   */\n      swap2\n      swap1\n      pop\n      jump\t// out\n        /* \"#utility.yul\":1918:2607   */\n    tag_73:\n        /* \"#utility.yul\":2010:2016   */\n      0x00\n        /* \"#utility.yul\":2018:2024   */\n      dup1\n        /* \"#utility.yul\":2026:2032   */\n      0x00\n        /* \"#utility.yul\":2079:2081   */\n      0x40\n        /* \"#utility.yul\":2067:2076   */\n      dup5\n        /* \"#utility.yul\":2058:2065   */\n      dup7\n        /* \"#utility.yul\":2054:2077   */\n      sub\n        /* \"#utility.yul\":2050:2082   */\n      slt\n        /* \"#utility.yul\":2047:2099   */\n      iszero\n      tag_738\n      jumpi\n        /* \"#utility.yul\":2095:2096   */\n      0x00\n        /* \"#utility.yul\":2092:2093   */\n      dup1\n        /* \"#utility.yul\":2085:2097   */\n      revert\n        /* \"#utility.yul\":2047:2099   */\n    tag_738:\n        /* \"#utility.yul\":2135:2144   */\n      dup4\n        /* \"#utility.yul\":2122:2145   */\n      calldataload\n        /* \"#utility.yul\":2164:2182   */\n      0xffffffffffffffff\n        /* \"#utility.yul\":2205:2207   */\n      dup1\n        /* \"#utility.yul\":2197:2203   */\n      dup3\n        /* \"#utility.yul\":2194:2208   */\n      gt\n        /* \"#utility.yul\":2191:2225   */\n      iszero\n      tag_739\n      jumpi\n        /* \"#utility.yul\":2221:2222   */\n      0x00\n        /* \"#utility.yul\":2218:2219   */\n      dup1\n        /* \"#utility.yul\":2211:2223   */\n      revert\n        /* \"#utility.yul\":2191:2225   */\n    tag_739:\n        /* \"#utility.yul\":2259:2265   */\n      dup2\n        /* \"#utility.yul\":2248:2257   */\n      dup7\n        /* \"#utility.yul\":2244:2266   */\n      add\n        /* \"#utility.yul\":2234:2266   */\n      swap2\n      pop\n        /* \"#utility.yul\":2304:2311   */\n      dup7\n        /* \"#utility.yul\":2297:2301   */\n      0x1f\n        /* \"#utility.yul\":2293:2295   */\n      dup4\n        /* \"#utility.yul\":2289:2302   */\n      add\n        /* \"#utility.yul\":2285:2312   */\n      slt\n        /* \"#utility.yul\":2275:2330   */\n      tag_740\n      jumpi\n        /* \"#utility.yul\":2326:2327   */\n      0x00\n        /* \"#utility.yul\":2323:2324   */\n      dup1\n        /* \"#utility.yul\":2316:2328   */\n      revert\n        /* \"#utility.yul\":2275:2330   */\n    tag_740:\n        /* \"#utility.yul\":2366:2368   */\n      dup2\n        /* \"#utility.yul\":2353:2369   */\n      calldataload\n        /* \"#utility.yul\":2392:2394   */\n      dup2\n        /* \"#utility.yul\":2384:2390   */\n      dup2\n        /* \"#utility.yul\":2381:2395   */\n      gt\n        /* \"#utility.yul\":2378:2412   */\n      iszero\n      tag_741\n      jumpi\n        /* \"#utility.yul\":2408:2409   */\n      0x00\n        /* \"#utility.yul\":2405:2406   */\n      dup1\n        /* \"#utility.yul\":2398:2410   */\n      revert\n        /* \"#utility.yul\":2378:2412   */\n    tag_741:\n        /* \"#utility.yul\":2463:2470   */\n      dup8\n        /* \"#utility.yul\":2456:2460   */\n      0x20\n        /* \"#utility.yul\":2446:2452   */\n      dup3\n        /* \"#utility.yul\":2443:2444   */\n      0x05\n        /* \"#utility.yul\":2439:2453   */\n      shl\n        /* \"#utility.yul\":2435:2437   */\n      dup6\n        /* \"#utility.yul\":2431:2454   */\n      add\n        /* \"#utility.yul\":2427:2461   */\n      add\n        /* \"#utility.yul\":2424:2471   */\n      gt\n        /* \"#utility.yul\":2421:2488   */\n      iszero\n      tag_742\n      jumpi\n        /* \"#utility.yul\":2484:2485   */\n      0x00\n        /* \"#utility.yul\":2481:2482   */\n      dup1\n        /* \"#utility.yul\":2474:2486   */\n      revert\n        /* \"#utility.yul\":2421:2488   */\n    tag_742:\n        /* \"#utility.yul\":2515:2519   */\n      0x20\n        /* \"#utility.yul\":2507:2520   */\n      swap3\n      dup4\n      add\n      swap6\n      pop\n        /* \"#utility.yul\":2539:2545   */\n      swap4\n      pop\n        /* \"#utility.yul\":2564:2601   */\n      tag_743\n      swap2\n        /* \"#utility.yul\":2580:2600   */\n      dup7\n      add\n      swap1\n      pop\n        /* \"#utility.yul\":2564:2601   */\n      tag_714\n      jump\t// in\n    tag_743:\n        /* \"#utility.yul\":2554:2601   */\n      swap1\n      pop\n        /* \"#utility.yul\":1918:2607   */\n      swap3\n      pop\n      swap3\n      pop\n      swap3\n      jump\t// out\n        /* \"#utility.yul\":2612:3068   */\n    tag_81:\n        /* \"#utility.yul\":2689:2695   */\n      0x00\n        /* \"#utility.yul\":2697:2703   */\n      dup1\n        /* \"#utility.yul\":2705:2711   */\n      0x00\n        /* \"#utility.yul\":2758:2760   */\n      0x60\n        /* \"#utility.yul\":2746:2755   */\n      dup5\n        /* \"#utility.yul\":2737:2744   */\n      dup7\n        /* \"#utility.yul\":2733:2756   */\n      sub\n        /* \"#utility.yul\":2729:2761   */\n      slt\n        /* \"#utility.yul\":2726:2778   */\n      iszero\n      tag_745\n      jumpi\n        /* \"#utility.yul\":2774:2775   */\n      0x00\n        /* \"#utility.yul\":2771:2772   */\n      dup1\n        /* \"#utility.yul\":2764:2776   */\n      revert\n        /* \"#utility.yul\":2726:2778   */\n    tag_745:\n        /* \"#utility.yul\":2813:2822   */\n      dup4\n        /* \"#utility.yul\":2800:2823   */\n      calldataload\n        /* \"#utility.yul\":2832:2863   */\n      tag_746\n        /* \"#utility.yul\":2857:2862   */\n      dup2\n        /* \"#utility.yul\":2832:2863   */\n      tag_713\n      jump\t// in\n    tag_746:\n        /* \"#utility.yul\":2882:2887   */\n      swap3\n      pop\n        /* \"#utility.yul\":2939:2941   */\n      0x20\n        /* \"#utility.yul\":2924:2942   */\n      dup5\n      add\n        /* \"#utility.yul\":2911:2943   */\n      calldataload\n        /* \"#utility.yul\":2952:2985   */\n      tag_747\n        /* \"#utility.yul\":2911:2943   */\n      dup2\n        /* \"#utility.yul\":2952:2985   */\n      tag_713\n      jump\t// in\n    tag_747:\n        /* \"#utility.yul\":2612:3068   */\n      swap3\n      swap6\n        /* \"#utility.yul\":3004:3011   */\n      swap3\n      swap5\n      pop\n      pop\n      pop\n        /* \"#utility.yul\":3058:3060   */\n      0x40\n        /* \"#utility.yul\":3043:3061   */\n      swap2\n      swap1\n      swap2\n      add\n        /* \"#utility.yul\":3030:3062   */\n      calldataload\n      swap1\n        /* \"#utility.yul\":2612:3068   */\n      jump\t// out\n        /* \"#utility.yul\":3073:4376   */\n    tag_87:\n        /* \"#utility.yul\":3259:3265   */\n      0x00\n        /* \"#utility.yul\":3267:3273   */\n      dup1\n        /* \"#utility.yul\":3275:3281   */\n      0x00\n        /* \"#utility.yul\":3283:3289   */\n      dup1\n        /* \"#utility.yul\":3291:3297   */\n      0x00\n        /* \"#utility.yul\":3299:3305   */\n      dup1\n        /* \"#utility.yul\":3307:3313   */\n      0x00\n        /* \"#utility.yul\":3315:3321   */\n      dup1\n        /* \"#utility.yul\":3368:3371   */\n      0x0100\n        /* \"#utility.yul\":3356:3365   */\n      dup10\n        /* \"#utility.yul\":3347:3354   */\n      dup12\n        /* \"#utility.yul\":3343:3366   */\n      sub\n        /* \"#utility.yul\":3339:3372   */\n      slt\n        /* \"#utility.yul\":3336:3389   */\n      iszero\n      tag_749\n      jumpi\n        /* \"#utility.yul\":3385:3386   */\n      0x00\n        /* \"#utility.yul\":3382:3383   */\n      dup1\n        /* \"#utility.yul\":3375:3387   */\n      revert\n        /* \"#utility.yul\":3336:3389   */\n    tag_749:\n        /* \"#utility.yul\":3424:3433   */\n      dup9\n        /* \"#utility.yul\":3411:3434   */\n      calldataload\n        /* \"#utility.yul\":3443:3474   */\n      tag_750\n        /* \"#utility.yul\":3468:3473   */\n      dup2\n        /* \"#utility.yul\":3443:3474   */\n      tag_713\n      jump\t// in\n    tag_750:\n        /* \"#utility.yul\":3493:3498   */\n      swap8\n      pop\n        /* \"#utility.yul\":3550:3552   */\n      0x20\n        /* \"#utility.yul\":3535:3553   */\n      dup10\n      add\n        /* \"#utility.yul\":3522:3554   */\n      calldataload\n        /* \"#utility.yul\":3563:3596   */\n      tag_751\n        /* \"#utility.yul\":3522:3554   */\n      dup2\n        /* \"#utility.yul\":3563:3596   */\n      tag_713\n      jump\t// in\n    tag_751:\n        /* \"#utility.yul\":3615:3622   */\n      swap7\n      pop\n        /* \"#utility.yul\":3674:3676   */\n      0x40\n        /* \"#utility.yul\":3659:3677   */\n      dup10\n      add\n        /* \"#utility.yul\":3646:3678   */\n      calldataload\n        /* \"#utility.yul\":3687:3720   */\n      tag_752\n        /* \"#utility.yul\":3646:3678   */\n      dup2\n        /* \"#utility.yul\":3687:3720   */\n      tag_713\n      jump\t// in\n    tag_752:\n        /* \"#utility.yul\":3739:3746   */\n      swap6\n      pop\n        /* \"#utility.yul\":3798:3800   */\n      0x60\n        /* \"#utility.yul\":3783:3801   */\n      dup10\n      add\n        /* \"#utility.yul\":3770:3802   */\n      calldataload\n        /* \"#utility.yul\":3811:3844   */\n      tag_753\n        /* \"#utility.yul\":3770:3802   */\n      dup2\n        /* \"#utility.yul\":3811:3844   */\n      tag_713\n      jump\t// in\n    tag_753:\n        /* \"#utility.yul\":3863:3870   */\n      swap5\n      pop\n        /* \"#utility.yul\":3922:3925   */\n      0x80\n        /* \"#utility.yul\":3907:3926   */\n      dup10\n      add\n        /* \"#utility.yul\":3894:3927   */\n      calldataload\n        /* \"#utility.yul\":3936:3969   */\n      tag_754\n        /* \"#utility.yul\":3894:3927   */\n      dup2\n        /* \"#utility.yul\":3936:3969   */\n      tag_713\n      jump\t// in\n    tag_754:\n        /* \"#utility.yul\":3988:3995   */\n      swap4\n      pop\n        /* \"#utility.yul\":4047:4050   */\n      0xa0\n        /* \"#utility.yul\":4032:4051   */\n      dup10\n      add\n        /* \"#utility.yul\":4019:4052   */\n      calldataload\n        /* \"#utility.yul\":4061:4094   */\n      tag_755\n        /* \"#utility.yul\":4019:4052   */\n      dup2\n        /* \"#utility.yul\":4061:4094   */\n      tag_713\n      jump\t// in\n    tag_755:\n        /* \"#utility.yul\":4113:4120   */\n      swap3\n      pop\n        /* \"#utility.yul\":4172:4175   */\n      0xc0\n        /* \"#utility.yul\":4157:4176   */\n      dup10\n      add\n        /* \"#utility.yul\":4144:4177   */\n      calldataload\n        /* \"#utility.yul\":4186:4219   */\n      tag_756\n        /* \"#utility.yul\":4144:4177   */\n      dup2\n        /* \"#utility.yul\":4186:4219   */\n      tag_713\n      jump\t// in\n    tag_756:\n        /* \"#utility.yul\":4238:4245   */\n      swap2\n      pop\n        /* \"#utility.yul\":4297:4300   */\n      0xe0\n        /* \"#utility.yul\":4282:4301   */\n      dup10\n      add\n        /* \"#utility.yul\":4269:4302   */\n      calldataload\n        /* \"#utility.yul\":4311:4344   */\n      tag_757\n        /* \"#utility.yul\":4269:4302   */\n      dup2\n        /* \"#utility.yul\":4311:4344   */\n      tag_713\n      jump\t// in\n    tag_757:\n        /* \"#utility.yul\":4363:4370   */\n      dup1\n        /* \"#utility.yul\":4353:4370   */\n      swap2\n      pop\n      pop\n        /* \"#utility.yul\":3073:4376   */\n      swap3\n      swap6\n      swap9\n      pop\n      swap3\n      swap6\n      swap9\n      swap1\n      swap4\n      swap7\n      pop\n      jump\t// out\n        /* \"#utility.yul\":4381:4696   */\n    tag_92:\n        /* \"#utility.yul\":4446:4452   */\n      0x00\n        /* \"#utility.yul\":4454:4460   */\n      dup1\n        /* \"#utility.yul\":4507:4509   */\n      0x40\n        /* \"#utility.yul\":4495:4504   */\n      dup4\n        /* \"#utility.yul\":4486:4493   */\n      dup6\n        /* \"#utility.yul\":4482:4505   */\n      sub\n        /* \"#utility.yul\":4478:4510   */\n      slt\n        /* \"#utility.yul\":4475:4527   */\n      iszero\n      tag_759\n      jumpi\n        /* \"#utility.yul\":4523:4524   */\n      0x00\n        /* \"#utility.yul\":4520:4521   */\n      dup1\n        /* \"#utility.yul\":4513:4525   */\n      revert\n        /* \"#utility.yul\":4475:4527   */\n    tag_759:\n        /* \"#utility.yul\":4562:4571   */\n      dup3\n        /* \"#utility.yul\":4549:4572   */\n      calldataload\n        /* \"#utility.yul\":4581:4612   */\n      tag_760\n        /* \"#utility.yul\":4606:4611   */\n      dup2\n        /* \"#utility.yul\":4581:4612   */\n      tag_713\n      jump\t// in\n    tag_760:\n        /* \"#utility.yul\":4631:4636   */\n      swap2\n      pop\n        /* \"#utility.yul\":4655:4690   */\n      tag_761\n        /* \"#utility.yul\":4686:4688   */\n      0x20\n        /* \"#utility.yul\":4671:4689   */\n      dup5\n      add\n        /* \"#utility.yul\":4655:4690   */\n      tag_714\n      jump\t// in\n    tag_761:\n        /* \"#utility.yul\":4645:4690   */\n      swap1\n      pop\n        /* \"#utility.yul\":4381:4696   */\n      swap3\n      pop\n      swap3\n      swap1\n      pop\n      jump\t// out\n        /* \"#utility.yul\":4890:5070   */\n    tag_102:\n        /* \"#utility.yul\":4949:4955   */\n      0x00\n        /* \"#utility.yul\":5002:5004   */\n      0x20\n        /* \"#utility.yul\":4990:4999   */\n      dup3\n        /* \"#utility.yul\":4981:4988   */\n      dup5\n        /* \"#utility.yul\":4977:5000   */\n      sub\n        /* \"#utility.yul\":4973:5005   */\n      slt\n        /* \"#utility.yul\":4970:5022   */\n      iszero\n      tag_764\n      jumpi\n        /* \"#utility.yul\":5018:5019   */\n      0x00\n        /* \"#utility.yul\":5015:5016   */\n      dup1\n        /* \"#utility.yul\":5008:5020   */\n      revert\n        /* \"#utility.yul\":4970:5022   */\n    tag_764:\n      pop\n        /* \"#utility.yul\":5041:5064   */\n      calldataload\n      swap2\n        /* \"#utility.yul\":4890:5070   */\n      swap1\n      pop\n      jump\t// out\n        /* \"#utility.yul\":5075:5202   */\n    tag_558:\n        /* \"#utility.yul\":5136:5146   */\n      0x4e487b71\n        /* \"#utility.yul\":5131:5134   */\n      0xe0\n        /* \"#utility.yul\":5127:5147   */\n      shl\n        /* \"#utility.yul\":5124:5125   */\n      0x00\n        /* \"#utility.yul\":5117:5148   */\n      mstore\n        /* \"#utility.yul\":5167:5171   */\n      0x41\n        /* \"#utility.yul\":5164:5165   */\n      0x04\n        /* \"#utility.yul\":5157:5172   */\n      mstore\n        /* \"#utility.yul\":5191:5195   */\n      0x24\n        /* \"#utility.yul\":5188:5189   */\n      0x00\n        /* \"#utility.yul\":5181:5196   */\n      revert\n        /* \"#utility.yul\":5207:6263   */\n    tag_106:\n        /* \"#utility.yul\":5284:5290   */\n      0x00\n        /* \"#utility.yul\":5292:5298   */\n      dup1\n        /* \"#utility.yul\":5345:5347   */\n      0x40\n        /* \"#utility.yul\":5333:5342   */\n      dup4\n        /* \"#utility.yul\":5324:5331   */\n      dup6\n        /* \"#utility.yul\":5320:5343   */\n      sub\n        /* \"#utility.yul\":5316:5348   */\n      slt\n        /* \"#utility.yul\":5313:5365   */\n      iszero\n      tag_767\n      jumpi\n        /* \"#utility.yul\":5361:5362   */\n      0x00\n        /* \"#utility.yul\":5358:5359   */\n      dup1\n        /* \"#utility.yul\":5351:5363   */\n      revert\n        /* \"#utility.yul\":5313:5365   */\n    tag_767:\n        /* \"#utility.yul\":5400:5409   */\n      dup3\n        /* \"#utility.yul\":5387:5410   */\n      calldataload\n        /* \"#utility.yul\":5419:5450   */\n      tag_768\n        /* \"#utility.yul\":5444:5449   */\n      dup2\n        /* \"#utility.yul\":5419:5450   */\n      tag_713\n      jump\t// in\n    tag_768:\n        /* \"#utility.yul\":5469:5474   */\n      swap2\n      pop\n        /* \"#utility.yul\":5525:5527   */\n      0x20\n        /* \"#utility.yul\":5510:5528   */\n      dup4\n      add\n        /* \"#utility.yul\":5497:5529   */\n      calldataload\n        /* \"#utility.yul\":5548:5566   */\n      0xffffffffffffffff\n        /* \"#utility.yul\":5578:5592   */\n      dup1\n      dup3\n      gt\n        /* \"#utility.yul\":5575:5609   */\n      iszero\n      tag_769\n      jumpi\n        /* \"#utility.yul\":5605:5606   */\n      0x00\n        /* \"#utility.yul\":5602:5603   */\n      dup1\n        /* \"#utility.yul\":5595:5607   */\n      revert\n        /* \"#utility.yul\":5575:5609   */\n    tag_769:\n        /* \"#utility.yul\":5643:5649   */\n      dup2\n        /* \"#utility.yul\":5632:5641   */\n      dup6\n        /* \"#utility.yul\":5628:5650   */\n      add\n        /* \"#utility.yul\":5618:5650   */\n      swap2\n      pop\n        /* \"#utility.yul\":5688:5695   */\n      dup6\n        /* \"#utility.yul\":5681:5685   */\n      0x1f\n        /* \"#utility.yul\":5677:5679   */\n      dup4\n        /* \"#utility.yul\":5673:5686   */\n      add\n        /* \"#utility.yul\":5669:5696   */\n      slt\n        /* \"#utility.yul\":5659:5714   */\n      tag_770\n      jumpi\n        /* \"#utility.yul\":5710:5711   */\n      0x00\n        /* \"#utility.yul\":5707:5708   */\n      dup1\n        /* \"#utility.yul\":5700:5712   */\n      revert\n        /* \"#utility.yul\":5659:5714   */\n    tag_770:\n        /* \"#utility.yul\":5746:5748   */\n      dup2\n        /* \"#utility.yul\":5733:5749   */\n      calldataload\n        /* \"#utility.yul\":5768:5770   */\n      dup2\n        /* \"#utility.yul\":5764:5766   */\n      dup2\n        /* \"#utility.yul\":5761:5771   */\n      gt\n        /* \"#utility.yul\":5758:5794   */\n      iszero\n      tag_772\n      jumpi\n        /* \"#utility.yul\":5774:5792   */\n      tag_772\n      tag_558\n      jump\t// in\n    tag_772:\n        /* \"#utility.yul\":5849:5851   */\n      0x40\n        /* \"#utility.yul\":5843:5852   */\n      mload\n        /* \"#utility.yul\":5817:5819   */\n      0x1f\n        /* \"#utility.yul\":5903:5916   */\n      dup3\n      add\n      not(0x1f)\n        /* \"#utility.yul\":5899:5921   */\n      swap1\n      dup2\n      and\n        /* \"#utility.yul\":5923:5925   */\n      0x3f\n        /* \"#utility.yul\":5895:5926   */\n      add\n        /* \"#utility.yul\":5891:5931   */\n      and\n        /* \"#utility.yul\":5879:5932   */\n      dup2\n      add\n      swap1\n        /* \"#utility.yul\":5947:5965   */\n      dup4\n      dup3\n      gt\n        /* \"#utility.yul\":5967:5989   */\n      dup2\n      dup4\n      lt\n        /* \"#utility.yul\":5944:5990   */\n      or\n        /* \"#utility.yul\":5941:6013   */\n      iszero\n      tag_774\n      jumpi\n        /* \"#utility.yul\":5993:6011   */\n      tag_774\n      tag_558\n      jump\t// in\n    tag_774:\n        /* \"#utility.yul\":6033:6043   */\n      dup2\n        /* \"#utility.yul\":6029:6031   */\n      0x40\n        /* \"#utility.yul\":6022:6044   */\n      mstore\n        /* \"#utility.yul\":6068:6070   */\n      dup3\n        /* \"#utility.yul\":6060:6066   */\n      dup2\n        /* \"#utility.yul\":6053:6071   */\n      mstore\n        /* \"#utility.yul\":6108:6115   */\n      dup9\n        /* \"#utility.yul\":6103:6105   */\n      0x20\n        /* \"#utility.yul\":6098:6100   */\n      dup5\n        /* \"#utility.yul\":6094:6096   */\n      dup8\n        /* \"#utility.yul\":6090:6101   */\n      add\n        /* \"#utility.yul\":6086:6106   */\n      add\n        /* \"#utility.yul\":6083:6116   */\n      gt\n        /* \"#utility.yul\":6080:6133   */\n      iszero\n      tag_775\n      jumpi\n        /* \"#utility.yul\":6129:6130   */\n      0x00\n        /* \"#utility.yul\":6126:6127   */\n      dup1\n        /* \"#utility.yul\":6119:6131   */\n      revert\n        /* \"#utility.yul\":6080:6133   */\n    tag_775:\n        /* \"#utility.yul\":6185:6187   */\n      dup3\n        /* \"#utility.yul\":6180:6182   */\n      0x20\n        /* \"#utility.yul\":6176:6178   */\n      dup7\n        /* \"#utility.yul\":6172:6183   */\n      add\n        /* \"#utility.yul\":6167:6169   */\n      0x20\n        /* \"#utility.yul\":6159:6165   */\n      dup4\n        /* \"#utility.yul\":6155:6170   */\n      add\n        /* \"#utility.yul\":6142:6188   */\n      calldatacopy\n        /* \"#utility.yul\":6230:6231   */\n      0x00\n        /* \"#utility.yul\":6225:6227   */\n      0x20\n        /* \"#utility.yul\":6220:6222   */\n      dup5\n        /* \"#utility.yul\":6212:6218   */\n      dup4\n        /* \"#utility.yul\":6208:6223   */\n      add\n        /* \"#utility.yul\":6204:6228   */\n      add\n        /* \"#utility.yul\":6197:6232   */\n      mstore\n        /* \"#utility.yul\":6251:6257   */\n      dup1\n        /* \"#utility.yul\":6241:6257   */\n      swap6\n      pop\n      pop\n      pop\n      pop\n      pop\n      pop\n        /* \"#utility.yul\":5207:6263   */\n      swap3\n      pop\n      swap3\n      swap1\n      pop\n      jump\t// out\n        /* \"#utility.yul\":6450:6697   */\n    tag_127:\n        /* \"#utility.yul\":6509:6515   */\n      0x00\n        /* \"#utility.yul\":6562:6564   */\n      0x20\n        /* \"#utility.yul\":6550:6559   */\n      dup3\n        /* \"#utility.yul\":6541:6548   */\n      dup5\n        /* \"#utility.yul\":6537:6560   */\n      sub\n        /* \"#utility.yul\":6533:6565   */\n      slt\n        /* \"#utility.yul\":6530:6582   */\n      iszero\n      tag_778\n      jumpi\n        /* \"#utility.yul\":6578:6579   */\n      0x00\n        /* \"#utility.yul\":6575:6576   */\n      dup1\n        /* \"#utility.yul\":6568:6580   */\n      revert\n        /* \"#utility.yul\":6530:6582   */\n    tag_778:\n        /* \"#utility.yul\":6617:6626   */\n      dup2\n        /* \"#utility.yul\":6604:6627   */\n      calldataload\n        /* \"#utility.yul\":6636:6667   */\n      tag_260\n        /* \"#utility.yul\":6661:6666   */\n      dup2\n        /* \"#utility.yul\":6636:6667   */\n      tag_713\n      jump\t// in\n        /* \"#utility.yul\":7450:7838   */\n    tag_178:\n        /* \"#utility.yul\":7518:7524   */\n      0x00\n        /* \"#utility.yul\":7526:7532   */\n      dup1\n        /* \"#utility.yul\":7579:7581   */\n      0x40\n        /* \"#utility.yul\":7567:7576   */\n      dup4\n        /* \"#utility.yul\":7558:7565   */\n      dup6\n        /* \"#utility.yul\":7554:7577   */\n      sub\n        /* \"#utility.yul\":7550:7582   */\n      slt\n        /* \"#utility.yul\":7547:7599   */\n      iszero\n      tag_783\n      jumpi\n        /* \"#utility.yul\":7595:7596   */\n      0x00\n        /* \"#utility.yul\":7592:7593   */\n      dup1\n        /* \"#utility.yul\":7585:7597   */\n      revert\n        /* \"#utility.yul\":7547:7599   */\n    tag_783:\n        /* \"#utility.yul\":7634:7643   */\n      dup3\n        /* \"#utility.yul\":7621:7644   */\n      calldataload\n        /* \"#utility.yul\":7653:7684   */\n      tag_784\n        /* \"#utility.yul\":7678:7683   */\n      dup2\n        /* \"#utility.yul\":7653:7684   */\n      tag_713\n      jump\t// in\n    tag_784:\n        /* \"#utility.yul\":7703:7708   */\n      swap2\n      pop\n        /* \"#utility.yul\":7760:7762   */\n      0x20\n        /* \"#utility.yul\":7745:7763   */\n      dup4\n      add\n        /* \"#utility.yul\":7732:7764   */\n      calldataload\n        /* \"#utility.yul\":7773:7806   */\n      tag_785\n        /* \"#utility.yul\":7732:7764   */\n      dup2\n        /* \"#utility.yul\":7773:7806   */\n      tag_713\n      jump\t// in\n    tag_785:\n        /* \"#utility.yul\":7825:7832   */\n      dup1\n        /* \"#utility.yul\":7815:7832   */\n      swap2\n      pop\n      pop\n        /* \"#utility.yul\":7450:7838   */\n      swap3\n      pop\n      swap3\n      swap1\n      pop\n      jump\t// out\n        /* \"#utility.yul\":7843:7970   */\n    tag_715:\n        /* \"#utility.yul\":7904:7914   */\n      0x4e487b71\n        /* \"#utility.yul\":7899:7902   */\n      0xe0\n        /* \"#utility.yul\":7895:7915   */\n      shl\n        /* \"#utility.yul\":7892:7893   */\n      0x00\n        /* \"#utility.yul\":7885:7916   */\n      mstore\n        /* \"#utility.yul\":7935:7939   */\n      0x11\n        /* \"#utility.yul\":7932:7933   */\n      0x04\n        /* \"#utility.yul\":7925:7940   */\n      mstore\n        /* \"#utility.yul\":7959:7963   */\n      0x24\n        /* \"#utility.yul\":7956:7957   */\n      0x00\n        /* \"#utility.yul\":7949:7964   */\n      revert\n        /* \"#utility.yul\":7975:8143   */\n    tag_198:\n        /* \"#utility.yul\":8048:8057   */\n      dup1\n      dup3\n      mul\n        /* \"#utility.yul\":8079:8088   */\n      dup2\n      iszero\n        /* \"#utility.yul\":8096:8111   */\n      dup3\n      dup3\n      div\n        /* \"#utility.yul\":8090:8112   */\n      dup5\n      eq\n        /* \"#utility.yul\":8076:8113   */\n      or\n        /* \"#utility.yul\":8066:8137   */\n      tag_221\n      jumpi\n        /* \"#utility.yul\":8117:8135   */\n      tag_221\n      tag_715\n      jump\t// in\n        /* \"#utility.yul\":8148:8365   */\n    tag_200:\n        /* \"#utility.yul\":8188:8189   */\n      0x00\n        /* \"#utility.yul\":8214:8215   */\n      dup3\n        /* \"#utility.yul\":8204:8336   */\n      tag_791\n      jumpi\n        /* \"#utility.yul\":8258:8268   */\n      0x4e487b71\n        /* \"#utility.yul\":8253:8256   */\n      0xe0\n        /* \"#utility.yul\":8249:8269   */\n      shl\n        /* \"#utility.yul\":8246:8247   */\n      0x00\n        /* \"#utility.yul\":8239:8270   */\n      mstore\n        /* \"#utility.yul\":8293:8297   */\n      0x12\n        /* \"#utility.yul\":8290:8291   */\n      0x04\n        /* \"#utility.yul\":8283:8298   */\n      mstore\n        /* \"#utility.yul\":8321:8325   */\n      0x24\n        /* \"#utility.yul\":8318:8319   */\n      0x00\n        /* \"#utility.yul\":8311:8326   */\n      revert\n        /* \"#utility.yul\":8204:8336   */\n    tag_791:\n      pop\n        /* \"#utility.yul\":8350:8359   */\n      div\n      swap1\n        /* \"#utility.yul\":8148:8365   */\n      jump\t// out\n        /* \"#utility.yul\":8623:9003   */\n    tag_210:\n        /* \"#utility.yul\":8702:8703   */\n      0x01\n        /* \"#utility.yul\":8698:8710   */\n      dup2\n      dup2\n      shr\n      swap1\n        /* \"#utility.yul\":8745:8757   */\n      dup3\n      and\n      dup1\n        /* \"#utility.yul\":8766:8827   */\n      tag_794\n      jumpi\n        /* \"#utility.yul\":8820:8824   */\n      0x7f\n        /* \"#utility.yul\":8812:8818   */\n      dup3\n        /* \"#utility.yul\":8808:8825   */\n      and\n        /* \"#utility.yul\":8798:8825   */\n      swap2\n      pop\n        /* \"#utility.yul\":8766:8827   */\n    tag_794:\n        /* \"#utility.yul\":8873:8875   */\n      0x20\n        /* \"#utility.yul\":8865:8871   */\n      dup3\n        /* \"#utility.yul\":8862:8876   */\n      lt\n        /* \"#utility.yul\":8842:8860   */\n      dup2\n        /* \"#utility.yul\":8839:8877   */\n      sub\n        /* \"#utility.yul\":8836:8997   */\n      tag_637\n      jumpi\n        /* \"#utility.yul\":8919:8929   */\n      0x4e487b71\n        /* \"#utility.yul\":8914:8917   */\n      0xe0\n        /* \"#utility.yul\":8910:8930   */\n      shl\n        /* \"#utility.yul\":8907:8908   */\n      0x00\n        /* \"#utility.yul\":8900:8931   */\n      mstore\n        /* \"#utility.yul\":8954:8958   */\n      0x22\n        /* \"#utility.yul\":8951:8952   */\n      0x04\n        /* \"#utility.yul\":8944:8959   */\n      mstore\n        /* \"#utility.yul\":8982:8986   */\n      0x24\n        /* \"#utility.yul\":8979:8980   */\n      0x00\n        /* \"#utility.yul\":8972:8987   */\n      revert\n        /* \"#utility.yul\":9368:9495   */\n    tag_236:\n        /* \"#utility.yul\":9429:9439   */\n      0x4e487b71\n        /* \"#utility.yul\":9424:9427   */\n      0xe0\n        /* \"#utility.yul\":9420:9440   */\n      shl\n        /* \"#utility.yul\":9417:9418   */\n      0x00\n        /* \"#utility.yul\":9410:9441   */\n      mstore\n        /* \"#utility.yul\":9460:9464   */\n      0x32\n        /* \"#utility.yul\":9457:9458   */\n      0x04\n        /* \"#utility.yul\":9450:9465   */\n      mstore\n        /* \"#utility.yul\":9484:9488   */\n      0x24\n        /* \"#utility.yul\":9481:9482   */\n      0x00\n        /* \"#utility.yul\":9474:9489   */\n      revert\n        /* \"#utility.yul\":12480:12605   */\n    tag_356:\n        /* \"#utility.yul\":12545:12554   */\n      dup1\n      dup3\n      add\n        /* \"#utility.yul\":12566:12576   */\n      dup1\n      dup3\n      gt\n        /* \"#utility.yul\":12563:12599   */\n      iszero\n      tag_221\n      jumpi\n        /* \"#utility.yul\":12579:12597   */\n      tag_221\n      tag_715\n      jump\t// in\n        /* \"#utility.yul\":12959:13210   */\n    tag_395:\n        /* \"#utility.yul\":13029:13035   */\n      0x00\n        /* \"#utility.yul\":13082:13084   */\n      0x20\n        /* \"#utility.yul\":13070:13079   */\n      dup3\n        /* \"#utility.yul\":13061:13068   */\n      dup5\n        /* \"#utility.yul\":13057:13080   */\n      sub\n        /* \"#utility.yul\":13053:13085   */\n      slt\n        /* \"#utility.yul\":13050:13102   */\n      iszero\n      tag_810\n      jumpi\n        /* \"#utility.yul\":13098:13099   */\n      0x00\n        /* \"#utility.yul\":13095:13096   */\n      dup1\n        /* \"#utility.yul\":13088:13100   */\n      revert\n        /* \"#utility.yul\":13050:13102   */\n    tag_810:\n        /* \"#utility.yul\":13130:13139   */\n      dup2\n        /* \"#utility.yul\":13124:13140   */\n      mload\n        /* \"#utility.yul\":13149:13180   */\n      tag_260\n        /* \"#utility.yul\":13174:13179   */\n      dup2\n        /* \"#utility.yul\":13149:13180   */\n      tag_713\n      jump\t// in\n        /* \"#utility.yul\":17063:17198   */\n    tag_493:\n        /* \"#utility.yul\":17102:17105   */\n      0x00\n        /* \"#utility.yul\":17123:17140   */\n      0x01\n      dup3\n      add\n        /* \"#utility.yul\":17120:17163   */\n      tag_825\n      jumpi\n        /* \"#utility.yul\":17143:17161   */\n      tag_825\n      tag_715\n      jump\t// in\n    tag_825:\n      pop\n        /* \"#utility.yul\":17190:17191   */\n      0x01\n        /* \"#utility.yul\":17179:17192   */\n      add\n      swap1\n        /* \"#utility.yul\":17063:17198   */\n      jump\t// out\n        /* \"#utility.yul\":17203:17331   */\n    tag_521:\n        /* \"#utility.yul\":17270:17279   */\n      dup2\n      dup2\n      sub\n        /* \"#utility.yul\":17291:17302   */\n      dup2\n      dup2\n      gt\n        /* \"#utility.yul\":17288:17325   */\n      iszero\n      tag_221\n      jumpi\n        /* \"#utility.yul\":17305:17323   */\n      tag_221\n      tag_715\n      jump\t// in\n        /* \"#utility.yul\":17336:17520   */\n    tag_538:\n        /* \"#utility.yul\":17406:17412   */\n      0x00\n        /* \"#utility.yul\":17459:17461   */\n      0x20\n        /* \"#utility.yul\":17447:17456   */\n      dup3\n        /* \"#utility.yul\":17438:17445   */\n      dup5\n        /* \"#utility.yul\":17434:17457   */\n      sub\n        /* \"#utility.yul\":17430:17462   */\n      slt\n        /* \"#utility.yul\":17427:17479   */\n      iszero\n      tag_830\n      jumpi\n        /* \"#utility.yul\":17475:17476   */\n      0x00\n        /* \"#utility.yul\":17472:17473   */\n      dup1\n        /* \"#utility.yul\":17465:17477   */\n      revert\n        /* \"#utility.yul\":17427:17479   */\n    tag_830:\n      pop\n        /* \"#utility.yul\":17498:17514   */\n      mload\n      swap2\n        /* \"#utility.yul\":17336:17520   */\n      swap1\n      pop\n      jump\t// out\n        /* \"#utility.yul\":17525:18505   */\n    tag_569:\n        /* \"#utility.yul\":17787:17791   */\n      0x00\n        /* \"#utility.yul\":17835:17838   */\n      0xa0\n        /* \"#utility.yul\":17824:17833   */\n      dup3\n        /* \"#utility.yul\":17820:17839   */\n      add\n        /* \"#utility.yul\":17866:17872   */\n      dup8\n        /* \"#utility.yul\":17855:17864   */\n      dup4\n        /* \"#utility.yul\":17848:17873   */\n      mstore\n        /* \"#utility.yul\":17892:17894   */\n      0x20\n        /* \"#utility.yul\":17930:17936   */\n      dup8\n        /* \"#utility.yul\":17925:17927   */\n      0x20\n        /* \"#utility.yul\":17914:17923   */\n      dup6\n        /* \"#utility.yul\":17910:17928   */\n      add\n        /* \"#utility.yul\":17903:17937   */\n      mstore\n        /* \"#utility.yul\":17973:17976   */\n      0xa0\n        /* \"#utility.yul\":17968:17970   */\n      0x40\n        /* \"#utility.yul\":17957:17966   */\n      dup6\n        /* \"#utility.yul\":17953:17971   */\n      add\n        /* \"#utility.yul\":17946:17977   */\n      mstore\n        /* \"#utility.yul\":17997:18003   */\n      dup2\n        /* \"#utility.yul\":18032:18038   */\n      dup8\n        /* \"#utility.yul\":18026:18039   */\n      mload\n        /* \"#utility.yul\":18063:18069   */\n      dup1\n        /* \"#utility.yul\":18055:18061   */\n      dup5\n        /* \"#utility.yul\":18048:18070   */\n      mstore\n        /* \"#utility.yul\":18101:18104   */\n      0xc0\n        /* \"#utility.yul\":18090:18099   */\n      dup7\n        /* \"#utility.yul\":18086:18105   */\n      add\n        /* \"#utility.yul\":18079:18105   */\n      swap2\n      pop\n        /* \"#utility.yul\":18140:18142   */\n      0x20\n        /* \"#utility.yul\":18132:18138   */\n      dup10\n        /* \"#utility.yul\":18128:18143   */\n      add\n        /* \"#utility.yul\":18114:18143   */\n      swap4\n      pop\n        /* \"#utility.yul\":18161:18162   */\n      0x00\n        /* \"#utility.yul\":18171:18366   */\n    tag_832:\n        /* \"#utility.yul\":18185:18191   */\n      dup2\n        /* \"#utility.yul\":18182:18183   */\n      dup2\n        /* \"#utility.yul\":18179:18192   */\n      lt\n        /* \"#utility.yul\":18171:18366   */\n      iszero\n      tag_834\n      jumpi\n        /* \"#utility.yul\":18250:18263   */\n      dup5\n      mload\n      sub(shl(0xa0, 0x01), 0x01)\n        /* \"#utility.yul\":18246:18285   */\n      and\n        /* \"#utility.yul\":18234:18286   */\n      dup4\n      mstore\n        /* \"#utility.yul\":18341:18356   */\n      swap4\n      dup4\n      add\n      swap4\n        /* \"#utility.yul\":18306:18318   */\n      swap2\n      dup4\n      add\n      swap2\n        /* \"#utility.yul\":18282:18283   */\n      0x01\n        /* \"#utility.yul\":18200:18209   */\n      add\n        /* \"#utility.yul\":18171:18366   */\n      jump(tag_832)\n    tag_834:\n      pop\n      pop\n      sub(shl(0xa0, 0x01), 0x01)\n        /* \"#utility.yul\":18422:18454   */\n      swap7\n      swap1\n      swap7\n      and\n        /* \"#utility.yul\":18417:18419   */\n      0x60\n        /* \"#utility.yul\":18402:18420   */\n      dup6\n      add\n        /* \"#utility.yul\":18395:18455   */\n      mstore\n      pop\n      pop\n      pop\n        /* \"#utility.yul\":18486:18489   */\n      0x80\n        /* \"#utility.yul\":18471:18490   */\n      add\n        /* \"#utility.yul\":18464:18499   */\n      mstore\n        /* \"#utility.yul\":18383:18386   */\n      swap4\n        /* \"#utility.yul\":17525:18505   */\n      swap3\n      pop\n      pop\n      pop\n      jump\t// out\n        /* \"#utility.yul\":18846:19364   */\n    tag_717:\n        /* \"#utility.yul\":18948:18950   */\n      0x1f\n        /* \"#utility.yul\":18943:18946   */\n      dup3\n        /* \"#utility.yul\":18940:18951   */\n      gt\n        /* \"#utility.yul\":18937:19358   */\n      iszero\n      tag_445\n      jumpi\n        /* \"#utility.yul\":18984:18989   */\n      dup1\n        /* \"#utility.yul\":18981:18982   */\n      0x00\n        /* \"#utility.yul\":18974:18990   */\n      mstore\n        /* \"#utility.yul\":19028:19032   */\n      0x20\n        /* \"#utility.yul\":19025:19026   */\n      0x00\n        /* \"#utility.yul\":19015:19033   */\n      keccak256\n        /* \"#utility.yul\":19098:19100   */\n      0x1f\n        /* \"#utility.yul\":19086:19096   */\n      dup5\n        /* \"#utility.yul\":19082:19101   */\n      add\n        /* \"#utility.yul\":19079:19080   */\n      0x05\n        /* \"#utility.yul\":19075:19102   */\n      shr\n        /* \"#utility.yul\":19069:19073   */\n      dup2\n        /* \"#utility.yul\":19065:19103   */\n      add\n        /* \"#utility.yul\":19134:19138   */\n      0x20\n        /* \"#utility.yul\":19122:19132   */\n      dup6\n        /* \"#utility.yul\":19119:19139   */\n      lt\n        /* \"#utility.yul\":19116:19163   */\n      iszero\n      tag_839\n      jumpi\n      pop\n        /* \"#utility.yul\":19157:19161   */\n      dup1\n        /* \"#utility.yul\":19116:19163   */\n    tag_839:\n        /* \"#utility.yul\":19212:19214   */\n      0x1f\n        /* \"#utility.yul\":19207:19210   */\n      dup5\n        /* \"#utility.yul\":19203:19215   */\n      add\n        /* \"#utility.yul\":19200:19201   */\n      0x05\n        /* \"#utility.yul\":19196:19216   */\n      shr\n        /* \"#utility.yul\":19190:19194   */\n      dup3\n        /* \"#utility.yul\":19186:19217   */\n      add\n        /* \"#utility.yul\":19176:19217   */\n      swap2\n      pop\n        /* \"#utility.yul\":19267:19348   */\n    tag_840:\n        /* \"#utility.yul\":19285:19287   */\n      dup2\n        /* \"#utility.yul\":19278:19283   */\n      dup2\n        /* \"#utility.yul\":19275:19288   */\n      lt\n        /* \"#utility.yul\":19267:19348   */\n      iszero\n      tag_606\n      jumpi\n        /* \"#utility.yul\":19344:19345   */\n      0x00\n        /* \"#utility.yul\":19330:19346   */\n      dup2\n      sstore\n        /* \"#utility.yul\":19311:19312   */\n      0x01\n        /* \"#utility.yul\":19300:19313   */\n      add\n        /* \"#utility.yul\":19267:19348   */\n      jump(tag_840)\n        /* \"#utility.yul\":19540:20885   */\n    tag_676:\n        /* \"#utility.yul\":19666:19669   */\n      dup2\n        /* \"#utility.yul\":19660:19670   */\n      mload\n        /* \"#utility.yul\":19693:19711   */\n      0xffffffffffffffff\n        /* \"#utility.yul\":19685:19691   */\n      dup2\n        /* \"#utility.yul\":19682:19712   */\n      gt\n        /* \"#utility.yul\":19679:19735   */\n      iszero\n      tag_846\n      jumpi\n        /* \"#utility.yul\":19715:19733   */\n      tag_846\n      tag_558\n      jump\t// in\n    tag_846:\n        /* \"#utility.yul\":19744:19841   */\n      tag_847\n        /* \"#utility.yul\":19834:19840   */\n      dup2\n        /* \"#utility.yul\":19794:19832   */\n      tag_848\n        /* \"#utility.yul\":19826:19830   */\n      dup5\n        /* \"#utility.yul\":19820:19831   */\n      sload\n        /* \"#utility.yul\":19794:19832   */\n      tag_210\n      jump\t// in\n    tag_848:\n        /* \"#utility.yul\":19788:19792   */\n      dup5\n        /* \"#utility.yul\":19744:19841   */\n      tag_717\n      jump\t// in\n    tag_847:\n        /* \"#utility.yul\":19896:19900   */\n      0x20\n      dup1\n        /* \"#utility.yul\":19953:19955   */\n      0x1f\n        /* \"#utility.yul\":19942:19956   */\n      dup4\n      gt\n        /* \"#utility.yul\":19970:19971   */\n      0x01\n        /* \"#utility.yul\":19965:20628   */\n      dup2\n      eq\n      tag_850\n      jumpi\n        /* \"#utility.yul\":20672:20673   */\n      0x00\n        /* \"#utility.yul\":20689:20695   */\n      dup5\n        /* \"#utility.yul\":20686:20775   */\n      iszero\n      tag_851\n      jumpi\n      pop\n        /* \"#utility.yul\":20741:20760   */\n      dup6\n      dup4\n      add\n        /* \"#utility.yul\":20735:20761   */\n      mload\n        /* \"#utility.yul\":20686:20775   */\n    tag_851:\n      not(0x00)\n        /* \"#utility.yul\":19497:19498   */\n      0x03\n        /* \"#utility.yul\":19493:19504   */\n      dup7\n      swap1\n      shl\n        /* \"#utility.yul\":19489:19513   */\n      shr\n        /* \"#utility.yul\":19485:19514   */\n      not\n        /* \"#utility.yul\":19475:19515   */\n      and\n        /* \"#utility.yul\":19521:19522   */\n      0x01\n        /* \"#utility.yul\":19517:19528   */\n      dup6\n      swap1\n      shl\n        /* \"#utility.yul\":19472:19529   */\n      or\n        /* \"#utility.yul\":20788:20869   */\n      dup6\n      sstore\n        /* \"#utility.yul\":19935:20879   */\n      jump(tag_406)\n        /* \"#utility.yul\":19965:20628   */\n    tag_850:\n        /* \"#utility.yul\":18793:18794   */\n      0x00\n        /* \"#utility.yul\":18786:18800   */\n      dup6\n      dup2\n      mstore\n        /* \"#utility.yul\":18830:18834   */\n      0x20\n        /* \"#utility.yul\":18817:18835   */\n      dup2\n      keccak256\n      not(0x1f)\n        /* \"#utility.yul\":20001:20021   */\n      dup7\n      and\n      swap2\n        /* \"#utility.yul\":20119:20355   */\n    tag_854:\n        /* \"#utility.yul\":20133:20140   */\n      dup3\n        /* \"#utility.yul\":20130:20131   */\n      dup2\n        /* \"#utility.yul\":20127:20141   */\n      lt\n        /* \"#utility.yul\":20119:20355   */\n      iszero\n      tag_856\n      jumpi\n        /* \"#utility.yul\":20222:20241   */\n      dup9\n      dup7\n      add\n        /* \"#utility.yul\":20216:20242   */\n      mload\n        /* \"#utility.yul\":20201:20243   */\n      dup3\n      sstore\n        /* \"#utility.yul\":20314:20341   */\n      swap5\n      dup5\n      add\n      swap5\n        /* \"#utility.yul\":20282:20283   */\n      0x01\n        /* \"#utility.yul\":20270:20284   */\n      swap1\n      swap2\n      add\n      swap1\n        /* \"#utility.yul\":20149:20168   */\n      dup5\n      add\n        /* \"#utility.yul\":20119:20355   */\n      jump(tag_854)\n    tag_856:\n        /* \"#utility.yul\":20123:20126   */\n      pop\n        /* \"#utility.yul\":20383:20389   */\n      dup6\n        /* \"#utility.yul\":20374:20381   */\n      dup3\n        /* \"#utility.yul\":20371:20390   */\n      lt\n        /* \"#utility.yul\":20368:20569   */\n      iszero\n      tag_857\n      jumpi\n        /* \"#utility.yul\":20444:20463   */\n      dup8\n      dup6\n      add\n        /* \"#utility.yul\":20438:20464   */\n      mload\n      not(0x00)\n        /* \"#utility.yul\":20527:20528   */\n      0x03\n        /* \"#utility.yul\":20523:20537   */\n      dup9\n      swap1\n      shl\n        /* \"#utility.yul\":20539:20542   */\n      0xf8\n        /* \"#utility.yul\":20519:20543   */\n      and\n        /* \"#utility.yul\":20515:20552   */\n      shr\n        /* \"#utility.yul\":20511:20553   */\n      not\n        /* \"#utility.yul\":20496:20554   */\n      and\n        /* \"#utility.yul\":20481:20555   */\n      dup2\n      sstore\n        /* \"#utility.yul\":20368:20569   */\n    tag_857:\n      pop\n      pop\n      pop\n      pop\n      pop\n        /* \"#utility.yul\":20615:20616   */\n      0x01\n        /* \"#utility.yul\":20599:20613   */\n      swap1\n      dup2\n      shl\n        /* \"#utility.yul\":20595:20617   */\n      add\n        /* \"#utility.yul\":20582:20618   */\n      swap1\n      sstore\n      pop\n        /* \"#utility.yul\":19540:20885   */\n      jump\t// out\n        /* \"#utility.yul\":20890:21177   */\n    tag_691:\n        /* \"#utility.yul\":21019:21022   */\n      0x00\n        /* \"#utility.yul\":21057:21063   */\n      dup3\n        /* \"#utility.yul\":21051:21064   */\n      mload\n        /* \"#utility.yul\":21073:21139   */\n      tag_859\n        /* \"#utility.yul\":21132:21138   */\n      dup2\n        /* \"#utility.yul\":21127:21130   */\n      dup5\n        /* \"#utility.yul\":21120:21124   */\n      0x20\n        /* \"#utility.yul\":21112:21118   */\n      dup8\n        /* \"#utility.yul\":21108:21125   */\n      add\n        /* \"#utility.yul\":21073:21139   */\n      tag_712\n      jump\t// in\n    tag_859:\n        /* \"#utility.yul\":21155:21171   */\n      swap2\n      swap1\n      swap2\n      add\n      swap3\n        /* \"#utility.yul\":20890:21177   */\n      swap2\n      pop\n      pop\n      jump\t// out\n    stop\n    data_3874827173e8df9f34323b12b251d1d3c53926ce129e30a0d69f1d47c277041b 52c63247e1f47db19d5ce0460030c497f067ca4cebf71ba98eeadabe20bace00\n    data_5c46c655e238aa25f8cbb2dc253afd95ec6fe3438bb2613b924ec6dfbcfd524d 52c63247e1f47db19d5ce0460030c497f067ca4cebf71ba98eeadabe20bace02\n    data_75b20eef8615de99c108b05f0dbda081c91897128caa336d75dffb97c4132b4d 360894a13ba1a3210667c828492db98dca3e2076cc3735a920a3ca505d382bbc\n\n    auxdata: 0xa26469706673582212209fd4f362f3ab85ed5f80094f7da9f337eff7d7676e834759412712b6913122d464736f6c63430008180033\n}\n",
				"bytecode": {
					"linkReferences": {},
					"object": "60a0604052306080526014805462ffffff60a81b1916600160b81b17905534801562000029575f80fd5b50620000346200003a565b620000ee565b7ff0c57e16840df040f15088dc2f81fe391c3923bec73e23a9662efc9c229c6a00805468010000000000000000900460ff16156200008b5760405163f92ee8a960e01b815260040160405180910390fd5b80546001600160401b0390811614620000eb5780546001600160401b0319166001600160401b0390811782556040519081527fc7f505b2f371ae2175ee4913f4499e1f2633a7b5936321eed1cdaeb6115181d29060200160405180910390a15b50565b608051613031620001155f395f8181611dde01528181611e070152611f4601526130315ff3fe6080604052600436106101e9575f3560e01c80636ed6a48d11610108578063ad3cb1cc1161009d578063dd54291b1161006d578063dd54291b1461056d578063dd62ed3e14610582578063f1d5f517146105a1578063f2fde38b146105c0578063fcfff16f146105df575f80fd5b8063ad3cb1cc146104b4578063ae601480146104e4578063c4d66de81461052f578063da7fe6521461054e575f80fd5b80638f937cc4116100d85780638f937cc41461044e57806395d89b4114610462578063a0712d6814610476578063a9059cbb14610495575f80fd5b80636ed6a48d146103db57806370a08231146103ef578063715018a61461040e5780638da5cb5b14610422575f80fd5b806323bc25ed1161017e5780634f1ef2861161014e5780634f1ef2861461037657806352d1902d14610389578063620cc86c1461039d578063667f6526146103bc575f80fd5b806323bc25ed146102fe5780632dc4f5e61461031d578063313ce5671461033c57806342966c6814610357575f80fd5b806318160ddd116101b957806318160ddd146102825780631c537de5146102ac578063217b6da6146102cb57806323b872dd146102df575f80fd5b80630313fc4b146101f457806306fdde031461021557806308ade0c91461023f578063095ea7b314610253575f80fd5b366101f057005b5f80fd5b3480156101ff575f80fd5b5061021361020e36600461297c565b6105f3565b005b348015610220575f80fd5b50610229610699565b60405161023691906129be565b60405180910390f35b34801561024a575f80fd5b50610213610759565b34801561025e575f80fd5b5061027261026d366004612a04565b6107ce565b6040519015158152602001610236565b34801561028d575f80fd5b505f80516020612fbc833981519152545b604051908152602001610236565b3480156102b7575f80fd5b506102136102c6366004612a42565b6107e7565b3480156102d6575f80fd5b50610213610859565b3480156102ea575f80fd5b506102726102f9366004612abf565b610a91565b348015610309575f80fd5b50610213610318366004612afd565b610ab6565b348015610328575f80fd5b50610213610337366004612ba1565b610bb2565b348015610347575f80fd5b5060405160128152602001610236565b348015610362575f80fd5b50610213610371366004612bd4565b610c13565b610213610384366004612bff565b610c2f565b348015610394575f80fd5b5061029e610c4a565b3480156103a8575f80fd5b506102136103b7366004612bd4565b610c65565b3480156103c7575f80fd5b506102136103d636600461297c565b610d27565b3480156103e6575f80fd5b50610213610e02565b3480156103fa575f80fd5b5061029e610409366004612cbd565b610ebe565b348015610419575f80fd5b50610213610ee4565b34801561042d575f80fd5b50610436610ef7565b6040516001600160a01b039091168152602001610236565b348015610459575f80fd5b50610213610f25565b34801561046d575f80fd5b50610229610faa565b348015610481575f80fd5b50610213610490366004612bd4565b610fe8565b3480156104a0575f80fd5b506102726104af366004612a04565b611057565b3480156104bf575f80fd5b50610229604051806040016040528060058152602001640352e302e360dc1b81525081565b3480156104ef575f80fd5b50600b54600c54600f54601054601154601254604080519687526020870195909552938501929092526060840152608083015260a082015260c001610236565b34801561053a575f80fd5b50610213610549366004612cbd565b611064565b348015610559575f80fd5b50610213610568366004612bd4565b6115ac565b348015610578575f80fd5b5061029e60155481565b34801561058d575f80fd5b5061029e61059c366004612cd8565b6115b9565b3480156105ac575f80fd5b506102136105bb366004612bd4565b611602565b3480156105cb575f80fd5b506102136105da366004612cbd565b6116c8565b3480156105ea575f80fd5b50610213611702565b6105fb6117ed565b612710826106145f80516020612fbc8339815191525490565b61061e9190612d23565b6106289190612d3a565b601155612710816106445f80516020612fbc8339815191525490565b61064e9190612d23565b6106589190612d3a565b60125560408051838152602081018390527f2b3f4c022d9943b151090e389857495bb9d8493714259cc19a540f5a11475fb191015b60405180910390a15050565b7f52c63247e1f47db19d5ce0460030c497f067ca4cebf71ba98eeadabe20bace0380546060915f80516020612f9c833981519152916106d790612d59565b80601f016020809104026020016040519081016040528092919081815260200182805461070390612d59565b801561074e5780601f106107255761010080835404028352916020019161074e565b820191905f5260205f20905b81548152906001019060200180831161073157829003601f168201915b505050505091505090565b6107616117ed565b601454600160b81b900460ff166107bf5760405162461bcd60e51b815260206004820152601f60248201527f4c61756e6368206d6f646520697320616c72656164792064697361626c65640060448201526064015b60405180910390fd5b6014805460ff60b81b19169055565b5f336107db81858561181f565b60019150505b92915050565b6107ef6117ed565b5f5b82811015610853578160165f86868581811061080f5761080f612d8b565b90506020020160208101906108249190612cbd565b6001600160a01b0316815260208101919091526040015f20805460ff19169115159190911790556001016107f1565b50505050565b610861610ef7565b6001600160a01b0316336001600160a01b0316146108c15760405162461bcd60e51b815260206004820152601d60248201527f4f6e6c79206665652072656365697665722063616e207472696767657200000060448201526064016107b6565b5f6108cd600847612d3a565b6001546040519192506001600160a01b03169082156108fc029083905f818181858888f19350505050158015610905573d5f803e3d5ffd5b506002546040516001600160a01b039091169082156108fc029083905f818181858888f1935050505015801561093d573d5f803e3d5ffd5b506003546040516001600160a01b039091169082156108fc029083905f818181858888f19350505050158015610975573d5f803e3d5ffd5b506004546040516001600160a01b039091169082156108fc029083905f818181858888f193505050501580156109ad573d5f803e3d5ffd5b506005546040516001600160a01b039091169082156108fc029083905f818181858888f193505050501580156109e5573d5f803e3d5ffd5b506006546040516001600160a01b039091169082156108fc029083905f818181858888f19350505050158015610a1d573d5f803e3d5ffd5b506007546040516001600160a01b039091169082156108fc029083905f818181858888f19350505050158015610a55573d5f803e3d5ffd5b506008546040516001600160a01b039091169082156108fc029083905f818181858888f19350505050158015610a8d573d5f803e3d5ffd5b5050565b5f33610a9e858285611831565b610aa985858561188e565b60019150505b9392505050565b610abe6117ed565b600180546001600160a01b038a81166001600160a01b03199283168117909355600280548b83169084168117909155600380548b84169085168117909155600480548b85169086168117909155600580548b86169087168117909155600680548b87169088168117909155600780548b8816908916811790915560088054978b16979098168717909755604080519889526020890195909552938701929092526060860152608085015260a084015260c083019190915260e08201527f52e6e0e286d372f9e966ef36de088520ff74564d54d64ad119477262ca461e7b906101000160405180910390a15050505050505050565b610bba6117ed565b6001600160a01b0382165f8181526020818152604091829020805460ff19168515159081179091558251938452908301527f2d43abd87b27cee7b0aa8c6f7e0b4a3247b683262a83cbc2318b0df398a49aa9910161068d565b610c1b6117ed565b610c2c610c26610ef7565b82611d9f565b50565b610c37611dd3565b610c4082611e77565b610a8d8282611e7f565b5f610c53611f3b565b505f80516020612fdc83398151915290565b610c6d6117ed565b6001811015610cbe5760405162461bcd60e51b815260206004820152601e60248201527f4d61782074782063616e74206265206c6f776572207468616e20302e3125000060448201526064016107b6565b6103e881610cd75f80516020612fbc8339815191525490565b610ce19190612d23565b610ceb9190612d3a565b600f8190556040519081527f947f344d56e1e8c70dc492fb94c4ddddd490c016aab685f5e7e47b2e85cb44cf906020015b60405180910390a150565b610d2f6117ed565b6063821115610d785760405162461bcd60e51b8152602060048201526015602482015274496e76616c696420627579207461782076616c756560581b60448201526064016107b6565b6063811115610dc25760405162461bcd60e51b8152602060048201526016602482015275496e76616c69642073656c6c207461782076616c756560501b60448201526064016107b6565b600b829055600c81905560408051838152602081018390527f5c6323bf1c2d7aaea2c091a4751c1c87af7f2864650c336507a77d0557af37a1910161068d565b610e0a6117ed565b5f80516020612fbc83398151915254600f555f80516020612fbc833981519152546010557f947f344d56e1e8c70dc492fb94c4ddddd490c016aab685f5e7e47b2e85cb44cf610e645f80516020612fbc8339815191525490565b60405190815260200160405180910390a17f4b39c36d20c57d220f61fd25c4349d4435cc03ef6c2a680942f15333c3c3e001610eab5f80516020612fbc8339815191525490565b60405190815260200160405180910390a1565b6001600160a01b03165f9081525f80516020612f9c833981519152602052604090205490565b610eec6117ed565b610ef55f611f84565b565b7f9016d09d72d40fdae2fd8ceac6b6234c7706214fd39c1cd1e609a0528c199300546001600160a01b031690565b610f2d610ef7565b6001600160a01b0316336001600160a01b031614610f865760405162461bcd60e51b815260206004820152601660248201527527b7363c9037bbb732b91031b0b7103a3934b3b3b2b960511b60448201526064016107b6565b5f610f9030610ebe565b9050610f9b81611ff4565b478015610a8d57610a8d612183565b7f52c63247e1f47db19d5ce0460030c497f067ca4cebf71ba98eeadabe20bace0480546060915f80516020612f9c833981519152916106d790612d59565b610ff06117ed565b601554816017546110019190612d9f565b11156110465760405162461bcd60e51b815260206004820152601460248201527314dd5c1c1b1e48131a5b5a5d0814995858da195960621b60448201526064016107b6565b610c2c611051610ef7565b82612425565b5f336107db81858561188e565b7ff0c57e16840df040f15088dc2f81fe391c3923bec73e23a9662efc9c229c6a008054600160401b810460ff16159067ffffffffffffffff165f811580156110a95750825b90505f8267ffffffffffffffff1660011480156110c55750303b155b9050811580156110d3575080155b156110f15760405163f92ee8a960e01b815260040160405180910390fd5b845467ffffffffffffffff19166001178555831561111b57845460ff60401b1916600160401b1785555b61115f6040518060400160405280600781526020016626bcaa37b5b2b760c91b815250604051806040016040528060038152602001624d544b60e81b815250612459565b6111688661246b565b61117061247c565b6d04ee2d6d415b85acef810000000060178190556d314dc6448d9338c15b0a000000006015556103e8906111a590600a612d23565b6111af9190612d3a565b600f556017546103e8906111c490600a612d23565b6111ce9190612d3a565b601055601754612710906111e3906005612d23565b6111ed9190612d3a565b6011556017546127109061120390610190612d23565b61120d9190612d3a565b601255600f600b556028600c556001600d8190555f600e8190553080825260166020526040909120805460ff1916909217909155601380546001600160a01b031916739ac64cc6e4415144c455bd8e4837fea55603e5c390811790915561128991906112845f80516020612fbc8339815191525490565b61181f565b60135f9054906101000a90046001600160a01b03166001600160a01b031663c45a01556040518163ffffffff1660e01b8152600401602060405180830381865afa1580156112d9573d5f803e3d5ffd5b505050506040513d601f19601f820116820180604052508101906112fd9190612db2565b6001600160a01b031663c9c653963060135f9054906101000a90046001600160a01b03166001600160a01b031663ad5c46486040518163ffffffff1660e01b8152600401602060405180830381865afa15801561135c573d5f803e3d5ffd5b505050506040513d601f19601f820116820180604052508101906113809190612db2565b6040516001600160e01b031960e085901b1681526001600160a01b039283166004820152911660248201526044016020604051808303815f875af11580156113ca573d5f803e3d5ffd5b505050506040513d601f19601f820116820180604052508101906113ee9190612db2565b601480546001600160a01b03929092166001600160a01b0319928316179055600180548216732f8d1ddd0f3ccf0fe21c505a4ebc56f6f4626c0d908117825560028054841682179055600380548416821790556004805484168217905560058054841682179055600680548416821790556007805484168217905560088054909316179091555f8061147e610ef7565b6001600160a01b03908116825260208083019390935260409182015f908120805495151560ff1996871617905530815292839052818320805485166001908117909155805482168452828420805486168217905560025482168452828420805486168217905560035482168452828420805486168217905560045482168452828420805486168217905560055482168452828420805486168217905560065482168452828420805486168217905560075482168452828420805486168217905560085490911683529120805490921617905560175461155e903390612425565b83156115a457845460ff60401b19168555604051600181527fc7f505b2f371ae2175ee4913f4499e1f2633a7b5936321eed1cdaeb6115181d29060200160405180910390a15b505050505050565b6115b46117ed565b601555565b6001600160a01b039182165f9081527f52c63247e1f47db19d5ce0460030c497f067ca4cebf71ba98eeadabe20bace016020908152604080832093909416825291909152205490565b61160a6117ed565b60018110156116665760405162461bcd60e51b815260206004820152602260248201527f4d61782077616c6c65742063616e74206265206c6f776572207468616e20302e604482015261312560f01b60648201526084016107b6565b6103e88161167f5f80516020612fbc8339815191525490565b6116899190612d23565b6116939190612d3a565b60108190556040519081527f4b39c36d20c57d220f61fd25c4349d4435cc03ef6c2a680942f15333c3c3e00190602001610d1c565b6116d06117ed565b6001600160a01b0381166116f957604051631e4fbdf760e01b81525f60048201526024016107b6565b610c2c81611f84565b61170a6117ed565b601454600160a01b900460ff16156117645760405162461bcd60e51b815260206004820152601760248201527f74726164696e6720697320616c7265616479206f70656e00000000000000000060448201526064016107b6565b6014805462ff00ff60a01b19166201000160a01b179055436009819055600a805467ffffffffffffffff191667ffffffffffffffff909216919091179055305f90815260208190526040808220805460ff191660011790556019600b556028600c55517fea4359d5c4b8f0945a64ab9c37fe830b3407d45e0e6e6f84275977a570457d6f9190a1565b336117f6610ef7565b6001600160a01b031614610ef55760405163118cdaa760e01b81523360048201526024016107b6565b61182c8383836001612484565b505050565b5f61183c84846115b9565b90505f198114610853578181101561188057604051637dc7a0d960e11b81526001600160a01b038416600482015260248101829052604481018390526064016107b6565b61085384848484035f612484565b6001600160a01b0383166118f25760405162461bcd60e51b815260206004820152602560248201527f45524332303a207472616e736665722066726f6d20746865207a65726f206164604482015264647265737360d81b60648201526084016107b6565b6001600160a01b0382166119545760405162461bcd60e51b815260206004820152602360248201527f45524332303a207472616e7366657220746f20746865207a65726f206164647260448201526265737360e81b60648201526084016107b6565b5f81116119b55760405162461bcd60e51b815260206004820152602960248201527f5472616e7366657220616d6f756e74206d7573742062652067726561746572206044820152687468616e207a65726f60b81b60648201526084016107b6565b5f6119be610ef7565b6001600160a01b0316846001600160a01b0316141580156119f857506119e2610ef7565b6001600160a01b0316836001600160a01b031614155b8015611a0e5750601454600160a81b900460ff16155b15611d7a57601454600160b81b900460ff1615611a87576001600160a01b0384165f9081526016602052604090205460ff1680611a6257506001600160a01b0383165f9081526016602052604090205460ff165b611a875760405162461bcd60e51b8152602060048201525f60248201526044016107b6565b6064600b5483611a979190612d23565b611aa19190612d3a565b6014549091506001600160a01b038581169116148015611acf57506013546001600160a01b03848116911614155b8015611af357506001600160a01b0383165f9081526020819052604090205460ff16155b15611be557600f54821115611b4a5760405162461bcd60e51b815260206004820152601b60248201527f4578636565647320746865205f7478416d6f756e744c696d69742e000000000060448201526064016107b6565b60105482611b5785610ebe565b611b619190612d9f565b1115611baf5760405162461bcd60e51b815260206004820152601a60248201527f4578636565647320746865206d617857616c6c657453697a652e00000000000060448201526064016107b6565b436009546003611bbf9190612d9f565b1115611bd057823b15611bd0575f80fd5b600e8054905f611bdf83612dcd565b91905055505b6014546001600160a01b03848116911614801590611c1b57506001600160a01b0383165f9081526020819052604090205460ff16155b15611c855760105482611c2d85610ebe565b611c379190612d9f565b1115611c855760405162461bcd60e51b815260206004820152601a60248201527f4578636565647320746865206d617857616c6c657453697a652e00000000000060448201526064016107b6565b6014546001600160a01b038481169116148015611cab57506001600160a01b0384163014155b15611ccd576064600c5483611cc09190612d23565b611cca9190612d3a565b90505b5f611cd730610ebe565b601454909150600160a81b900460ff16158015611d0157506014546001600160a01b038581169116145b8015611d165750601454600160b01b900460ff165b8015611d23575060115481115b8015611d325750600d54600e54115b8015611d4e5750600a544367ffffffffffffffff908116911614155b15611d7857611d67611d6282601254612567565b611ff4565b478015611d7657611d76612183565b505b505b8015611d8b57611d8b84308361257b565b6108538484611d9a8486612de5565b61257b565b6001600160a01b038216611dc857604051634b637e8f60e11b81525f60048201526024016107b6565b610a8d825f836125d4565b306001600160a01b037f0000000000000000000000000000000000000000000000000000000000000000161480611e5957507f00000000000000000000000000000000000000000000000000000000000000006001600160a01b0316611e4d5f80516020612fdc833981519152546001600160a01b031690565b6001600160a01b031614155b15610ef55760405163703e46dd60e11b815260040160405180910390fd5b610c2c6117ed565b816001600160a01b03166352d1902d6040518163ffffffff1660e01b8152600401602060405180830381865afa925050508015611ed9575060408051601f3d908101601f19168201909252611ed691810190612df8565b60015b611f0157604051634c9c8ce360e01b81526001600160a01b03831660048201526024016107b6565b5f80516020612fdc8339815191528114611f3157604051632a87526960e21b8152600481018290526024016107b6565b61182c838361270d565b306001600160a01b037f00000000000000000000000000000000000000000000000000000000000000001614610ef55760405163703e46dd60e11b815260040160405180910390fd5b7f9016d09d72d40fdae2fd8ceac6b6234c7706214fd39c1cd1e609a0528c19930080546001600160a01b031981166001600160a01b03848116918217845560405192169182907f8be0079c531659141344cd1fd0a4f28419497f9722a3daafe3b4186f6b6457e0905f90a3505050565b6014805460ff60a81b1916600160a81b179055600a805467ffffffffffffffff431667ffffffffffffffff199091161790556040805160028082526060820183525f9260208301908036833701905050905030815f8151811061205957612059612d8b565b6001600160a01b03928316602091820292909201810191909152601354604080516315ab88c960e31b81529051919093169263ad5c46489260048083019391928290030181865afa1580156120b0573d5f803e3d5ffd5b505050506040513d601f19601f820116820180604052508101906120d49190612db2565b816001815181106120e7576120e7612d8b565b6001600160a01b03928316602091820292909201015260135461210d913091168461181f565b60135460405163791ac94760e01b81526001600160a01b039091169063791ac947906121459085905f90869030904290600401612e0f565b5f604051808303815f87803b15801561215c575f80fd5b505af115801561216e573d5f803e3d5ffd5b50506014805460ff60a81b1916905550505050565b5f80612190600847612d3a565b6001546040519192506001600160a01b03169082905f81818185875af1925050503d805f81146121db576040519150601f19603f3d011682016040523d82523d5f602084013e6121e0565b606091505b50506002546040519193506001600160a01b03169082905f81818185875af1925050503d805f811461222d576040519150601f19603f3d011682016040523d82523d5f602084013e612232565b606091505b50506003546040519193506001600160a01b03169082905f81818185875af1925050503d805f811461227f576040519150601f19603f3d011682016040523d82523d5f602084013e612284565b606091505b50506004546040519193506001600160a01b03169082905f81818185875af1925050503d805f81146122d1576040519150601f19603f3d011682016040523d82523d5f602084013e6122d6565b606091505b50506005546040519193506001600160a01b03169082905f81818185875af1925050503d805f8114612323576040519150601f19603f3d011682016040523d82523d5f602084013e612328565b606091505b50506006546040519193506001600160a01b03169082905f81818185875af1925050503d805f8114612375576040519150601f19603f3d011682016040523d82523d5f602084013e61237a565b606091505b50506007546040519193506001600160a01b03169082905f81818185875af1925050503d805f81146123c7576040519150601f19603f3d011682016040523d82523d5f602084013e6123cc565b606091505b50506008546040519193506001600160a01b03169082905f81818185875af1925050503d805f8114612419576040519150601f19603f3d011682016040523d82523d5f602084013e61241e565b606091505b5050505050565b6001600160a01b03821661244e5760405163ec442f0560e01b81525f60048201526024016107b6565b610a8d5f83836125d4565b612461612762565b610a8d82826127ab565b612473612762565b610c2c816127fb565b610ef5612762565b5f80516020612f9c8339815191526001600160a01b0385166124bb5760405163e602df0560e01b81525f60048201526024016107b6565b6001600160a01b0384166124e457604051634a1406b160e11b81525f60048201526024016107b6565b6001600160a01b038086165f9081526001830160209081526040808320938816835292905220839055811561241e57836001600160a01b0316856001600160a01b03167f8c5be1e5ebec7d5bd14f71427d1e84f3dd0314c0f7b2291e5b200ac8c7c3b9258560405161255891815260200190565b60405180910390a35050505050565b5f8183116125755782610aaf565b50919050565b6001600160a01b0383166125a457604051634b637e8f60e11b81525f60048201526024016107b6565b6001600160a01b0382166125cd5760405163ec442f0560e01b81525f60048201526024016107b6565b61182c8383835b5f80516020612f9c8339815191526001600160a01b03841661260e5781816002015f8282546126039190612d9f565b9091555061267e9050565b6001600160a01b0384165f90815260208290526040902054828110156126605760405163391434e360e21b81526001600160a01b038616600482015260248101829052604481018490526064016107b6565b6001600160a01b0385165f9081526020839052604090209083900390555b6001600160a01b03831661269c5760028101805483900390556126ba565b6001600160a01b0383165f9081526020829052604090208054830190555b826001600160a01b0316846001600160a01b03167fddf252ad1be2c89b69c2b068fc378daa952ba7f163c4a11628f55a4df523b3ef846040516126ff91815260200190565b60405180910390a350505050565b61271682612803565b6040516001600160a01b038316907fbc7cd75a20ee27fd9adebab32041f755214dbc6bffa90cc0225b39da2e5c2d3b905f90a280511561275a5761182c8282612866565b610a8d6128d8565b7ff0c57e16840df040f15088dc2f81fe391c3923bec73e23a9662efc9c229c6a0054600160401b900460ff16610ef557604051631afcd79f60e31b815260040160405180910390fd5b6127b3612762565b5f80516020612f9c8339815191527f52c63247e1f47db19d5ce0460030c497f067ca4cebf71ba98eeadabe20bace036127ec8482612ec4565b50600481016108538382612ec4565b6116d0612762565b806001600160a01b03163b5f0361283857604051634c9c8ce360e01b81526001600160a01b03821660048201526024016107b6565b5f80516020612fdc83398151915280546001600160a01b0319166001600160a01b0392909216919091179055565b60605f80846001600160a01b0316846040516128829190612f80565b5f60405180830381855af49150503d805f81146128ba576040519150601f19603f3d011682016040523d82523d5f602084013e6128bf565b606091505b50915091506128cf8583836128f7565b95945050505050565b3415610ef55760405163b398979f60e01b815260040160405180910390fd5b60608261290c5761290782612953565b610aaf565b815115801561292357506001600160a01b0384163b155b1561294c57604051639996b31560e01b81526001600160a01b03851660048201526024016107b6565b5080610aaf565b8051156129635780518082602001fd5b604051630a12f52160e11b815260040160405180910390fd5b5f806040838503121561298d575f80fd5b50508035926020909101359150565b5f5b838110156129b657818101518382015260200161299e565b50505f910152565b602081525f82518060208401526129dc81604085016020870161299c565b601f01601f19169190910160400192915050565b6001600160a01b0381168114610c2c575f80fd5b5f8060408385031215612a15575f80fd5b8235612a20816129f0565b946020939093013593505050565b80358015158114612a3d575f80fd5b919050565b5f805f60408486031215612a54575f80fd5b833567ffffffffffffffff80821115612a6b575f80fd5b818601915086601f830112612a7e575f80fd5b813581811115612a8c575f80fd5b8760208260051b8501011115612aa0575f80fd5b602092830195509350612ab69186019050612a2e565b90509250925092565b5f805f60608486031215612ad1575f80fd5b8335612adc816129f0565b92506020840135612aec816129f0565b929592945050506040919091013590565b5f805f805f805f80610100898b031215612b15575f80fd5b8835612b20816129f0565b97506020890135612b30816129f0565b96506040890135612b40816129f0565b95506060890135612b50816129f0565b94506080890135612b60816129f0565b935060a0890135612b70816129f0565b925060c0890135612b80816129f0565b915060e0890135612b90816129f0565b809150509295985092959890939650565b5f8060408385031215612bb2575f80fd5b8235612bbd816129f0565b9150612bcb60208401612a2e565b90509250929050565b5f60208284031215612be4575f80fd5b5035919050565b634e487b7160e01b5f52604160045260245ffd5b5f8060408385031215612c10575f80fd5b8235612c1b816129f0565b9150602083013567ffffffffffffffff80821115612c37575f80fd5b818501915085601f830112612c4a575f80fd5b813581811115612c5c57612c5c612beb565b604051601f8201601f19908116603f01168101908382118183101715612c8457612c84612beb565b81604052828152886020848701011115612c9c575f80fd5b826020860160208301375f6020848301015280955050505050509250929050565b5f60208284031215612ccd575f80fd5b8135610aaf816129f0565b5f8060408385031215612ce9575f80fd5b8235612cf4816129f0565b91506020830135612d04816129f0565b809150509250929050565b634e487b7160e01b5f52601160045260245ffd5b80820281158282048414176107e1576107e1612d0f565b5f82612d5457634e487b7160e01b5f52601260045260245ffd5b500490565b600181811c90821680612d6d57607f821691505b60208210810361257557634e487b7160e01b5f52602260045260245ffd5b634e487b7160e01b5f52603260045260245ffd5b808201808211156107e1576107e1612d0f565b5f60208284031215612dc2575f80fd5b8151610aaf816129f0565b5f60018201612dde57612dde612d0f565b5060010190565b818103818111156107e1576107e1612d0f565b5f60208284031215612e08575f80fd5b5051919050565b5f60a08201878352602087602085015260a0604085015281875180845260c0860191506020890193505f5b81811015612e5f5784516001600160a01b031683529383019391830191600101612e3a565b50506001600160a01b03969096166060850152505050608001529392505050565b601f82111561182c57805f5260205f20601f840160051c81016020851015612ea55750805b601f840160051c820191505b8181101561241e575f8155600101612eb1565b815167ffffffffffffffff811115612ede57612ede612beb565b612ef281612eec8454612d59565b84612e80565b602080601f831160018114612f25575f8415612f0e5750858301515b5f19600386901b1c1916600185901b1785556115a4565b5f85815260208120601f198616915b82811015612f5357888601518255948401946001909101908401612f34565b5085821015612f7057878501515f19600388901b60f8161c191681555b5050505050600190811b01905550565b5f8251612f9181846020870161299c565b919091019291505056fe52c63247e1f47db19d5ce0460030c497f067ca4cebf71ba98eeadabe20bace0052c63247e1f47db19d5ce0460030c497f067ca4cebf71ba98eeadabe20bace02360894a13ba1a3210667c828492db98dca3e2076cc3735a920a3ca505d382bbca26469706673582212209fd4f362f3ab85ed5f80094f7da9f337eff7d7676e834759412712b6913122d464736f6c63430008180033",
					"opcodes": "PUSH1 0xA0 PUSH1 0x40 MSTORE ADDRESS PUSH1 0x80 MSTORE PUSH1 0x14 DUP1 SLOAD PUSH3 0xFFFFFF PUSH1 0xA8 SHL NOT AND PUSH1 0x1 PUSH1 0xB8 SHL OR SWAP1 SSTORE CALLVALUE DUP1 ISZERO PUSH3 0x29 JUMPI PUSH0 DUP1 REVERT JUMPDEST POP PUSH3 0x34 PUSH3 0x3A JUMP JUMPDEST PUSH3 0xEE JUMP JUMPDEST PUSH32 0xF0C57E16840DF040F15088DC2F81FE391C3923BEC73E23A9662EFC9C229C6A00 DUP1 SLOAD PUSH9 0x10000000000000000 SWAP1 DIV PUSH1 0xFF AND ISZERO PUSH3 0x8B JUMPI PUSH1 0x40 MLOAD PUSH4 0xF92EE8A9 PUSH1 0xE0 SHL DUP2 MSTORE PUSH1 0x4 ADD PUSH1 0x40 MLOAD DUP1 SWAP2 SUB SWAP1 REVERT JUMPDEST DUP1 SLOAD PUSH1 0x1 PUSH1 0x1 PUSH1 0x40 SHL SUB SWAP1 DUP2 AND EQ PUSH3 0xEB JUMPI DUP1 SLOAD PUSH1 0x1 PUSH1 0x1 PUSH1 0x40 SHL SUB NOT AND PUSH1 0x1 PUSH1 0x1 PUSH1 0x40 SHL SUB SWAP1 DUP2 OR DUP3 SSTORE PUSH1 0x40 MLOAD SWAP1 DUP2 MSTORE PUSH32 0xC7F505B2F371AE2175EE4913F4499E1F2633A7B5936321EED1CDAEB6115181D2 SWAP1 PUSH1 0x20 ADD PUSH1 0x40 MLOAD DUP1 SWAP2 SUB SWAP1 LOG1 JUMPDEST POP JUMP JUMPDEST PUSH1 0x80 MLOAD PUSH2 0x3031 PUSH3 0x115 PUSH0 CODECOPY PUSH0 DUP2 DUP2 PUSH2 0x1DDE ADD MSTORE DUP2 DUP2 PUSH2 0x1E07 ADD MSTORE PUSH2 0x1F46 ADD MSTORE PUSH2 0x3031 PUSH0 RETURN INVALID PUSH1 0x80 PUSH1 0x40 MSTORE PUSH1 0x4 CALLDATASIZE LT PUSH2 0x1E9 JUMPI PUSH0 CALLDATALOAD PUSH1 0xE0 SHR DUP1 PUSH4 0x6ED6A48D GT PUSH2 0x108 JUMPI DUP1 PUSH4 0xAD3CB1CC GT PUSH2 0x9D JUMPI DUP1 PUSH4 0xDD54291B GT PUSH2 0x6D JUMPI DUP1 PUSH4 0xDD54291B EQ PUSH2 0x56D JUMPI DUP1 PUSH4 0xDD62ED3E EQ PUSH2 0x582 JUMPI DUP1 PUSH4 0xF1D5F517 EQ PUSH2 0x5A1 JUMPI DUP1 PUSH4 0xF2FDE38B EQ PUSH2 0x5C0 JUMPI DUP1 PUSH4 0xFCFFF16F EQ PUSH2 0x5DF JUMPI PUSH0 DUP1 REVERT JUMPDEST DUP1 PUSH4 0xAD3CB1CC EQ PUSH2 0x4B4 JUMPI DUP1 PUSH4 0xAE601480 EQ PUSH2 0x4E4 JUMPI DUP1 PUSH4 0xC4D66DE8 EQ PUSH2 0x52F JUMPI DUP1 PUSH4 0xDA7FE652 EQ PUSH2 0x54E JUMPI PUSH0 DUP1 REVERT JUMPDEST DUP1 PUSH4 0x8F937CC4 GT PUSH2 0xD8 JUMPI DUP1 PUSH4 0x8F937CC4 EQ PUSH2 0x44E JUMPI DUP1 PUSH4 0x95D89B41 EQ PUSH2 0x462 JUMPI DUP1 PUSH4 0xA0712D68 EQ PUSH2 0x476 JUMPI DUP1 PUSH4 0xA9059CBB EQ PUSH2 0x495 JUMPI PUSH0 DUP1 REVERT JUMPDEST DUP1 PUSH4 0x6ED6A48D EQ PUSH2 0x3DB JUMPI DUP1 PUSH4 0x70A08231 EQ PUSH2 0x3EF JUMPI DUP1 PUSH4 0x715018A6 EQ PUSH2 0x40E JUMPI DUP1 PUSH4 0x8DA5CB5B EQ PUSH2 0x422 JUMPI PUSH0 DUP1 REVERT JUMPDEST DUP1 PUSH4 0x23BC25ED GT PUSH2 0x17E JUMPI DUP1 PUSH4 0x4F1EF286 GT PUSH2 0x14E JUMPI DUP1 PUSH4 0x4F1EF286 EQ PUSH2 0x376 JUMPI DUP1 PUSH4 0x52D1902D EQ PUSH2 0x389 JUMPI DUP1 PUSH4 0x620CC86C EQ PUSH2 0x39D JUMPI DUP1 PUSH4 0x667F6526 EQ PUSH2 0x3BC JUMPI PUSH0 DUP1 REVERT JUMPDEST DUP1 PUSH4 0x23BC25ED EQ PUSH2 0x2FE JUMPI DUP1 PUSH4 0x2DC4F5E6 EQ PUSH2 0x31D JUMPI DUP1 PUSH4 0x313CE567 EQ PUSH2 0x33C JUMPI DUP1 PUSH4 0x42966C68 EQ PUSH2 0x357 JUMPI PUSH0 DUP1 REVERT JUMPDEST DUP1 PUSH4 0x18160DDD GT PUSH2 0x1B9 JUMPI DUP1 PUSH4 0x18160DDD EQ PUSH2 0x282 JUMPI DUP1 PUSH4 0x1C537DE5 EQ PUSH2 0x2AC JUMPI DUP1 PUSH4 0x217B6DA6 EQ PUSH2 0x2CB JUMPI DUP1 PUSH4 0x23B872DD EQ PUSH2 0x2DF JUMPI PUSH0 DUP1 REVERT JUMPDEST DUP1 PUSH4 0x313FC4B EQ PUSH2 0x1F4 JUMPI DUP1 PUSH4 0x6FDDE03 EQ PUSH2 0x215 JUMPI DUP1 PUSH4 0x8ADE0C9 EQ PUSH2 0x23F JUMPI DUP1 PUSH4 0x95EA7B3 EQ PUSH2 0x253 JUMPI PUSH0 DUP1 REVERT JUMPDEST CALLDATASIZE PUSH2 0x1F0 JUMPI STOP JUMPDEST PUSH0 DUP1 REVERT JUMPDEST CALLVALUE DUP1 ISZERO PUSH2 0x1FF JUMPI PUSH0 DUP1 REVERT JUMPDEST POP PUSH2 0x213 PUSH2 0x20E CALLDATASIZE PUSH1 0x4 PUSH2 0x297C JUMP JUMPDEST PUSH2 0x5F3 JUMP JUMPDEST STOP JUMPDEST CALLVALUE DUP1 ISZERO PUSH2 0x220 JUMPI PUSH0 DUP1 REVERT JUMPDEST POP PUSH2 0x229 PUSH2 0x699 JUMP JUMPDEST PUSH1 0x40 MLOAD PUSH2 0x236 SWAP2 SWAP1 PUSH2 0x29BE JUMP JUMPDEST PUSH1 0x40 MLOAD DUP1 SWAP2 SUB SWAP1 RETURN JUMPDEST CALLVALUE DUP1 ISZERO PUSH2 0x24A JUMPI PUSH0 DUP1 REVERT JUMPDEST POP PUSH2 0x213 PUSH2 0x759 JUMP JUMPDEST CALLVALUE DUP1 ISZERO PUSH2 0x25E JUMPI PUSH0 DUP1 REVERT JUMPDEST POP PUSH2 0x272 PUSH2 0x26D CALLDATASIZE PUSH1 0x4 PUSH2 0x2A04 JUMP JUMPDEST PUSH2 0x7CE JUMP JUMPDEST PUSH1 0x40 MLOAD SWAP1 ISZERO ISZERO DUP2 MSTORE PUSH1 0x20 ADD PUSH2 0x236 JUMP JUMPDEST CALLVALUE DUP1 ISZERO PUSH2 0x28D JUMPI PUSH0 DUP1 REVERT JUMPDEST POP PUSH0 DUP1 MLOAD PUSH1 0x20 PUSH2 0x2FBC DUP4 CODECOPY DUP2 MLOAD SWAP2 MSTORE SLOAD JUMPDEST PUSH1 0x40 MLOAD SWAP1 DUP2 MSTORE PUSH1 0x20 ADD PUSH2 0x236 JUMP JUMPDEST CALLVALUE DUP1 ISZERO PUSH2 0x2B7 JUMPI PUSH0 DUP1 REVERT JUMPDEST POP PUSH2 0x213 PUSH2 0x2C6 CALLDATASIZE PUSH1 0x4 PUSH2 0x2A42 JUMP JUMPDEST PUSH2 0x7E7 JUMP JUMPDEST CALLVALUE DUP1 ISZERO PUSH2 0x2D6 JUMPI PUSH0 DUP1 REVERT JUMPDEST POP PUSH2 0x213 PUSH2 0x859 JUMP JUMPDEST CALLVALUE DUP1 ISZERO PUSH2 0x2EA JUMPI PUSH0 DUP1 REVERT JUMPDEST POP PUSH2 0x272 PUSH2 0x2F9 CALLDATASIZE PUSH1 0x4 PUSH2 0x2ABF JUMP JUMPDEST PUSH2 0xA91 JUMP JUMPDEST CALLVALUE DUP1 ISZERO PUSH2 0x309 JUMPI PUSH0 DUP1 REVERT JUMPDEST POP PUSH2 0x213 PUSH2 0x318 CALLDATASIZE PUSH1 0x4 PUSH2 0x2AFD JUMP JUMPDEST PUSH2 0xAB6 JUMP JUMPDEST CALLVALUE DUP1 ISZERO PUSH2 0x328 JUMPI PUSH0 DUP1 REVERT JUMPDEST POP PUSH2 0x213 PUSH2 0x337 CALLDATASIZE PUSH1 0x4 PUSH2 0x2BA1 JUMP JUMPDEST PUSH2 0xBB2 JUMP JUMPDEST CALLVALUE DUP1 ISZERO PUSH2 0x347 JUMPI PUSH0 DUP1 REVERT JUMPDEST POP PUSH1 0x40 MLOAD PUSH1 0x12 DUP2 MSTORE PUSH1 0x20 ADD PUSH2 0x236 JUMP JUMPDEST CALLVALUE DUP1 ISZERO PUSH2 0x362 JUMPI PUSH0 DUP1 REVERT JUMPDEST POP PUSH2 0x213 PUSH2 0x371 CALLDATASIZE PUSH1 0x4 PUSH2 0x2BD4 JUMP JUMPDEST PUSH2 0xC13 JUMP JUMPDEST PUSH2 0x213 PUSH2 0x384 CALLDATASIZE PUSH1 0x4 PUSH2 0x2BFF JUMP JUMPDEST PUSH2 0xC2F JUMP JUMPDEST CALLVALUE DUP1 ISZERO PUSH2 0x394 JUMPI PUSH0 DUP1 REVERT JUMPDEST POP PUSH2 0x29E PUSH2 0xC4A JUMP JUMPDEST CALLVALUE DUP1 ISZERO PUSH2 0x3A8 JUMPI PUSH0 DUP1 REVERT JUMPDEST POP PUSH2 0x213 PUSH2 0x3B7 CALLDATASIZE PUSH1 0x4 PUSH2 0x2BD4 JUMP JUMPDEST PUSH2 0xC65 JUMP JUMPDEST CALLVALUE DUP1 ISZERO PUSH2 0x3C7 JUMPI PUSH0 DUP1 REVERT JUMPDEST POP PUSH2 0x213 PUSH2 0x3D6 CALLDATASIZE PUSH1 0x4 PUSH2 0x297C JUMP JUMPDEST PUSH2 0xD27 JUMP JUMPDEST CALLVALUE DUP1 ISZERO PUSH2 0x3E6 JUMPI PUSH0 DUP1 REVERT JUMPDEST POP PUSH2 0x213 PUSH2 0xE02 JUMP JUMPDEST CALLVALUE DUP1 ISZERO PUSH2 0x3FA JUMPI PUSH0 DUP1 REVERT JUMPDEST POP PUSH2 0x29E PUSH2 0x409 CALLDATASIZE PUSH1 0x4 PUSH2 0x2CBD JUMP JUMPDEST PUSH2 0xEBE JUMP JUMPDEST CALLVALUE DUP1 ISZERO PUSH2 0x419 JUMPI PUSH0 DUP1 REVERT JUMPDEST POP PUSH2 0x213 PUSH2 0xEE4 JUMP JUMPDEST CALLVALUE DUP1 ISZERO PUSH2 0x42D JUMPI PUSH0 DUP1 REVERT JUMPDEST POP PUSH2 0x436 PUSH2 0xEF7 JUMP JUMPDEST PUSH1 0x40 MLOAD PUSH1 0x1 PUSH1 0x1 PUSH1 0xA0 SHL SUB SWAP1 SWAP2 AND DUP2 MSTORE PUSH1 0x20 ADD PUSH2 0x236 JUMP JUMPDEST CALLVALUE DUP1 ISZERO PUSH2 0x459 JUMPI PUSH0 DUP1 REVERT JUMPDEST POP PUSH2 0x213 PUSH2 0xF25 JUMP JUMPDEST CALLVALUE DUP1 ISZERO PUSH2 0x46D JUMPI PUSH0 DUP1 REVERT JUMPDEST POP PUSH2 0x229 PUSH2 0xFAA JUMP JUMPDEST CALLVALUE DUP1 ISZERO PUSH2 0x481 JUMPI PUSH0 DUP1 REVERT JUMPDEST POP PUSH2 0x213 PUSH2 0x490 CALLDATASIZE PUSH1 0x4 PUSH2 0x2BD4 JUMP JUMPDEST PUSH2 0xFE8 JUMP JUMPDEST CALLVALUE DUP1 ISZERO PUSH2 0x4A0 JUMPI PUSH0 DUP1 REVERT JUMPDEST POP PUSH2 0x272 PUSH2 0x4AF CALLDATASIZE PUSH1 0x4 PUSH2 0x2A04 JUMP JUMPDEST PUSH2 0x1057 JUMP JUMPDEST CALLVALUE DUP1 ISZERO PUSH2 0x4BF JUMPI PUSH0 DUP1 REVERT JUMPDEST POP PUSH2 0x229 PUSH1 0x40 MLOAD DUP1 PUSH1 0x40 ADD PUSH1 0x40 MSTORE DUP1 PUSH1 0x5 DUP2 MSTORE PUSH1 0x20 ADD PUSH5 0x352E302E3 PUSH1 0xDC SHL DUP2 MSTORE POP DUP2 JUMP JUMPDEST CALLVALUE DUP1 ISZERO PUSH2 0x4EF JUMPI PUSH0 DUP1 REVERT JUMPDEST POP PUSH1 0xB SLOAD PUSH1 0xC SLOAD PUSH1 0xF SLOAD PUSH1 0x10 SLOAD PUSH1 0x11 SLOAD PUSH1 0x12 SLOAD PUSH1 0x40 DUP1 MLOAD SWAP7 DUP8 MSTORE PUSH1 0x20 DUP8 ADD SWAP6 SWAP1 SWAP6 MSTORE SWAP4 DUP6 ADD SWAP3 SWAP1 SWAP3 MSTORE PUSH1 0x60 DUP5 ADD MSTORE PUSH1 0x80 DUP4 ADD MSTORE PUSH1 0xA0 DUP3 ADD MSTORE PUSH1 0xC0 ADD PUSH2 0x236 JUMP JUMPDEST CALLVALUE DUP1 ISZERO PUSH2 0x53A JUMPI PUSH0 DUP1 REVERT JUMPDEST POP PUSH2 0x213 PUSH2 0x549 CALLDATASIZE PUSH1 0x4 PUSH2 0x2CBD JUMP JUMPDEST PUSH2 0x1064 JUMP JUMPDEST CALLVALUE DUP1 ISZERO PUSH2 0x559 JUMPI PUSH0 DUP1 REVERT JUMPDEST POP PUSH2 0x213 PUSH2 0x568 CALLDATASIZE PUSH1 0x4 PUSH2 0x2BD4 JUMP JUMPDEST PUSH2 0x15AC JUMP JUMPDEST CALLVALUE DUP1 ISZERO PUSH2 0x578 JUMPI PUSH0 DUP1 REVERT JUMPDEST POP PUSH2 0x29E PUSH1 0x15 SLOAD DUP2 JUMP JUMPDEST CALLVALUE DUP1 ISZERO PUSH2 0x58D JUMPI PUSH0 DUP1 REVERT JUMPDEST POP PUSH2 0x29E PUSH2 0x59C CALLDATASIZE PUSH1 0x4 PUSH2 0x2CD8 JUMP JUMPDEST PUSH2 0x15B9 JUMP JUMPDEST CALLVALUE DUP1 ISZERO PUSH2 0x5AC JUMPI PUSH0 DUP1 REVERT JUMPDEST POP PUSH2 0x213 PUSH2 0x5BB CALLDATASIZE PUSH1 0x4 PUSH2 0x2BD4 JUMP JUMPDEST PUSH2 0x1602 JUMP JUMPDEST CALLVALUE DUP1 ISZERO PUSH2 0x5CB JUMPI PUSH0 DUP1 REVERT JUMPDEST POP PUSH2 0x213 PUSH2 0x5DA CALLDATASIZE PUSH1 0x4 PUSH2 0x2CBD JUMP JUMPDEST PUSH2 0x16C8 JUMP JUMPDEST CALLVALUE DUP1 ISZERO PUSH2 0x5EA JUMPI PUSH0 DUP1 REVERT JUMPDEST POP PUSH2 0x213 PUSH2 0x1702 JUMP JUMPDEST PUSH2 0x5FB PUSH2 0x17ED JUMP JUMPDEST PUSH2 0x2710 DUP3 PUSH2 0x614 PUSH0 DUP1 MLOAD PUSH1 0x20 PUSH2 0x2FBC DUP4 CODECOPY DUP2 MLOAD SWAP2 MSTORE SLOAD SWAP1 JUMP JUMPDEST PUSH2 0x61E SWAP2 SWAP1 PUSH2 0x2D23 JUMP JUMPDEST PUSH2 0x628 SWAP2 SWAP1 PUSH2 0x2D3A JUMP JUMPDEST PUSH1 0x11 SSTORE PUSH2 0x2710 DUP2 PUSH2 0x644 PUSH0 DUP1 MLOAD PUSH1 0x20 PUSH2 0x2FBC DUP4 CODECOPY DUP2 MLOAD SWAP2 MSTORE SLOAD SWAP1 JUMP JUMPDEST PUSH2 0x64E SWAP2 SWAP1 PUSH2 0x2D23 JUMP JUMPDEST PUSH2 0x658 SWAP2 SWAP1 PUSH2 0x2D3A JUMP JUMPDEST PUSH1 0x12 SSTORE PUSH1 0x40 DUP1 MLOAD DUP4 DUP2 MSTORE PUSH1 0x20 DUP2 ADD DUP4 SWAP1 MSTORE PUSH32 0x2B3F4C022D9943B151090E389857495BB9D8493714259CC19A540F5A11475FB1 SWAP2 ADD JUMPDEST PUSH1 0x40 MLOAD DUP1 SWAP2 SUB SWAP1 LOG1 POP POP JUMP JUMPDEST PUSH32 0x52C63247E1F47DB19D5CE0460030C497F067CA4CEBF71BA98EEADABE20BACE03 DUP1 SLOAD PUSH1 0x60 SWAP2 PUSH0 DUP1 MLOAD PUSH1 0x20 PUSH2 0x2F9C DUP4 CODECOPY DUP2 MLOAD SWAP2 MSTORE SWAP2 PUSH2 0x6D7 SWAP1 PUSH2 0x2D59 JUMP JUMPDEST DUP1 PUSH1 0x1F ADD PUSH1 0x20 DUP1 SWAP2 DIV MUL PUSH1 0x20 ADD PUSH1 0x40 MLOAD SWAP1 DUP2 ADD PUSH1 0x40 MSTORE DUP1 SWAP3 SWAP2 SWAP1 DUP2 DUP2 MSTORE PUSH1 0x20 ADD DUP3 DUP1 SLOAD PUSH2 0x703 SWAP1 PUSH2 0x2D59 JUMP JUMPDEST DUP1 ISZERO PUSH2 0x74E JUMPI DUP1 PUSH1 0x1F LT PUSH2 0x725 JUMPI PUSH2 0x100 DUP1 DUP4 SLOAD DIV MUL DUP4 MSTORE SWAP2 PUSH1 0x20 ADD SWAP2 PUSH2 0x74E JUMP JUMPDEST DUP3 ADD SWAP2 SWAP1 PUSH0 MSTORE PUSH1 0x20 PUSH0 KECCAK256 SWAP1 JUMPDEST DUP2 SLOAD DUP2 MSTORE SWAP1 PUSH1 0x1 ADD SWAP1 PUSH1 0x20 ADD DUP1 DUP4 GT PUSH2 0x731 JUMPI DUP3 SWAP1 SUB PUSH1 0x1F AND DUP3 ADD SWAP2 JUMPDEST POP POP POP POP POP SWAP2 POP POP SWAP1 JUMP JUMPDEST PUSH2 0x761 PUSH2 0x17ED JUMP JUMPDEST PUSH1 0x14 SLOAD PUSH1 0x1 PUSH1 0xB8 SHL SWAP1 DIV PUSH1 0xFF AND PUSH2 0x7BF JUMPI PUSH1 0x40 MLOAD PUSH3 0x461BCD PUSH1 0xE5 SHL DUP2 MSTORE PUSH1 0x20 PUSH1 0x4 DUP3 ADD MSTORE PUSH1 0x1F PUSH1 0x24 DUP3 ADD MSTORE PUSH32 0x4C61756E6368206D6F646520697320616C72656164792064697361626C656400 PUSH1 0x44 DUP3 ADD MSTORE PUSH1 0x64 ADD JUMPDEST PUSH1 0x40 MLOAD DUP1 SWAP2 SUB SWAP1 REVERT JUMPDEST PUSH1 0x14 DUP1 SLOAD PUSH1 0xFF PUSH1 0xB8 SHL NOT AND SWAP1 SSTORE JUMP JUMPDEST PUSH0 CALLER PUSH2 0x7DB DUP2 DUP6 DUP6 PUSH2 0x181F JUMP JUMPDEST PUSH1 0x1 SWAP2 POP POP JUMPDEST SWAP3 SWAP2 POP POP JUMP JUMPDEST PUSH2 0x7EF PUSH2 0x17ED JUMP JUMPDEST PUSH0 JUMPDEST DUP3 DUP2 LT ISZERO PUSH2 0x853 JUMPI DUP2 PUSH1 0x16 PUSH0 DUP7 DUP7 DUP6 DUP2 DUP2 LT PUSH2 0x80F JUMPI PUSH2 0x80F PUSH2 0x2D8B JUMP JUMPDEST SWAP1 POP PUSH1 0x20 MUL ADD PUSH1 0x20 DUP2 ADD SWAP1 PUSH2 0x824 SWAP2 SWAP1 PUSH2 0x2CBD JUMP JUMPDEST PUSH1 0x1 PUSH1 0x1 PUSH1 0xA0 SHL SUB AND DUP2 MSTORE PUSH1 0x20 DUP2 ADD SWAP2 SWAP1 SWAP2 MSTORE PUSH1 0x40 ADD PUSH0 KECCAK256 DUP1 SLOAD PUSH1 0xFF NOT AND SWAP2 ISZERO ISZERO SWAP2 SWAP1 SWAP2 OR SWAP1 SSTORE PUSH1 0x1 ADD PUSH2 0x7F1 JUMP JUMPDEST POP POP POP POP JUMP JUMPDEST PUSH2 0x861 PUSH2 0xEF7 JUMP JUMPDEST PUSH1 0x1 PUSH1 0x1 PUSH1 0xA0 SHL SUB AND CALLER PUSH1 0x1 PUSH1 0x1 PUSH1 0xA0 SHL SUB AND EQ PUSH2 0x8C1 JUMPI PUSH1 0x40 MLOAD PUSH3 0x461BCD PUSH1 0xE5 SHL DUP2 MSTORE PUSH1 0x20 PUSH1 0x4 DUP3 ADD MSTORE PUSH1 0x1D PUSH1 0x24 DUP3 ADD MSTORE PUSH32 0x4F6E6C79206665652072656365697665722063616E2074726967676572000000 PUSH1 0x44 DUP3 ADD MSTORE PUSH1 0x64 ADD PUSH2 0x7B6 JUMP JUMPDEST PUSH0 PUSH2 0x8CD PUSH1 0x8 SELFBALANCE PUSH2 0x2D3A JUMP JUMPDEST PUSH1 0x1 SLOAD PUSH1 0x40 MLOAD SWAP2 SWAP3 POP PUSH1 0x1 PUSH1 0x1 PUSH1 0xA0 SHL SUB AND SWAP1 DUP3 ISZERO PUSH2 0x8FC MUL SWAP1 DUP4 SWAP1 PUSH0 DUP2 DUP2 DUP2 DUP6 DUP9 DUP9 CALL SWAP4 POP POP POP POP ISZERO DUP1 ISZERO PUSH2 0x905 JUMPI RETURNDATASIZE PUSH0 DUP1 RETURNDATACOPY RETURNDATASIZE PUSH0 REVERT JUMPDEST POP PUSH1 0x2 SLOAD PUSH1 0x40 MLOAD PUSH1 0x1 PUSH1 0x1 PUSH1 0xA0 SHL SUB SWAP1 SWAP2 AND SWAP1 DUP3 ISZERO PUSH2 0x8FC MUL SWAP1 DUP4 SWAP1 PUSH0 DUP2 DUP2 DUP2 DUP6 DUP9 DUP9 CALL SWAP4 POP POP POP POP ISZERO DUP1 ISZERO PUSH2 0x93D JUMPI RETURNDATASIZE PUSH0 DUP1 RETURNDATACOPY RETURNDATASIZE PUSH0 REVERT JUMPDEST POP PUSH1 0x3 SLOAD PUSH1 0x40 MLOAD PUSH1 0x1 PUSH1 0x1 PUSH1 0xA0 SHL SUB SWAP1 SWAP2 AND SWAP1 DUP3 ISZERO PUSH2 0x8FC MUL SWAP1 DUP4 SWAP1 PUSH0 DUP2 DUP2 DUP2 DUP6 DUP9 DUP9 CALL SWAP4 POP POP POP POP ISZERO DUP1 ISZERO PUSH2 0x975 JUMPI RETURNDATASIZE PUSH0 DUP1 RETURNDATACOPY RETURNDATASIZE PUSH0 REVERT JUMPDEST POP PUSH1 0x4 SLOAD PUSH1 0x40 MLOAD PUSH1 0x1 PUSH1 0x1 PUSH1 0xA0 SHL SUB SWAP1 SWAP2 AND SWAP1 DUP3 ISZERO PUSH2 0x8FC MUL SWAP1 DUP4 SWAP1 PUSH0 DUP2 DUP2 DUP2 DUP6 DUP9 DUP9 CALL SWAP4 POP POP POP POP ISZERO DUP1 ISZERO PUSH2 0x9AD JUMPI RETURNDATASIZE PUSH0 DUP1 RETURNDATACOPY RETURNDATASIZE PUSH0 REVERT JUMPDEST POP PUSH1 0x5 SLOAD PUSH1 0x40 MLOAD PUSH1 0x1 PUSH1 0x1 PUSH1 0xA0 SHL SUB SWAP1 SWAP2 AND SWAP1 DUP3 ISZERO PUSH2 0x8FC MUL SWAP1 DUP4 SWAP1 PUSH0 DUP2 DUP2 DUP2 DUP6 DUP9 DUP9 CALL SWAP4 POP POP POP POP ISZERO DUP1 ISZERO PUSH2 0x9E5 JUMPI RETURNDATASIZE PUSH0 DUP1 RETURNDATACOPY RETURNDATASIZE PUSH0 REVERT JUMPDEST POP PUSH1 0x6 SLOAD PUSH1 0x40 MLOAD PUSH1 0x1 PUSH1 0x1 PUSH1 0xA0 SHL SUB SWAP1 SWAP2 AND SWAP1 DUP3 ISZERO PUSH2 0x8FC MUL SWAP1 DUP4 SWAP1 PUSH0 DUP2 DUP2 DUP2 DUP6 DUP9 DUP9 CALL SWAP4 POP POP POP POP ISZERO DUP1 ISZERO PUSH2 0xA1D JUMPI RETURNDATASIZE PUSH0 DUP1 RETURNDATACOPY RETURNDATASIZE PUSH0 REVERT JUMPDEST POP PUSH1 0x7 SLOAD PUSH1 0x40 MLOAD PUSH1 0x1 PUSH1 0x1 PUSH1 0xA0 SHL SUB SWAP1 SWAP2 AND SWAP1 DUP3 ISZERO PUSH2 0x8FC MUL SWAP1 DUP4 SWAP1 PUSH0 DUP2 DUP2 DUP2 DUP6 DUP9 DUP9 CALL SWAP4 POP POP POP POP ISZERO DUP1 ISZERO PUSH2 0xA55 JUMPI RETURNDATASIZE PUSH0 DUP1 RETURNDATACOPY RETURNDATASIZE PUSH0 REVERT JUMPDEST POP PUSH1 0x8 SLOAD PUSH1 0x40 MLOAD PUSH1 0x1 PUSH1 0x1 PUSH1 0xA0 SHL SUB SWAP1 SWAP2 AND SWAP1 DUP3 ISZERO PUSH2 0x8FC MUL SWAP1 DUP4 SWAP1 PUSH0 DUP2 DUP2 DUP2 DUP6 DUP9 DUP9 CALL SWAP4 POP POP POP POP ISZERO DUP1 ISZERO PUSH2 0xA8D JUMPI RETURNDATASIZE PUSH0 DUP1 RETURNDATACOPY RETURNDATASIZE PUSH0 REVERT JUMPDEST POP POP JUMP JUMPDEST PUSH0 CALLER PUSH2 0xA9E DUP6 DUP3 DUP6 PUSH2 0x1831 JUMP JUMPDEST PUSH2 0xAA9 DUP6 DUP6 DUP6 PUSH2 0x188E JUMP JUMPDEST PUSH1 0x1 SWAP2 POP POP JUMPDEST SWAP4 SWAP3 POP POP POP JUMP JUMPDEST PUSH2 0xABE PUSH2 0x17ED JUMP JUMPDEST PUSH1 0x1 DUP1 SLOAD PUSH1 0x1 PUSH1 0x1 PUSH1 0xA0 SHL SUB DUP11 DUP2 AND PUSH1 0x1 PUSH1 0x1 PUSH1 0xA0 SHL SUB NOT SWAP3 DUP4 AND DUP2 OR SWAP1 SWAP4 SSTORE PUSH1 0x2 DUP1 SLOAD DUP12 DUP4 AND SWAP1 DUP5 AND DUP2 OR SWAP1 SWAP2 SSTORE PUSH1 0x3 DUP1 SLOAD DUP12 DUP5 AND SWAP1 DUP6 AND DUP2 OR SWAP1 SWAP2 SSTORE PUSH1 0x4 DUP1 SLOAD DUP12 DUP6 AND SWAP1 DUP7 AND DUP2 OR SWAP1 SWAP2 SSTORE PUSH1 0x5 DUP1 SLOAD DUP12 DUP7 AND SWAP1 DUP8 AND DUP2 OR SWAP1 SWAP2 SSTORE PUSH1 0x6 DUP1 SLOAD DUP12 DUP8 AND SWAP1 DUP9 AND DUP2 OR SWAP1 SWAP2 SSTORE PUSH1 0x7 DUP1 SLOAD DUP12 DUP9 AND SWAP1 DUP10 AND DUP2 OR SWAP1 SWAP2 SSTORE PUSH1 0x8 DUP1 SLOAD SWAP8 DUP12 AND SWAP8 SWAP1 SWAP9 AND DUP8 OR SWAP1 SWAP8 SSTORE PUSH1 0x40 DUP1 MLOAD SWAP9 DUP10 MSTORE PUSH1 0x20 DUP10 ADD SWAP6 SWAP1 SWAP6 MSTORE SWAP4 DUP8 ADD SWAP3 SWAP1 SWAP3 MSTORE PUSH1 0x60 DUP7 ADD MSTORE PUSH1 0x80 DUP6 ADD MSTORE PUSH1 0xA0 DUP5 ADD MSTORE PUSH1 0xC0 DUP4 ADD SWAP2 SWAP1 SWAP2 MSTORE PUSH1 0xE0 DUP3 ADD MSTORE PUSH32 0x52E6E0E286D372F9E966EF36DE088520FF74564D54D64AD119477262CA461E7B SWAP1 PUSH2 0x100 ADD PUSH1 0x40 MLOAD DUP1 SWAP2 SUB SWAP1 LOG1 POP POP POP POP POP POP POP POP JUMP JUMPDEST PUSH2 0xBBA PUSH2 0x17ED JUMP JUMPDEST PUSH1 0x1 PUSH1 0x1 PUSH1 0xA0 SHL SUB DUP3 AND PUSH0 DUP2 DUP2 MSTORE PUSH1 0x20 DUP2 DUP2 MSTORE PUSH1 0x40 SWAP2 DUP3 SWAP1 KECCAK256 DUP1 SLOAD PUSH1 0xFF NOT AND DUP6 ISZERO ISZERO SWAP1 DUP2 OR SWAP1 SWAP2 SSTORE DUP3 MLOAD SWAP4 DUP5 MSTORE SWAP1 DUP4 ADD MSTORE PUSH32 0x2D43ABD87B27CEE7B0AA8C6F7E0B4A3247B683262A83CBC2318B0DF398A49AA9 SWAP2 ADD PUSH2 0x68D JUMP JUMPDEST PUSH2 0xC1B PUSH2 0x17ED JUMP JUMPDEST PUSH2 0xC2C PUSH2 0xC26 PUSH2 0xEF7 JUMP JUMPDEST DUP3 PUSH2 0x1D9F JUMP JUMPDEST POP JUMP JUMPDEST PUSH2 0xC37 PUSH2 0x1DD3 JUMP JUMPDEST PUSH2 0xC40 DUP3 PUSH2 0x1E77 JUMP JUMPDEST PUSH2 0xA8D DUP3 DUP3 PUSH2 0x1E7F JUMP JUMPDEST PUSH0 PUSH2 0xC53 PUSH2 0x1F3B JUMP JUMPDEST POP PUSH0 DUP1 MLOAD PUSH1 0x20 PUSH2 0x2FDC DUP4 CODECOPY DUP2 MLOAD SWAP2 MSTORE SWAP1 JUMP JUMPDEST PUSH2 0xC6D PUSH2 0x17ED JUMP JUMPDEST PUSH1 0x1 DUP2 LT ISZERO PUSH2 0xCBE JUMPI PUSH1 0x40 MLOAD PUSH3 0x461BCD PUSH1 0xE5 SHL DUP2 MSTORE PUSH1 0x20 PUSH1 0x4 DUP3 ADD MSTORE PUSH1 0x1E PUSH1 0x24 DUP3 ADD MSTORE PUSH32 0x4D61782074782063616E74206265206C6F776572207468616E20302E31250000 PUSH1 0x44 DUP3 ADD MSTORE PUSH1 0x64 ADD PUSH2 0x7B6 JUMP JUMPDEST PUSH2 0x3E8 DUP2 PUSH2 0xCD7 PUSH0 DUP1 MLOAD PUSH1 0x20 PUSH2 0x2FBC DUP4 CODECOPY DUP2 MLOAD SWAP2 MSTORE SLOAD SWAP1 JUMP JUMPDEST PUSH2 0xCE1 SWAP2 SWAP1 PUSH2 0x2D23 JUMP JUMPDEST PUSH2 0xCEB SWAP2 SWAP1 PUSH2 0x2D3A JUMP JUMPDEST PUSH1 0xF DUP2 SWAP1 SSTORE PUSH1 0x40 MLOAD SWAP1 DUP2 MSTORE PUSH32 0x947F344D56E1E8C70DC492FB94C4DDDDD490C016AAB685F5E7E47B2E85CB44CF SWAP1 PUSH1 0x20 ADD JUMPDEST PUSH1 0x40 MLOAD DUP1 SWAP2 SUB SWAP1 LOG1 POP JUMP JUMPDEST PUSH2 0xD2F PUSH2 0x17ED JUMP JUMPDEST PUSH1 0x63 DUP3 GT ISZERO PUSH2 0xD78 JUMPI PUSH1 0x40 MLOAD PUSH3 0x461BCD PUSH1 0xE5 SHL DUP2 MSTORE PUSH1 0x20 PUSH1 0x4 DUP3 ADD MSTORE PUSH1 0x15 PUSH1 0x24 DUP3 ADD MSTORE PUSH21 0x496E76616C696420627579207461782076616C7565 PUSH1 0x58 SHL PUSH1 0x44 DUP3 ADD MSTORE PUSH1 0x64 ADD PUSH2 0x7B6 JUMP JUMPDEST PUSH1 0x63 DUP2 GT ISZERO PUSH2 0xDC2 JUMPI PUSH1 0x40 MLOAD PUSH3 0x461BCD PUSH1 0xE5 SHL DUP2 MSTORE PUSH1 0x20 PUSH1 0x4 DUP3 ADD MSTORE PUSH1 0x16 PUSH1 0x24 DUP3 ADD MSTORE PUSH22 0x496E76616C69642073656C6C207461782076616C7565 PUSH1 0x50 SHL PUSH1 0x44 DUP3 ADD MSTORE PUSH1 0x64 ADD PUSH2 0x7B6 JUMP JUMPDEST PUSH1 0xB DUP3 SWAP1 SSTORE PUSH1 0xC DUP2 SWAP1 SSTORE PUSH1 0x40 DUP1 MLOAD DUP4 DUP2 MSTORE PUSH1 0x20 DUP2 ADD DUP4 SWAP1 MSTORE PUSH32 0x5C6323BF1C2D7AAEA2C091A4751C1C87AF7F2864650C336507A77D0557AF37A1 SWAP2 ADD PUSH2 0x68D JUMP JUMPDEST PUSH2 0xE0A PUSH2 0x17ED JUMP JUMPDEST PUSH0 DUP1 MLOAD PUSH1 0x20 PUSH2 0x2FBC DUP4 CODECOPY DUP2 MLOAD SWAP2 MSTORE SLOAD PUSH1 0xF SSTORE PUSH0 DUP1 MLOAD PUSH1 0x20 PUSH2 0x2FBC DUP4 CODECOPY DUP2 MLOAD SWAP2 MSTORE SLOAD PUSH1 0x10 SSTORE PUSH32 0x947F344D56E1E8C70DC492FB94C4DDDDD490C016AAB685F5E7E47B2E85CB44CF PUSH2 0xE64 PUSH0 DUP1 MLOAD PUSH1 0x20 PUSH2 0x2FBC DUP4 CODECOPY DUP2 MLOAD SWAP2 MSTORE SLOAD SWAP1 JUMP JUMPDEST PUSH1 0x40 MLOAD SWAP1 DUP2 MSTORE PUSH1 0x20 ADD PUSH1 0x40 MLOAD DUP1 SWAP2 SUB SWAP1 LOG1 PUSH32 0x4B39C36D20C57D220F61FD25C4349D4435CC03EF6C2A680942F15333C3C3E001 PUSH2 0xEAB PUSH0 DUP1 MLOAD PUSH1 0x20 PUSH2 0x2FBC DUP4 CODECOPY DUP2 MLOAD SWAP2 MSTORE SLOAD SWAP1 JUMP JUMPDEST PUSH1 0x40 MLOAD SWAP1 DUP2 MSTORE PUSH1 0x20 ADD PUSH1 0x40 MLOAD DUP1 SWAP2 SUB SWAP1 LOG1 JUMP JUMPDEST PUSH1 0x1 PUSH1 0x1 PUSH1 0xA0 SHL SUB AND PUSH0 SWAP1 DUP2 MSTORE PUSH0 DUP1 MLOAD PUSH1 0x20 PUSH2 0x2F9C DUP4 CODECOPY DUP2 MLOAD SWAP2 MSTORE PUSH1 0x20 MSTORE PUSH1 0x40 SWAP1 KECCAK256 SLOAD SWAP1 JUMP JUMPDEST PUSH2 0xEEC PUSH2 0x17ED JUMP JUMPDEST PUSH2 0xEF5 PUSH0 PUSH2 0x1F84 JUMP JUMPDEST JUMP JUMPDEST PUSH32 0x9016D09D72D40FDAE2FD8CEAC6B6234C7706214FD39C1CD1E609A0528C199300 SLOAD PUSH1 0x1 PUSH1 0x1 PUSH1 0xA0 SHL SUB AND SWAP1 JUMP JUMPDEST PUSH2 0xF2D PUSH2 0xEF7 JUMP JUMPDEST PUSH1 0x1 PUSH1 0x1 PUSH1 0xA0 SHL SUB AND CALLER PUSH1 0x1 PUSH1 0x1 PUSH1 0xA0 SHL SUB AND EQ PUSH2 0xF86 JUMPI PUSH1 0x40 MLOAD PUSH3 0x461BCD PUSH1 0xE5 SHL DUP2 MSTORE PUSH1 0x20 PUSH1 0x4 DUP3 ADD MSTORE PUSH1 0x16 PUSH1 0x24 DUP3 ADD MSTORE PUSH22 0x27B7363C9037BBB732B91031B0B7103A3934B3B3B2B9 PUSH1 0x51 SHL PUSH1 0x44 DUP3 ADD MSTORE PUSH1 0x64 ADD PUSH2 0x7B6 JUMP JUMPDEST PUSH0 PUSH2 0xF90 ADDRESS PUSH2 0xEBE JUMP JUMPDEST SWAP1 POP PUSH2 0xF9B DUP2 PUSH2 0x1FF4 JUMP JUMPDEST SELFBALANCE DUP1 ISZERO PUSH2 0xA8D JUMPI PUSH2 0xA8D PUSH2 0x2183 JUMP JUMPDEST PUSH32 0x52C63247E1F47DB19D5CE0460030C497F067CA4CEBF71BA98EEADABE20BACE04 DUP1 SLOAD PUSH1 0x60 SWAP2 PUSH0 DUP1 MLOAD PUSH1 0x20 PUSH2 0x2F9C DUP4 CODECOPY DUP2 MLOAD SWAP2 MSTORE SWAP2 PUSH2 0x6D7 SWAP1 PUSH2 0x2D59 JUMP JUMPDEST PUSH2 0xFF0 PUSH2 0x17ED JUMP JUMPDEST PUSH1 0x15 SLOAD DUP2 PUSH1 0x17 SLOAD PUSH2 0x1001 SWAP2 SWAP1 PUSH2 0x2D9F JUMP JUMPDEST GT ISZERO PUSH2 0x1046 JUMPI PUSH1 0x40 MLOAD PUSH3 0x461BCD PUSH1 0xE5 SHL DUP2 MSTORE PUSH1 0x20 PUSH1 0x4 DUP3 ADD MSTORE PUSH1 0x14 PUSH1 0x24 DUP3 ADD MSTORE PUSH20 0x14DD5C1C1B1E48131A5B5A5D0814995858DA1959 PUSH1 0x62 SHL PUSH1 0x44 DUP3 ADD MSTORE PUSH1 0x64 ADD PUSH2 0x7B6 JUMP JUMPDEST PUSH2 0xC2C PUSH2 0x1051 PUSH2 0xEF7 JUMP JUMPDEST DUP3 PUSH2 0x2425 JUMP JUMPDEST PUSH0 CALLER PUSH2 0x7DB DUP2 DUP6 DUP6 PUSH2 0x188E JUMP JUMPDEST PUSH32 0xF0C57E16840DF040F15088DC2F81FE391C3923BEC73E23A9662EFC9C229C6A00 DUP1 SLOAD PUSH1 0x1 PUSH1 0x40 SHL DUP2 DIV PUSH1 0xFF AND ISZERO SWAP1 PUSH8 0xFFFFFFFFFFFFFFFF AND PUSH0 DUP2 ISZERO DUP1 ISZERO PUSH2 0x10A9 JUMPI POP DUP3 JUMPDEST SWAP1 POP PUSH0 DUP3 PUSH8 0xFFFFFFFFFFFFFFFF AND PUSH1 0x1 EQ DUP1 ISZERO PUSH2 0x10C5 JUMPI POP ADDRESS EXTCODESIZE ISZERO JUMPDEST SWAP1 POP DUP2 ISZERO DUP1 ISZERO PUSH2 0x10D3 JUMPI POP DUP1 ISZERO JUMPDEST ISZERO PUSH2 0x10F1 JUMPI PUSH1 0x40 MLOAD PUSH4 0xF92EE8A9 PUSH1 0xE0 SHL DUP2 MSTORE PUSH1 0x4 ADD PUSH1 0x40 MLOAD DUP1 SWAP2 SUB SWAP1 REVERT JUMPDEST DUP5 SLOAD PUSH8 0xFFFFFFFFFFFFFFFF NOT AND PUSH1 0x1 OR DUP6 SSTORE DUP4 ISZERO PUSH2 0x111B JUMPI DUP5 SLOAD PUSH1 0xFF PUSH1 0x40 SHL NOT AND PUSH1 0x1 PUSH1 0x40 SHL OR DUP6 SSTORE JUMPDEST PUSH2 0x115F PUSH1 0x40 MLOAD DUP1 PUSH1 0x40 ADD PUSH1 0x40 MSTORE DUP1 PUSH1 0x7 DUP2 MSTORE PUSH1 0x20 ADD PUSH7 0x26BCAA37B5B2B7 PUSH1 0xC9 SHL DUP2 MSTORE POP PUSH1 0x40 MLOAD DUP1 PUSH1 0x40 ADD PUSH1 0x40 MSTORE DUP1 PUSH1 0x3 DUP2 MSTORE PUSH1 0x20 ADD PUSH3 0x4D544B PUSH1 0xE8 SHL DUP2 MSTORE POP PUSH2 0x2459 JUMP JUMPDEST PUSH2 0x1168 DUP7 PUSH2 0x246B JUMP JUMPDEST PUSH2 0x1170 PUSH2 0x247C JUMP JUMPDEST PUSH14 0x4EE2D6D415B85ACEF8100000000 PUSH1 0x17 DUP2 SWAP1 SSTORE PUSH14 0x314DC6448D9338C15B0A00000000 PUSH1 0x15 SSTORE PUSH2 0x3E8 SWAP1 PUSH2 0x11A5 SWAP1 PUSH1 0xA PUSH2 0x2D23 JUMP JUMPDEST PUSH2 0x11AF SWAP2 SWAP1 PUSH2 0x2D3A JUMP JUMPDEST PUSH1 0xF SSTORE PUSH1 0x17 SLOAD PUSH2 0x3E8 SWAP1 PUSH2 0x11C4 SWAP1 PUSH1 0xA PUSH2 0x2D23 JUMP JUMPDEST PUSH2 0x11CE SWAP2 SWAP1 PUSH2 0x2D3A JUMP JUMPDEST PUSH1 0x10 SSTORE PUSH1 0x17 SLOAD PUSH2 0x2710 SWAP1 PUSH2 0x11E3 SWAP1 PUSH1 0x5 PUSH2 0x2D23 JUMP JUMPDEST PUSH2 0x11ED SWAP2 SWAP1 PUSH2 0x2D3A JUMP JUMPDEST PUSH1 0x11 SSTORE PUSH1 0x17 SLOAD PUSH2 0x2710 SWAP1 PUSH2 0x1203 SWAP1 PUSH2 0x190 PUSH2 0x2D23 JUMP JUMPDEST PUSH2 0x120D SWAP2 SWAP1 PUSH2 0x2D3A JUMP JUMPDEST PUSH1 0x12 SSTORE PUSH1 0xF PUSH1 0xB SSTORE PUSH1 0x28 PUSH1 0xC SSTORE PUSH1 0x1 PUSH1 0xD DUP2 SWAP1 SSTORE PUSH0 PUSH1 0xE DUP2 SWAP1 SSTORE ADDRESS DUP1 DUP3 MSTORE PUSH1 0x16 PUSH1 0x20 MSTORE PUSH1 0x40 SWAP1 SWAP2 KECCAK256 DUP1 SLOAD PUSH1 0xFF NOT AND SWAP1 SWAP3 OR SWAP1 SWAP2 SSTORE PUSH1 0x13 DUP1 SLOAD PUSH1 0x1 PUSH1 0x1 PUSH1 0xA0 SHL SUB NOT AND PUSH20 0x9AC64CC6E4415144C455BD8E4837FEA55603E5C3 SWAP1 DUP2 OR SWAP1 SWAP2 SSTORE PUSH2 0x1289 SWAP2 SWAP1 PUSH2 0x1284 PUSH0 DUP1 MLOAD PUSH1 0x20 PUSH2 0x2FBC DUP4 CODECOPY DUP2 MLOAD SWAP2 MSTORE SLOAD SWAP1 JUMP JUMPDEST PUSH2 0x181F JUMP JUMPDEST PUSH1 0x13 PUSH0 SWAP1 SLOAD SWAP1 PUSH2 0x100 EXP SWAP1 DIV PUSH1 0x1 PUSH1 0x1 PUSH1 0xA0 SHL SUB AND PUSH1 0x1 PUSH1 0x1 PUSH1 0xA0 SHL SUB AND PUSH4 0xC45A0155 PUSH1 0x40 MLOAD DUP2 PUSH4 0xFFFFFFFF AND PUSH1 0xE0 SHL DUP2 MSTORE PUSH1 0x4 ADD PUSH1 0x20 PUSH1 0x40 MLOAD DUP1 DUP4 SUB DUP2 DUP7 GAS STATICCALL ISZERO DUP1 ISZERO PUSH2 0x12D9 JUMPI RETURNDATASIZE PUSH0 DUP1 RETURNDATACOPY RETURNDATASIZE PUSH0 REVERT JUMPDEST POP POP POP POP PUSH1 0x40 MLOAD RETURNDATASIZE PUSH1 0x1F NOT PUSH1 0x1F DUP3 ADD AND DUP3 ADD DUP1 PUSH1 0x40 MSTORE POP DUP2 ADD SWAP1 PUSH2 0x12FD SWAP2 SWAP1 PUSH2 0x2DB2 JUMP JUMPDEST PUSH1 0x1 PUSH1 0x1 PUSH1 0xA0 SHL SUB AND PUSH4 0xC9C65396 ADDRESS PUSH1 0x13 PUSH0 SWAP1 SLOAD SWAP1 PUSH2 0x100 EXP SWAP1 DIV PUSH1 0x1 PUSH1 0x1 PUSH1 0xA0 SHL SUB AND PUSH1 0x1 PUSH1 0x1 PUSH1 0xA0 SHL SUB AND PUSH4 0xAD5C4648 PUSH1 0x40 MLOAD DUP2 PUSH4 0xFFFFFFFF AND PUSH1 0xE0 SHL DUP2 MSTORE PUSH1 0x4 ADD PUSH1 0x20 PUSH1 0x40 MLOAD DUP1 DUP4 SUB DUP2 DUP7 GAS STATICCALL ISZERO DUP1 ISZERO PUSH2 0x135C JUMPI RETURNDATASIZE PUSH0 DUP1 RETURNDATACOPY RETURNDATASIZE PUSH0 REVERT JUMPDEST POP POP POP POP PUSH1 0x40 MLOAD RETURNDATASIZE PUSH1 0x1F NOT PUSH1 0x1F DUP3 ADD AND DUP3 ADD DUP1 PUSH1 0x40 MSTORE POP DUP2 ADD SWAP1 PUSH2 0x1380 SWAP2 SWAP1 PUSH2 0x2DB2 JUMP JUMPDEST PUSH1 0x40 MLOAD PUSH1 0x1 PUSH1 0x1 PUSH1 0xE0 SHL SUB NOT PUSH1 0xE0 DUP6 SWAP1 SHL AND DUP2 MSTORE PUSH1 0x1 PUSH1 0x1 PUSH1 0xA0 SHL SUB SWAP3 DUP4 AND PUSH1 0x4 DUP3 ADD MSTORE SWAP2 AND PUSH1 0x24 DUP3 ADD MSTORE PUSH1 0x44 ADD PUSH1 0x20 PUSH1 0x40 MLOAD DUP1 DUP4 SUB DUP2 PUSH0 DUP8 GAS CALL ISZERO DUP1 ISZERO PUSH2 0x13CA JUMPI RETURNDATASIZE PUSH0 DUP1 RETURNDATACOPY RETURNDATASIZE PUSH0 REVERT JUMPDEST POP POP POP POP PUSH1 0x40 MLOAD RETURNDATASIZE PUSH1 0x1F NOT PUSH1 0x1F DUP3 ADD AND DUP3 ADD DUP1 PUSH1 0x40 MSTORE POP DUP2 ADD SWAP1 PUSH2 0x13EE SWAP2 SWAP1 PUSH2 0x2DB2 JUMP JUMPDEST PUSH1 0x14 DUP1 SLOAD PUSH1 0x1 PUSH1 0x1 PUSH1 0xA0 SHL SUB SWAP3 SWAP1 SWAP3 AND PUSH1 0x1 PUSH1 0x1 PUSH1 0xA0 SHL SUB NOT SWAP3 DUP4 AND OR SWAP1 SSTORE PUSH1 0x1 DUP1 SLOAD DUP3 AND PUSH20 0x2F8D1DDD0F3CCF0FE21C505A4EBC56F6F4626C0D SWAP1 DUP2 OR DUP3 SSTORE PUSH1 0x2 DUP1 SLOAD DUP5 AND DUP3 OR SWAP1 SSTORE PUSH1 0x3 DUP1 SLOAD DUP5 AND DUP3 OR SWAP1 SSTORE PUSH1 0x4 DUP1 SLOAD DUP5 AND DUP3 OR SWAP1 SSTORE PUSH1 0x5 DUP1 SLOAD DUP5 AND DUP3 OR SWAP1 SSTORE PUSH1 0x6 DUP1 SLOAD DUP5 AND DUP3 OR SWAP1 SSTORE PUSH1 0x7 DUP1 SLOAD DUP5 AND DUP3 OR SWAP1 SSTORE PUSH1 0x8 DUP1 SLOAD SWAP1 SWAP4 AND OR SWAP1 SWAP2 SSTORE PUSH0 DUP1 PUSH2 0x147E PUSH2 0xEF7 JUMP JUMPDEST PUSH1 0x1 PUSH1 0x1 PUSH1 0xA0 SHL SUB SWAP1 DUP2 AND DUP3 MSTORE PUSH1 0x20 DUP1 DUP4 ADD SWAP4 SWAP1 SWAP4 MSTORE PUSH1 0x40 SWAP2 DUP3 ADD PUSH0 SWAP1 DUP2 KECCAK256 DUP1 SLOAD SWAP6 ISZERO ISZERO PUSH1 0xFF NOT SWAP7 DUP8 AND OR SWAP1 SSTORE ADDRESS DUP2 MSTORE SWAP3 DUP4 SWAP1 MSTORE DUP2 DUP4 KECCAK256 DUP1 SLOAD DUP6 AND PUSH1 0x1 SWAP1 DUP2 OR SWAP1 SWAP2 SSTORE DUP1 SLOAD DUP3 AND DUP5 MSTORE DUP3 DUP5 KECCAK256 DUP1 SLOAD DUP7 AND DUP3 OR SWAP1 SSTORE PUSH1 0x2 SLOAD DUP3 AND DUP5 MSTORE DUP3 DUP5 KECCAK256 DUP1 SLOAD DUP7 AND DUP3 OR SWAP1 SSTORE PUSH1 0x3 SLOAD DUP3 AND DUP5 MSTORE DUP3 DUP5 KECCAK256 DUP1 SLOAD DUP7 AND DUP3 OR SWAP1 SSTORE PUSH1 0x4 SLOAD DUP3 AND DUP5 MSTORE DUP3 DUP5 KECCAK256 DUP1 SLOAD DUP7 AND DUP3 OR SWAP1 SSTORE PUSH1 0x5 SLOAD DUP3 AND DUP5 MSTORE DUP3 DUP5 KECCAK256 DUP1 SLOAD DUP7 AND DUP3 OR SWAP1 SSTORE PUSH1 0x6 SLOAD DUP3 AND DUP5 MSTORE DUP3 DUP5 KECCAK256 DUP1 SLOAD DUP7 AND DUP3 OR SWAP1 SSTORE PUSH1 0x7 SLOAD DUP3 AND DUP5 MSTORE DUP3 DUP5 KECCAK256 DUP1 SLOAD DUP7 AND DUP3 OR SWAP1 SSTORE PUSH1 0x8 SLOAD SWAP1 SWAP2 AND DUP4 MSTORE SWAP2 KECCAK256 DUP1 SLOAD SWAP1 SWAP3 AND OR SWAP1 SSTORE PUSH1 0x17 SLOAD PUSH2 0x155E SWAP1 CALLER SWAP1 PUSH2 0x2425 JUMP JUMPDEST DUP4 ISZERO PUSH2 0x15A4 JUMPI DUP5 SLOAD PUSH1 0xFF PUSH1 0x40 SHL NOT AND DUP6 SSTORE PUSH1 0x40 MLOAD PUSH1 0x1 DUP2 MSTORE PUSH32 0xC7F505B2F371AE2175EE4913F4499E1F2633A7B5936321EED1CDAEB6115181D2 SWAP1 PUSH1 0x20 ADD PUSH1 0x40 MLOAD DUP1 SWAP2 SUB SWAP1 LOG1 JUMPDEST POP POP POP POP POP POP JUMP JUMPDEST PUSH2 0x15B4 PUSH2 0x17ED JUMP JUMPDEST PUSH1 0x15 SSTORE JUMP JUMPDEST PUSH1 0x1 PUSH1 0x1 PUSH1 0xA0 SHL SUB SWAP2 DUP3 AND PUSH0 SWAP1 DUP2 MSTORE PUSH32 0x52C63247E1F47DB19D5CE0460030C497F067CA4CEBF71BA98EEADABE20BACE01 PUSH1 0x20 SWAP1 DUP2 MSTORE PUSH1 0x40 DUP1 DUP4 KECCAK256 SWAP4 SWAP1 SWAP5 AND DUP3 MSTORE SWAP2 SWAP1 SWAP2 MSTORE KECCAK256 SLOAD SWAP1 JUMP JUMPDEST PUSH2 0x160A PUSH2 0x17ED JUMP JUMPDEST PUSH1 0x1 DUP2 LT ISZERO PUSH2 0x1666 JUMPI PUSH1 0x40 MLOAD PUSH3 0x461BCD PUSH1 0xE5 SHL DUP2 MSTORE PUSH1 0x20 PUSH1 0x4 DUP3 ADD MSTORE PUSH1 0x22 PUSH1 0x24 DUP3 ADD MSTORE PUSH32 0x4D61782077616C6C65742063616E74206265206C6F776572207468616E20302E PUSH1 0x44 DUP3 ADD MSTORE PUSH2 0x3125 PUSH1 0xF0 SHL PUSH1 0x64 DUP3 ADD MSTORE PUSH1 0x84 ADD PUSH2 0x7B6 JUMP JUMPDEST PUSH2 0x3E8 DUP2 PUSH2 0x167F PUSH0 DUP1 MLOAD PUSH1 0x20 PUSH2 0x2FBC DUP4 CODECOPY DUP2 MLOAD SWAP2 MSTORE SLOAD SWAP1 JUMP JUMPDEST PUSH2 0x1689 SWAP2 SWAP1 PUSH2 0x2D23 JUMP JUMPDEST PUSH2 0x1693 SWAP2 SWAP1 PUSH2 0x2D3A JUMP JUMPDEST PUSH1 0x10 DUP2 SWAP1 SSTORE PUSH1 0x40 MLOAD SWAP1 DUP2 MSTORE PUSH32 0x4B39C36D20C57D220F61FD25C4349D4435CC03EF6C2A680942F15333C3C3E001 SWAP1 PUSH1 0x20 ADD PUSH2 0xD1C JUMP JUMPDEST PUSH2 0x16D0 PUSH2 0x17ED JUMP JUMPDEST PUSH1 0x1 PUSH1 0x1 PUSH1 0xA0 SHL SUB DUP2 AND PUSH2 0x16F9 JUMPI PUSH1 0x40 MLOAD PUSH4 0x1E4FBDF7 PUSH1 0xE0 SHL DUP2 MSTORE PUSH0 PUSH1 0x4 DUP3 ADD MSTORE PUSH1 0x24 ADD PUSH2 0x7B6 JUMP JUMPDEST PUSH2 0xC2C DUP2 PUSH2 0x1F84 JUMP JUMPDEST PUSH2 0x170A PUSH2 0x17ED JUMP JUMPDEST PUSH1 0x14 SLOAD PUSH1 0x1 PUSH1 0xA0 SHL SWAP1 DIV PUSH1 0xFF AND ISZERO PUSH2 0x1764 JUMPI PUSH1 0x40 MLOAD PUSH3 0x461BCD PUSH1 0xE5 SHL DUP2 MSTORE PUSH1 0x20 PUSH1 0x4 DUP3 ADD MSTORE PUSH1 0x17 PUSH1 0x24 DUP3 ADD MSTORE PUSH32 0x74726164696E6720697320616C7265616479206F70656E000000000000000000 PUSH1 0x44 DUP3 ADD MSTORE PUSH1 0x64 ADD PUSH2 0x7B6 JUMP JUMPDEST PUSH1 0x14 DUP1 SLOAD PUSH3 0xFF00FF PUSH1 0xA0 SHL NOT AND PUSH3 0x10001 PUSH1 0xA0 SHL OR SWAP1 SSTORE NUMBER PUSH1 0x9 DUP2 SWAP1 SSTORE PUSH1 0xA DUP1 SLOAD PUSH8 0xFFFFFFFFFFFFFFFF NOT AND PUSH8 0xFFFFFFFFFFFFFFFF SWAP1 SWAP3 AND SWAP2 SWAP1 SWAP2 OR SWAP1 SSTORE ADDRESS PUSH0 SWAP1 DUP2 MSTORE PUSH1 0x20 DUP2 SWAP1 MSTORE PUSH1 0x40 DUP1 DUP3 KECCAK256 DUP1 SLOAD PUSH1 0xFF NOT AND PUSH1 0x1 OR SWAP1 SSTORE PUSH1 0x19 PUSH1 0xB SSTORE PUSH1 0x28 PUSH1 0xC SSTORE MLOAD PUSH32 0xEA4359D5C4B8F0945A64AB9C37FE830B3407D45E0E6E6F84275977A570457D6F SWAP2 SWAP1 LOG1 JUMP JUMPDEST CALLER PUSH2 0x17F6 PUSH2 0xEF7 JUMP JUMPDEST PUSH1 0x1 PUSH1 0x1 PUSH1 0xA0 SHL SUB AND EQ PUSH2 0xEF5 JUMPI PUSH1 0x40 MLOAD PUSH4 0x118CDAA7 PUSH1 0xE0 SHL DUP2 MSTORE CALLER PUSH1 0x4 DUP3 ADD MSTORE PUSH1 0x24 ADD PUSH2 0x7B6 JUMP JUMPDEST PUSH2 0x182C DUP4 DUP4 DUP4 PUSH1 0x1 PUSH2 0x2484 JUMP JUMPDEST POP POP POP JUMP JUMPDEST PUSH0 PUSH2 0x183C DUP5 DUP5 PUSH2 0x15B9 JUMP JUMPDEST SWAP1 POP PUSH0 NOT DUP2 EQ PUSH2 0x853 JUMPI DUP2 DUP2 LT ISZERO PUSH2 0x1880 JUMPI PUSH1 0x40 MLOAD PUSH4 0x7DC7A0D9 PUSH1 0xE1 SHL DUP2 MSTORE PUSH1 0x1 PUSH1 0x1 PUSH1 0xA0 SHL SUB DUP5 AND PUSH1 0x4 DUP3 ADD MSTORE PUSH1 0x24 DUP2 ADD DUP3 SWAP1 MSTORE PUSH1 0x44 DUP2 ADD DUP4 SWAP1 MSTORE PUSH1 0x64 ADD PUSH2 0x7B6 JUMP JUMPDEST PUSH2 0x853 DUP5 DUP5 DUP5 DUP5 SUB PUSH0 PUSH2 0x2484 JUMP JUMPDEST PUSH1 0x1 PUSH1 0x1 PUSH1 0xA0 SHL SUB DUP4 AND PUSH2 0x18F2 JUMPI PUSH1 0x40 MLOAD PUSH3 0x461BCD PUSH1 0xE5 SHL DUP2 MSTORE PUSH1 0x20 PUSH1 0x4 DUP3 ADD MSTORE PUSH1 0x25 PUSH1 0x24 DUP3 ADD MSTORE PUSH32 0x45524332303A207472616E736665722066726F6D20746865207A65726F206164 PUSH1 0x44 DUP3 ADD MSTORE PUSH5 0x6472657373 PUSH1 0xD8 SHL PUSH1 0x64 DUP3 ADD MSTORE PUSH1 0x84 ADD PUSH2 0x7B6 JUMP JUMPDEST PUSH1 0x1 PUSH1 0x1 PUSH1 0xA0 SHL SUB DUP3 AND PUSH2 0x1954 JUMPI PUSH1 0x40 MLOAD PUSH3 0x461BCD PUSH1 0xE5 SHL DUP2 MSTORE PUSH1 0x20 PUSH1 0x4 DUP3 ADD MSTORE PUSH1 0x23 PUSH1 0x24 DUP3 ADD MSTORE PUSH32 0x45524332303A207472616E7366657220746F20746865207A65726F2061646472 PUSH1 0x44 DUP3 ADD MSTORE PUSH3 0x657373 PUSH1 0xE8 SHL PUSH1 0x64 DUP3 ADD MSTORE PUSH1 0x84 ADD PUSH2 0x7B6 JUMP JUMPDEST PUSH0 DUP2 GT PUSH2 0x19B5 JUMPI PUSH1 0x40 MLOAD PUSH3 0x461BCD PUSH1 0xE5 SHL DUP2 MSTORE PUSH1 0x20 PUSH1 0x4 DUP3 ADD MSTORE PUSH1 0x29 PUSH1 0x24 DUP3 ADD MSTORE PUSH32 0x5472616E7366657220616D6F756E74206D757374206265206772656174657220 PUSH1 0x44 DUP3 ADD MSTORE PUSH9 0x7468616E207A65726F PUSH1 0xB8 SHL PUSH1 0x64 DUP3 ADD MSTORE PUSH1 0x84 ADD PUSH2 0x7B6 JUMP JUMPDEST PUSH0 PUSH2 0x19BE PUSH2 0xEF7 JUMP JUMPDEST PUSH1 0x1 PUSH1 0x1 PUSH1 0xA0 SHL SUB AND DUP5 PUSH1 0x1 PUSH1 0x1 PUSH1 0xA0 SHL SUB AND EQ ISZERO DUP1 ISZERO PUSH2 0x19F8 JUMPI POP PUSH2 0x19E2 PUSH2 0xEF7 JUMP JUMPDEST PUSH1 0x1 PUSH1 0x1 PUSH1 0xA0 SHL SUB AND DUP4 PUSH1 0x1 PUSH1 0x1 PUSH1 0xA0 SHL SUB AND EQ ISZERO JUMPDEST DUP1 ISZERO PUSH2 0x1A0E JUMPI POP PUSH1 0x14 SLOAD PUSH1 0x1 PUSH1 0xA8 SHL SWAP1 DIV PUSH1 0xFF AND ISZERO JUMPDEST ISZERO PUSH2 0x1D7A JUMPI PUSH1 0x14 SLOAD PUSH1 0x1 PUSH1 0xB8 SHL SWAP1 DIV PUSH1 0xFF AND ISZERO PUSH2 0x1A87 JUMPI PUSH1 0x1 PUSH1 0x1 PUSH1 0xA0 SHL SUB DUP5 AND PUSH0 SWAP1 DUP2 MSTORE PUSH1 0x16 PUSH1 0x20 MSTORE PUSH1 0x40 SWAP1 KECCAK256 SLOAD PUSH1 0xFF AND DUP1 PUSH2 0x1A62 JUMPI POP PUSH1 0x1 PUSH1 0x1 PUSH1 0xA0 SHL SUB DUP4 AND PUSH0 SWAP1 DUP2 MSTORE PUSH1 0x16 PUSH1 0x20 MSTORE PUSH1 0x40 SWAP1 KECCAK256 SLOAD PUSH1 0xFF AND JUMPDEST PUSH2 0x1A87 JUMPI PUSH1 0x40 MLOAD PUSH3 0x461BCD PUSH1 0xE5 SHL DUP2 MSTORE PUSH1 0x20 PUSH1 0x4 DUP3 ADD MSTORE PUSH0 PUSH1 0x24 DUP3 ADD MSTORE PUSH1 0x44 ADD PUSH2 0x7B6 JUMP JUMPDEST PUSH1 0x64 PUSH1 0xB SLOAD DUP4 PUSH2 0x1A97 SWAP2 SWAP1 PUSH2 0x2D23 JUMP JUMPDEST PUSH2 0x1AA1 SWAP2 SWAP1 PUSH2 0x2D3A JUMP JUMPDEST PUSH1 0x14 SLOAD SWAP1 SWAP2 POP PUSH1 0x1 PUSH1 0x1 PUSH1 0xA0 SHL SUB DUP6 DUP2 AND SWAP2 AND EQ DUP1 ISZERO PUSH2 0x1ACF JUMPI POP PUSH1 0x13 SLOAD PUSH1 0x1 PUSH1 0x1 PUSH1 0xA0 SHL SUB DUP5 DUP2 AND SWAP2 AND EQ ISZERO JUMPDEST DUP1 ISZERO PUSH2 0x1AF3 JUMPI POP PUSH1 0x1 PUSH1 0x1 PUSH1 0xA0 SHL SUB DUP4 AND PUSH0 SWAP1 DUP2 MSTORE PUSH1 0x20 DUP2 SWAP1 MSTORE PUSH1 0x40 SWAP1 KECCAK256 SLOAD PUSH1 0xFF AND ISZERO JUMPDEST ISZERO PUSH2 0x1BE5 JUMPI PUSH1 0xF SLOAD DUP3 GT ISZERO PUSH2 0x1B4A JUMPI PUSH1 0x40 MLOAD PUSH3 0x461BCD PUSH1 0xE5 SHL DUP2 MSTORE PUSH1 0x20 PUSH1 0x4 DUP3 ADD MSTORE PUSH1 0x1B PUSH1 0x24 DUP3 ADD MSTORE PUSH32 0x4578636565647320746865205F7478416D6F756E744C696D69742E0000000000 PUSH1 0x44 DUP3 ADD MSTORE PUSH1 0x64 ADD PUSH2 0x7B6 JUMP JUMPDEST PUSH1 0x10 SLOAD DUP3 PUSH2 0x1B57 DUP6 PUSH2 0xEBE JUMP JUMPDEST PUSH2 0x1B61 SWAP2 SWAP1 PUSH2 0x2D9F JUMP JUMPDEST GT ISZERO PUSH2 0x1BAF JUMPI PUSH1 0x40 MLOAD PUSH3 0x461BCD PUSH1 0xE5 SHL DUP2 MSTORE PUSH1 0x20 PUSH1 0x4 DUP3 ADD MSTORE PUSH1 0x1A PUSH1 0x24 DUP3 ADD MSTORE PUSH32 0x4578636565647320746865206D617857616C6C657453697A652E000000000000 PUSH1 0x44 DUP3 ADD MSTORE PUSH1 0x64 ADD PUSH2 0x7B6 JUMP JUMPDEST NUMBER PUSH1 0x9 SLOAD PUSH1 0x3 PUSH2 0x1BBF SWAP2 SWAP1 PUSH2 0x2D9F JUMP JUMPDEST GT ISZERO PUSH2 0x1BD0 JUMPI DUP3 EXTCODESIZE ISZERO PUSH2 0x1BD0 JUMPI PUSH0 DUP1 REVERT JUMPDEST PUSH1 0xE DUP1 SLOAD SWAP1 PUSH0 PUSH2 0x1BDF DUP4 PUSH2 0x2DCD JUMP JUMPDEST SWAP2 SWAP1 POP SSTORE POP JUMPDEST PUSH1 0x14 SLOAD PUSH1 0x1 PUSH1 0x1 PUSH1 0xA0 SHL SUB DUP5 DUP2 AND SWAP2 AND EQ DUP1 ISZERO SWAP1 PUSH2 0x1C1B JUMPI POP PUSH1 0x1 PUSH1 0x1 PUSH1 0xA0 SHL SUB DUP4 AND PUSH0 SWAP1 DUP2 MSTORE PUSH1 0x20 DUP2 SWAP1 MSTORE PUSH1 0x40 SWAP1 KECCAK256 SLOAD PUSH1 0xFF AND ISZERO JUMPDEST ISZERO PUSH2 0x1C85 JUMPI PUSH1 0x10 SLOAD DUP3 PUSH2 0x1C2D DUP6 PUSH2 0xEBE JUMP JUMPDEST PUSH2 0x1C37 SWAP2 SWAP1 PUSH2 0x2D9F JUMP JUMPDEST GT ISZERO PUSH2 0x1C85 JUMPI PUSH1 0x40 MLOAD PUSH3 0x461BCD PUSH1 0xE5 SHL DUP2 MSTORE PUSH1 0x20 PUSH1 0x4 DUP3 ADD MSTORE PUSH1 0x1A PUSH1 0x24 DUP3 ADD MSTORE PUSH32 0x4578636565647320746865206D617857616C6C657453697A652E000000000000 PUSH1 0x44 DUP3 ADD MSTORE PUSH1 0x64 ADD PUSH2 0x7B6 JUMP JUMPDEST PUSH1 0x14 SLOAD PUSH1 0x1 PUSH1 0x1 PUSH1 0xA0 SHL SUB DUP5 DUP2 AND SWAP2 AND EQ DUP1 ISZERO PUSH2 0x1CAB JUMPI POP PUSH1 0x1 PUSH1 0x1 PUSH1 0xA0 SHL SUB DUP5 AND ADDRESS EQ ISZERO JUMPDEST ISZERO PUSH2 0x1CCD JUMPI PUSH1 0x64 PUSH1 0xC SLOAD DUP4 PUSH2 0x1CC0 SWAP2 SWAP1 PUSH2 0x2D23 JUMP JUMPDEST PUSH2 0x1CCA SWAP2 SWAP1 PUSH2 0x2D3A JUMP JUMPDEST SWAP1 POP JUMPDEST PUSH0 PUSH2 0x1CD7 ADDRESS PUSH2 0xEBE JUMP JUMPDEST PUSH1 0x14 SLOAD SWAP1 SWAP2 POP PUSH1 0x1 PUSH1 0xA8 SHL SWAP1 DIV PUSH1 0xFF AND ISZERO DUP1 ISZERO PUSH2 0x1D01 JUMPI POP PUSH1 0x14 SLOAD PUSH1 0x1 PUSH1 0x1 PUSH1 0xA0 SHL SUB DUP6 DUP2 AND SWAP2 AND EQ JUMPDEST DUP1 ISZERO PUSH2 0x1D16 JUMPI POP PUSH1 0x14 SLOAD PUSH1 0x1 PUSH1 0xB0 SHL SWAP1 DIV PUSH1 0xFF AND JUMPDEST DUP1 ISZERO PUSH2 0x1D23 JUMPI POP PUSH1 0x11 SLOAD DUP2 GT JUMPDEST DUP1 ISZERO PUSH2 0x1D32 JUMPI POP PUSH1 0xD SLOAD PUSH1 0xE SLOAD GT JUMPDEST DUP1 ISZERO PUSH2 0x1D4E JUMPI POP PUSH1 0xA SLOAD NUMBER PUSH8 0xFFFFFFFFFFFFFFFF SWAP1 DUP2 AND SWAP2 AND EQ ISZERO JUMPDEST ISZERO PUSH2 0x1D78 JUMPI PUSH2 0x1D67 PUSH2 0x1D62 DUP3 PUSH1 0x12 SLOAD PUSH2 0x2567 JUMP JUMPDEST PUSH2 0x1FF4 JUMP JUMPDEST SELFBALANCE DUP1 ISZERO PUSH2 0x1D76 JUMPI PUSH2 0x1D76 PUSH2 0x2183 JUMP JUMPDEST POP JUMPDEST POP JUMPDEST DUP1 ISZERO PUSH2 0x1D8B JUMPI PUSH2 0x1D8B DUP5 ADDRESS DUP4 PUSH2 0x257B JUMP JUMPDEST PUSH2 0x853 DUP5 DUP5 PUSH2 0x1D9A DUP5 DUP7 PUSH2 0x2DE5 JUMP JUMPDEST PUSH2 0x257B JUMP JUMPDEST PUSH1 0x1 PUSH1 0x1 PUSH1 0xA0 SHL SUB DUP3 AND PUSH2 0x1DC8 JUMPI PUSH1 0x40 MLOAD PUSH4 0x4B637E8F PUSH1 0xE1 SHL DUP2 MSTORE PUSH0 PUSH1 0x4 DUP3 ADD MSTORE PUSH1 0x24 ADD PUSH2 0x7B6 JUMP JUMPDEST PUSH2 0xA8D DUP3 PUSH0 DUP4 PUSH2 0x25D4 JUMP JUMPDEST ADDRESS PUSH1 0x1 PUSH1 0x1 PUSH1 0xA0 SHL SUB PUSH32 0x0 AND EQ DUP1 PUSH2 0x1E59 JUMPI POP PUSH32 0x0 PUSH1 0x1 PUSH1 0x1 PUSH1 0xA0 SHL SUB AND PUSH2 0x1E4D PUSH0 DUP1 MLOAD PUSH1 0x20 PUSH2 0x2FDC DUP4 CODECOPY DUP2 MLOAD SWAP2 MSTORE SLOAD PUSH1 0x1 PUSH1 0x1 PUSH1 0xA0 SHL SUB AND SWAP1 JUMP JUMPDEST PUSH1 0x1 PUSH1 0x1 PUSH1 0xA0 SHL SUB AND EQ ISZERO JUMPDEST ISZERO PUSH2 0xEF5 JUMPI PUSH1 0x40 MLOAD PUSH4 0x703E46DD PUSH1 0xE1 SHL DUP2 MSTORE PUSH1 0x4 ADD PUSH1 0x40 MLOAD DUP1 SWAP2 SUB SWAP1 REVERT JUMPDEST PUSH2 0xC2C PUSH2 0x17ED JUMP JUMPDEST DUP2 PUSH1 0x1 PUSH1 0x1 PUSH1 0xA0 SHL SUB AND PUSH4 0x52D1902D PUSH1 0x40 MLOAD DUP2 PUSH4 0xFFFFFFFF AND PUSH1 0xE0 SHL DUP2 MSTORE PUSH1 0x4 ADD PUSH1 0x20 PUSH1 0x40 MLOAD DUP1 DUP4 SUB DUP2 DUP7 GAS STATICCALL SWAP3 POP POP POP DUP1 ISZERO PUSH2 0x1ED9 JUMPI POP PUSH1 0x40 DUP1 MLOAD PUSH1 0x1F RETURNDATASIZE SWAP1 DUP2 ADD PUSH1 0x1F NOT AND DUP3 ADD SWAP1 SWAP3 MSTORE PUSH2 0x1ED6 SWAP2 DUP2 ADD SWAP1 PUSH2 0x2DF8 JUMP JUMPDEST PUSH1 0x1 JUMPDEST PUSH2 0x1F01 JUMPI PUSH1 0x40 MLOAD PUSH4 0x4C9C8CE3 PUSH1 0xE0 SHL DUP2 MSTORE PUSH1 0x1 PUSH1 0x1 PUSH1 0xA0 SHL SUB DUP4 AND PUSH1 0x4 DUP3 ADD MSTORE PUSH1 0x24 ADD PUSH2 0x7B6 JUMP JUMPDEST PUSH0 DUP1 MLOAD PUSH1 0x20 PUSH2 0x2FDC DUP4 CODECOPY DUP2 MLOAD SWAP2 MSTORE DUP2 EQ PUSH2 0x1F31 JUMPI PUSH1 0x40 MLOAD PUSH4 0x2A875269 PUSH1 0xE2 SHL DUP2 MSTORE PUSH1 0x4 DUP2 ADD DUP3 SWAP1 MSTORE PUSH1 0x24 ADD PUSH2 0x7B6 JUMP JUMPDEST PUSH2 0x182C DUP4 DUP4 PUSH2 0x270D JUMP JUMPDEST ADDRESS PUSH1 0x1 PUSH1 0x1 PUSH1 0xA0 SHL SUB PUSH32 0x0 AND EQ PUSH2 0xEF5 JUMPI PUSH1 0x40 MLOAD PUSH4 0x703E46DD PUSH1 0xE1 SHL DUP2 MSTORE PUSH1 0x4 ADD PUSH1 0x40 MLOAD DUP1 SWAP2 SUB SWAP1 REVERT JUMPDEST PUSH32 0x9016D09D72D40FDAE2FD8CEAC6B6234C7706214FD39C1CD1E609A0528C199300 DUP1 SLOAD PUSH1 0x1 PUSH1 0x1 PUSH1 0xA0 SHL SUB NOT DUP2 AND PUSH1 0x1 PUSH1 0x1 PUSH1 0xA0 SHL SUB DUP5 DUP2 AND SWAP2 DUP3 OR DUP5 SSTORE PUSH1 0x40 MLOAD SWAP3 AND SWAP2 DUP3 SWAP1 PUSH32 0x8BE0079C531659141344CD1FD0A4F28419497F9722A3DAAFE3B4186F6B6457E0 SWAP1 PUSH0 SWAP1 LOG3 POP POP POP JUMP JUMPDEST PUSH1 0x14 DUP1 SLOAD PUSH1 0xFF PUSH1 0xA8 SHL NOT AND PUSH1 0x1 PUSH1 0xA8 SHL OR SWAP1 SSTORE PUSH1 0xA DUP1 SLOAD PUSH8 0xFFFFFFFFFFFFFFFF NUMBER AND PUSH8 0xFFFFFFFFFFFFFFFF NOT SWAP1 SWAP2 AND OR SWAP1 SSTORE PUSH1 0x40 DUP1 MLOAD PUSH1 0x2 DUP1 DUP3 MSTORE PUSH1 0x60 DUP3 ADD DUP4 MSTORE PUSH0 SWAP3 PUSH1 0x20 DUP4 ADD SWAP1 DUP1 CALLDATASIZE DUP4 CALLDATACOPY ADD SWAP1 POP POP SWAP1 POP ADDRESS DUP2 PUSH0 DUP2 MLOAD DUP2 LT PUSH2 0x2059 JUMPI PUSH2 0x2059 PUSH2 0x2D8B JUMP JUMPDEST PUSH1 0x1 PUSH1 0x1 PUSH1 0xA0 SHL SUB SWAP3 DUP4 AND PUSH1 0x20 SWAP2 DUP3 MUL SWAP3 SWAP1 SWAP3 ADD DUP2 ADD SWAP2 SWAP1 SWAP2 MSTORE PUSH1 0x13 SLOAD PUSH1 0x40 DUP1 MLOAD PUSH4 0x15AB88C9 PUSH1 0xE3 SHL DUP2 MSTORE SWAP1 MLOAD SWAP2 SWAP1 SWAP4 AND SWAP3 PUSH4 0xAD5C4648 SWAP3 PUSH1 0x4 DUP1 DUP4 ADD SWAP4 SWAP2 SWAP3 DUP3 SWAP1 SUB ADD DUP2 DUP7 GAS STATICCALL ISZERO DUP1 ISZERO PUSH2 0x20B0 JUMPI RETURNDATASIZE PUSH0 DUP1 RETURNDATACOPY RETURNDATASIZE PUSH0 REVERT JUMPDEST POP POP POP POP PUSH1 0x40 MLOAD RETURNDATASIZE PUSH1 0x1F NOT PUSH1 0x1F DUP3 ADD AND DUP3 ADD DUP1 PUSH1 0x40 MSTORE POP DUP2 ADD SWAP1 PUSH2 0x20D4 SWAP2 SWAP1 PUSH2 0x2DB2 JUMP JUMPDEST DUP2 PUSH1 0x1 DUP2 MLOAD DUP2 LT PUSH2 0x20E7 JUMPI PUSH2 0x20E7 PUSH2 0x2D8B JUMP JUMPDEST PUSH1 0x1 PUSH1 0x1 PUSH1 0xA0 SHL SUB SWAP3 DUP4 AND PUSH1 0x20 SWAP2 DUP3 MUL SWAP3 SWAP1 SWAP3 ADD ADD MSTORE PUSH1 0x13 SLOAD PUSH2 0x210D SWAP2 ADDRESS SWAP2 AND DUP5 PUSH2 0x181F JUMP JUMPDEST PUSH1 0x13 SLOAD PUSH1 0x40 MLOAD PUSH4 0x791AC947 PUSH1 0xE0 SHL DUP2 MSTORE PUSH1 0x1 PUSH1 0x1 PUSH1 0xA0 SHL SUB SWAP1 SWAP2 AND SWAP1 PUSH4 0x791AC947 SWAP1 PUSH2 0x2145 SWAP1 DUP6 SWAP1 PUSH0 SWAP1 DUP7 SWAP1 ADDRESS SWAP1 TIMESTAMP SWAP1 PUSH1 0x4 ADD PUSH2 0x2E0F JUMP JUMPDEST PUSH0 PUSH1 0x40 MLOAD DUP1 DUP4 SUB DUP2 PUSH0 DUP8 DUP1 EXTCODESIZE ISZERO DUP1 ISZERO PUSH2 0x215C JUMPI PUSH0 DUP1 REVERT JUMPDEST POP GAS CALL ISZERO DUP1 ISZERO PUSH2 0x216E JUMPI RETURNDATASIZE PUSH0 DUP1 RETURNDATACOPY RETURNDATASIZE PUSH0 REVERT JUMPDEST POP POP PUSH1 0x14 DUP1 SLOAD PUSH1 0xFF PUSH1 0xA8 SHL NOT AND SWAP1 SSTORE POP POP POP POP JUMP JUMPDEST PUSH0 DUP1 PUSH2 0x2190 PUSH1 0x8 SELFBALANCE PUSH2 0x2D3A JUMP JUMPDEST PUSH1 0x1 SLOAD PUSH1 0x40 MLOAD SWAP2 SWAP3 POP PUSH1 0x1 PUSH1 0x1 PUSH1 0xA0 SHL SUB AND SWAP1 DUP3 SWAP1 PUSH0 DUP2 DUP2 DUP2 DUP6 DUP8 GAS CALL SWAP3 POP POP POP RETURNDATASIZE DUP1 PUSH0 DUP2 EQ PUSH2 0x21DB JUMPI PUSH1 0x40 MLOAD SWAP2 POP PUSH1 0x1F NOT PUSH1 0x3F RETURNDATASIZE ADD AND DUP3 ADD PUSH1 0x40 MSTORE RETURNDATASIZE DUP3 MSTORE RETURNDATASIZE PUSH0 PUSH1 0x20 DUP5 ADD RETURNDATACOPY PUSH2 0x21E0 JUMP JUMPDEST PUSH1 0x60 SWAP2 POP JUMPDEST POP POP PUSH1 0x2 SLOAD PUSH1 0x40 MLOAD SWAP2 SWAP4 POP PUSH1 0x1 PUSH1 0x1 PUSH1 0xA0 SHL SUB AND SWAP1 DUP3 SWAP1 PUSH0 DUP2 DUP2 DUP2 DUP6 DUP8 GAS CALL SWAP3 POP POP POP RETURNDATASIZE DUP1 PUSH0 DUP2 EQ PUSH2 0x222D JUMPI PUSH1 0x40 MLOAD SWAP2 POP PUSH1 0x1F NOT PUSH1 0x3F RETURNDATASIZE ADD AND DUP3 ADD PUSH1 0x40 MSTORE RETURNDATASIZE DUP3 MSTORE RETURNDATASIZE PUSH0 PUSH1 0x20 DUP5 ADD RETURNDATACOPY PUSH2 0x2232 JUMP JUMPDEST PUSH1 0x60 SWAP2 POP JUMPDEST POP POP PUSH1 0x3 SLOAD PUSH1 0x40 MLOAD SWAP2 SWAP4 POP PUSH1 0x1 PUSH1 0x1 PUSH1 0xA0 SHL SUB AND SWAP1 DUP3 SWAP1 PUSH0 DUP2 DUP2 DUP2 DUP6 DUP8 GAS CALL SWAP3 POP POP POP RETURNDATASIZE DUP1 PUSH0 DUP2 EQ PUSH2 0x227F JUMPI PUSH1 0x40 MLOAD SWAP2 POP PUSH1 0x1F NOT PUSH1 0x3F RETURNDATASIZE ADD AND DUP3 ADD PUSH1 0x40 MSTORE RETURNDATASIZE DUP3 MSTORE RETURNDATASIZE PUSH0 PUSH1 0x20 DUP5 ADD RETURNDATACOPY PUSH2 0x2284 JUMP JUMPDEST PUSH1 0x60 SWAP2 POP JUMPDEST POP POP PUSH1 0x4 SLOAD PUSH1 0x40 MLOAD SWAP2 SWAP4 POP PUSH1 0x1 PUSH1 0x1 PUSH1 0xA0 SHL SUB AND SWAP1 DUP3 SWAP1 PUSH0 DUP2 DUP2 DUP2 DUP6 DUP8 GAS CALL SWAP3 POP POP POP RETURNDATASIZE DUP1 PUSH0 DUP2 EQ PUSH2 0x22D1 JUMPI PUSH1 0x40 MLOAD SWAP2 POP PUSH1 0x1F NOT PUSH1 0x3F RETURNDATASIZE ADD AND DUP3 ADD PUSH1 0x40 MSTORE RETURNDATASIZE DUP3 MSTORE RETURNDATASIZE PUSH0 PUSH1 0x20 DUP5 ADD RETURNDATACOPY PUSH2 0x22D6 JUMP JUMPDEST PUSH1 0x60 SWAP2 POP JUMPDEST POP POP PUSH1 0x5 SLOAD PUSH1 0x40 MLOAD SWAP2 SWAP4 POP PUSH1 0x1 PUSH1 0x1 PUSH1 0xA0 SHL SUB AND SWAP1 DUP3 SWAP1 PUSH0 DUP2 DUP2 DUP2 DUP6 DUP8 GAS CALL SWAP3 POP POP POP RETURNDATASIZE DUP1 PUSH0 DUP2 EQ PUSH2 0x2323 JUMPI PUSH1 0x40 MLOAD SWAP2 POP PUSH1 0x1F NOT PUSH1 0x3F RETURNDATASIZE ADD AND DUP3 ADD PUSH1 0x40 MSTORE RETURNDATASIZE DUP3 MSTORE RETURNDATASIZE PUSH0 PUSH1 0x20 DUP5 ADD RETURNDATACOPY PUSH2 0x2328 JUMP JUMPDEST PUSH1 0x60 SWAP2 POP JUMPDEST POP POP PUSH1 0x6 SLOAD PUSH1 0x40 MLOAD SWAP2 SWAP4 POP PUSH1 0x1 PUSH1 0x1 PUSH1 0xA0 SHL SUB AND SWAP1 DUP3 SWAP1 PUSH0 DUP2 DUP2 DUP2 DUP6 DUP8 GAS CALL SWAP3 POP POP POP RETURNDATASIZE DUP1 PUSH0 DUP2 EQ PUSH2 0x2375 JUMPI PUSH1 0x40 MLOAD SWAP2 POP PUSH1 0x1F NOT PUSH1 0x3F RETURNDATASIZE ADD AND DUP3 ADD PUSH1 0x40 MSTORE RETURNDATASIZE DUP3 MSTORE RETURNDATASIZE PUSH0 PUSH1 0x20 DUP5 ADD RETURNDATACOPY PUSH2 0x237A JUMP JUMPDEST PUSH1 0x60 SWAP2 POP JUMPDEST POP POP PUSH1 0x7 SLOAD PUSH1 0x40 MLOAD SWAP2 SWAP4 POP PUSH1 0x1 PUSH1 0x1 PUSH1 0xA0 SHL SUB AND SWAP1 DUP3 SWAP1 PUSH0 DUP2 DUP2 DUP2 DUP6 DUP8 GAS CALL SWAP3 POP POP POP RETURNDATASIZE DUP1 PUSH0 DUP2 EQ PUSH2 0x23C7 JUMPI PUSH1 0x40 MLOAD SWAP2 POP PUSH1 0x1F NOT PUSH1 0x3F RETURNDATASIZE ADD AND DUP3 ADD PUSH1 0x40 MSTORE RETURNDATASIZE DUP3 MSTORE RETURNDATASIZE PUSH0 PUSH1 0x20 DUP5 ADD RETURNDATACOPY PUSH2 0x23CC JUMP JUMPDEST PUSH1 0x60 SWAP2 POP JUMPDEST POP POP PUSH1 0x8 SLOAD PUSH1 0x40 MLOAD SWAP2 SWAP4 POP PUSH1 0x1 PUSH1 0x1 PUSH1 0xA0 SHL SUB AND SWAP1 DUP3 SWAP1 PUSH0 DUP2 DUP2 DUP2 DUP6 DUP8 GAS CALL SWAP3 POP POP POP RETURNDATASIZE DUP1 PUSH0 DUP2 EQ PUSH2 0x2419 JUMPI PUSH1 0x40 MLOAD SWAP2 POP PUSH1 0x1F NOT PUSH1 0x3F RETURNDATASIZE ADD AND DUP3 ADD PUSH1 0x40 MSTORE RETURNDATASIZE DUP3 MSTORE RETURNDATASIZE PUSH0 PUSH1 0x20 DUP5 ADD RETURNDATACOPY PUSH2 0x241E JUMP JUMPDEST PUSH1 0x60 SWAP2 POP JUMPDEST POP POP POP POP POP JUMP JUMPDEST PUSH1 0x1 PUSH1 0x1 PUSH1 0xA0 SHL SUB DUP3 AND PUSH2 0x244E JUMPI PUSH1 0x40 MLOAD PUSH4 0xEC442F05 PUSH1 0xE0 SHL DUP2 MSTORE PUSH0 PUSH1 0x4 DUP3 ADD MSTORE PUSH1 0x24 ADD PUSH2 0x7B6 JUMP JUMPDEST PUSH2 0xA8D PUSH0 DUP4 DUP4 PUSH2 0x25D4 JUMP JUMPDEST PUSH2 0x2461 PUSH2 0x2762 JUMP JUMPDEST PUSH2 0xA8D DUP3 DUP3 PUSH2 0x27AB JUMP JUMPDEST PUSH2 0x2473 PUSH2 0x2762 JUMP JUMPDEST PUSH2 0xC2C DUP2 PUSH2 0x27FB JUMP JUMPDEST PUSH2 0xEF5 PUSH2 0x2762 JUMP JUMPDEST PUSH0 DUP1 MLOAD PUSH1 0x20 PUSH2 0x2F9C DUP4 CODECOPY DUP2 MLOAD SWAP2 MSTORE PUSH1 0x1 PUSH1 0x1 PUSH1 0xA0 SHL SUB DUP6 AND PUSH2 0x24BB JUMPI PUSH1 0x40 MLOAD PUSH4 0xE602DF05 PUSH1 0xE0 SHL DUP2 MSTORE PUSH0 PUSH1 0x4 DUP3 ADD MSTORE PUSH1 0x24 ADD PUSH2 0x7B6 JUMP JUMPDEST PUSH1 0x1 PUSH1 0x1 PUSH1 0xA0 SHL SUB DUP5 AND PUSH2 0x24E4 JUMPI PUSH1 0x40 MLOAD PUSH4 0x4A1406B1 PUSH1 0xE1 SHL DUP2 MSTORE PUSH0 PUSH1 0x4 DUP3 ADD MSTORE PUSH1 0x24 ADD PUSH2 0x7B6 JUMP JUMPDEST PUSH1 0x1 PUSH1 0x1 PUSH1 0xA0 SHL SUB DUP1 DUP7 AND PUSH0 SWAP1 DUP2 MSTORE PUSH1 0x1 DUP4 ADD PUSH1 0x20 SWAP1 DUP2 MSTORE PUSH1 0x40 DUP1 DUP4 KECCAK256 SWAP4 DUP9 AND DUP4 MSTORE SWAP3 SWAP1 MSTORE KECCAK256 DUP4 SWAP1 SSTORE DUP2 ISZERO PUSH2 0x241E JUMPI DUP4 PUSH1 0x1 PUSH1 0x1 PUSH1 0xA0 SHL SUB AND DUP6 PUSH1 0x1 PUSH1 0x1 PUSH1 0xA0 SHL SUB AND PUSH32 0x8C5BE1E5EBEC7D5BD14F71427D1E84F3DD0314C0F7B2291E5B200AC8C7C3B925 DUP6 PUSH1 0x40 MLOAD PUSH2 0x2558 SWAP2 DUP2 MSTORE PUSH1 0x20 ADD SWAP1 JUMP JUMPDEST PUSH1 0x40 MLOAD DUP1 SWAP2 SUB SWAP1 LOG3 POP POP POP POP POP JUMP JUMPDEST PUSH0 DUP2 DUP4 GT PUSH2 0x2575 JUMPI DUP3 PUSH2 0xAAF JUMP JUMPDEST POP SWAP2 SWAP1 POP JUMP JUMPDEST PUSH1 0x1 PUSH1 0x1 PUSH1 0xA0 SHL SUB DUP4 AND PUSH2 0x25A4 JUMPI PUSH1 0x40 MLOAD PUSH4 0x4B637E8F PUSH1 0xE1 SHL DUP2 MSTORE PUSH0 PUSH1 0x4 DUP3 ADD MSTORE PUSH1 0x24 ADD PUSH2 0x7B6 JUMP JUMPDEST PUSH1 0x1 PUSH1 0x1 PUSH1 0xA0 SHL SUB DUP3 AND PUSH2 0x25CD JUMPI PUSH1 0x40 MLOAD PUSH4 0xEC442F05 PUSH1 0xE0 SHL DUP2 MSTORE PUSH0 PUSH1 0x4 DUP3 ADD MSTORE PUSH1 0x24 ADD PUSH2 0x7B6 JUMP JUMPDEST PUSH2 0x182C DUP4 DUP4 DUP4 JUMPDEST PUSH0 DUP1 MLOAD PUSH1 0x20 PUSH2 0x2F9C DUP4 CODECOPY DUP2 MLOAD SWAP2 MSTORE PUSH1 0x1 PUSH1 0x1 PUSH1 0xA0 SHL SUB DUP5 AND PUSH2 0x260E JUMPI DUP2 DUP2 PUSH1 0x2 ADD PUSH0 DUP3 DUP3 SLOAD PUSH2 0x2603 SWAP2 SWAP1 PUSH2 0x2D9F JUMP JUMPDEST SWAP1 SWAP2 SSTORE POP PUSH2 0x267E SWAP1 POP JUMP JUMPDEST PUSH1 0x1 PUSH1 0x1 PUSH1 0xA0 SHL SUB DUP5 AND PUSH0 SWAP1 DUP2 MSTORE PUSH1 0x20 DUP3 SWAP1 MSTORE PUSH1 0x40 SWAP1 KECCAK256 SLOAD DUP3 DUP2 LT ISZERO PUSH2 0x2660 JUMPI PUSH1 0x40 MLOAD PUSH4 0x391434E3 PUSH1 0xE2 SHL DUP2 MSTORE PUSH1 0x1 PUSH1 0x1 PUSH1 0xA0 SHL SUB DUP7 AND PUSH1 0x4 DUP3 ADD MSTORE PUSH1 0x24 DUP2 ADD DUP3 SWAP1 MSTORE PUSH1 0x44 DUP2 ADD DUP5 SWAP1 MSTORE PUSH1 0x64 ADD PUSH2 0x7B6 JUMP JUMPDEST PUSH1 0x1 PUSH1 0x1 PUSH1 0xA0 SHL SUB DUP6 AND PUSH0 SWAP1 DUP2 MSTORE PUSH1 0x20 DUP4 SWAP1 MSTORE PUSH1 0x40 SWAP1 KECCAK256 SWAP1 DUP4 SWAP1 SUB SWAP1 SSTORE JUMPDEST PUSH1 0x1 PUSH1 0x1 PUSH1 0xA0 SHL SUB DUP4 AND PUSH2 0x269C JUMPI PUSH1 0x2 DUP2 ADD DUP1 SLOAD DUP4 SWAP1 SUB SWAP1 SSTORE PUSH2 0x26BA JUMP JUMPDEST PUSH1 0x1 PUSH1 0x1 PUSH1 0xA0 SHL SUB DUP4 AND PUSH0 SWAP1 DUP2 MSTORE PUSH1 0x20 DUP3 SWAP1 MSTORE PUSH1 0x40 SWAP1 KECCAK256 DUP1 SLOAD DUP4 ADD SWAP1 SSTORE JUMPDEST DUP3 PUSH1 0x1 PUSH1 0x1 PUSH1 0xA0 SHL SUB AND DUP5 PUSH1 0x1 PUSH1 0x1 PUSH1 0xA0 SHL SUB AND PUSH32 0xDDF252AD1BE2C89B69C2B068FC378DAA952BA7F163C4A11628F55A4DF523B3EF DUP5 PUSH1 0x40 MLOAD PUSH2 0x26FF SWAP2 DUP2 MSTORE PUSH1 0x20 ADD SWAP1 JUMP JUMPDEST PUSH1 0x40 MLOAD DUP1 SWAP2 SUB SWAP1 LOG3 POP POP POP POP JUMP JUMPDEST PUSH2 0x2716 DUP3 PUSH2 0x2803 JUMP JUMPDEST PUSH1 0x40 MLOAD PUSH1 0x1 PUSH1 0x1 PUSH1 0xA0 SHL SUB DUP4 AND SWAP1 PUSH32 0xBC7CD75A20EE27FD9ADEBAB32041F755214DBC6BFFA90CC0225B39DA2E5C2D3B SWAP1 PUSH0 SWAP1 LOG2 DUP1 MLOAD ISZERO PUSH2 0x275A JUMPI PUSH2 0x182C DUP3 DUP3 PUSH2 0x2866 JUMP JUMPDEST PUSH2 0xA8D PUSH2 0x28D8 JUMP JUMPDEST PUSH32 0xF0C57E16840DF040F15088DC2F81FE391C3923BEC73E23A9662EFC9C229C6A00 SLOAD PUSH1 0x1 PUSH1 0x40 SHL SWAP1 DIV PUSH1 0xFF AND PUSH2 0xEF5 JUMPI PUSH1 0x40 MLOAD PUSH4 0x1AFCD79F PUSH1 0xE3 SHL DUP2 MSTORE PUSH1 0x4 ADD PUSH1 0x40 MLOAD DUP1 SWAP2 SUB SWAP1 REVERT JUMPDEST PUSH2 0x27B3 PUSH2 0x2762 JUMP JUMPDEST PUSH0 DUP1 MLOAD PUSH1 0x20 PUSH2 0x2F9C DUP4 CODECOPY DUP2 MLOAD SWAP2 MSTORE PUSH32 0x52C63247E1F47DB19D5CE0460030C497F067CA4CEBF71BA98EEADABE20BACE03 PUSH2 0x27EC DUP5 DUP3 PUSH2 0x2EC4 JUMP JUMPDEST POP PUSH1 0x4 DUP2 ADD PUSH2 0x853 DUP4 DUP3 PUSH2 0x2EC4 JUMP JUMPDEST PUSH2 0x16D0 PUSH2 0x2762 JUMP JUMPDEST DUP1 PUSH1 0x1 PUSH1 0x1 PUSH1 0xA0 SHL SUB AND EXTCODESIZE PUSH0 SUB PUSH2 0x2838 JUMPI PUSH1 0x40 MLOAD PUSH4 0x4C9C8CE3 PUSH1 0xE0 SHL DUP2 MSTORE PUSH1 0x1 PUSH1 0x1 PUSH1 0xA0 SHL SUB DUP3 AND PUSH1 0x4 DUP3 ADD MSTORE PUSH1 0x24 ADD PUSH2 0x7B6 JUMP JUMPDEST PUSH0 DUP1 MLOAD PUSH1 0x20 PUSH2 0x2FDC DUP4 CODECOPY DUP2 MLOAD SWAP2 MSTORE DUP1 SLOAD PUSH1 0x1 PUSH1 0x1 PUSH1 0xA0 SHL SUB NOT AND PUSH1 0x1 PUSH1 0x1 PUSH1 0xA0 SHL SUB SWAP3 SWAP1 SWAP3 AND SWAP2 SWAP1 SWAP2 OR SWAP1 SSTORE JUMP JUMPDEST PUSH1 0x60 PUSH0 DUP1 DUP5 PUSH1 0x1 PUSH1 0x1 PUSH1 0xA0 SHL SUB AND DUP5 PUSH1 0x40 MLOAD PUSH2 0x2882 SWAP2 SWAP1 PUSH2 0x2F80 JUMP JUMPDEST PUSH0 PUSH1 0x40 MLOAD DUP1 DUP4 SUB DUP2 DUP6 GAS DELEGATECALL SWAP2 POP POP RETURNDATASIZE DUP1 PUSH0 DUP2 EQ PUSH2 0x28BA JUMPI PUSH1 0x40 MLOAD SWAP2 POP PUSH1 0x1F NOT PUSH1 0x3F RETURNDATASIZE ADD AND DUP3 ADD PUSH1 0x40 MSTORE RETURNDATASIZE DUP3 MSTORE RETURNDATASIZE PUSH0 PUSH1 0x20 DUP5 ADD RETURNDATACOPY PUSH2 0x28BF JUMP JUMPDEST PUSH1 0x60 SWAP2 POP JUMPDEST POP SWAP2 POP SWAP2 POP PUSH2 0x28CF DUP6 DUP4 DUP4 PUSH2 0x28F7 JUMP JUMPDEST SWAP6 SWAP5 POP POP POP POP POP JUMP JUMPDEST CALLVALUE ISZERO PUSH2 0xEF5 JUMPI PUSH1 0x40 MLOAD PUSH4 0xB398979F PUSH1 0xE0 SHL DUP2 MSTORE PUSH1 0x4 ADD PUSH1 0x40 MLOAD DUP1 SWAP2 SUB SWAP1 REVERT JUMPDEST PUSH1 0x60 DUP3 PUSH2 0x290C JUMPI PUSH2 0x2907 DUP3 PUSH2 0x2953 JUMP JUMPDEST PUSH2 0xAAF JUMP JUMPDEST DUP2 MLOAD ISZERO DUP1 ISZERO PUSH2 0x2923 JUMPI POP PUSH1 0x1 PUSH1 0x1 PUSH1 0xA0 SHL SUB DUP5 AND EXTCODESIZE ISZERO JUMPDEST ISZERO PUSH2 0x294C JUMPI PUSH1 0x40 MLOAD PUSH4 0x9996B315 PUSH1 0xE0 SHL DUP2 MSTORE PUSH1 0x1 PUSH1 0x1 PUSH1 0xA0 SHL SUB DUP6 AND PUSH1 0x4 DUP3 ADD MSTORE PUSH1 0x24 ADD PUSH2 0x7B6 JUMP JUMPDEST POP DUP1 PUSH2 0xAAF JUMP JUMPDEST DUP1 MLOAD ISZERO PUSH2 0x2963 JUMPI DUP1 MLOAD DUP1 DUP3 PUSH1 0x20 ADD REVERT JUMPDEST PUSH1 0x40 MLOAD PUSH4 0xA12F521 PUSH1 0xE1 SHL DUP2 MSTORE PUSH1 0x4 ADD PUSH1 0x40 MLOAD DUP1 SWAP2 SUB SWAP1 REVERT JUMPDEST PUSH0 DUP1 PUSH1 0x40 DUP4 DUP6 SUB SLT ISZERO PUSH2 0x298D JUMPI PUSH0 DUP1 REVERT JUMPDEST POP POP DUP1 CALLDATALOAD SWAP3 PUSH1 0x20 SWAP1 SWAP2 ADD CALLDATALOAD SWAP2 POP JUMP JUMPDEST PUSH0 JUMPDEST DUP4 DUP2 LT ISZERO PUSH2 0x29B6 JUMPI DUP2 DUP2 ADD MLOAD DUP4 DUP3 ADD MSTORE PUSH1 0x20 ADD PUSH2 0x299E JUMP JUMPDEST POP POP PUSH0 SWAP2 ADD MSTORE JUMP JUMPDEST PUSH1 0x20 DUP2 MSTORE PUSH0 DUP3 MLOAD DUP1 PUSH1 0x20 DUP5 ADD MSTORE PUSH2 0x29DC DUP2 PUSH1 0x40 DUP6 ADD PUSH1 0x20 DUP8 ADD PUSH2 0x299C JUMP JUMPDEST PUSH1 0x1F ADD PUSH1 0x1F NOT AND SWAP2 SWAP1 SWAP2 ADD PUSH1 0x40 ADD SWAP3 SWAP2 POP POP JUMP JUMPDEST PUSH1 0x1 PUSH1 0x1 PUSH1 0xA0 SHL SUB DUP2 AND DUP2 EQ PUSH2 0xC2C JUMPI PUSH0 DUP1 REVERT JUMPDEST PUSH0 DUP1 PUSH1 0x40 DUP4 DUP6 SUB SLT ISZERO PUSH2 0x2A15 JUMPI PUSH0 DUP1 REVERT JUMPDEST DUP3 CALLDATALOAD PUSH2 0x2A20 DUP2 PUSH2 0x29F0 JUMP JUMPDEST SWAP5 PUSH1 0x20 SWAP4 SWAP1 SWAP4 ADD CALLDATALOAD SWAP4 POP POP POP JUMP JUMPDEST DUP1 CALLDATALOAD DUP1 ISZERO ISZERO DUP2 EQ PUSH2 0x2A3D JUMPI PUSH0 DUP1 REVERT JUMPDEST SWAP2 SWAP1 POP JUMP JUMPDEST PUSH0 DUP1 PUSH0 PUSH1 0x40 DUP5 DUP7 SUB SLT ISZERO PUSH2 0x2A54 JUMPI PUSH0 DUP1 REVERT JUMPDEST DUP4 CALLDATALOAD PUSH8 0xFFFFFFFFFFFFFFFF DUP1 DUP3 GT ISZERO PUSH2 0x2A6B JUMPI PUSH0 DUP1 REVERT JUMPDEST DUP2 DUP7 ADD SWAP2 POP DUP7 PUSH1 0x1F DUP4 ADD SLT PUSH2 0x2A7E JUMPI PUSH0 DUP1 REVERT JUMPDEST DUP2 CALLDATALOAD DUP2 DUP2 GT ISZERO PUSH2 0x2A8C JUMPI PUSH0 DUP1 REVERT JUMPDEST DUP8 PUSH1 0x20 DUP3 PUSH1 0x5 SHL DUP6 ADD ADD GT ISZERO PUSH2 0x2AA0 JUMPI PUSH0 DUP1 REVERT JUMPDEST PUSH1 0x20 SWAP3 DUP4 ADD SWAP6 POP SWAP4 POP PUSH2 0x2AB6 SWAP2 DUP7 ADD SWAP1 POP PUSH2 0x2A2E JUMP JUMPDEST SWAP1 POP SWAP3 POP SWAP3 POP SWAP3 JUMP JUMPDEST PUSH0 DUP1 PUSH0 PUSH1 0x60 DUP5 DUP7 SUB SLT ISZERO PUSH2 0x2AD1 JUMPI PUSH0 DUP1 REVERT JUMPDEST DUP4 CALLDATALOAD PUSH2 0x2ADC DUP2 PUSH2 0x29F0 JUMP JUMPDEST SWAP3 POP PUSH1 0x20 DUP5 ADD CALLDATALOAD PUSH2 0x2AEC DUP2 PUSH2 0x29F0 JUMP JUMPDEST SWAP3 SWAP6 SWAP3 SWAP5 POP POP POP PUSH1 0x40 SWAP2 SWAP1 SWAP2 ADD CALLDATALOAD SWAP1 JUMP JUMPDEST PUSH0 DUP1 PUSH0 DUP1 PUSH0 DUP1 PUSH0 DUP1 PUSH2 0x100 DUP10 DUP12 SUB SLT ISZERO PUSH2 0x2B15 JUMPI PUSH0 DUP1 REVERT JUMPDEST DUP9 CALLDATALOAD PUSH2 0x2B20 DUP2 PUSH2 0x29F0 JUMP JUMPDEST SWAP8 POP PUSH1 0x20 DUP10 ADD CALLDATALOAD PUSH2 0x2B30 DUP2 PUSH2 0x29F0 JUMP JUMPDEST SWAP7 POP PUSH1 0x40 DUP10 ADD CALLDATALOAD PUSH2 0x2B40 DUP2 PUSH2 0x29F0 JUMP JUMPDEST SWAP6 POP PUSH1 0x60 DUP10 ADD CALLDATALOAD PUSH2 0x2B50 DUP2 PUSH2 0x29F0 JUMP JUMPDEST SWAP5 POP PUSH1 0x80 DUP10 ADD CALLDATALOAD PUSH2 0x2B60 DUP2 PUSH2 0x29F0 JUMP JUMPDEST SWAP4 POP PUSH1 0xA0 DUP10 ADD CALLDATALOAD PUSH2 0x2B70 DUP2 PUSH2 0x29F0 JUMP JUMPDEST SWAP3 POP PUSH1 0xC0 DUP10 ADD CALLDATALOAD PUSH2 0x2B80 DUP2 PUSH2 0x29F0 JUMP JUMPDEST SWAP2 POP PUSH1 0xE0 DUP10 ADD CALLDATALOAD PUSH2 0x2B90 DUP2 PUSH2 0x29F0 JUMP JUMPDEST DUP1 SWAP2 POP POP SWAP3 SWAP6 SWAP9 POP SWAP3 SWAP6 SWAP9 SWAP1 SWAP4 SWAP7 POP JUMP JUMPDEST PUSH0 DUP1 PUSH1 0x40 DUP4 DUP6 SUB SLT ISZERO PUSH2 0x2BB2 JUMPI PUSH0 DUP1 REVERT JUMPDEST DUP3 CALLDATALOAD PUSH2 0x2BBD DUP2 PUSH2 0x29F0 JUMP JUMPDEST SWAP2 POP PUSH2 0x2BCB PUSH1 0x20 DUP5 ADD PUSH2 0x2A2E JUMP JUMPDEST SWAP1 POP SWAP3 POP SWAP3 SWAP1 POP JUMP JUMPDEST PUSH0 PUSH1 0x20 DUP3 DUP5 SUB SLT ISZERO PUSH2 0x2BE4 JUMPI PUSH0 DUP1 REVERT JUMPDEST POP CALLDATALOAD SWAP2 SWAP1 POP JUMP JUMPDEST PUSH4 0x4E487B71 PUSH1 0xE0 SHL PUSH0 MSTORE PUSH1 0x41 PUSH1 0x4 MSTORE PUSH1 0x24 PUSH0 REVERT JUMPDEST PUSH0 DUP1 PUSH1 0x40 DUP4 DUP6 SUB SLT ISZERO PUSH2 0x2C10 JUMPI PUSH0 DUP1 REVERT JUMPDEST DUP3 CALLDATALOAD PUSH2 0x2C1B DUP2 PUSH2 0x29F0 JUMP JUMPDEST SWAP2 POP PUSH1 0x20 DUP4 ADD CALLDATALOAD PUSH8 0xFFFFFFFFFFFFFFFF DUP1 DUP3 GT ISZERO PUSH2 0x2C37 JUMPI PUSH0 DUP1 REVERT JUMPDEST DUP2 DUP6 ADD SWAP2 POP DUP6 PUSH1 0x1F DUP4 ADD SLT PUSH2 0x2C4A JUMPI PUSH0 DUP1 REVERT JUMPDEST DUP2 CALLDATALOAD DUP2 DUP2 GT ISZERO PUSH2 0x2C5C JUMPI PUSH2 0x2C5C PUSH2 0x2BEB JUMP JUMPDEST PUSH1 0x40 MLOAD PUSH1 0x1F DUP3 ADD PUSH1 0x1F NOT SWAP1 DUP2 AND PUSH1 0x3F ADD AND DUP2 ADD SWAP1 DUP4 DUP3 GT DUP2 DUP4 LT OR ISZERO PUSH2 0x2C84 JUMPI PUSH2 0x2C84 PUSH2 0x2BEB JUMP JUMPDEST DUP2 PUSH1 0x40 MSTORE DUP3 DUP2 MSTORE DUP9 PUSH1 0x20 DUP5 DUP8 ADD ADD GT ISZERO PUSH2 0x2C9C JUMPI PUSH0 DUP1 REVERT JUMPDEST DUP3 PUSH1 0x20 DUP7 ADD PUSH1 0x20 DUP4 ADD CALLDATACOPY PUSH0 PUSH1 0x20 DUP5 DUP4 ADD ADD MSTORE DUP1 SWAP6 POP POP POP POP POP POP SWAP3 POP SWAP3 SWAP1 POP JUMP JUMPDEST PUSH0 PUSH1 0x20 DUP3 DUP5 SUB SLT ISZERO PUSH2 0x2CCD JUMPI PUSH0 DUP1 REVERT JUMPDEST DUP2 CALLDATALOAD PUSH2 0xAAF DUP2 PUSH2 0x29F0 JUMP JUMPDEST PUSH0 DUP1 PUSH1 0x40 DUP4 DUP6 SUB SLT ISZERO PUSH2 0x2CE9 JUMPI PUSH0 DUP1 REVERT JUMPDEST DUP3 CALLDATALOAD PUSH2 0x2CF4 DUP2 PUSH2 0x29F0 JUMP JUMPDEST SWAP2 POP PUSH1 0x20 DUP4 ADD CALLDATALOAD PUSH2 0x2D04 DUP2 PUSH2 0x29F0 JUMP JUMPDEST DUP1 SWAP2 POP POP SWAP3 POP SWAP3 SWAP1 POP JUMP JUMPDEST PUSH4 0x4E487B71 PUSH1 0xE0 SHL PUSH0 MSTORE PUSH1 0x11 PUSH1 0x4 MSTORE PUSH1 0x24 PUSH0 REVERT JUMPDEST DUP1 DUP3 MUL DUP2 ISZERO DUP3 DUP3 DIV DUP5 EQ OR PUSH2 0x7E1 JUMPI PUSH2 0x7E1 PUSH2 0x2D0F JUMP JUMPDEST PUSH0 DUP3 PUSH2 0x2D54 JUMPI PUSH4 0x4E487B71 PUSH1 0xE0 SHL PUSH0 MSTORE PUSH1 0x12 PUSH1 0x4 MSTORE PUSH1 0x24 PUSH0 REVERT JUMPDEST POP DIV SWAP1 JUMP JUMPDEST PUSH1 0x1 DUP2 DUP2 SHR SWAP1 DUP3 AND DUP1 PUSH2 0x2D6D JUMPI PUSH1 0x7F DUP3 AND SWAP2 POP JUMPDEST PUSH1 0x20 DUP3 LT DUP2 SUB PUSH2 0x2575 JUMPI PUSH4 0x4E487B71 PUSH1 0xE0 SHL PUSH0 MSTORE PUSH1 0x22 PUSH1 0x4 MSTORE PUSH1 0x24 PUSH0 REVERT JUMPDEST PUSH4 0x4E487B71 PUSH1 0xE0 SHL PUSH0 MSTORE PUSH1 0x32 PUSH1 0x4 MSTORE PUSH1 0x24 PUSH0 REVERT JUMPDEST DUP1 DUP3 ADD DUP1 DUP3 GT ISZERO PUSH2 0x7E1 JUMPI PUSH2 0x7E1 PUSH2 0x2D0F JUMP JUMPDEST PUSH0 PUSH1 0x20 DUP3 DUP5 SUB SLT ISZERO PUSH2 0x2DC2 JUMPI PUSH0 DUP1 REVERT JUMPDEST DUP2 MLOAD PUSH2 0xAAF DUP2 PUSH2 0x29F0 JUMP JUMPDEST PUSH0 PUSH1 0x1 DUP3 ADD PUSH2 0x2DDE JUMPI PUSH2 0x2DDE PUSH2 0x2D0F JUMP JUMPDEST POP PUSH1 0x1 ADD SWAP1 JUMP JUMPDEST DUP2 DUP2 SUB DUP2 DUP2 GT ISZERO PUSH2 0x7E1 JUMPI PUSH2 0x7E1 PUSH2 0x2D0F JUMP JUMPDEST PUSH0 PUSH1 0x20 DUP3 DUP5 SUB SLT ISZERO PUSH2 0x2E08 JUMPI PUSH0 DUP1 REVERT JUMPDEST POP MLOAD SWAP2 SWAP1 POP JUMP JUMPDEST PUSH0 PUSH1 0xA0 DUP3 ADD DUP8 DUP4 MSTORE PUSH1 0x20 DUP8 PUSH1 0x20 DUP6 ADD MSTORE PUSH1 0xA0 PUSH1 0x40 DUP6 ADD MSTORE DUP2 DUP8 MLOAD DUP1 DUP5 MSTORE PUSH1 0xC0 DUP7 ADD SWAP2 POP PUSH1 0x20 DUP10 ADD SWAP4 POP PUSH0 JUMPDEST DUP2 DUP2 LT ISZERO PUSH2 0x2E5F JUMPI DUP5 MLOAD PUSH1 0x1 PUSH1 0x1 PUSH1 0xA0 SHL SUB AND DUP4 MSTORE SWAP4 DUP4 ADD SWAP4 SWAP2 DUP4 ADD SWAP2 PUSH1 0x1 ADD PUSH2 0x2E3A JUMP JUMPDEST POP POP PUSH1 0x1 PUSH1 0x1 PUSH1 0xA0 SHL SUB SWAP7 SWAP1 SWAP7 AND PUSH1 0x60 DUP6 ADD MSTORE POP POP POP PUSH1 0x80 ADD MSTORE SWAP4 SWAP3 POP POP POP JUMP JUMPDEST PUSH1 0x1F DUP3 GT ISZERO PUSH2 0x182C JUMPI DUP1 PUSH0 MSTORE PUSH1 0x20 PUSH0 KECCAK256 PUSH1 0x1F DUP5 ADD PUSH1 0x5 SHR DUP2 ADD PUSH1 0x20 DUP6 LT ISZERO PUSH2 0x2EA5 JUMPI POP DUP1 JUMPDEST PUSH1 0x1F DUP5 ADD PUSH1 0x5 SHR DUP3 ADD SWAP2 POP JUMPDEST DUP2 DUP2 LT ISZERO PUSH2 0x241E JUMPI PUSH0 DUP2 SSTORE PUSH1 0x1 ADD PUSH2 0x2EB1 JUMP JUMPDEST DUP2 MLOAD PUSH8 0xFFFFFFFFFFFFFFFF DUP2 GT ISZERO PUSH2 0x2EDE JUMPI PUSH2 0x2EDE PUSH2 0x2BEB JUMP JUMPDEST PUSH2 0x2EF2 DUP2 PUSH2 0x2EEC DUP5 SLOAD PUSH2 0x2D59 JUMP JUMPDEST DUP5 PUSH2 0x2E80 JUMP JUMPDEST PUSH1 0x20 DUP1 PUSH1 0x1F DUP4 GT PUSH1 0x1 DUP2 EQ PUSH2 0x2F25 JUMPI PUSH0 DUP5 ISZERO PUSH2 0x2F0E JUMPI POP DUP6 DUP4 ADD MLOAD JUMPDEST PUSH0 NOT PUSH1 0x3 DUP7 SWAP1 SHL SHR NOT AND PUSH1 0x1 DUP6 SWAP1 SHL OR DUP6 SSTORE PUSH2 0x15A4 JUMP JUMPDEST PUSH0 DUP6 DUP2 MSTORE PUSH1 0x20 DUP2 KECCAK256 PUSH1 0x1F NOT DUP7 AND SWAP2 JUMPDEST DUP3 DUP2 LT ISZERO PUSH2 0x2F53 JUMPI DUP9 DUP7 ADD MLOAD DUP3 SSTORE SWAP5 DUP5 ADD SWAP5 PUSH1 0x1 SWAP1 SWAP2 ADD SWAP1 DUP5 ADD PUSH2 0x2F34 JUMP JUMPDEST POP DUP6 DUP3 LT ISZERO PUSH2 0x2F70 JUMPI DUP8 DUP6 ADD MLOAD PUSH0 NOT PUSH1 0x3 DUP9 SWAP1 SHL PUSH1 0xF8 AND SHR NOT AND DUP2 SSTORE JUMPDEST POP POP POP POP POP PUSH1 0x1 SWAP1 DUP2 SHL ADD SWAP1 SSTORE POP JUMP JUMPDEST PUSH0 DUP3 MLOAD PUSH2 0x2F91 DUP2 DUP5 PUSH1 0x20 DUP8 ADD PUSH2 0x299C JUMP JUMPDEST SWAP2 SWAP1 SWAP2 ADD SWAP3 SWAP2 POP POP JUMP INVALID MSTORE 0xC6 ORIGIN SELFBALANCE 0xE1 DELEGATECALL PUSH30 0xB19D5CE0460030C497F067CA4CEBF71BA98EEADABE20BACE0052C63247E1 DELEGATECALL PUSH30 0xB19D5CE0460030C497F067CA4CEBF71BA98EEADABE20BACE02360894A13B LOG1 LOG3 0x21 MOD PUSH8 0xC828492DB98DCA3E KECCAK256 PUSH23 0xCC3735A920A3CA505D382BBCA26469706673582212209F 0xD4 RETURN PUSH3 0xF3AB85 0xED PUSH0 DUP1 MULMOD 0x4F PUSH30 0xA9F337EFF7D7676E834759412712B6913122D464736F6C63430008180033 "
				},
				"gasEstimates": {
					"creation": {
						"codeDepositCost": "2467400",
						"executionCost": "infinite",
						"totalCost": "infinite"
					},
					"external": {
						"UPGRADE_INTERFACE_VERSION()": "infinite",
						"addAddress(address[],bool)": "infinite",
						"allowance(address,address)": "infinite",
						"approve(address,uint256)": "infinite",
						"balanceOf(address)": "infinite",
						"burn(uint256)": "infinite",
						"changeTokenCap(uint256)": "24642",
						"decimals()": "266",
						"exemptFee(address,bool)": "28336",
						"initialize(address)": "infinite",
						"mint(uint256)": "infinite",
						"name()": "infinite",
						"open()": "144487",
						"owner()": "2457",
						"proxiableUUID()": "infinite",
						"removeETH()": "infinite",
						"renounceOwnership()": "infinite",
						"rmvLimits()": "infinite",
						"setMode()": "28807",
						"setSwapback(uint256,uint256)": "infinite",
						"setTax(uint256,uint256)": "48182",
						"setTx(uint256)": "infinite",
						"setWalletLimit(uint256)": "infinite",
						"setWallets(address,address,address,address,address,address,address,address)": "infinite",
						"symbol()": "infinite",
						"tokenCap()": "2338",
						"totalSupply()": "infinite",
						"transfer(address,uint256)": "infinite",
						"transferFrom(address,address,uint256)": "infinite",
						"transferOwnership(address)": "infinite",
						"triggerSwap()": "infinite",
						"upgradeToAndCall(address,bytes)": "infinite",
						"viewInfo()": "12957"
					},
					"internal": {
						"_authorizeUpgrade(address)": "infinite",
						"_transfer(address,address,uint256)": "infinite",
						"isContract(address)": "infinite",
						"min(uint256,uint256)": "60",
						"sendETHToFee()": "infinite",
						"swapTokensForEth(uint256)": "infinite"
					}
				},
				"methodIdentifiers": {
					"UPGRADE_INTERFACE_VERSION()": "ad3cb1cc",
					"addAddress(address[],bool)": "1c537de5",
					"allowance(address,address)": "dd62ed3e",
					"approve(address,uint256)": "095ea7b3",
					"balanceOf(address)": "70a08231",
					"burn(uint256)": "42966c68",
					"changeTokenCap(uint256)": "da7fe652",
					"decimals()": "313ce567",
					"exemptFee(address,bool)": "2dc4f5e6",
					"initialize(address)": "c4d66de8",
					"mint(uint256)": "a0712d68",
					"name()": "06fdde03",
					"open()": "fcfff16f",
					"owner()": "8da5cb5b",
					"proxiableUUID()": "52d1902d",
					"removeETH()": "217b6da6",
					"renounceOwnership()": "715018a6",
					"rmvLimits()": "6ed6a48d",
					"setMode()": "08ade0c9",
					"setSwapback(uint256,uint256)": "0313fc4b",
					"setTax(uint256,uint256)": "667f6526",
					"setTx(uint256)": "620cc86c",
					"setWalletLimit(uint256)": "f1d5f517",
					"setWallets(address,address,address,address,address,address,address,address)": "23bc25ed",
					"symbol()": "95d89b41",
					"tokenCap()": "dd54291b",
					"totalSupply()": "18160ddd",
					"transfer(address,uint256)": "a9059cbb",
					"transferFrom(address,address,uint256)": "23b872dd",
					"transferOwnership(address)": "f2fde38b",
					"triggerSwap()": "8f937cc4",
					"upgradeToAndCall(address,bytes)": "4f1ef286",
					"viewInfo()": "ae601480"
				}
			},
			"storageLayout": {
				"storage": [
					{
						"astId": 2349,
						"contract": "ERC1967.sol:MyToken",
						"label": "_isExcludedFromFee",
						"offset": 0,
						"slot": "0",
						"type": "t_mapping(t_address,t_bool)"
					},
					{
						"astId": 2351,
						"contract": "ERC1967.sol:MyToken",
						"label": "_taxWallet1",
						"offset": 0,
						"slot": "1",
						"type": "t_address_payable"
					},
					{
						"astId": 2353,
						"contract": "ERC1967.sol:MyToken",
						"label": "_taxWallet2",
						"offset": 0,
						"slot": "2",
						"type": "t_address_payable"
					},
					{
						"astId": 2355,
						"contract": "ERC1967.sol:MyToken",
						"label": "_taxWallet3",
						"offset": 0,
						"slot": "3",
						"type": "t_address_payable"
					},
					{
						"astId": 2357,
						"contract": "ERC1967.sol:MyToken",
						"label": "_taxWallet4",
						"offset": 0,
						"slot": "4",
						"type": "t_address_payable"
					},
					{
						"astId": 2359,
						"contract": "ERC1967.sol:MyToken",
						"label": "_taxWallet5",
						"offset": 0,
						"slot": "5",
						"type": "t_address_payable"
					},
					{
						"astId": 2361,
						"contract": "ERC1967.sol:MyToken",
						"label": "_taxWallet6",
						"offset": 0,
						"slot": "6",
						"type": "t_address_payable"
					},
					{
						"astId": 2363,
						"contract": "ERC1967.sol:MyToken",
						"label": "_taxWallet7",
						"offset": 0,
						"slot": "7",
						"type": "t_address_payable"
					},
					{
						"astId": 2365,
						"contract": "ERC1967.sol:MyToken",
						"label": "_taxWallet8",
						"offset": 0,
						"slot": "8",
						"type": "t_address_payable"
					},
					{
						"astId": 2367,
						"contract": "ERC1967.sol:MyToken",
						"label": "firstBlock",
						"offset": 0,
						"slot": "9",
						"type": "t_uint256"
					},
					{
						"astId": 2369,
						"contract": "ERC1967.sol:MyToken",
						"label": "lastLiquifyTime",
						"offset": 0,
						"slot": "10",
						"type": "t_uint64"
					},
					{
						"astId": 2371,
						"contract": "ERC1967.sol:MyToken",
						"label": "buyFee",
						"offset": 0,
						"slot": "11",
						"type": "t_uint256"
					},
					{
						"astId": 2373,
						"contract": "ERC1967.sol:MyToken",
						"label": "sellFee",
						"offset": 0,
						"slot": "12",
						"type": "t_uint256"
					},
					{
						"astId": 2375,
						"contract": "ERC1967.sol:MyToken",
						"label": "_preventSwapBefore",
						"offset": 0,
						"slot": "13",
						"type": "t_uint256"
					},
					{
						"astId": 2377,
						"contract": "ERC1967.sol:MyToken",
						"label": "_buyCount",
						"offset": 0,
						"slot": "14",
						"type": "t_uint256"
					},
					{
						"astId": 2379,
						"contract": "ERC1967.sol:MyToken",
						"label": "_txAmountLimit",
						"offset": 0,
						"slot": "15",
						"type": "t_uint256"
					},
					{
						"astId": 2381,
						"contract": "ERC1967.sol:MyToken",
						"label": "_walletAmountLimit",
						"offset": 0,
						"slot": "16",
						"type": "t_uint256"
					},
					{
						"astId": 2383,
						"contract": "ERC1967.sol:MyToken",
						"label": "_swapbackMin",
						"offset": 0,
						"slot": "17",
						"type": "t_uint256"
					},
					{
						"astId": 2385,
						"contract": "ERC1967.sol:MyToken",
						"label": "_swapbackMax",
						"offset": 0,
						"slot": "18",
						"type": "t_uint256"
					},
					{
						"astId": 2388,
						"contract": "ERC1967.sol:MyToken",
						"label": "uniswapV2Router",
						"offset": 0,
						"slot": "19",
						"type": "t_contract(IDexRouter)2337"
					},
					{
						"astId": 2390,
						"contract": "ERC1967.sol:MyToken",
						"label": "uniswapV2Pair",
						"offset": 0,
						"slot": "20",
						"type": "t_address"
					},
					{
						"astId": 2392,
						"contract": "ERC1967.sol:MyToken",
						"label": "tradingOpen",
						"offset": 20,
						"slot": "20",
						"type": "t_bool"
					},
					{
						"astId": 2395,
						"contract": "ERC1967.sol:MyToken",
						"label": "inSwap",
						"offset": 21,
						"slot": "20",
						"type": "t_bool"
					},
					{
						"astId": 2398,
						"contract": "ERC1967.sol:MyToken",
						"label": "swapEnabled",
						"offset": 22,
						"slot": "20",
						"type": "t_bool"
					},
					{
						"astId": 2401,
						"contract": "ERC1967.sol:MyToken",
						"label": "launchmode",
						"offset": 23,
						"slot": "20",
						"type": "t_bool"
					},
					{
						"astId": 2403,
						"contract": "ERC1967.sol:MyToken",
						"label": "tokenCap",
						"offset": 0,
						"slot": "21",
						"type": "t_uint256"
					},
					{
						"astId": 2407,
						"contract": "ERC1967.sol:MyToken",
						"label": "_canTx",
						"offset": 0,
						"slot": "22",
						"type": "t_mapping(t_address,t_bool)"
					},
					{
						"astId": 2457,
						"contract": "ERC1967.sol:MyToken",
						"label": "_totalSupply",
						"offset": 0,
						"slot": "23",
						"type": "t_uint256"
					}
				],
				"types": {
					"t_address": {
						"encoding": "inplace",
						"label": "address",
						"numberOfBytes": "20"
					},
					"t_address_payable": {
						"encoding": "inplace",
						"label": "address payable",
						"numberOfBytes": "20"
					},
					"t_bool": {
						"encoding": "inplace",
						"label": "bool",
						"numberOfBytes": "1"
					},
					"t_contract(IDexRouter)2337": {
						"encoding": "inplace",
						"label": "contract IDexRouter",
						"numberOfBytes": "20"
					},
					"t_mapping(t_address,t_bool)": {
						"encoding": "mapping",
						"key": "t_address",
						"label": "mapping(address => bool)",
						"numberOfBytes": "32",
						"value": "t_bool"
					},
					"t_uint256": {
						"encoding": "inplace",
						"label": "uint256",
						"numberOfBytes": "32"
					},
					"t_uint64": {
						"encoding": "inplace",
						"label": "uint64",
						"numberOfBytes": "8"
					}
				}
			},
			"userdoc": {
				"kind": "user",
				"methods": {},
				"version": 1
			}
		}
	}
}